{"contracts/MutoPool.sol":{"MutoPool":{"abi":[{"anonymous":false,"inputs":[{"indexed":false,"internalType":"uint8","name":"version","type":"uint8"}],"name":"Initialized","type":"event"},{"anonymous":false,"inputs":[{"indexed":true,"internalType":"uint64","name":"poolId","type":"uint64"},{"indexed":true,"internalType":"uint256","name":"userId","type":"uint256"},{"indexed":true,"internalType":"address","name":"poolOwner","type":"address"},{"indexed":false,"internalType":"string","name":"formHash","type":"string"},{"indexed":false,"internalType":"contract IERC20Upgradeable","name":"poolingToken","type":"address"},{"indexed":false,"internalType":"contract IERC20Upgradeable","name":"biddingToken","type":"address"},{"indexed":false,"internalType":"uint40","name":"orderCancellationEndDate","type":"uint40"},{"indexed":false,"internalType":"uint40","name":"poolStartDate","type":"uint40"},{"indexed":false,"internalType":"uint40","name":"poolEndDate","type":"uint40"},{"indexed":false,"internalType":"uint96","name":"pooledSellAmount","type":"uint96"},{"indexed":false,"internalType":"uint96","name":"minBuyAmount","type":"uint96"}],"name":"NewPoolE1","type":"event"},{"anonymous":false,"inputs":[{"indexed":true,"internalType":"uint64","name":"poolId","type":"uint64"},{"indexed":false,"internalType":"bytes32","name":"initialPoolOrder","type":"bytes32"},{"indexed":false,"internalType":"uint256","name":"interimsumBidAmount","type":"uint256"},{"indexed":false,"internalType":"bytes32","name":"interimOrder","type":"bytes32"},{"indexed":false,"internalType":"bytes32","name":"clearingPriceOrder","type":"bytes32"},{"indexed":false,"internalType":"uint96","name":"volumeClearingOrder","type":"uint96"},{"indexed":false,"internalType":"uint256","name":"minimumBiddingAmountPerOrder","type":"uint256"},{"indexed":false,"internalType":"uint256","name":"minFundingThreshold","type":"uint256"},{"indexed":false,"internalType":"bool","name":"isAtomicClosureAllowed","type":"bool"},{"indexed":false,"internalType":"uint256","name":"feeNumerator","type":"uint256"}],"name":"NewPoolE2","type":"event"},{"anonymous":false,"inputs":[{"indexed":true,"internalType":"uint64","name":"poolId","type":"uint64"},{"indexed":true,"internalType":"uint64","name":"userId","type":"uint64"},{"indexed":false,"internalType":"uint96","name":"buyAmount","type":"uint96"},{"indexed":false,"internalType":"uint96","name":"sellAmount","type":"uint96"},{"indexed":false,"internalType":"bytes32","name":"sellOrder","type":"bytes32"}],"name":"NewSellOrderPlaced","type":"event"},{"anonymous":false,"inputs":[{"indexed":true,"internalType":"uint64","name":"userId","type":"uint64"},{"indexed":true,"internalType":"address","name":"userAddress","type":"address"}],"name":"NewUser","type":"event"},{"anonymous":false,"inputs":[{"indexed":true,"internalType":"uint64","name":"poolId","type":"uint64"},{"indexed":true,"internalType":"uint64","name":"userId","type":"uint64"},{"indexed":false,"internalType":"uint96","name":"buyAmount","type":"uint96"},{"indexed":false,"internalType":"uint96","name":"sellAmount","type":"uint96"}],"name":"OrderClaimedByUser","type":"event"},{"anonymous":false,"inputs":[{"indexed":true,"internalType":"uint64","name":"poolId","type":"uint64"},{"indexed":true,"internalType":"uint64","name":"userId","type":"uint64"},{"indexed":false,"internalType":"uint96","name":"buyAmount","type":"uint96"},{"indexed":false,"internalType":"uint96","name":"sellAmount","type":"uint96"},{"indexed":false,"internalType":"bytes32","name":"sellOrder","type":"bytes32"}],"name":"OrderRefunded","type":"event"},{"anonymous":false,"inputs":[{"indexed":true,"internalType":"address","name":"previousOwner","type":"address"},{"indexed":true,"internalType":"address","name":"newOwner","type":"address"}],"name":"OwnershipTransferred","type":"event"},{"anonymous":false,"inputs":[{"indexed":true,"internalType":"uint64","name":"poolId","type":"uint64"},{"indexed":false,"internalType":"uint96","name":"soldPoolingTokens","type":"uint96"},{"indexed":false,"internalType":"uint96","name":"soldBiddingTokens","type":"uint96"},{"indexed":false,"internalType":"bytes32","name":"clearingPriceOrder","type":"bytes32"}],"name":"PoolCleared","type":"event"},{"anonymous":false,"inputs":[{"indexed":true,"internalType":"uint64","name":"poolId","type":"uint64"},{"indexed":false,"internalType":"uint256","name":"poolStartDate","type":"uint256"},{"indexed":false,"internalType":"uint256","name":"poolEndDate","type":"uint256"},{"indexed":false,"internalType":"uint256","name":"orderCancellationEndDate","type":"uint256"},{"indexed":false,"internalType":"uint256","name":"minimumBiddingAmountPerOrder","type":"uint256"},{"indexed":false,"internalType":"uint256","name":"minFundingThreshold","type":"uint256"}],"name":"PoolEdittedByAdmin","type":"event"},{"anonymous":false,"inputs":[{"indexed":true,"internalType":"uint64","name":"poolId","type":"uint64"},{"indexed":false,"internalType":"string","name":"formHash","type":"string"}],"name":"PoolEdittedByUser","type":"event"},{"anonymous":false,"inputs":[{"indexed":true,"internalType":"uint64","name":"poolId","type":"uint64"},{"indexed":true,"internalType":"uint64","name":"userId","type":"uint64"},{"indexed":false,"internalType":"uint96","name":"buyAmount","type":"uint96"},{"indexed":false,"internalType":"uint96","name":"sellAmount","type":"uint96"},{"indexed":false,"internalType":"bytes32","name":"sellOrder","type":"bytes32"}],"name":"SellOrderCancelled","type":"event"},{"anonymous":false,"inputs":[{"indexed":true,"internalType":"address","name":"user","type":"address"},{"indexed":false,"internalType":"uint64","name":"userId","type":"uint64"}],"name":"UserRegistration","type":"event"},{"anonymous":false,"inputs":[{"indexed":true,"internalType":"uint64","name":"poolId","type":"uint64"},{"indexed":false,"internalType":"bytes32","name":"merkleRoot","type":"bytes32"}],"name":"WhiteListPoolMerkle","type":"event"},{"inputs":[],"name":"FEE_DENOMINATOR","outputs":[{"internalType":"uint256","name":"","type":"uint256"}],"stateMutability":"view","type":"function"},{"inputs":[{"internalType":"uint64","name":"poolId","type":"uint64"},{"internalType":"bytes32[]","name":"_sellOrders","type":"bytes32[]"}],"name":"cancelSellOrders","outputs":[],"stateMutability":"nonpayable","type":"function"},{"inputs":[{"internalType":"address","name":"userAddress","type":"address"}],"name":"checkUserId","outputs":[{"internalType":"uint64","name":"","type":"uint64"}],"stateMutability":"view","type":"function"},{"inputs":[{"internalType":"uint64","name":"poolId","type":"uint64"},{"internalType":"bytes32[]","name":"orders","type":"bytes32[]"}],"name":"claimFromParticipantOrder","outputs":[{"internalType":"uint256","name":"sumPoolingTokenAmount","type":"uint256"},{"internalType":"uint256","name":"sumBiddingTokenAmount","type":"uint256"}],"stateMutability":"nonpayable","type":"function"},{"inputs":[{"internalType":"uint64","name":"poolId","type":"uint64"},{"internalType":"bytes32","name":"order","type":"bytes32"}],"name":"containsOrder","outputs":[{"internalType":"bool","name":"","type":"bool"}],"stateMutability":"view","type":"function"},{"inputs":[{"internalType":"uint64","name":"poolId","type":"uint64"}],"name":"deletPool","outputs":[],"stateMutability":"nonpayable","type":"function"},{"inputs":[],"name":"feeNumerator","outputs":[{"internalType":"uint256","name":"","type":"uint256"}],"stateMutability":"view","type":"function"},{"inputs":[],"name":"feeReceiverUserId","outputs":[{"internalType":"uint64","name":"","type":"uint64"}],"stateMutability":"view","type":"function"},{"inputs":[{"internalType":"uint256","name":"_poolId","type":"uint256"}],"name":"getCurrentPoolPrice","outputs":[{"internalType":"uint96","name":"buyAmount","type":"uint96"},{"internalType":"uint96","name":"sellAmount","type":"uint96"}],"stateMutability":"view","type":"function"},{"inputs":[{"internalType":"uint64","name":"userId","type":"uint64"},{"internalType":"uint96","name":"buyAmount","type":"uint96"},{"internalType":"uint96","name":"sellAmount","type":"uint96"}],"name":"getEncodedOrder","outputs":[{"internalType":"bytes32","name":"","type":"bytes32"}],"stateMutability":"pure","type":"function"},{"inputs":[{"internalType":"uint64","name":"poolId","type":"uint64"}],"name":"getFormHash","outputs":[{"internalType":"string","name":"","type":"string"}],"stateMutability":"view","type":"function"},{"inputs":[{"internalType":"uint64","name":"poolId","type":"uint64"}],"name":"getSecondsRemainingInBatch","outputs":[{"internalType":"uint256","name":"","type":"uint256"}],"stateMutability":"view","type":"function"},{"inputs":[{"internalType":"address","name":"user","type":"address"}],"name":"getUserId","outputs":[{"internalType":"uint64","name":"userId","type":"uint64"}],"stateMutability":"nonpayable","type":"function"},{"inputs":[],"name":"initialize","outputs":[],"stateMutability":"nonpayable","type":"function"},{"inputs":[{"components":[{"internalType":"string","name":"formHash","type":"string"},{"internalType":"contract IERC20Upgradeable","name":"poolingToken","type":"address"},{"internalType":"contract IERC20Upgradeable","name":"biddingToken","type":"address"},{"internalType":"uint40","name":"orderCancellationEndDate","type":"uint40"},{"internalType":"uint40","name":"poolStartDate","type":"uint40"},{"internalType":"uint40","name":"poolEndDate","type":"uint40"},{"internalType":"uint96","name":"pooledSellAmount","type":"uint96"},{"internalType":"uint96","name":"minBuyAmount","type":"uint96"},{"internalType":"uint256","name":"minimumBiddingAmountPerOrder","type":"uint256"},{"internalType":"uint256","name":"minFundingThreshold","type":"uint256"},{"internalType":"bool","name":"isAtomicClosureAllowed","type":"bool"},{"components":[{"internalType":"uint256","name":"tokenADecimal","type":"uint256"},{"internalType":"uint256","name":"tokenBDecimal","type":"uint256"}],"internalType":"struct Decimals","name":"tokenDecimals","type":"tuple"}],"internalType":"struct InitialPoolData","name":"_initData","type":"tuple"}],"name":"initiatePool","outputs":[{"internalType":"uint256","name":"","type":"uint256"}],"stateMutability":"nonpayable","type":"function"},{"inputs":[{"internalType":"uint64","name":"poolId","type":"uint64"}],"name":"markCancel","outputs":[],"stateMutability":"nonpayable","type":"function"},{"inputs":[{"internalType":"uint64","name":"poolId","type":"uint64"}],"name":"markSpam","outputs":[],"stateMutability":"nonpayable","type":"function"},{"inputs":[],"name":"numUsers","outputs":[{"internalType":"uint64","name":"","type":"uint64"}],"stateMutability":"view","type":"function"},{"inputs":[],"name":"owner","outputs":[{"internalType":"address","name":"","type":"address"}],"stateMutability":"view","type":"function"},{"inputs":[{"internalType":"uint64","name":"poolId","type":"uint64"},{"internalType":"bytes32[]","name":"_merkleProof","type":"bytes32[]"},{"internalType":"uint96[]","name":"_minBuyAmounts","type":"uint96[]"},{"internalType":"uint96[]","name":"_sellAmounts","type":"uint96[]"},{"internalType":"bytes32[]","name":"_prevSellOrders","type":"bytes32[]"}],"name":"placeSellOrders","outputs":[{"internalType":"uint64","name":"userId","type":"uint64"}],"stateMutability":"nonpayable","type":"function"},{"inputs":[{"internalType":"uint64","name":"poolId","type":"uint64"},{"internalType":"uint96[]","name":"_minBuyAmounts","type":"uint96[]"},{"internalType":"uint96[]","name":"_sellAmounts","type":"uint96[]"},{"internalType":"bytes32[]","name":"_prevSellOrders","type":"bytes32[]"},{"internalType":"address","name":"orderSubmitter","type":"address"}],"name":"placeSellOrdersOnBehalf","outputs":[{"internalType":"uint64","name":"userId","type":"uint64"}],"stateMutability":"nonpayable","type":"function"},{"inputs":[],"name":"poolCounter","outputs":[{"internalType":"uint64","name":"","type":"uint64"}],"stateMutability":"view","type":"function"},{"inputs":[{"internalType":"uint64","name":"","type":"uint64"}],"name":"poolData","outputs":[{"components":[{"internalType":"string","name":"formHash","type":"string"},{"internalType":"contract IERC20Upgradeable","name":"poolingToken","type":"address"},{"internalType":"contract IERC20Upgradeable","name":"biddingToken","type":"address"},{"internalType":"uint40","name":"orderCancellationEndDate","type":"uint40"},{"internalType":"uint40","name":"poolStartDate","type":"uint40"},{"internalType":"uint40","name":"poolEndDate","type":"uint40"},{"internalType":"uint96","name":"pooledSellAmount","type":"uint96"},{"internalType":"uint96","name":"minBuyAmount","type":"uint96"},{"internalType":"uint256","name":"minimumBiddingAmountPerOrder","type":"uint256"},{"internalType":"uint256","name":"minFundingThreshold","type":"uint256"},{"internalType":"bool","name":"isAtomicClosureAllowed","type":"bool"},{"components":[{"internalType":"uint256","name":"tokenADecimal","type":"uint256"},{"internalType":"uint256","name":"tokenBDecimal","type":"uint256"}],"internalType":"struct Decimals","name":"tokenDecimals","type":"tuple"}],"internalType":"struct InitialPoolData","name":"initData","type":"tuple"},{"components":[{"internalType":"bool","name":"isScam","type":"bool"},{"internalType":"bool","name":"isDeleted","type":"bool"},{"internalType":"bool","name":"isCancelled","type":"bool"},{"internalType":"bool","name":"minFundingThresholdNotReached","type":"bool"}],"internalType":"struct StatusData","name":"statusData","type":"tuple"},{"internalType":"address","name":"poolOwner","type":"address"},{"internalType":"bytes32","name":"initialPoolOrder","type":"bytes32"},{"internalType":"uint256","name":"interimSumBidAmount","type":"uint256"},{"internalType":"bytes32","name":"interimOrder","type":"bytes32"},{"internalType":"bytes32","name":"clearingPriceOrder","type":"bytes32"},{"internalType":"uint96","name":"volumeClearingPriceOrder","type":"uint96"},{"internalType":"uint256","name":"feeNumerator","type":"uint256"},{"internalType":"bytes32","name":"merkleRoot","type":"bytes32"}],"stateMutability":"view","type":"function"},{"inputs":[{"internalType":"uint64","name":"poolId","type":"uint64"},{"internalType":"uint256","name":"iterationSteps","type":"uint256"}],"name":"precalculateSellAmountSum","outputs":[],"stateMutability":"nonpayable","type":"function"},{"inputs":[{"internalType":"uint64","name":"poolId","type":"uint64"},{"internalType":"bytes32","name":"order","type":"bytes32"}],"name":"refundOrder","outputs":[],"stateMutability":"nonpayable","type":"function"},{"inputs":[{"internalType":"address","name":"user","type":"address"}],"name":"registerUser","outputs":[{"internalType":"uint64","name":"userId","type":"uint64"}],"stateMutability":"nonpayable","type":"function"},{"inputs":[],"name":"renounceOwnership","outputs":[],"stateMutability":"nonpayable","type":"function"},{"inputs":[{"internalType":"uint256","name":"newFeeNumerator","type":"uint256"},{"internalType":"address","name":"newfeeReceiverAddress","type":"address"}],"name":"setFeeParameters","outputs":[],"stateMutability":"nonpayable","type":"function"},{"inputs":[{"internalType":"uint64","name":"poolId","type":"uint64"}],"name":"settlePool","outputs":[{"internalType":"bytes32","name":"clearingOrder","type":"bytes32"}],"stateMutability":"nonpayable","type":"function"},{"inputs":[{"internalType":"uint64","name":"poolId","type":"uint64"},{"internalType":"uint96[]","name":"_minBuyAmount","type":"uint96[]"},{"internalType":"uint96[]","name":"_sellAmount","type":"uint96[]"},{"internalType":"bytes32[]","name":"_prevSellOrder","type":"bytes32[]"}],"name":"settlePoolAtomically","outputs":[],"stateMutability":"nonpayable","type":"function"},{"inputs":[{"internalType":"address","name":"newOwner","type":"address"}],"name":"transferOwnership","outputs":[],"stateMutability":"nonpayable","type":"function"},{"inputs":[{"internalType":"uint64","name":"poolId","type":"uint64"},{"internalType":"uint40","name":"_startTime","type":"uint40"},{"internalType":"uint40","name":"_endTime","type":"uint40"},{"internalType":"uint40","name":"_cancelTime","type":"uint40"},{"internalType":"uint256","name":"_fundingThreshold","type":"uint256"},{"internalType":"uint256","name":"_minBid","type":"uint256"}],"name":"updatePoolAdmin","outputs":[],"stateMutability":"nonpayable","type":"function"},{"inputs":[{"internalType":"uint64","name":"poolId","type":"uint64"},{"internalType":"string","name":"_formHash","type":"string"}],"name":"updatePoolUser","outputs":[],"stateMutability":"nonpayable","type":"function"},{"inputs":[{"internalType":"uint64","name":"poolId","type":"uint64"},{"internalType":"bytes32","name":"_merkleRoot","type":"bytes32"}],"name":"whitelistUpdate","outputs":[],"stateMutability":"nonpayable","type":"function"}],"evm":{"bytecode":{"linkReferences":{},"object":"608060405234801561001057600080fd5b50615443806100206000396000f3fe608060405234801561001057600080fd5b50600436106102065760003560e01c80637273c6ba1161011a578063c5a36d54116100ad578063d8a9f29e1161007c578063d8a9f29e146104bc578063e4c73fc1146104cf578063e86dea4a146104f7578063eaf5aa5814610500578063f2fde38b1461052057600080fd5b8063c5a36d5414610432578063ca648ff514610445578063cadd147c14610458578063d73792a9146104b357600080fd5b80639607fd9f116100e95780639607fd9f146103c95780639e3079cb146103dc578063ad8ae9fc146103f6578063ae98df161461041f57600080fd5b80637273c6ba146103805780637f513cb8146103935780638129fc1c146103a65780638da5cb5b146103ae57600080fd5b80632e1772e41161019d57806340b20b091161016c57806340b20b091461031c578063465ce9a91461032f5780635cefb291146103425780635ebc7f1214610355578063715018a61461037857600080fd5b80632e1772e4146102d057806330433843146102e35780633a62500c146102f65780633bb6b2791461030957600080fd5b80632199d5cd116101d95780632199d5cd14610276578063291ab528146102895780632a6b405f146102aa5780632b956ff7146102bd57600080fd5b80630a49a1861461020b57806310ece3231461022057806311221c1e1461023357806319a50f4914610263575b600080fd5b61021e61021936600461479f565b610533565b005b61021e61022e3660046147ec565b610876565b6102466102413660046148a4565b610937565b6040516001600160401b0390911681526020015b60405180910390f35b606754610246906001600160401b031681565b610246610284366004614951565b610a5e565b61029c61029736600461496e565b610b43565b60405190815260200161025a565b61021e6102b83660046149b1565b610b90565b6102466102cb366004614951565b610cb9565b61021e6102de3660046149e1565b610d2d565b61021e6102f13660046147ec565b610e10565b61029c6103043660046149b1565b611074565b61021e610317366004614a47565b61148a565b61021e61032a366004614adf565b61171f565b61021e61033d366004614b7e565b61179f565b606a54610246906001600160401b031681565b6103686103633660046147ec565b611875565b604051901515815260200161025a565b61021e611897565b61021e61038e3660046147ec565b6118ab565b61029c6103a1366004614bc1565b611a78565b61021e612355565b6033546040516001600160a01b03909116815260200161025a565b6102466103d7366004614bfc565b61247e565b60675461024690600160401b90046001600160401b031681565b6104096104043660046149b1565b612751565b60405161025a9a99989796959493929190614d46565b61021e61042d3660046149b1565b612965565b61029c6104403660046149b1565b6129d9565b610246610453366004614951565b612a3a565b610493610466366004614ed8565b60009081526066602090815260408083206002600160601b03198452600101909152902054606081901c91565b604080516001600160601b0393841681529290911660208301520161025a565b61029c6103e881565b61021e6104ca3660046149b1565b612a93565b6104e26104dd36600461479f565b612b09565b6040805192835260208301919091520161025a565b61029c606b5481565b61051361050e3660046149b1565b6131a9565b60405161025a9190614ef1565b61021e61052e366004614951565b6132ab565b6001600160401b0382166000908152606560205260409020600201548290600160a01b900464ffffffffff1642106105b25760405162461bcd60e51b815260206004820152601f60248201527f4e6f7420696e206f7264657220706c6163652f63616e63656c2070686173650060448201526064015b60405180910390fd5b6001600160401b038316600090815260656020526040902060090154839060ff1615801561060157506001600160401b038116600090815260656020526040902060090154610100900460ff16155b801561062f57506001600160401b03811660009081526065602052604090206009015462010000900460ff16155b61064b5760405162461bcd60e51b81526004016105a990614f04565b600061065633610cb9565b90506000805b85518110156108015760006106ae87838151811061067c5761067c614f3b565b6020026020010151606660008b6001600160401b0316815260200190815260200160002061332190919063ffffffff16565b905080156107ee5760008060006106e78a86815181106106d0576106d0614f3b565b602002602001015160c081901c91606082901c9190565b925092509250866001600160401b0316836001600160401b03161461074e5760405162461bcd60e51b815260206004820152601c60248201527f4f6e6c79206f7264657220706c616365722063616e2063616e63656c0000000060448201526064016105a9565b610761866001600160601b038316613376565b9550866001600160401b03168b6001600160401b03167fd9aecbedcbd21d1fd8217aa3393aa4411489064ed05bad6eda25c6105de63da084848e8a815181106107ac576107ac614f3b565b60200260200101516040516107e2939291906001600160601b039384168152919092166020820152604081019190915260600190565b60405180910390a35050505b50806107f981614f67565b91505061065c565b506001600160401b03861660009081526065602052604090206008015461086e903390670de0b6b3a7640000906108389085614f82565b6108429190614fa1565b6001600160401b0389166000908152606560205260409020600201546001600160a01b03169190613382565b505050505050565b6001600160401b0382166000908152606560205260409020600a01546001600160a01b031633146108db5760405162461bcd60e51b815260206004820152600f60248201526e706f6f6c206f776e6572206f6e6c7960881b60448201526064016105a9565b6001600160401b03821660008181526065602052604090819020601101839055517fa4c95c7a5e4b51a313bffd5c2864e852e46ac143cee2addde4cc250a82a10d4c9061092b9084815260200190565b60405180910390a25050565b6001600160401b038516600090815260656020526040812060030154869064ffffffffff1642106109aa5760405162461bcd60e51b815260206004820152601c60248201527f4e6f7420696e206f7264657220706c6163656d656e742070686173650000000060448201526064016105a9565b6001600160401b038716600090815260656020526040902060090154879060ff161580156109f957506001600160401b038116600090815260656020526040902060090154610100900460ff16155b8015610a2757506001600160401b03811660009081526065602052604090206009015462010000900460ff16155b610a435760405162461bcd60e51b81526004016105a990614f04565b610a5088888888886133ea565b92505b505095945050505050565b606754600090610a8190610a7c906001600160401b03166001613376565b6136e7565b6067805467ffffffffffffffff19166001600160401b03929092169182179055610aae906068908461374f565b610af05760405162461bcd60e51b81526020600482015260136024820152725573657220616c72656164792065786973747360681b60448201526064016105a9565b506067546040516001600160401b03909116808252906001600160a01b038316907f6838f67cb358c332087b73dbe769a6c869a5f87225236c16dda5d0013a77074c9060200160405180910390a2919050565b60006001600160601b038216610b7c6bffffffffffffffffffffffff60601b606086901b166001600160c01b031960c088901b16614fc3565b610b869190614fc3565b90505b9392505050565b6001600160401b0381166000908152606560205260409020600a01546001600160a01b0316331480610bcc57506033546001600160a01b031633145b610c105760405162461bcd60e51b815260206004820152601560248201527413db9b1e4813dddb995c8818d85b8818d85b98d95b605a1b60448201526064016105a9565b6001600160401b038116600090815260656020526040902060098101805462ff0000191662010000179055600a8101546007820154600390920154610cb6926001600160a01b0390921691670de0b6b3a764000091610c8091906001600160601b03600160281b90910416614f82565b610c8a9190614fa1565b6001600160401b0384166000908152606560205260409020600101546001600160a01b03169190613382565b50565b6000610cc6606883613903565b15610cdc57610cd660688361392d565b92915050565b610ce582610a5e565b9050816001600160a01b0316816001600160401b03167f969d438b19b6b5fb3c0d3c6f16867e519fcec4233799d6be29d1c00f2045ba2660405160405180910390a35b919050565b610d356139b5565b6001600160401b03861660008181526065602090815260409182902060028101805460038301805464ffffffffff191664ffffffffff8c811691821790925569ffffffffffffffffffff60a01b19909216600160c81b8d831690810264ffffffffff60a01b191691909117600160a01b928c169283021790935560058401899055600490930187905584519182529281019290925281830152606081018490526080810185905290517f4407dc7a4bd36c6232da9c99ee7295621d6b255d714a309904e143a4592959bc9181900360a00190a2505050505050565b6001600160401b038216600090815260656020526040902060030154829064ffffffffff1615801590610e6557506001600160401b03811660009081526065602052604090206003015464ffffffffff164210155b8015610e8a57506001600160401b0381166000908152606560205260409020600e0154155b610ea65760405162461bcd60e51b81526004016105a990614fdb565b6001600160401b03811660009081526065602052604090206009015460ff16158015610ef357506001600160401b038116600090815260656020526040902060090154610100900460ff16155b610f0f5760405162461bcd60e51b81526004016105a990615012565b6001600160401b0383166000908152606560205260408120600b810154600c820154600d9092015490925b85811015610f90576001600160401b0387166000908152606660205260409020610f649083613a0f565b915081610f7a846001600160601b038316613376565b9350508080610f8890614f67565b915050610f3a565b506002600160601b0319811415610fd75760405162461bcd60e51b815260206004820152600b60248201526a14995858da195908195b9960aa1b60448201526064016105a9565b606081901c81610ff36001600160601b03868116908316613ae3565b611006856001600160601b038516613ae3565b106110455760405162461bcd60e51b815260206004820152600f60248201526e546f6f206d616e79206f726465727360881b60448201526064016105a9565b50506001600160401b039095166000908152606560205260409020600c810191909155600d0193909355505050565b6001600160401b038116600090815260656020526040812060030154829064ffffffffff16158015906110c957506001600160401b03811660009081526065602052604090206003015464ffffffffff164210155b80156110ee57506001600160401b0381166000908152606560205260409020600e0154155b61110a5760405162461bcd60e51b81526004016105a990614fdb565b6001600160401b03811660009081526065602052604090206009015460ff1615801561115757506001600160401b038116600090815260656020526040902060090154610100900460ff16155b6111735760405162461bcd60e51b81526004016105a990615012565b6001600160401b0383166000908152606560205260408120600b810154600c820154600d9092015460c082901c93606083901c93919080845b6001600160401b038b1660009081526066602052604081206111ce9086613a0f565b90506002600160601b03198114156111e6575061122f565b93506001600160601b03606085901c8116935084169150836112088684613376565b955061121f90506001600160601b03871683613ae3565b6112298685613ae3565b106111ac575b60008511801561125a575061124d6001600160601b03871683613ae3565b6112578685613ae3565b10155b1561131f5760006112886112818561127b6001600160601b038b1687613ae3565b90613aef565b8790613afb565b90508083106112fb57600061129d8483613afb565b90506112a881613b07565b6001600160401b038e166000908152606560205260409020600f0180546bffffffffffffffffffffffff19166001600160601b03929092169190911790556112f08783613afb565b9650859b5050611319565b6113058684613afb565b955061131660008861029789613b07565b9a505b50611388565b866001600160601b03168511156113465761133f60008761029788613b07565b9950611388565b61135260008789610b43565b9950611385611380886001600160601b031661127b896001600160601b031689613ae390919063ffffffff16565b613b07565b90505b6001600160401b038b166000908152606560205260409020600e81018b9055600501548510156113df576001600160401b038b166000908152606560205260409020600901805463ff000000191663010000001790555b6113f48b826001600160601b03168a89613b6b565b604080516001600160601b038084168252871660208201529081018b90526001600160401b038c16907fcaa63be930fc54c8a55db93b269209878f7027abb93692a515c9dc483c5bf31d9060600160405180910390a25050506001600160401b039097166000908152606560205260408120600b8101829055600d8101829055600c810182905560040155509395945050505050565b6001600160401b038416600090815260656020526040902060030154849064ffffffffff16158015906114df57506001600160401b03811660009081526065602052604090206003015464ffffffffff164210155b801561150457506001600160401b0381166000908152606560205260409020600e0154155b6115205760405162461bcd60e51b81526004016105a990614fdb565b6001600160401b03811660009081526065602052604090206009015460ff1615801561156d57506001600160401b038116600090815260656020526040902060090154610100900460ff16155b6115895760405162461bcd60e51b81526004016105a990615012565b6001600160401b03851660009081526065602052604090206006015460ff166115ed5760405162461bcd60e51b8152602060048201526016602482015275139bdd08185d5d1bdcd95d1d1b1948185b1b1bddd95960521b60448201526064016105a9565b835160011480156115ff575082516001145b6116425760405162461bcd60e51b81526020600482015260146024820152734d6f7265207468616e206f6e65206f726465727360601b60448201526064016105a9565b600061164d33610cb9565b90506116b3611691828760008151811061166957611669614f3b565b60200260200101518760008151811061168457611684614f3b565b6020026020010151610b43565b6001600160401b0388166000908152606560205260409020600d015490613cc6565b6116ff5760405162461bcd60e51b815260206004820152601c60248201527f6f72646572206c6573737468616e20696e746572696d206f726465720000000060448201526064016105a9565b61170c86868686336133ea565b5061171686611074565b50505050505050565b6117276139b5565b600f82111561176f5760405162461bcd60e51b81526020600482015260146024820152734665652063616e2774206265203e20312e35202560601b60448201526064016105a9565b61177881610cb9565b606a805467ffffffffffffffff19166001600160401b039290921691909117905550606b55565b6001600160401b0382166000908152606560205260409020600a01546001600160a01b031633146118125760405162461bcd60e51b815260206004820152601a60248201527f706f6f6c206f776e6572206f6e6c792063616e2075706461746500000000000060448201526064016105a9565b6001600160401b0382166000908152606560209081526040909120825161183b928401906145fb565b50816001600160401b03167fb03f287ef824b12c231cf3b9b3d8756a68e0eda11532714bb5b0c69afac327ba8260405161092b9190614ef1565b6001600160401b0382166000908152606660205260408120610b899083613e63565b61189f6139b5565b6118a96000613e8c565b565b6001600160401b0382166000908152606560205260409020600901546301000000900460ff1661190e5760405162461bcd60e51b815260206004820152600e60248201526d43616e20436c61696d206f6e6c7960901b60448201526064016105a9565b6001600160401b03821660009081526066602052604090206119309082613ede565b6119735760405162461bcd60e51b81526020600482015260146024820152734f72646572206e6f7420726566756e6461626c6560601b60448201526064016105a9565b600061197e33610cb9565b905060c082901c606083901c836001600160401b03841683146119d65760405162461bcd60e51b815260206004820152601060248201526f2737ba1027b93232b910283630b1b2b960811b60448201526064016105a9565b6001600160401b038616600090815260656020526040902060080154611a15903390670de0b6b3a764000090610838906001600160601b038616614f82565b604080516001600160601b038085168252831660208201529081018690526001600160401b0380861691908816907ff991e538154c5ad2eff925762e4a8e269c611939c2c8460211bc8e402d0263969060600160405180910390a3505050505050565b600080611aba6103e861127b611a9b606b546103e861337690919063ffffffff16565b611aab60e0880160c0890161503e565b6001600160601b031690613ae3565b9050670de0b6b3a7640000611ad461016085013583614f82565b611ade9190614fa1565b905080611af16040850160208601614951565b6040516370a0823160e01b81523360048201526001600160a01b0391909116906370a082319060240160206040518083038186803b158015611b3257600080fd5b505afa158015611b46573d6000803e3d6000fd5b505050506040513d601f19601f82011682018060405250810190611b6a9190615064565b1015611bad5760405162461bcd60e51b81526020600482015260126024820152714e6f7420656e6f7567682062616c616e636560701b60448201526064016105a9565b611bbd60a084016080850161507d565b64ffffffffff1642108015611bfd5750611bdd60c0840160a0850161507d565b64ffffffffff16611bf460a085016080860161507d565b64ffffffffff16105b8015611c355750611c1460c0840160a0850161507d565b64ffffffffff16611c2b608085016060860161507d565b64ffffffffff1611155b8015611c56575042611c4d60c0850160a0860161507d565b64ffffffffff16115b611ca25760405162461bcd60e51b815260206004820152601d60248201527f44617465206e6f7420636f6e6669677572656420636f72726563746c7900000060448201526064016105a9565b6000611cb460e0850160c0860161503e565b6001600160601b0316118015611ce357506000611cd8610100850160e0860161503e565b6001600160601b0316115b8015611cf457506000836101000135115b611d385760405162461bcd60e51b8152602060048201526015602482015274416d6d6f756e742063616e2774206265207a65726f60581b60448201526064016105a9565b611d5f333083611d4e6040880160208901614951565b6001600160a01b0316929190613f0a565b606754611d7d90600160401b90046001600160401b03166001615098565b606780546fffffffffffffffff00000000000000001916600160401b6001600160401b0393841681029190911791829055900416600090815260666020908152604080832060018085528184528285206002600160601b0319908190558552908101909252909120556000611df133610cb9565b905060405180610140016040528085611e099061512a565b81526040805160808101825260008082526020828101829052828401829052606080840192909252840191909152339183019190915201611e6583611e55610100890160e08a0161503e565b61029760e08a0160c08b0161503e565b81526000602080830182905260016040808501919091526060840183905260808401839052606b5460a085015260c0909301829052606754600160401b90046001600160401b0316825260658152919020825180518051929391928492611ed09284929101906145fb565b5060208201518160010160006101000a8154816001600160a01b0302191690836001600160a01b0316021790555060408201518160020160006101000a8154816001600160a01b0302191690836001600160a01b0316021790555060608201518160020160146101000a81548164ffffffffff021916908364ffffffffff16021790555060808201518160020160196101000a81548164ffffffffff021916908364ffffffffff16021790555060a08201518160030160006101000a81548164ffffffffff021916908364ffffffffff16021790555060c08201518160030160056101000a8154816001600160601b0302191690836001600160601b0316021790555060e08201518160030160116101000a8154816001600160601b0302191690836001600160601b03160217905550610100820151816004015561012082015181600501556101408201518160060160006101000a81548160ff0219169083151502179055506101608201518160070160008201518160000155602082015181600101555050505060208201518160090160008201518160000160006101000a81548160ff02191690831515021790555060208201518160000160016101000a81548160ff02191690831515021790555060408201518160000160026101000a81548160ff02191690831515021790555060608201518160000160036101000a81548160ff0219169083151502179055505050604082015181600a0160006101000a8154816001600160a01b0302191690836001600160a01b03160217905550606082015181600b0155608082015181600c015560a082015181600d015560c082015181600e015560e082015181600f0160006101000a8154816001600160601b0302191690836001600160601b0316021790555061010082015181601001556101208201518160110155905050336001600160a01b0316816001600160401b0316606760089054906101000a90046001600160401b03166001600160401b03167f9fb015b01070cbd34ff57b2c9a642a2cefb6446bb225d05c21be80cd8399c94b8780600001906121e39190615222565b6121f360408b0160208c01614951565b61220360608c0160408d01614951565b61221360808d0160608e0161507d565b61222360a08e0160808f0161507d565b8d60a0016020810190612236919061507d565b8e60c0016020810190612249919061503e565b8f60e001602081019061225c919061503e565b6040516122719998979695949392919061526f565b60405180910390a4606754600160401b90046001600160401b03167f956b430f300258f6d757fdf489c0bc3a95cffadc9995d416781835590acc18586122c283611e55610100890160e08a0161503e565b6000600181806101008b01356101208c01356122e66101608e016101408f016152f2565b606b5460408051998a5260208a01989098529688019590955260608701939093526001600160601b03909116608086015260a085015260c0840152151560e08301526101008201526101200160405180910390a25050606754600160401b90046001600160401b031692915050565b600054610100900460ff16158080156123755750600054600160ff909116105b8061238f5750303b15801561238f575060005460ff166001145b6123f25760405162461bcd60e51b815260206004820152602e60248201527f496e697469616c697a61626c653a20636f6e747261637420697320616c72656160448201526d191e481a5b9a5d1a585b1a5e995960921b60648201526084016105a9565b6000805460ff191660011790558015612415576000805461ff0019166101001790555b61241d613f48565b606a805467ffffffffffffffff19166001179055600f606b558015610cb6576000805461ff0019169055604051600181527f7f26b83ff96e1f2b6a682f133852f6798a09c465da95921460cefb38474024989060200160405180910390a150565b6001600160401b038616600090815260656020526040812060030154879064ffffffffff1642106124f15760405162461bcd60e51b815260206004820152601c60248201527f4e6f7420696e206f7264657220706c6163656d656e742070686173650000000060448201526064016105a9565b6001600160401b038816600090815260656020526040902060090154889060ff1615801561254057506001600160401b038116600090815260656020526040902060090154610100900460ff16155b801561256e57506001600160401b03811660009081526065602052604090206009015462010000900460ff16155b61258a5760405162461bcd60e51b81526004016105a990614f04565b6040516020016125ee907f307830303030303030303030303030303030303030303030303030303030303081527f3030303030303030303030303030303030303030303030303030303030303030602082015261030360f41b604082015260420190565b60408051808303601f1901815282825280516020918201206001600160401b038d1660009081526065835283902060110154918401919091529101604051602081830303815290604052805190602001201415612737576040516bffffffffffffffffffffffff193360601b1660208201526000906034016040516020818303038152906040528051906020012090506126f2898980806020026020016040519081016040528093929190818152602001838360200280828437600081840152601f19601f82011690508083019250505050505050606560008d6001600160401b03166001600160401b031681526020019081526020016000206011015483613f77565b6127355760405162461bcd60e51b8152602060048201526014602482015273155cd95c881b9bdd081dda1a5d195b1a5cdd195960621b60448201526064016105a9565b505b61274489878787336133ea565b9998505050505050505050565b606560205280600052604060002060009150905080600001604051806101800160405290816000820180546127859061530f565b80601f01602080910402602001604051908101604052809291908181526020018280546127b19061530f565b80156127fe5780601f106127d3576101008083540402835291602001916127fe565b820191906000526020600020905b8154815290600101906020018083116127e157829003601f168201915b505050918352505060018201546001600160a01b03908116602080840191909152600284015480831660408086019190915264ffffffffff600160a01b83048116606080880191909152600160c81b9093048116608080880191909152600388015491821660a08801526001600160601b03600160281b8304811660c0890152600160881b909204821660e08801526004880154610100808901919091526005890154610120890152600689015460ff90811615156101408a01528451808601865260078b015481526008909a01548a880152610160909801989098528251908101835260098a015480881615158252978804871615159481019490945262010000870486161515918401919091526301000000909504909316151592810192909252600a850154600b860154600c870154600d880154600e890154600f8a015460108b015460119b909b0154999a9799959096169793969295919490939190911691908a565b61296d6139b5565b6001600160401b038116600090815260656020526040902060098101805460ff19166001179055600a8101546007820154600390920154610cb6926001600160a01b0390921691670de0b6b3a764000091610c8091906001600160601b03600160281b90910416614f82565b6001600160401b0381166000908152606560205260408120600301544264ffffffffff9091161015612a0d57506000919050565b6001600160401b038216600090815260656020526040902060030154610cd69064ffffffffff1642613afb565b6000612a47606883613903565b612a885760405162461bcd60e51b8152602060048201526012602482015271139bdd08149959da5cdd195c99590816595d60721b60448201526064016105a9565b610cd660688361392d565b612a9b6139b5565b6001600160401b038116600090815260656020526040902060098101805461ff001916610100179055600a8101546007820154600390920154610cb6926001600160a01b0390921691670de0b6b3a764000091610c8091906001600160601b03600160281b90910416614f82565b6001600160401b0382166000908152606560205260408120600e015481908490612b695760405162461bcd60e51b8152602060048201526011602482015270141bdbdb081b9bdd08199a5b9a5cda1959607a1b60448201526064016105a9565b6001600160401b038516600090815260656020526040902060090154859060ff16158015612bb857506001600160401b038116600090815260656020526040902060090154610100900460ff16155b8015612be657506001600160401b03811660009081526065602052604090206009015462010000900460ff16155b612c025760405162461bcd60e51b81526004016105a990614f04565b60005b8551811015612cb357612c55868281518110612c2357612c23614f3b565b6020026020010151606660008a6001600160401b03168152602001908152602001600020613ede90919063ffffffff16565b612ca15760405162461bcd60e51b815260206004820152601c60248201527f6f72646572206973206e6f206c6f6e67657220636c61696d61626c650000000060448201526064016105a9565b80612cab81614f67565b915050612c05565b506001600160401b03861660009081526065602052604080822081516102c0810190925280548290610140820190839082908290612cf09061530f565b80601f0160208091040260200160405190810160405280929190818152602001828054612d1c9061530f565b8015612d695780601f10612d3e57610100808354040283529160200191612d69565b820191906000526020600020905b815481529060010190602001808311612d4c57829003601f168201915b505050918352505060018201546001600160a01b03908116602080840191909152600284015480831660408086019190915264ffffffffff600160a01b83048116606080880191909152600160c81b9093048116608080880191909152600388015491821660a0808901919091526001600160601b03600160281b8404811660c0808b0191909152600160881b909404811660e0808b019190915260048b0154610100808c019190915260058c0154610120808d019190915260068d015460ff90811615156101408e01528851808a018a5260078f015481526008909e01548e8c0152610160909c019c909c529b8d528551808501875260098f0154808c16151582528d81048c161515828b01526201000081048c1615158289015263010000009004909a1615158a880152968c0198909852600a8c0154909616928a0192909252600b8a015489840152600c8a015491890191909152600d89015493880193909352600e88015487840152600f8801549093169086015260108601549385019390935260119094015492019190915282015188519293509081901c91600090612f1d908a9083906106d0576106d0614f3b565b50506001600160401b038b16600090815260656020526040812060090154919250630100000090910460ff16905b8a5181101561318e576000806000612f6e8e85815181106106d0576106d0614f3b565b925092509250856001600160401b0316836001600160401b031614612fd55760405162461bcd60e51b815260206004820152601f60248201527f6f6e6c792073616d65207573657220616c6c6f77656420746f20636c61696d0060448201526064016105a9565b8415612ff557612fee8c6001600160601b038316613376565b9b50613116565b8860c001518e858151811061300c5761300c614f3b565b6020026020010151141561308f5761305a613053886001600160601b031661127b8b6001600160601b03168d60e001516001600160601b0316613ae390919063ffffffff16565b8e90613376565b9c50612fee6130888a60e001516001600160601b0316836001600160601b0316613afb90919063ffffffff16565b8d90613376565b6130bf8960c001518f86815181106130a9576130a9614f3b565b6020026020010151613cc690919063ffffffff16565b15613100576130f9613053886001600160601b031661127b8b6001600160601b0316856001600160601b0316613ae390919063ffffffff16565b9c50613116565b6131138c6001600160601b038316613376565b9b505b856001600160401b03168f6001600160401b03167f643afe0798b830aa1adfdb4e84e469ee402f2c8ccca1ad7ceecd21b78706d08584846040516131709291906001600160601b0392831681529116602082015260400190565b60405180910390a3505050808061318690614f67565b915050612f4b565b5061319b8b8a8a85613f8d565b505050505050509250929050565b6067546060906001600160401b03600160401b909104811690831611156132035760405162461bcd60e51b815260206004820152600e60248201526d125b9d985b1a481c1bdbdb08125160921b60448201526064016105a9565b6001600160401b038216600090815260656020526040902080546132269061530f565b80601f01602080910402602001604051908101604052809291908181526020018280546132529061530f565b801561329f5780601f106132745761010080835404028352916020019161329f565b820191906000526020600020905b81548152906001019060200180831161328257829003601f168201915b50505050509050919050565b6132b36139b5565b6001600160a01b0381166133185760405162461bcd60e51b815260206004820152602660248201527f4f776e61626c653a206e6577206f776e657220697320746865207a65726f206160448201526564647265737360d01b60648201526084016105a9565b610cb681613e8c565b600061332d8383613e63565b61333957506000610cd6565b5060008181526001838101602081815260408085205487835281862080548288528388208190558752938352908520559383529390925290915590565b6000610b898284614fc3565b6040516001600160a01b0383166024820152604481018290526133e590849063a9059cbb60e01b906064015b60408051601f198184030181529190526020810180516001600160e01b03166001600160e01b031990931692909217909152614080565b505050565b6000806133f683610cb9565b6001600160401b0388166000908152606560205260408120600401549193505b875181101561367757600088828151811061343357613433614f3b565b60200260200101516001600160601b03161161348a5760405162461bcd60e51b81526020600482015260166024820152750627579416d6f756e7473206d757374206265203e20360541b60448201526064016105a9565b8187828151811061349d5761349d614f3b565b60200260200101516001600160601b031610156134ee5760405162461bcd60e51b815260206004820152600f60248201526e1bdc99195c881d1bdbc81cdb585b1b608a1b60448201526064016105a9565b613566613521858a848151811061350757613507614f3b565b60200260200101518a858151811061168457611684614f3b565b87838151811061353357613533614f3b565b6020026020010151606660008d6001600160401b031681526020019081526020016000206141529092919063ffffffff16565b15613665576135a087828151811061358057613580614f3b565b60200260200101516001600160601b03168461337690919063ffffffff16565b9250836001600160401b0316896001600160401b03167fd1eb3aa4747ae96061ea9271199478378d5f0cad92edc3d7f78a63b658a93d6a8a84815181106135e9576135e9614f3b565b60200260200101518a858151811061360357613603614f3b565b602002602001015161363b898e888151811061362157613621614f3b565b60200260200101518e898151811061168457611684614f3b565b604080516001600160601b0394851681529390921660208401529082015260600160405180910390a35b8061366f81614f67565b915050613416565b506001600160401b038816600090815260656020526040902060080154610a539033903090670de0b6b3a7640000906136b09087614f82565b6136ba9190614fa1565b6001600160401b038c166000908152606560205260409020600201546001600160a01b0316929190613f0a565b6000600160401b821061374b5760405162461bcd60e51b815260206004820152602660248201527f53616665436173743a2076616c756520646f65736e27742066697420696e203660448201526534206269747360d01b60648201526084016105a9565b5090565b60006001600160a01b0382166137a75760405162461bcd60e51b815260206004820152601a60248201527f43616e6e6f7420696e73657274207a65726f206164647265737300000000000060448201526064016105a9565b6001600160401b0383811614156138005760405162461bcd60e51b815260206004820152601860248201527f43616e6e6f7420696e73657274206d61782075696e743634000000000000000060448201526064016105a9565b6001600160a01b03821660009081526001850160205260409020546001600160401b031615158061386157506000848161383b866001615098565b6001600160401b031681526020810191909152604001600020546001600160a01b031614155b1561386e57506000610b89565b8184600061387d866001615098565b6001600160401b03168152602081019190915260400160002080546001600160a01b0319166001600160a01b03929092169190911790556138bf836001615098565b6001600160a01b03929092166000908152600194850160205260409020805467ffffffffffffffff19166001600160401b0393909316929092179091555090919050565b6001600160a01b0316600090815260019190910160205260409020546001600160401b0316151590565b60006139398383613903565b6139855760405162461bcd60e51b815260206004820152601b60248201527f4d7573742068617665204164647265737320746f20676574204944000000000060448201526064016105a9565b6001600160a01b03821660009081526001848101602052604090912054610b8991906001600160401b031661534a565b6033546001600160a01b031633146118a95760405162461bcd60e51b815260206004820181905260248201527f4f776e61626c653a2063616c6c6572206973206e6f7420746865206f776e657260448201526064016105a9565b60006002600160601b0319821415613a745760405162461bcd60e51b815260206004820152602260248201527f547279696e6720746f20676574206e657874206f66206c61737420656c656d656044820152611b9d60f21b60648201526084016105a9565b60008281526020849052604090205480610b895760405162461bcd60e51b815260206004820152602a60248201527f547279696e6720746f20676574206e657874206f66206e6f6e2d6578697374656044820152691b9d08195b195b595b9d60b21b60648201526084016105a9565b6000610b898284614f82565b6000610b898284614fa1565b6000610b898284615372565b6000600160601b821061374b5760405162461bcd60e51b815260206004820152602660248201527f53616665436173743a2076616c756520646f65736e27742066697420696e203960448201526536206269747360d01b60648201526084016105a9565b6001600160401b038416600090815260656020526040812060100154613ba3906103e89061127b906001600160601b03861690613ae3565b6001600160401b0386166000908152606560205260409020600901549091506301000000900460ff1615613bf557613bf085613be86001600160601b03851684613376565b600086613f8d565b613cbf565b6001600160401b0385166000908152606560205260408120600e0154606081901c91613c2a6001600160601b03861688613afb565b90506000613c4f613c486001600160601b03881661127b8886613ae3565b8390613376565b90506000613c7c856001600160601b031661127b866001600160601b03168c613ae390919063ffffffff16565b9050613c8a8a83838b613f8d565b613cb98a613ca56001600160601b038a1661127b8a8e613ae3565b606a546000906001600160401b0316613f8d565b50505050505b5050505050565b600060c083811c90606085811c9186919086901c9086901c86613cf56001600160601b03808416908616613ae3565b613d0b6001600160601b03878116908416613ae3565b1015613d205760019650505050505050610cd6565b613d366001600160601b03838116908616613ae3565b613d4c6001600160601b03878116908416613ae3565b1115613d615760009650505050505050610cd6565b816001600160601b0316856001600160601b03161015613d8a5760019650505050505050610cd6565b816001600160601b0316856001600160601b03161115613db35760009650505050505050610cd6565b826001600160401b0316866001600160401b03161415613e2b5760405162461bcd60e51b815260206004820152602d60248201527f75736572206973206e6f7420616c6c6f77656420746f20706c6163652073616d60448201526c65206f7264657220747769636560981b60648201526084016105a9565b826001600160401b0316866001600160401b03161015613e545760019650505050505050610cd6565b50600098975050505050505050565b60006001821415613e7657506000610cd6565b5060009081526020919091526040902054151590565b603380546001600160a01b038381166001600160a01b0319831681179093556040519116919082907f8be0079c531659141344cd1fd0a4f28419497f9722a3daafe3b4186f6b6457e090600090a35050565b600080613eeb8484613321565b90508015610b8957600092835260019390930160205250604081205590565b6040516001600160a01b0380851660248301528316604482015260648101829052613f429085906323b872dd60e01b906084016133ae565b50505050565b600054610100900460ff16613f6f5760405162461bcd60e51b81526004016105a990615389565b6118a96142fc565b600082613f84858461432c565b14949350505050565b6000613f9a606883614379565b9050831561400e576001600160401b03851660009081526065602052604090206007015461400e908290670de0b6b3a764000090613fd89088614f82565b613fe29190614fa1565b6001600160401b0388166000908152606560205260409020600101546001600160a01b03169190613382565b8215613cbf576001600160401b038516600090815260656020526040902060080154613cbf908290670de0b6b3a76400009061404a9087614f82565b6140549190614fa1565b6001600160401b0388166000908152606560205260409020600201546001600160a01b03169190613382565b60006140d5826040518060400160405280602081526020017f5361666545524332303a206c6f772d6c6576656c2063616c6c206661696c6564815250856001600160a01b03166144099092919063ffffffff16565b8051909150156133e557808060200190518101906140f391906153d4565b6133e55760405162461bcd60e51b815260206004820152602a60248201527f5361666545524332303a204552433230206f7065726174696f6e20646964206e6044820152691bdd081cdd58d8d9595960b21b60648201526084016105a9565b6000826001600160601b0381166141ab5760405162461bcd60e51b815260206004820152601f60248201527f496e73657274696e67207a65726f206973206e6f7420737570706f727465640060448201526064016105a9565b600184148015906141c457506002600160601b03198414155b6142105760405162461bcd60e51b815260206004820152601e60248201527f496e73657274696e6720656c656d656e74206973206e6f742076616c6964000060448201526064016105a9565b61421a8585613e63565b15614229576000915050610b89565b6001831480159061424857506000838152600186016020526040902054155b15614257576000915050610b89565b6142618385613cc6565b61426f576000915050610b89565b5b60008381526020869052604090205461429b5760009283526001850160205260409092205491614270565b6000835b6000818152602088905260409020549091506142bb8187613cc6565b61429f576000828152602088815260408083208990558383526001808b0183528184208a905589845281842095909555908990529020559150509392505050565b600054610100900460ff166143235760405162461bcd60e51b81526004016105a990615389565b6118a933613e8c565b600081815b84518110156143715761435d8286838151811061435057614350614f3b565b6020026020010151614418565b91508061436981614f67565b915050614331565b509392505050565b60006143858383614447565b6143d15760405162461bcd60e51b815260206004820152601b60248201527f4d757374206861766520494420746f206765742041646472657373000000000060448201526064016105a9565b8260006143df846001615098565b6001600160401b031681526020810191909152604001600020546001600160a01b03169392505050565b6060610b868484600085614483565b6000818310614434576000828152602084905260409020610b89565b6000838152602083905260409020610b89565b6000808381614457856001615098565b6001600160401b031681526020810191909152604001600020546001600160a01b031614159392505050565b6060824710156144e45760405162461bcd60e51b815260206004820152602660248201527f416464726573733a20696e73756666696369656e742062616c616e636520666f6044820152651c8818d85b1b60d21b60648201526084016105a9565b600080866001600160a01b0316858760405161450091906153f1565b60006040518083038185875af1925050503d806000811461453d576040519150601f19603f3d011682016040523d82523d6000602084013e614542565b606091505b509150915061455387838387614560565b925050505b949350505050565b606083156145cc5782516145c5576001600160a01b0385163b6145c55760405162461bcd60e51b815260206004820152601d60248201527f416464726573733a2063616c6c20746f206e6f6e2d636f6e747261637400000060448201526064016105a9565b5081614558565b61455883838151156145e15781518083602001fd5b8060405162461bcd60e51b81526004016105a99190614ef1565b8280546146079061530f565b90600052602060002090601f016020900481019282614629576000855561466f565b82601f1061464257805160ff191683800117855561466f565b8280016001018555821561466f579182015b8281111561466f578251825591602001919060010190614654565b5061374b9291505b8082111561374b5760008155600101614677565b80356001600160401b0381168114610d2857600080fd5b634e487b7160e01b600052604160045260246000fd5b60405161018081016001600160401b03811182821017156146db576146db6146a2565b60405290565b604051601f8201601f191681016001600160401b0381118282101715614709576147096146a2565b604052919050565b60006001600160401b0382111561472a5761472a6146a2565b5060051b60200190565b600082601f83011261474557600080fd5b8135602061475a61475583614711565b6146e1565b82815260059290921b8401810191818101908684111561477957600080fd5b8286015b84811015614794578035835291830191830161477d565b509695505050505050565b600080604083850312156147b257600080fd5b6147bb8361468b565b915060208301356001600160401b038111156147d657600080fd5b6147e285828601614734565b9150509250929050565b600080604083850312156147ff57600080fd5b6148088361468b565b946020939093013593505050565b80356001600160601b0381168114610d2857600080fd5b600082601f83011261483e57600080fd5b8135602061484e61475583614711565b82815260059290921b8401810191818101908684111561486d57600080fd5b8286015b848110156147945761488281614816565b8352918301918301614871565b6001600160a01b0381168114610cb657600080fd5b600080600080600060a086880312156148bc57600080fd5b6148c58661468b565b945060208601356001600160401b03808211156148e157600080fd5b6148ed89838a0161482d565b9550604088013591508082111561490357600080fd5b61490f89838a0161482d565b9450606088013591508082111561492557600080fd5b5061493288828901614734565b92505060808601356149438161488f565b809150509295509295909350565b60006020828403121561496357600080fd5b8135610b898161488f565b60008060006060848603121561498357600080fd5b61498c8461468b565b925061499a60208501614816565b91506149a860408501614816565b90509250925092565b6000602082840312156149c357600080fd5b610b898261468b565b803564ffffffffff81168114610d2857600080fd5b60008060008060008060c087890312156149fa57600080fd5b614a038761468b565b9550614a11602088016149cc565b9450614a1f604088016149cc565b9350614a2d606088016149cc565b92506080870135915060a087013590509295509295509295565b60008060008060808587031215614a5d57600080fd5b614a668561468b565b935060208501356001600160401b0380821115614a8257600080fd5b614a8e8883890161482d565b94506040870135915080821115614aa457600080fd5b614ab08883890161482d565b93506060870135915080821115614ac657600080fd5b50614ad387828801614734565b91505092959194509250565b60008060408385031215614af257600080fd5b823591506020830135614b048161488f565b809150509250929050565b600082601f830112614b2057600080fd5b81356001600160401b03811115614b3957614b396146a2565b614b4c601f8201601f19166020016146e1565b818152846020838601011115614b6157600080fd5b816020850160208301376000918101602001919091529392505050565b60008060408385031215614b9157600080fd5b614b9a8361468b565b915060208301356001600160401b03811115614bb557600080fd5b6147e285828601614b0f565b600060208284031215614bd357600080fd5b81356001600160401b03811115614be957600080fd5b82016101a08185031215610b8957600080fd5b60008060008060008060a08789031215614c1557600080fd5b614c1e8761468b565b955060208701356001600160401b0380821115614c3a57600080fd5b818901915089601f830112614c4e57600080fd5b813581811115614c5d57600080fd5b8a60208260051b8501011115614c7257600080fd5b602083019750809650506040890135915080821115614c9057600080fd5b614c9c8a838b0161482d565b94506060890135915080821115614cb257600080fd5b614cbe8a838b0161482d565b93506080890135915080821115614cd457600080fd5b50614ce189828a01614734565b9150509295509295509295565b60005b83811015614d09578181015183820152602001614cf1565b83811115613f425750506000910152565b60008151808452614d32816020860160208601614cee565b601f01601f19169290920160200192915050565b60006101a08083528c518182850152614d63610340850182614d1a565b91505060208d0151614d816101c08501826001600160a01b03169052565b5060408d01516001600160a01b0381166101e08501525060608d015164ffffffffff81166102008501525060808d015164ffffffffff81166102208501525060a08d015164ffffffffff81166102408501525060c08d01516001600160601b0381166102608501525060e08d01516001600160601b038116610280850152506101008d01516102a08401526101208d01516102c0840152610140808e01518015156102e0860152506101608e8101518051610300870152602081015161032087015250829350614e7d602086018f8051151582526020810151151560208301526040810151151560408301526060810151151560608301525050565b6001600160a01b038d1660a08601528b60c08601528a60e08601528961010086015288610120860152614eba828601896001600160601b03169052565b8681860152505050826101808301529b9a5050505050505050505050565b600060208284031215614eea57600080fd5b5035919050565b602081526000610b896020830184614d1a565b60208082526019908201527f44656c657465642f5363616d6d65642f43616e63656c6c656400000000000000604082015260600190565b634e487b7160e01b600052603260045260246000fd5b634e487b7160e01b600052601160045260246000fd5b6000600019821415614f7b57614f7b614f51565b5060010190565b6000816000190483118215151615614f9c57614f9c614f51565b500290565b600082614fbe57634e487b7160e01b600052601260045260246000fd5b500490565b60008219821115614fd657614fd6614f51565b500190565b60208082526017908201527f4e6f7420696e207375626d697373696f6e207068617365000000000000000000604082015260600190565b60208082526012908201527111195b195d1959081bdc8814d8d85b5b595960721b604082015260600190565b60006020828403121561505057600080fd5b610b8982614816565b8035610d288161488f565b60006020828403121561507657600080fd5b5051919050565b60006020828403121561508f57600080fd5b610b89826149cc565b60006001600160401b038083168185168083038211156150ba576150ba614f51565b01949350505050565b8015158114610cb657600080fd5b8035610d28816150c3565b6000604082840312156150ee57600080fd5b604051604081018181106001600160401b0382111715615110576151106146a2565b604052823581526020928301359281019290925250919050565b60006101a0823603121561513d57600080fd5b6151456146b8565b82356001600160401b0381111561515b57600080fd5b61516736828601614b0f565b82525061517660208401615059565b602082015261518760408401615059565b6040820152615198606084016149cc565b60608201526151a9608084016149cc565b60808201526151ba60a084016149cc565b60a08201526151cb60c08401614816565b60c08201526151dc60e08401614816565b60e0820152610100838101359082015261012080840135908201526101406152058185016150d1565b90820152610160615218368583016150dc565b9082015292915050565b6000808335601e1984360301811261523957600080fd5b8301803591506001600160401b0382111561525357600080fd5b60200191503681900382131561526857600080fd5b9250929050565b610100808252810189905260006101208a8c828501376000838c018201526001600160a01b03998a16602084015297909816604082015264ffffffffff958616606082015293851660808501529190931660a08301526001600160601b0392831660c083015290911660e0820152601f909301601f191690920190910192915050565b60006020828403121561530457600080fd5b8135610b89816150c3565b600181811c9082168061532357607f821691505b6020821081141561534457634e487b7160e01b600052602260045260246000fd5b50919050565b60006001600160401b038381169083168181101561536a5761536a614f51565b039392505050565b60008282101561538457615384614f51565b500390565b6020808252602b908201527f496e697469616c697a61626c653a20636f6e7472616374206973206e6f74206960408201526a6e697469616c697a696e6760a81b606082015260800190565b6000602082840312156153e657600080fd5b8151610b89816150c3565b60008251615403818460208701614cee565b919091019291505056fea2646970667358221220685f750b3d1af38f12c120ab373a2ee89266e2f51c1a200816e5a4bc77cd981164736f6c63430008090033","opcodes":"PUSH1 0x80 PUSH1 0x40 MSTORE CALLVALUE DUP1 ISZERO PUSH2 0x10 JUMPI PUSH1 0x0 DUP1 REVERT JUMPDEST POP PUSH2 0x5443 DUP1 PUSH2 0x20 PUSH1 0x0 CODECOPY PUSH1 0x0 RETURN INVALID PUSH1 0x80 PUSH1 0x40 MSTORE CALLVALUE DUP1 ISZERO PUSH2 0x10 JUMPI PUSH1 0x0 DUP1 REVERT JUMPDEST POP PUSH1 0x4 CALLDATASIZE LT PUSH2 0x206 JUMPI PUSH1 0x0 CALLDATALOAD PUSH1 0xE0 SHR DUP1 PUSH4 0x7273C6BA GT PUSH2 0x11A JUMPI DUP1 PUSH4 0xC5A36D54 GT PUSH2 0xAD JUMPI DUP1 PUSH4 0xD8A9F29E GT PUSH2 0x7C JUMPI DUP1 PUSH4 0xD8A9F29E EQ PUSH2 0x4BC JUMPI DUP1 PUSH4 0xE4C73FC1 EQ PUSH2 0x4CF JUMPI DUP1 PUSH4 0xE86DEA4A EQ PUSH2 0x4F7 JUMPI DUP1 PUSH4 0xEAF5AA58 EQ PUSH2 0x500 JUMPI DUP1 PUSH4 0xF2FDE38B EQ PUSH2 0x520 JUMPI PUSH1 0x0 DUP1 REVERT JUMPDEST DUP1 PUSH4 0xC5A36D54 EQ PUSH2 0x432 JUMPI DUP1 PUSH4 0xCA648FF5 EQ PUSH2 0x445 JUMPI DUP1 PUSH4 0xCADD147C EQ PUSH2 0x458 JUMPI DUP1 PUSH4 0xD73792A9 EQ PUSH2 0x4B3 JUMPI PUSH1 0x0 DUP1 REVERT JUMPDEST DUP1 PUSH4 0x9607FD9F GT PUSH2 0xE9 JUMPI DUP1 PUSH4 0x9607FD9F EQ PUSH2 0x3C9 JUMPI DUP1 PUSH4 0x9E3079CB EQ PUSH2 0x3DC JUMPI DUP1 PUSH4 0xAD8AE9FC EQ PUSH2 0x3F6 JUMPI DUP1 PUSH4 0xAE98DF16 EQ PUSH2 0x41F JUMPI PUSH1 0x0 DUP1 REVERT JUMPDEST DUP1 PUSH4 0x7273C6BA EQ PUSH2 0x380 JUMPI DUP1 PUSH4 0x7F513CB8 EQ PUSH2 0x393 JUMPI DUP1 PUSH4 0x8129FC1C EQ PUSH2 0x3A6 JUMPI DUP1 PUSH4 0x8DA5CB5B EQ PUSH2 0x3AE JUMPI PUSH1 0x0 DUP1 REVERT JUMPDEST DUP1 PUSH4 0x2E1772E4 GT PUSH2 0x19D JUMPI DUP1 PUSH4 0x40B20B09 GT PUSH2 0x16C JUMPI DUP1 PUSH4 0x40B20B09 EQ PUSH2 0x31C JUMPI DUP1 PUSH4 0x465CE9A9 EQ PUSH2 0x32F JUMPI DUP1 PUSH4 0x5CEFB291 EQ PUSH2 0x342 JUMPI DUP1 PUSH4 0x5EBC7F12 EQ PUSH2 0x355 JUMPI DUP1 PUSH4 0x715018A6 EQ PUSH2 0x378 JUMPI PUSH1 0x0 DUP1 REVERT JUMPDEST DUP1 PUSH4 0x2E1772E4 EQ PUSH2 0x2D0 JUMPI DUP1 PUSH4 0x30433843 EQ PUSH2 0x2E3 JUMPI DUP1 PUSH4 0x3A62500C EQ PUSH2 0x2F6 JUMPI DUP1 PUSH4 0x3BB6B279 EQ PUSH2 0x309 JUMPI PUSH1 0x0 DUP1 REVERT JUMPDEST DUP1 PUSH4 0x2199D5CD GT PUSH2 0x1D9 JUMPI DUP1 PUSH4 0x2199D5CD EQ PUSH2 0x276 JUMPI DUP1 PUSH4 0x291AB528 EQ PUSH2 0x289 JUMPI DUP1 PUSH4 0x2A6B405F EQ PUSH2 0x2AA JUMPI DUP1 PUSH4 0x2B956FF7 EQ PUSH2 0x2BD JUMPI PUSH1 0x0 DUP1 REVERT JUMPDEST DUP1 PUSH4 0xA49A186 EQ PUSH2 0x20B JUMPI DUP1 PUSH4 0x10ECE323 EQ PUSH2 0x220 JUMPI DUP1 PUSH4 0x11221C1E EQ PUSH2 0x233 JUMPI DUP1 PUSH4 0x19A50F49 EQ PUSH2 0x263 JUMPI JUMPDEST PUSH1 0x0 DUP1 REVERT JUMPDEST PUSH2 0x21E PUSH2 0x219 CALLDATASIZE PUSH1 0x4 PUSH2 0x479F JUMP JUMPDEST PUSH2 0x533 JUMP JUMPDEST STOP JUMPDEST PUSH2 0x21E PUSH2 0x22E CALLDATASIZE PUSH1 0x4 PUSH2 0x47EC JUMP JUMPDEST PUSH2 0x876 JUMP JUMPDEST PUSH2 0x246 PUSH2 0x241 CALLDATASIZE PUSH1 0x4 PUSH2 0x48A4 JUMP JUMPDEST PUSH2 0x937 JUMP JUMPDEST PUSH1 0x40 MLOAD PUSH1 0x1 PUSH1 0x1 PUSH1 0x40 SHL SUB SWAP1 SWAP2 AND DUP2 MSTORE PUSH1 0x20 ADD JUMPDEST PUSH1 0x40 MLOAD DUP1 SWAP2 SUB SWAP1 RETURN JUMPDEST PUSH1 0x67 SLOAD PUSH2 0x246 SWAP1 PUSH1 0x1 PUSH1 0x1 PUSH1 0x40 SHL SUB AND DUP2 JUMP JUMPDEST PUSH2 0x246 PUSH2 0x284 CALLDATASIZE PUSH1 0x4 PUSH2 0x4951 JUMP JUMPDEST PUSH2 0xA5E JUMP JUMPDEST PUSH2 0x29C PUSH2 0x297 CALLDATASIZE PUSH1 0x4 PUSH2 0x496E JUMP JUMPDEST PUSH2 0xB43 JUMP JUMPDEST PUSH1 0x40 MLOAD SWAP1 DUP2 MSTORE PUSH1 0x20 ADD PUSH2 0x25A JUMP JUMPDEST PUSH2 0x21E PUSH2 0x2B8 CALLDATASIZE PUSH1 0x4 PUSH2 0x49B1 JUMP JUMPDEST PUSH2 0xB90 JUMP JUMPDEST PUSH2 0x246 PUSH2 0x2CB CALLDATASIZE PUSH1 0x4 PUSH2 0x4951 JUMP JUMPDEST PUSH2 0xCB9 JUMP JUMPDEST PUSH2 0x21E PUSH2 0x2DE CALLDATASIZE PUSH1 0x4 PUSH2 0x49E1 JUMP JUMPDEST PUSH2 0xD2D JUMP JUMPDEST PUSH2 0x21E PUSH2 0x2F1 CALLDATASIZE PUSH1 0x4 PUSH2 0x47EC JUMP JUMPDEST PUSH2 0xE10 JUMP JUMPDEST PUSH2 0x29C PUSH2 0x304 CALLDATASIZE PUSH1 0x4 PUSH2 0x49B1 JUMP JUMPDEST PUSH2 0x1074 JUMP JUMPDEST PUSH2 0x21E PUSH2 0x317 CALLDATASIZE PUSH1 0x4 PUSH2 0x4A47 JUMP JUMPDEST PUSH2 0x148A JUMP JUMPDEST PUSH2 0x21E PUSH2 0x32A CALLDATASIZE PUSH1 0x4 PUSH2 0x4ADF JUMP JUMPDEST PUSH2 0x171F JUMP JUMPDEST PUSH2 0x21E PUSH2 0x33D CALLDATASIZE PUSH1 0x4 PUSH2 0x4B7E JUMP JUMPDEST PUSH2 0x179F JUMP JUMPDEST PUSH1 0x6A SLOAD PUSH2 0x246 SWAP1 PUSH1 0x1 PUSH1 0x1 PUSH1 0x40 SHL SUB AND DUP2 JUMP JUMPDEST PUSH2 0x368 PUSH2 0x363 CALLDATASIZE PUSH1 0x4 PUSH2 0x47EC JUMP JUMPDEST PUSH2 0x1875 JUMP JUMPDEST PUSH1 0x40 MLOAD SWAP1 ISZERO ISZERO DUP2 MSTORE PUSH1 0x20 ADD PUSH2 0x25A JUMP JUMPDEST PUSH2 0x21E PUSH2 0x1897 JUMP JUMPDEST PUSH2 0x21E PUSH2 0x38E CALLDATASIZE PUSH1 0x4 PUSH2 0x47EC JUMP JUMPDEST PUSH2 0x18AB JUMP JUMPDEST PUSH2 0x29C PUSH2 0x3A1 CALLDATASIZE PUSH1 0x4 PUSH2 0x4BC1 JUMP JUMPDEST PUSH2 0x1A78 JUMP JUMPDEST PUSH2 0x21E PUSH2 0x2355 JUMP JUMPDEST PUSH1 0x33 SLOAD PUSH1 0x40 MLOAD PUSH1 0x1 PUSH1 0x1 PUSH1 0xA0 SHL SUB SWAP1 SWAP2 AND DUP2 MSTORE PUSH1 0x20 ADD PUSH2 0x25A JUMP JUMPDEST PUSH2 0x246 PUSH2 0x3D7 CALLDATASIZE PUSH1 0x4 PUSH2 0x4BFC JUMP JUMPDEST PUSH2 0x247E JUMP JUMPDEST PUSH1 0x67 SLOAD PUSH2 0x246 SWAP1 PUSH1 0x1 PUSH1 0x40 SHL SWAP1 DIV PUSH1 0x1 PUSH1 0x1 PUSH1 0x40 SHL SUB AND DUP2 JUMP JUMPDEST PUSH2 0x409 PUSH2 0x404 CALLDATASIZE PUSH1 0x4 PUSH2 0x49B1 JUMP JUMPDEST PUSH2 0x2751 JUMP JUMPDEST PUSH1 0x40 MLOAD PUSH2 0x25A SWAP11 SWAP10 SWAP9 SWAP8 SWAP7 SWAP6 SWAP5 SWAP4 SWAP3 SWAP2 SWAP1 PUSH2 0x4D46 JUMP JUMPDEST PUSH2 0x21E PUSH2 0x42D CALLDATASIZE PUSH1 0x4 PUSH2 0x49B1 JUMP JUMPDEST PUSH2 0x2965 JUMP JUMPDEST PUSH2 0x29C PUSH2 0x440 CALLDATASIZE PUSH1 0x4 PUSH2 0x49B1 JUMP JUMPDEST PUSH2 0x29D9 JUMP JUMPDEST PUSH2 0x246 PUSH2 0x453 CALLDATASIZE PUSH1 0x4 PUSH2 0x4951 JUMP JUMPDEST PUSH2 0x2A3A JUMP JUMPDEST PUSH2 0x493 PUSH2 0x466 CALLDATASIZE PUSH1 0x4 PUSH2 0x4ED8 JUMP JUMPDEST PUSH1 0x0 SWAP1 DUP2 MSTORE PUSH1 0x66 PUSH1 0x20 SWAP1 DUP2 MSTORE PUSH1 0x40 DUP1 DUP4 KECCAK256 PUSH1 0x2 PUSH1 0x1 PUSH1 0x60 SHL SUB NOT DUP5 MSTORE PUSH1 0x1 ADD SWAP1 SWAP2 MSTORE SWAP1 KECCAK256 SLOAD PUSH1 0x60 DUP2 SWAP1 SHR SWAP2 JUMP JUMPDEST PUSH1 0x40 DUP1 MLOAD PUSH1 0x1 PUSH1 0x1 PUSH1 0x60 SHL SUB SWAP4 DUP5 AND DUP2 MSTORE SWAP3 SWAP1 SWAP2 AND PUSH1 0x20 DUP4 ADD MSTORE ADD PUSH2 0x25A JUMP JUMPDEST PUSH2 0x29C PUSH2 0x3E8 DUP2 JUMP JUMPDEST PUSH2 0x21E PUSH2 0x4CA CALLDATASIZE PUSH1 0x4 PUSH2 0x49B1 JUMP JUMPDEST PUSH2 0x2A93 JUMP JUMPDEST PUSH2 0x4E2 PUSH2 0x4DD CALLDATASIZE PUSH1 0x4 PUSH2 0x479F JUMP JUMPDEST PUSH2 0x2B09 JUMP JUMPDEST PUSH1 0x40 DUP1 MLOAD SWAP3 DUP4 MSTORE PUSH1 0x20 DUP4 ADD SWAP2 SWAP1 SWAP2 MSTORE ADD PUSH2 0x25A JUMP JUMPDEST PUSH2 0x29C PUSH1 0x6B SLOAD DUP2 JUMP JUMPDEST PUSH2 0x513 PUSH2 0x50E CALLDATASIZE PUSH1 0x4 PUSH2 0x49B1 JUMP JUMPDEST PUSH2 0x31A9 JUMP JUMPDEST PUSH1 0x40 MLOAD PUSH2 0x25A SWAP2 SWAP1 PUSH2 0x4EF1 JUMP JUMPDEST PUSH2 0x21E PUSH2 0x52E CALLDATASIZE PUSH1 0x4 PUSH2 0x4951 JUMP JUMPDEST PUSH2 0x32AB JUMP JUMPDEST PUSH1 0x1 PUSH1 0x1 PUSH1 0x40 SHL SUB DUP3 AND PUSH1 0x0 SWAP1 DUP2 MSTORE PUSH1 0x65 PUSH1 0x20 MSTORE PUSH1 0x40 SWAP1 KECCAK256 PUSH1 0x2 ADD SLOAD DUP3 SWAP1 PUSH1 0x1 PUSH1 0xA0 SHL SWAP1 DIV PUSH5 0xFFFFFFFFFF AND TIMESTAMP LT PUSH2 0x5B2 JUMPI PUSH1 0x40 MLOAD PUSH3 0x461BCD PUSH1 0xE5 SHL DUP2 MSTORE PUSH1 0x20 PUSH1 0x4 DUP3 ADD MSTORE PUSH1 0x1F PUSH1 0x24 DUP3 ADD MSTORE PUSH32 0x4E6F7420696E206F7264657220706C6163652F63616E63656C20706861736500 PUSH1 0x44 DUP3 ADD MSTORE PUSH1 0x64 ADD JUMPDEST PUSH1 0x40 MLOAD DUP1 SWAP2 SUB SWAP1 REVERT JUMPDEST PUSH1 0x1 PUSH1 0x1 PUSH1 0x40 SHL SUB DUP4 AND PUSH1 0x0 SWAP1 DUP2 MSTORE PUSH1 0x65 PUSH1 0x20 MSTORE PUSH1 0x40 SWAP1 KECCAK256 PUSH1 0x9 ADD SLOAD DUP4 SWAP1 PUSH1 0xFF AND ISZERO DUP1 ISZERO PUSH2 0x601 JUMPI POP PUSH1 0x1 PUSH1 0x1 PUSH1 0x40 SHL SUB DUP2 AND PUSH1 0x0 SWAP1 DUP2 MSTORE PUSH1 0x65 PUSH1 0x20 MSTORE PUSH1 0x40 SWAP1 KECCAK256 PUSH1 0x9 ADD SLOAD PUSH2 0x100 SWAP1 DIV PUSH1 0xFF AND ISZERO JUMPDEST DUP1 ISZERO PUSH2 0x62F JUMPI POP PUSH1 0x1 PUSH1 0x1 PUSH1 0x40 SHL SUB DUP2 AND PUSH1 0x0 SWAP1 DUP2 MSTORE PUSH1 0x65 PUSH1 0x20 MSTORE PUSH1 0x40 SWAP1 KECCAK256 PUSH1 0x9 ADD SLOAD PUSH3 0x10000 SWAP1 DIV PUSH1 0xFF AND ISZERO JUMPDEST PUSH2 0x64B JUMPI PUSH1 0x40 MLOAD PUSH3 0x461BCD PUSH1 0xE5 SHL DUP2 MSTORE PUSH1 0x4 ADD PUSH2 0x5A9 SWAP1 PUSH2 0x4F04 JUMP JUMPDEST PUSH1 0x0 PUSH2 0x656 CALLER PUSH2 0xCB9 JUMP JUMPDEST SWAP1 POP PUSH1 0x0 DUP1 JUMPDEST DUP6 MLOAD DUP2 LT ISZERO PUSH2 0x801 JUMPI PUSH1 0x0 PUSH2 0x6AE DUP8 DUP4 DUP2 MLOAD DUP2 LT PUSH2 0x67C JUMPI PUSH2 0x67C PUSH2 0x4F3B JUMP JUMPDEST PUSH1 0x20 MUL PUSH1 0x20 ADD ADD MLOAD PUSH1 0x66 PUSH1 0x0 DUP12 PUSH1 0x1 PUSH1 0x1 PUSH1 0x40 SHL SUB AND DUP2 MSTORE PUSH1 0x20 ADD SWAP1 DUP2 MSTORE PUSH1 0x20 ADD PUSH1 0x0 KECCAK256 PUSH2 0x3321 SWAP1 SWAP2 SWAP1 PUSH4 0xFFFFFFFF AND JUMP JUMPDEST SWAP1 POP DUP1 ISZERO PUSH2 0x7EE JUMPI PUSH1 0x0 DUP1 PUSH1 0x0 PUSH2 0x6E7 DUP11 DUP7 DUP2 MLOAD DUP2 LT PUSH2 0x6D0 JUMPI PUSH2 0x6D0 PUSH2 0x4F3B JUMP JUMPDEST PUSH1 0x20 MUL PUSH1 0x20 ADD ADD MLOAD PUSH1 0xC0 DUP2 SWAP1 SHR SWAP2 PUSH1 0x60 DUP3 SWAP1 SHR SWAP2 SWAP1 JUMP JUMPDEST SWAP3 POP SWAP3 POP SWAP3 POP DUP7 PUSH1 0x1 PUSH1 0x1 PUSH1 0x40 SHL SUB AND DUP4 PUSH1 0x1 PUSH1 0x1 PUSH1 0x40 SHL SUB AND EQ PUSH2 0x74E JUMPI PUSH1 0x40 MLOAD PUSH3 0x461BCD PUSH1 0xE5 SHL DUP2 MSTORE PUSH1 0x20 PUSH1 0x4 DUP3 ADD MSTORE PUSH1 0x1C PUSH1 0x24 DUP3 ADD MSTORE PUSH32 0x4F6E6C79206F7264657220706C616365722063616E2063616E63656C00000000 PUSH1 0x44 DUP3 ADD MSTORE PUSH1 0x64 ADD PUSH2 0x5A9 JUMP JUMPDEST PUSH2 0x761 DUP7 PUSH1 0x1 PUSH1 0x1 PUSH1 0x60 SHL SUB DUP4 AND PUSH2 0x3376 JUMP JUMPDEST SWAP6 POP DUP7 PUSH1 0x1 PUSH1 0x1 PUSH1 0x40 SHL SUB AND DUP12 PUSH1 0x1 PUSH1 0x1 PUSH1 0x40 SHL SUB AND PUSH32 0xD9AECBEDCBD21D1FD8217AA3393AA4411489064ED05BAD6EDA25C6105DE63DA0 DUP5 DUP5 DUP15 DUP11 DUP2 MLOAD DUP2 LT PUSH2 0x7AC JUMPI PUSH2 0x7AC PUSH2 0x4F3B JUMP JUMPDEST PUSH1 0x20 MUL PUSH1 0x20 ADD ADD MLOAD PUSH1 0x40 MLOAD PUSH2 0x7E2 SWAP4 SWAP3 SWAP2 SWAP1 PUSH1 0x1 PUSH1 0x1 PUSH1 0x60 SHL SUB SWAP4 DUP5 AND DUP2 MSTORE SWAP2 SWAP1 SWAP3 AND PUSH1 0x20 DUP3 ADD MSTORE PUSH1 0x40 DUP2 ADD SWAP2 SWAP1 SWAP2 MSTORE PUSH1 0x60 ADD SWAP1 JUMP JUMPDEST PUSH1 0x40 MLOAD DUP1 SWAP2 SUB SWAP1 LOG3 POP POP POP JUMPDEST POP DUP1 PUSH2 0x7F9 DUP2 PUSH2 0x4F67 JUMP JUMPDEST SWAP2 POP POP PUSH2 0x65C JUMP JUMPDEST POP PUSH1 0x1 PUSH1 0x1 PUSH1 0x40 SHL SUB DUP7 AND PUSH1 0x0 SWAP1 DUP2 MSTORE PUSH1 0x65 PUSH1 0x20 MSTORE PUSH1 0x40 SWAP1 KECCAK256 PUSH1 0x8 ADD SLOAD PUSH2 0x86E SWAP1 CALLER SWAP1 PUSH8 0xDE0B6B3A7640000 SWAP1 PUSH2 0x838 SWAP1 DUP6 PUSH2 0x4F82 JUMP JUMPDEST PUSH2 0x842 SWAP2 SWAP1 PUSH2 0x4FA1 JUMP JUMPDEST PUSH1 0x1 PUSH1 0x1 PUSH1 0x40 SHL SUB DUP10 AND PUSH1 0x0 SWAP1 DUP2 MSTORE PUSH1 0x65 PUSH1 0x20 MSTORE PUSH1 0x40 SWAP1 KECCAK256 PUSH1 0x2 ADD SLOAD PUSH1 0x1 PUSH1 0x1 PUSH1 0xA0 SHL SUB AND SWAP2 SWAP1 PUSH2 0x3382 JUMP JUMPDEST POP POP POP POP POP POP JUMP JUMPDEST PUSH1 0x1 PUSH1 0x1 PUSH1 0x40 SHL SUB DUP3 AND PUSH1 0x0 SWAP1 DUP2 MSTORE PUSH1 0x65 PUSH1 0x20 MSTORE PUSH1 0x40 SWAP1 KECCAK256 PUSH1 0xA ADD SLOAD PUSH1 0x1 PUSH1 0x1 PUSH1 0xA0 SHL SUB AND CALLER EQ PUSH2 0x8DB JUMPI PUSH1 0x40 MLOAD PUSH3 0x461BCD PUSH1 0xE5 SHL DUP2 MSTORE PUSH1 0x20 PUSH1 0x4 DUP3 ADD MSTORE PUSH1 0xF PUSH1 0x24 DUP3 ADD MSTORE PUSH15 0x706F6F6C206F776E6572206F6E6C79 PUSH1 0x88 SHL PUSH1 0x44 DUP3 ADD MSTORE PUSH1 0x64 ADD PUSH2 0x5A9 JUMP JUMPDEST PUSH1 0x1 PUSH1 0x1 PUSH1 0x40 SHL SUB DUP3 AND PUSH1 0x0 DUP2 DUP2 MSTORE PUSH1 0x65 PUSH1 0x20 MSTORE PUSH1 0x40 SWAP1 DUP2 SWAP1 KECCAK256 PUSH1 0x11 ADD DUP4 SWAP1 SSTORE MLOAD PUSH32 0xA4C95C7A5E4B51A313BFFD5C2864E852E46AC143CEE2ADDDE4CC250A82A10D4C SWAP1 PUSH2 0x92B SWAP1 DUP5 DUP2 MSTORE PUSH1 0x20 ADD SWAP1 JUMP JUMPDEST PUSH1 0x40 MLOAD DUP1 SWAP2 SUB SWAP1 LOG2 POP POP JUMP JUMPDEST PUSH1 0x1 PUSH1 0x1 PUSH1 0x40 SHL SUB DUP6 AND PUSH1 0x0 SWAP1 DUP2 MSTORE PUSH1 0x65 PUSH1 0x20 MSTORE PUSH1 0x40 DUP2 KECCAK256 PUSH1 0x3 ADD SLOAD DUP7 SWAP1 PUSH5 0xFFFFFFFFFF AND TIMESTAMP LT PUSH2 0x9AA JUMPI PUSH1 0x40 MLOAD PUSH3 0x461BCD PUSH1 0xE5 SHL DUP2 MSTORE PUSH1 0x20 PUSH1 0x4 DUP3 ADD MSTORE PUSH1 0x1C PUSH1 0x24 DUP3 ADD MSTORE PUSH32 0x4E6F7420696E206F7264657220706C6163656D656E7420706861736500000000 PUSH1 0x44 DUP3 ADD MSTORE PUSH1 0x64 ADD PUSH2 0x5A9 JUMP JUMPDEST PUSH1 0x1 PUSH1 0x1 PUSH1 0x40 SHL SUB DUP8 AND PUSH1 0x0 SWAP1 DUP2 MSTORE PUSH1 0x65 PUSH1 0x20 MSTORE PUSH1 0x40 SWAP1 KECCAK256 PUSH1 0x9 ADD SLOAD DUP8 SWAP1 PUSH1 0xFF AND ISZERO DUP1 ISZERO PUSH2 0x9F9 JUMPI POP PUSH1 0x1 PUSH1 0x1 PUSH1 0x40 SHL SUB DUP2 AND PUSH1 0x0 SWAP1 DUP2 MSTORE PUSH1 0x65 PUSH1 0x20 MSTORE PUSH1 0x40 SWAP1 KECCAK256 PUSH1 0x9 ADD SLOAD PUSH2 0x100 SWAP1 DIV PUSH1 0xFF AND ISZERO JUMPDEST DUP1 ISZERO PUSH2 0xA27 JUMPI POP PUSH1 0x1 PUSH1 0x1 PUSH1 0x40 SHL SUB DUP2 AND PUSH1 0x0 SWAP1 DUP2 MSTORE PUSH1 0x65 PUSH1 0x20 MSTORE PUSH1 0x40 SWAP1 KECCAK256 PUSH1 0x9 ADD SLOAD PUSH3 0x10000 SWAP1 DIV PUSH1 0xFF AND ISZERO JUMPDEST PUSH2 0xA43 JUMPI PUSH1 0x40 MLOAD PUSH3 0x461BCD PUSH1 0xE5 SHL DUP2 MSTORE PUSH1 0x4 ADD PUSH2 0x5A9 SWAP1 PUSH2 0x4F04 JUMP JUMPDEST PUSH2 0xA50 DUP9 DUP9 DUP9 DUP9 DUP9 PUSH2 0x33EA JUMP JUMPDEST SWAP3 POP JUMPDEST POP POP SWAP6 SWAP5 POP POP POP POP POP JUMP JUMPDEST PUSH1 0x67 SLOAD PUSH1 0x0 SWAP1 PUSH2 0xA81 SWAP1 PUSH2 0xA7C SWAP1 PUSH1 0x1 PUSH1 0x1 PUSH1 0x40 SHL SUB AND PUSH1 0x1 PUSH2 0x3376 JUMP JUMPDEST PUSH2 0x36E7 JUMP JUMPDEST PUSH1 0x67 DUP1 SLOAD PUSH8 0xFFFFFFFFFFFFFFFF NOT AND PUSH1 0x1 PUSH1 0x1 PUSH1 0x40 SHL SUB SWAP3 SWAP1 SWAP3 AND SWAP2 DUP3 OR SWAP1 SSTORE PUSH2 0xAAE SWAP1 PUSH1 0x68 SWAP1 DUP5 PUSH2 0x374F JUMP JUMPDEST PUSH2 0xAF0 JUMPI PUSH1 0x40 MLOAD PUSH3 0x461BCD PUSH1 0xE5 SHL DUP2 MSTORE PUSH1 0x20 PUSH1 0x4 DUP3 ADD MSTORE PUSH1 0x13 PUSH1 0x24 DUP3 ADD MSTORE PUSH19 0x5573657220616C726561647920657869737473 PUSH1 0x68 SHL PUSH1 0x44 DUP3 ADD MSTORE PUSH1 0x64 ADD PUSH2 0x5A9 JUMP JUMPDEST POP PUSH1 0x67 SLOAD PUSH1 0x40 MLOAD PUSH1 0x1 PUSH1 0x1 PUSH1 0x40 SHL SUB SWAP1 SWAP2 AND DUP1 DUP3 MSTORE SWAP1 PUSH1 0x1 PUSH1 0x1 PUSH1 0xA0 SHL SUB DUP4 AND SWAP1 PUSH32 0x6838F67CB358C332087B73DBE769A6C869A5F87225236C16DDA5D0013A77074C SWAP1 PUSH1 0x20 ADD PUSH1 0x40 MLOAD DUP1 SWAP2 SUB SWAP1 LOG2 SWAP2 SWAP1 POP JUMP JUMPDEST PUSH1 0x0 PUSH1 0x1 PUSH1 0x1 PUSH1 0x60 SHL SUB DUP3 AND PUSH2 0xB7C PUSH12 0xFFFFFFFFFFFFFFFFFFFFFFFF PUSH1 0x60 SHL PUSH1 0x60 DUP7 SWAP1 SHL AND PUSH1 0x1 PUSH1 0x1 PUSH1 0xC0 SHL SUB NOT PUSH1 0xC0 DUP9 SWAP1 SHL AND PUSH2 0x4FC3 JUMP JUMPDEST PUSH2 0xB86 SWAP2 SWAP1 PUSH2 0x4FC3 JUMP JUMPDEST SWAP1 POP JUMPDEST SWAP4 SWAP3 POP POP POP JUMP JUMPDEST PUSH1 0x1 PUSH1 0x1 PUSH1 0x40 SHL SUB DUP2 AND PUSH1 0x0 SWAP1 DUP2 MSTORE PUSH1 0x65 PUSH1 0x20 MSTORE PUSH1 0x40 SWAP1 KECCAK256 PUSH1 0xA ADD SLOAD PUSH1 0x1 PUSH1 0x1 PUSH1 0xA0 SHL SUB AND CALLER EQ DUP1 PUSH2 0xBCC JUMPI POP PUSH1 0x33 SLOAD PUSH1 0x1 PUSH1 0x1 PUSH1 0xA0 SHL SUB AND CALLER EQ JUMPDEST PUSH2 0xC10 JUMPI PUSH1 0x40 MLOAD PUSH3 0x461BCD PUSH1 0xE5 SHL DUP2 MSTORE PUSH1 0x20 PUSH1 0x4 DUP3 ADD MSTORE PUSH1 0x15 PUSH1 0x24 DUP3 ADD MSTORE PUSH21 0x13DB9B1E4813DDDB995C8818D85B8818D85B98D95B PUSH1 0x5A SHL PUSH1 0x44 DUP3 ADD MSTORE PUSH1 0x64 ADD PUSH2 0x5A9 JUMP JUMPDEST PUSH1 0x1 PUSH1 0x1 PUSH1 0x40 SHL SUB DUP2 AND PUSH1 0x0 SWAP1 DUP2 MSTORE PUSH1 0x65 PUSH1 0x20 MSTORE PUSH1 0x40 SWAP1 KECCAK256 PUSH1 0x9 DUP2 ADD DUP1 SLOAD PUSH3 0xFF0000 NOT AND PUSH3 0x10000 OR SWAP1 SSTORE PUSH1 0xA DUP2 ADD SLOAD PUSH1 0x7 DUP3 ADD SLOAD PUSH1 0x3 SWAP1 SWAP3 ADD SLOAD PUSH2 0xCB6 SWAP3 PUSH1 0x1 PUSH1 0x1 PUSH1 0xA0 SHL SUB SWAP1 SWAP3 AND SWAP2 PUSH8 0xDE0B6B3A7640000 SWAP2 PUSH2 0xC80 SWAP2 SWAP1 PUSH1 0x1 PUSH1 0x1 PUSH1 0x60 SHL SUB PUSH1 0x1 PUSH1 0x28 SHL SWAP1 SWAP2 DIV AND PUSH2 0x4F82 JUMP JUMPDEST PUSH2 0xC8A SWAP2 SWAP1 PUSH2 0x4FA1 JUMP JUMPDEST PUSH1 0x1 PUSH1 0x1 PUSH1 0x40 SHL SUB DUP5 AND PUSH1 0x0 SWAP1 DUP2 MSTORE PUSH1 0x65 PUSH1 0x20 MSTORE PUSH1 0x40 SWAP1 KECCAK256 PUSH1 0x1 ADD SLOAD PUSH1 0x1 PUSH1 0x1 PUSH1 0xA0 SHL SUB AND SWAP2 SWAP1 PUSH2 0x3382 JUMP JUMPDEST POP JUMP JUMPDEST PUSH1 0x0 PUSH2 0xCC6 PUSH1 0x68 DUP4 PUSH2 0x3903 JUMP JUMPDEST ISZERO PUSH2 0xCDC JUMPI PUSH2 0xCD6 PUSH1 0x68 DUP4 PUSH2 0x392D JUMP JUMPDEST SWAP3 SWAP2 POP POP JUMP JUMPDEST PUSH2 0xCE5 DUP3 PUSH2 0xA5E JUMP JUMPDEST SWAP1 POP DUP2 PUSH1 0x1 PUSH1 0x1 PUSH1 0xA0 SHL SUB AND DUP2 PUSH1 0x1 PUSH1 0x1 PUSH1 0x40 SHL SUB AND PUSH32 0x969D438B19B6B5FB3C0D3C6F16867E519FCEC4233799D6BE29D1C00F2045BA26 PUSH1 0x40 MLOAD PUSH1 0x40 MLOAD DUP1 SWAP2 SUB SWAP1 LOG3 JUMPDEST SWAP2 SWAP1 POP JUMP JUMPDEST PUSH2 0xD35 PUSH2 0x39B5 JUMP JUMPDEST PUSH1 0x1 PUSH1 0x1 PUSH1 0x40 SHL SUB DUP7 AND PUSH1 0x0 DUP2 DUP2 MSTORE PUSH1 0x65 PUSH1 0x20 SWAP1 DUP2 MSTORE PUSH1 0x40 SWAP2 DUP3 SWAP1 KECCAK256 PUSH1 0x2 DUP2 ADD DUP1 SLOAD PUSH1 0x3 DUP4 ADD DUP1 SLOAD PUSH5 0xFFFFFFFFFF NOT AND PUSH5 0xFFFFFFFFFF DUP13 DUP2 AND SWAP2 DUP3 OR SWAP1 SWAP3 SSTORE PUSH10 0xFFFFFFFFFFFFFFFFFFFF PUSH1 0xA0 SHL NOT SWAP1 SWAP3 AND PUSH1 0x1 PUSH1 0xC8 SHL DUP14 DUP4 AND SWAP1 DUP2 MUL PUSH5 0xFFFFFFFFFF PUSH1 0xA0 SHL NOT AND SWAP2 SWAP1 SWAP2 OR PUSH1 0x1 PUSH1 0xA0 SHL SWAP3 DUP13 AND SWAP3 DUP4 MUL OR SWAP1 SWAP4 SSTORE PUSH1 0x5 DUP5 ADD DUP10 SWAP1 SSTORE PUSH1 0x4 SWAP1 SWAP4 ADD DUP8 SWAP1 SSTORE DUP5 MLOAD SWAP2 DUP3 MSTORE SWAP3 DUP2 ADD SWAP3 SWAP1 SWAP3 MSTORE DUP2 DUP4 ADD MSTORE PUSH1 0x60 DUP2 ADD DUP5 SWAP1 MSTORE PUSH1 0x80 DUP2 ADD DUP6 SWAP1 MSTORE SWAP1 MLOAD PUSH32 0x4407DC7A4BD36C6232DA9C99EE7295621D6B255D714A309904E143A4592959BC SWAP2 DUP2 SWAP1 SUB PUSH1 0xA0 ADD SWAP1 LOG2 POP POP POP POP POP POP JUMP JUMPDEST PUSH1 0x1 PUSH1 0x1 PUSH1 0x40 SHL SUB DUP3 AND PUSH1 0x0 SWAP1 DUP2 MSTORE PUSH1 0x65 PUSH1 0x20 MSTORE PUSH1 0x40 SWAP1 KECCAK256 PUSH1 0x3 ADD SLOAD DUP3 SWAP1 PUSH5 0xFFFFFFFFFF AND ISZERO DUP1 ISZERO SWAP1 PUSH2 0xE65 JUMPI POP PUSH1 0x1 PUSH1 0x1 PUSH1 0x40 SHL SUB DUP2 AND PUSH1 0x0 SWAP1 DUP2 MSTORE PUSH1 0x65 PUSH1 0x20 MSTORE PUSH1 0x40 SWAP1 KECCAK256 PUSH1 0x3 ADD SLOAD PUSH5 0xFFFFFFFFFF AND TIMESTAMP LT ISZERO JUMPDEST DUP1 ISZERO PUSH2 0xE8A JUMPI POP PUSH1 0x1 PUSH1 0x1 PUSH1 0x40 SHL SUB DUP2 AND PUSH1 0x0 SWAP1 DUP2 MSTORE PUSH1 0x65 PUSH1 0x20 MSTORE PUSH1 0x40 SWAP1 KECCAK256 PUSH1 0xE ADD SLOAD ISZERO JUMPDEST PUSH2 0xEA6 JUMPI PUSH1 0x40 MLOAD PUSH3 0x461BCD PUSH1 0xE5 SHL DUP2 MSTORE PUSH1 0x4 ADD PUSH2 0x5A9 SWAP1 PUSH2 0x4FDB JUMP JUMPDEST PUSH1 0x1 PUSH1 0x1 PUSH1 0x40 SHL SUB DUP2 AND PUSH1 0x0 SWAP1 DUP2 MSTORE PUSH1 0x65 PUSH1 0x20 MSTORE PUSH1 0x40 SWAP1 KECCAK256 PUSH1 0x9 ADD SLOAD PUSH1 0xFF AND ISZERO DUP1 ISZERO PUSH2 0xEF3 JUMPI POP PUSH1 0x1 PUSH1 0x1 PUSH1 0x40 SHL SUB DUP2 AND PUSH1 0x0 SWAP1 DUP2 MSTORE PUSH1 0x65 PUSH1 0x20 MSTORE PUSH1 0x40 SWAP1 KECCAK256 PUSH1 0x9 ADD SLOAD PUSH2 0x100 SWAP1 DIV PUSH1 0xFF AND ISZERO JUMPDEST PUSH2 0xF0F JUMPI PUSH1 0x40 MLOAD PUSH3 0x461BCD PUSH1 0xE5 SHL DUP2 MSTORE PUSH1 0x4 ADD PUSH2 0x5A9 SWAP1 PUSH2 0x5012 JUMP JUMPDEST PUSH1 0x1 PUSH1 0x1 PUSH1 0x40 SHL SUB DUP4 AND PUSH1 0x0 SWAP1 DUP2 MSTORE PUSH1 0x65 PUSH1 0x20 MSTORE PUSH1 0x40 DUP2 KECCAK256 PUSH1 0xB DUP2 ADD SLOAD PUSH1 0xC DUP3 ADD SLOAD PUSH1 0xD SWAP1 SWAP3 ADD SLOAD SWAP1 SWAP3 JUMPDEST DUP6 DUP2 LT ISZERO PUSH2 0xF90 JUMPI PUSH1 0x1 PUSH1 0x1 PUSH1 0x40 SHL SUB DUP8 AND PUSH1 0x0 SWAP1 DUP2 MSTORE PUSH1 0x66 PUSH1 0x20 MSTORE PUSH1 0x40 SWAP1 KECCAK256 PUSH2 0xF64 SWAP1 DUP4 PUSH2 0x3A0F JUMP JUMPDEST SWAP2 POP DUP2 PUSH2 0xF7A DUP5 PUSH1 0x1 PUSH1 0x1 PUSH1 0x60 SHL SUB DUP4 AND PUSH2 0x3376 JUMP JUMPDEST SWAP4 POP POP DUP1 DUP1 PUSH2 0xF88 SWAP1 PUSH2 0x4F67 JUMP JUMPDEST SWAP2 POP POP PUSH2 0xF3A JUMP JUMPDEST POP PUSH1 0x2 PUSH1 0x1 PUSH1 0x60 SHL SUB NOT DUP2 EQ ISZERO PUSH2 0xFD7 JUMPI PUSH1 0x40 MLOAD PUSH3 0x461BCD PUSH1 0xE5 SHL DUP2 MSTORE PUSH1 0x20 PUSH1 0x4 DUP3 ADD MSTORE PUSH1 0xB PUSH1 0x24 DUP3 ADD MSTORE PUSH11 0x14995858DA195908195B99 PUSH1 0xAA SHL PUSH1 0x44 DUP3 ADD MSTORE PUSH1 0x64 ADD PUSH2 0x5A9 JUMP JUMPDEST PUSH1 0x60 DUP2 SWAP1 SHR DUP2 PUSH2 0xFF3 PUSH1 0x1 PUSH1 0x1 PUSH1 0x60 SHL SUB DUP7 DUP2 AND SWAP1 DUP4 AND PUSH2 0x3AE3 JUMP JUMPDEST PUSH2 0x1006 DUP6 PUSH1 0x1 PUSH1 0x1 PUSH1 0x60 SHL SUB DUP6 AND PUSH2 0x3AE3 JUMP JUMPDEST LT PUSH2 0x1045 JUMPI PUSH1 0x40 MLOAD PUSH3 0x461BCD PUSH1 0xE5 SHL DUP2 MSTORE PUSH1 0x20 PUSH1 0x4 DUP3 ADD MSTORE PUSH1 0xF PUSH1 0x24 DUP3 ADD MSTORE PUSH15 0x546F6F206D616E79206F7264657273 PUSH1 0x88 SHL PUSH1 0x44 DUP3 ADD MSTORE PUSH1 0x64 ADD PUSH2 0x5A9 JUMP JUMPDEST POP POP PUSH1 0x1 PUSH1 0x1 PUSH1 0x40 SHL SUB SWAP1 SWAP6 AND PUSH1 0x0 SWAP1 DUP2 MSTORE PUSH1 0x65 PUSH1 0x20 MSTORE PUSH1 0x40 SWAP1 KECCAK256 PUSH1 0xC DUP2 ADD SWAP2 SWAP1 SWAP2 SSTORE PUSH1 0xD ADD SWAP4 SWAP1 SWAP4 SSTORE POP POP POP JUMP JUMPDEST PUSH1 0x1 PUSH1 0x1 PUSH1 0x40 SHL SUB DUP2 AND PUSH1 0x0 SWAP1 DUP2 MSTORE PUSH1 0x65 PUSH1 0x20 MSTORE PUSH1 0x40 DUP2 KECCAK256 PUSH1 0x3 ADD SLOAD DUP3 SWAP1 PUSH5 0xFFFFFFFFFF AND ISZERO DUP1 ISZERO SWAP1 PUSH2 0x10C9 JUMPI POP PUSH1 0x1 PUSH1 0x1 PUSH1 0x40 SHL SUB DUP2 AND PUSH1 0x0 SWAP1 DUP2 MSTORE PUSH1 0x65 PUSH1 0x20 MSTORE PUSH1 0x40 SWAP1 KECCAK256 PUSH1 0x3 ADD SLOAD PUSH5 0xFFFFFFFFFF AND TIMESTAMP LT ISZERO JUMPDEST DUP1 ISZERO PUSH2 0x10EE JUMPI POP PUSH1 0x1 PUSH1 0x1 PUSH1 0x40 SHL SUB DUP2 AND PUSH1 0x0 SWAP1 DUP2 MSTORE PUSH1 0x65 PUSH1 0x20 MSTORE PUSH1 0x40 SWAP1 KECCAK256 PUSH1 0xE ADD SLOAD ISZERO JUMPDEST PUSH2 0x110A JUMPI PUSH1 0x40 MLOAD PUSH3 0x461BCD PUSH1 0xE5 SHL DUP2 MSTORE PUSH1 0x4 ADD PUSH2 0x5A9 SWAP1 PUSH2 0x4FDB JUMP JUMPDEST PUSH1 0x1 PUSH1 0x1 PUSH1 0x40 SHL SUB DUP2 AND PUSH1 0x0 SWAP1 DUP2 MSTORE PUSH1 0x65 PUSH1 0x20 MSTORE PUSH1 0x40 SWAP1 KECCAK256 PUSH1 0x9 ADD SLOAD PUSH1 0xFF AND ISZERO DUP1 ISZERO PUSH2 0x1157 JUMPI POP PUSH1 0x1 PUSH1 0x1 PUSH1 0x40 SHL SUB DUP2 AND PUSH1 0x0 SWAP1 DUP2 MSTORE PUSH1 0x65 PUSH1 0x20 MSTORE PUSH1 0x40 SWAP1 KECCAK256 PUSH1 0x9 ADD SLOAD PUSH2 0x100 SWAP1 DIV PUSH1 0xFF AND ISZERO JUMPDEST PUSH2 0x1173 JUMPI PUSH1 0x40 MLOAD PUSH3 0x461BCD PUSH1 0xE5 SHL DUP2 MSTORE PUSH1 0x4 ADD PUSH2 0x5A9 SWAP1 PUSH2 0x5012 JUMP JUMPDEST PUSH1 0x1 PUSH1 0x1 PUSH1 0x40 SHL SUB DUP4 AND PUSH1 0x0 SWAP1 DUP2 MSTORE PUSH1 0x65 PUSH1 0x20 MSTORE PUSH1 0x40 DUP2 KECCAK256 PUSH1 0xB DUP2 ADD SLOAD PUSH1 0xC DUP3 ADD SLOAD PUSH1 0xD SWAP1 SWAP3 ADD SLOAD PUSH1 0xC0 DUP3 SWAP1 SHR SWAP4 PUSH1 0x60 DUP4 SWAP1 SHR SWAP4 SWAP2 SWAP1 DUP1 DUP5 JUMPDEST PUSH1 0x1 PUSH1 0x1 PUSH1 0x40 SHL SUB DUP12 AND PUSH1 0x0 SWAP1 DUP2 MSTORE PUSH1 0x66 PUSH1 0x20 MSTORE PUSH1 0x40 DUP2 KECCAK256 PUSH2 0x11CE SWAP1 DUP7 PUSH2 0x3A0F JUMP JUMPDEST SWAP1 POP PUSH1 0x2 PUSH1 0x1 PUSH1 0x60 SHL SUB NOT DUP2 EQ ISZERO PUSH2 0x11E6 JUMPI POP PUSH2 0x122F JUMP JUMPDEST SWAP4 POP PUSH1 0x1 PUSH1 0x1 PUSH1 0x60 SHL SUB PUSH1 0x60 DUP6 SWAP1 SHR DUP2 AND SWAP4 POP DUP5 AND SWAP2 POP DUP4 PUSH2 0x1208 DUP7 DUP5 PUSH2 0x3376 JUMP JUMPDEST SWAP6 POP PUSH2 0x121F SWAP1 POP PUSH1 0x1 PUSH1 0x1 PUSH1 0x60 SHL SUB DUP8 AND DUP4 PUSH2 0x3AE3 JUMP JUMPDEST PUSH2 0x1229 DUP7 DUP6 PUSH2 0x3AE3 JUMP JUMPDEST LT PUSH2 0x11AC JUMPI JUMPDEST PUSH1 0x0 DUP6 GT DUP1 ISZERO PUSH2 0x125A JUMPI POP PUSH2 0x124D PUSH1 0x1 PUSH1 0x1 PUSH1 0x60 SHL SUB DUP8 AND DUP4 PUSH2 0x3AE3 JUMP JUMPDEST PUSH2 0x1257 DUP7 DUP6 PUSH2 0x3AE3 JUMP JUMPDEST LT ISZERO JUMPDEST ISZERO PUSH2 0x131F JUMPI PUSH1 0x0 PUSH2 0x1288 PUSH2 0x1281 DUP6 PUSH2 0x127B PUSH1 0x1 PUSH1 0x1 PUSH1 0x60 SHL SUB DUP12 AND DUP8 PUSH2 0x3AE3 JUMP JUMPDEST SWAP1 PUSH2 0x3AEF JUMP JUMPDEST DUP8 SWAP1 PUSH2 0x3AFB JUMP JUMPDEST SWAP1 POP DUP1 DUP4 LT PUSH2 0x12FB JUMPI PUSH1 0x0 PUSH2 0x129D DUP5 DUP4 PUSH2 0x3AFB JUMP JUMPDEST SWAP1 POP PUSH2 0x12A8 DUP2 PUSH2 0x3B07 JUMP JUMPDEST PUSH1 0x1 PUSH1 0x1 PUSH1 0x40 SHL SUB DUP15 AND PUSH1 0x0 SWAP1 DUP2 MSTORE PUSH1 0x65 PUSH1 0x20 MSTORE PUSH1 0x40 SWAP1 KECCAK256 PUSH1 0xF ADD DUP1 SLOAD PUSH12 0xFFFFFFFFFFFFFFFFFFFFFFFF NOT AND PUSH1 0x1 PUSH1 0x1 PUSH1 0x60 SHL SUB SWAP3 SWAP1 SWAP3 AND SWAP2 SWAP1 SWAP2 OR SWAP1 SSTORE PUSH2 0x12F0 DUP8 DUP4 PUSH2 0x3AFB JUMP JUMPDEST SWAP7 POP DUP6 SWAP12 POP POP PUSH2 0x1319 JUMP JUMPDEST PUSH2 0x1305 DUP7 DUP5 PUSH2 0x3AFB JUMP JUMPDEST SWAP6 POP PUSH2 0x1316 PUSH1 0x0 DUP9 PUSH2 0x297 DUP10 PUSH2 0x3B07 JUMP JUMPDEST SWAP11 POP JUMPDEST POP PUSH2 0x1388 JUMP JUMPDEST DUP7 PUSH1 0x1 PUSH1 0x1 PUSH1 0x60 SHL SUB AND DUP6 GT ISZERO PUSH2 0x1346 JUMPI PUSH2 0x133F PUSH1 0x0 DUP8 PUSH2 0x297 DUP9 PUSH2 0x3B07 JUMP JUMPDEST SWAP10 POP PUSH2 0x1388 JUMP JUMPDEST PUSH2 0x1352 PUSH1 0x0 DUP8 DUP10 PUSH2 0xB43 JUMP JUMPDEST SWAP10 POP PUSH2 0x1385 PUSH2 0x1380 DUP9 PUSH1 0x1 PUSH1 0x1 PUSH1 0x60 SHL SUB AND PUSH2 0x127B DUP10 PUSH1 0x1 PUSH1 0x1 PUSH1 0x60 SHL SUB AND DUP10 PUSH2 0x3AE3 SWAP1 SWAP2 SWAP1 PUSH4 0xFFFFFFFF AND JUMP JUMPDEST PUSH2 0x3B07 JUMP JUMPDEST SWAP1 POP JUMPDEST PUSH1 0x1 PUSH1 0x1 PUSH1 0x40 SHL SUB DUP12 AND PUSH1 0x0 SWAP1 DUP2 MSTORE PUSH1 0x65 PUSH1 0x20 MSTORE PUSH1 0x40 SWAP1 KECCAK256 PUSH1 0xE DUP2 ADD DUP12 SWAP1 SSTORE PUSH1 0x5 ADD SLOAD DUP6 LT ISZERO PUSH2 0x13DF JUMPI PUSH1 0x1 PUSH1 0x1 PUSH1 0x40 SHL SUB DUP12 AND PUSH1 0x0 SWAP1 DUP2 MSTORE PUSH1 0x65 PUSH1 0x20 MSTORE PUSH1 0x40 SWAP1 KECCAK256 PUSH1 0x9 ADD DUP1 SLOAD PUSH4 0xFF000000 NOT AND PUSH4 0x1000000 OR SWAP1 SSTORE JUMPDEST PUSH2 0x13F4 DUP12 DUP3 PUSH1 0x1 PUSH1 0x1 PUSH1 0x60 SHL SUB AND DUP11 DUP10 PUSH2 0x3B6B JUMP JUMPDEST PUSH1 0x40 DUP1 MLOAD PUSH1 0x1 PUSH1 0x1 PUSH1 0x60 SHL SUB DUP1 DUP5 AND DUP3 MSTORE DUP8 AND PUSH1 0x20 DUP3 ADD MSTORE SWAP1 DUP2 ADD DUP12 SWAP1 MSTORE PUSH1 0x1 PUSH1 0x1 PUSH1 0x40 SHL SUB DUP13 AND SWAP1 PUSH32 0xCAA63BE930FC54C8A55DB93B269209878F7027ABB93692A515C9DC483C5BF31D SWAP1 PUSH1 0x60 ADD PUSH1 0x40 MLOAD DUP1 SWAP2 SUB SWAP1 LOG2 POP POP POP PUSH1 0x1 PUSH1 0x1 PUSH1 0x40 SHL SUB SWAP1 SWAP8 AND PUSH1 0x0 SWAP1 DUP2 MSTORE PUSH1 0x65 PUSH1 0x20 MSTORE PUSH1 0x40 DUP2 KECCAK256 PUSH1 0xB DUP2 ADD DUP3 SWAP1 SSTORE PUSH1 0xD DUP2 ADD DUP3 SWAP1 SSTORE PUSH1 0xC DUP2 ADD DUP3 SWAP1 SSTORE PUSH1 0x4 ADD SSTORE POP SWAP4 SWAP6 SWAP5 POP POP POP POP POP JUMP JUMPDEST PUSH1 0x1 PUSH1 0x1 PUSH1 0x40 SHL SUB DUP5 AND PUSH1 0x0 SWAP1 DUP2 MSTORE PUSH1 0x65 PUSH1 0x20 MSTORE PUSH1 0x40 SWAP1 KECCAK256 PUSH1 0x3 ADD SLOAD DUP5 SWAP1 PUSH5 0xFFFFFFFFFF AND ISZERO DUP1 ISZERO SWAP1 PUSH2 0x14DF JUMPI POP PUSH1 0x1 PUSH1 0x1 PUSH1 0x40 SHL SUB DUP2 AND PUSH1 0x0 SWAP1 DUP2 MSTORE PUSH1 0x65 PUSH1 0x20 MSTORE PUSH1 0x40 SWAP1 KECCAK256 PUSH1 0x3 ADD SLOAD PUSH5 0xFFFFFFFFFF AND TIMESTAMP LT ISZERO JUMPDEST DUP1 ISZERO PUSH2 0x1504 JUMPI POP PUSH1 0x1 PUSH1 0x1 PUSH1 0x40 SHL SUB DUP2 AND PUSH1 0x0 SWAP1 DUP2 MSTORE PUSH1 0x65 PUSH1 0x20 MSTORE PUSH1 0x40 SWAP1 KECCAK256 PUSH1 0xE ADD SLOAD ISZERO JUMPDEST PUSH2 0x1520 JUMPI PUSH1 0x40 MLOAD PUSH3 0x461BCD PUSH1 0xE5 SHL DUP2 MSTORE PUSH1 0x4 ADD PUSH2 0x5A9 SWAP1 PUSH2 0x4FDB JUMP JUMPDEST PUSH1 0x1 PUSH1 0x1 PUSH1 0x40 SHL SUB DUP2 AND PUSH1 0x0 SWAP1 DUP2 MSTORE PUSH1 0x65 PUSH1 0x20 MSTORE PUSH1 0x40 SWAP1 KECCAK256 PUSH1 0x9 ADD SLOAD PUSH1 0xFF AND ISZERO DUP1 ISZERO PUSH2 0x156D JUMPI POP PUSH1 0x1 PUSH1 0x1 PUSH1 0x40 SHL SUB DUP2 AND PUSH1 0x0 SWAP1 DUP2 MSTORE PUSH1 0x65 PUSH1 0x20 MSTORE PUSH1 0x40 SWAP1 KECCAK256 PUSH1 0x9 ADD SLOAD PUSH2 0x100 SWAP1 DIV PUSH1 0xFF AND ISZERO JUMPDEST PUSH2 0x1589 JUMPI PUSH1 0x40 MLOAD PUSH3 0x461BCD PUSH1 0xE5 SHL DUP2 MSTORE PUSH1 0x4 ADD PUSH2 0x5A9 SWAP1 PUSH2 0x5012 JUMP JUMPDEST PUSH1 0x1 PUSH1 0x1 PUSH1 0x40 SHL SUB DUP6 AND PUSH1 0x0 SWAP1 DUP2 MSTORE PUSH1 0x65 PUSH1 0x20 MSTORE PUSH1 0x40 SWAP1 KECCAK256 PUSH1 0x6 ADD SLOAD PUSH1 0xFF AND PUSH2 0x15ED JUMPI PUSH1 0x40 MLOAD PUSH3 0x461BCD PUSH1 0xE5 SHL DUP2 MSTORE PUSH1 0x20 PUSH1 0x4 DUP3 ADD MSTORE PUSH1 0x16 PUSH1 0x24 DUP3 ADD MSTORE PUSH22 0x139BDD08185D5D1BDCD95D1D1B1948185B1B1BDDD959 PUSH1 0x52 SHL PUSH1 0x44 DUP3 ADD MSTORE PUSH1 0x64 ADD PUSH2 0x5A9 JUMP JUMPDEST DUP4 MLOAD PUSH1 0x1 EQ DUP1 ISZERO PUSH2 0x15FF JUMPI POP DUP3 MLOAD PUSH1 0x1 EQ JUMPDEST PUSH2 0x1642 JUMPI PUSH1 0x40 MLOAD PUSH3 0x461BCD PUSH1 0xE5 SHL DUP2 MSTORE PUSH1 0x20 PUSH1 0x4 DUP3 ADD MSTORE PUSH1 0x14 PUSH1 0x24 DUP3 ADD MSTORE PUSH20 0x4D6F7265207468616E206F6E65206F7264657273 PUSH1 0x60 SHL PUSH1 0x44 DUP3 ADD MSTORE PUSH1 0x64 ADD PUSH2 0x5A9 JUMP JUMPDEST PUSH1 0x0 PUSH2 0x164D CALLER PUSH2 0xCB9 JUMP JUMPDEST SWAP1 POP PUSH2 0x16B3 PUSH2 0x1691 DUP3 DUP8 PUSH1 0x0 DUP2 MLOAD DUP2 LT PUSH2 0x1669 JUMPI PUSH2 0x1669 PUSH2 0x4F3B JUMP JUMPDEST PUSH1 0x20 MUL PUSH1 0x20 ADD ADD MLOAD DUP8 PUSH1 0x0 DUP2 MLOAD DUP2 LT PUSH2 0x1684 JUMPI PUSH2 0x1684 PUSH2 0x4F3B JUMP JUMPDEST PUSH1 0x20 MUL PUSH1 0x20 ADD ADD MLOAD PUSH2 0xB43 JUMP JUMPDEST PUSH1 0x1 PUSH1 0x1 PUSH1 0x40 SHL SUB DUP9 AND PUSH1 0x0 SWAP1 DUP2 MSTORE PUSH1 0x65 PUSH1 0x20 MSTORE PUSH1 0x40 SWAP1 KECCAK256 PUSH1 0xD ADD SLOAD SWAP1 PUSH2 0x3CC6 JUMP JUMPDEST PUSH2 0x16FF JUMPI PUSH1 0x40 MLOAD PUSH3 0x461BCD PUSH1 0xE5 SHL DUP2 MSTORE PUSH1 0x20 PUSH1 0x4 DUP3 ADD MSTORE PUSH1 0x1C PUSH1 0x24 DUP3 ADD MSTORE PUSH32 0x6F72646572206C6573737468616E20696E746572696D206F7264657200000000 PUSH1 0x44 DUP3 ADD MSTORE PUSH1 0x64 ADD PUSH2 0x5A9 JUMP JUMPDEST PUSH2 0x170C DUP7 DUP7 DUP7 DUP7 CALLER PUSH2 0x33EA JUMP JUMPDEST POP PUSH2 0x1716 DUP7 PUSH2 0x1074 JUMP JUMPDEST POP POP POP POP POP POP POP JUMP JUMPDEST PUSH2 0x1727 PUSH2 0x39B5 JUMP JUMPDEST PUSH1 0xF DUP3 GT ISZERO PUSH2 0x176F JUMPI PUSH1 0x40 MLOAD PUSH3 0x461BCD PUSH1 0xE5 SHL DUP2 MSTORE PUSH1 0x20 PUSH1 0x4 DUP3 ADD MSTORE PUSH1 0x14 PUSH1 0x24 DUP3 ADD MSTORE PUSH20 0x4665652063616E2774206265203E20312E352025 PUSH1 0x60 SHL PUSH1 0x44 DUP3 ADD MSTORE PUSH1 0x64 ADD PUSH2 0x5A9 JUMP JUMPDEST PUSH2 0x1778 DUP2 PUSH2 0xCB9 JUMP JUMPDEST PUSH1 0x6A DUP1 SLOAD PUSH8 0xFFFFFFFFFFFFFFFF NOT AND PUSH1 0x1 PUSH1 0x1 PUSH1 0x40 SHL SUB SWAP3 SWAP1 SWAP3 AND SWAP2 SWAP1 SWAP2 OR SWAP1 SSTORE POP PUSH1 0x6B SSTORE JUMP JUMPDEST PUSH1 0x1 PUSH1 0x1 PUSH1 0x40 SHL SUB DUP3 AND PUSH1 0x0 SWAP1 DUP2 MSTORE PUSH1 0x65 PUSH1 0x20 MSTORE PUSH1 0x40 SWAP1 KECCAK256 PUSH1 0xA ADD SLOAD PUSH1 0x1 PUSH1 0x1 PUSH1 0xA0 SHL SUB AND CALLER EQ PUSH2 0x1812 JUMPI PUSH1 0x40 MLOAD PUSH3 0x461BCD PUSH1 0xE5 SHL DUP2 MSTORE PUSH1 0x20 PUSH1 0x4 DUP3 ADD MSTORE PUSH1 0x1A PUSH1 0x24 DUP3 ADD MSTORE PUSH32 0x706F6F6C206F776E6572206F6E6C792063616E20757064617465000000000000 PUSH1 0x44 DUP3 ADD MSTORE PUSH1 0x64 ADD PUSH2 0x5A9 JUMP JUMPDEST PUSH1 0x1 PUSH1 0x1 PUSH1 0x40 SHL SUB DUP3 AND PUSH1 0x0 SWAP1 DUP2 MSTORE PUSH1 0x65 PUSH1 0x20 SWAP1 DUP2 MSTORE PUSH1 0x40 SWAP1 SWAP2 KECCAK256 DUP3 MLOAD PUSH2 0x183B SWAP3 DUP5 ADD SWAP1 PUSH2 0x45FB JUMP JUMPDEST POP DUP2 PUSH1 0x1 PUSH1 0x1 PUSH1 0x40 SHL SUB AND PUSH32 0xB03F287EF824B12C231CF3B9B3D8756A68E0EDA11532714BB5B0C69AFAC327BA DUP3 PUSH1 0x40 MLOAD PUSH2 0x92B SWAP2 SWAP1 PUSH2 0x4EF1 JUMP JUMPDEST PUSH1 0x1 PUSH1 0x1 PUSH1 0x40 SHL SUB DUP3 AND PUSH1 0x0 SWAP1 DUP2 MSTORE PUSH1 0x66 PUSH1 0x20 MSTORE PUSH1 0x40 DUP2 KECCAK256 PUSH2 0xB89 SWAP1 DUP4 PUSH2 0x3E63 JUMP JUMPDEST PUSH2 0x189F PUSH2 0x39B5 JUMP JUMPDEST PUSH2 0x18A9 PUSH1 0x0 PUSH2 0x3E8C JUMP JUMPDEST JUMP JUMPDEST PUSH1 0x1 PUSH1 0x1 PUSH1 0x40 SHL SUB DUP3 AND PUSH1 0x0 SWAP1 DUP2 MSTORE PUSH1 0x65 PUSH1 0x20 MSTORE PUSH1 0x40 SWAP1 KECCAK256 PUSH1 0x9 ADD SLOAD PUSH4 0x1000000 SWAP1 DIV PUSH1 0xFF AND PUSH2 0x190E JUMPI PUSH1 0x40 MLOAD PUSH3 0x461BCD PUSH1 0xE5 SHL DUP2 MSTORE PUSH1 0x20 PUSH1 0x4 DUP3 ADD MSTORE PUSH1 0xE PUSH1 0x24 DUP3 ADD MSTORE PUSH14 0x43616E20436C61696D206F6E6C79 PUSH1 0x90 SHL PUSH1 0x44 DUP3 ADD MSTORE PUSH1 0x64 ADD PUSH2 0x5A9 JUMP JUMPDEST PUSH1 0x1 PUSH1 0x1 PUSH1 0x40 SHL SUB DUP3 AND PUSH1 0x0 SWAP1 DUP2 MSTORE PUSH1 0x66 PUSH1 0x20 MSTORE PUSH1 0x40 SWAP1 KECCAK256 PUSH2 0x1930 SWAP1 DUP3 PUSH2 0x3EDE JUMP JUMPDEST PUSH2 0x1973 JUMPI PUSH1 0x40 MLOAD PUSH3 0x461BCD PUSH1 0xE5 SHL DUP2 MSTORE PUSH1 0x20 PUSH1 0x4 DUP3 ADD MSTORE PUSH1 0x14 PUSH1 0x24 DUP3 ADD MSTORE PUSH20 0x4F72646572206E6F7420726566756E6461626C65 PUSH1 0x60 SHL PUSH1 0x44 DUP3 ADD MSTORE PUSH1 0x64 ADD PUSH2 0x5A9 JUMP JUMPDEST PUSH1 0x0 PUSH2 0x197E CALLER PUSH2 0xCB9 JUMP JUMPDEST SWAP1 POP PUSH1 0xC0 DUP3 SWAP1 SHR PUSH1 0x60 DUP4 SWAP1 SHR DUP4 PUSH1 0x1 PUSH1 0x1 PUSH1 0x40 SHL SUB DUP5 AND DUP4 EQ PUSH2 0x19D6 JUMPI PUSH1 0x40 MLOAD PUSH3 0x461BCD PUSH1 0xE5 SHL DUP2 MSTORE PUSH1 0x20 PUSH1 0x4 DUP3 ADD MSTORE PUSH1 0x10 PUSH1 0x24 DUP3 ADD MSTORE PUSH16 0x2737BA1027B93232B910283630B1B2B9 PUSH1 0x81 SHL PUSH1 0x44 DUP3 ADD MSTORE PUSH1 0x64 ADD PUSH2 0x5A9 JUMP JUMPDEST PUSH1 0x1 PUSH1 0x1 PUSH1 0x40 SHL SUB DUP7 AND PUSH1 0x0 SWAP1 DUP2 MSTORE PUSH1 0x65 PUSH1 0x20 MSTORE PUSH1 0x40 SWAP1 KECCAK256 PUSH1 0x8 ADD SLOAD PUSH2 0x1A15 SWAP1 CALLER SWAP1 PUSH8 0xDE0B6B3A7640000 SWAP1 PUSH2 0x838 SWAP1 PUSH1 0x1 PUSH1 0x1 PUSH1 0x60 SHL SUB DUP7 AND PUSH2 0x4F82 JUMP JUMPDEST PUSH1 0x40 DUP1 MLOAD PUSH1 0x1 PUSH1 0x1 PUSH1 0x60 SHL SUB DUP1 DUP6 AND DUP3 MSTORE DUP4 AND PUSH1 0x20 DUP3 ADD MSTORE SWAP1 DUP2 ADD DUP7 SWAP1 MSTORE PUSH1 0x1 PUSH1 0x1 PUSH1 0x40 SHL SUB DUP1 DUP7 AND SWAP2 SWAP1 DUP9 AND SWAP1 PUSH32 0xF991E538154C5AD2EFF925762E4A8E269C611939C2C8460211BC8E402D026396 SWAP1 PUSH1 0x60 ADD PUSH1 0x40 MLOAD DUP1 SWAP2 SUB SWAP1 LOG3 POP POP POP POP POP POP JUMP JUMPDEST PUSH1 0x0 DUP1 PUSH2 0x1ABA PUSH2 0x3E8 PUSH2 0x127B PUSH2 0x1A9B PUSH1 0x6B SLOAD PUSH2 0x3E8 PUSH2 0x3376 SWAP1 SWAP2 SWAP1 PUSH4 0xFFFFFFFF AND JUMP JUMPDEST PUSH2 0x1AAB PUSH1 0xE0 DUP9 ADD PUSH1 0xC0 DUP10 ADD PUSH2 0x503E JUMP JUMPDEST PUSH1 0x1 PUSH1 0x1 PUSH1 0x60 SHL SUB AND SWAP1 PUSH2 0x3AE3 JUMP JUMPDEST SWAP1 POP PUSH8 0xDE0B6B3A7640000 PUSH2 0x1AD4 PUSH2 0x160 DUP6 ADD CALLDATALOAD DUP4 PUSH2 0x4F82 JUMP JUMPDEST PUSH2 0x1ADE SWAP2 SWAP1 PUSH2 0x4FA1 JUMP JUMPDEST SWAP1 POP DUP1 PUSH2 0x1AF1 PUSH1 0x40 DUP6 ADD PUSH1 0x20 DUP7 ADD PUSH2 0x4951 JUMP JUMPDEST PUSH1 0x40 MLOAD PUSH4 0x70A08231 PUSH1 0xE0 SHL DUP2 MSTORE CALLER PUSH1 0x4 DUP3 ADD MSTORE PUSH1 0x1 PUSH1 0x1 PUSH1 0xA0 SHL SUB SWAP2 SWAP1 SWAP2 AND SWAP1 PUSH4 0x70A08231 SWAP1 PUSH1 0x24 ADD PUSH1 0x20 PUSH1 0x40 MLOAD DUP1 DUP4 SUB DUP2 DUP7 DUP1 EXTCODESIZE ISZERO DUP1 ISZERO PUSH2 0x1B32 JUMPI PUSH1 0x0 DUP1 REVERT JUMPDEST POP GAS STATICCALL ISZERO DUP1 ISZERO PUSH2 0x1B46 JUMPI RETURNDATASIZE PUSH1 0x0 DUP1 RETURNDATACOPY RETURNDATASIZE PUSH1 0x0 REVERT JUMPDEST POP POP POP POP PUSH1 0x40 MLOAD RETURNDATASIZE PUSH1 0x1F NOT PUSH1 0x1F DUP3 ADD AND DUP3 ADD DUP1 PUSH1 0x40 MSTORE POP DUP2 ADD SWAP1 PUSH2 0x1B6A SWAP2 SWAP1 PUSH2 0x5064 JUMP JUMPDEST LT ISZERO PUSH2 0x1BAD JUMPI PUSH1 0x40 MLOAD PUSH3 0x461BCD PUSH1 0xE5 SHL DUP2 MSTORE PUSH1 0x20 PUSH1 0x4 DUP3 ADD MSTORE PUSH1 0x12 PUSH1 0x24 DUP3 ADD MSTORE PUSH18 0x4E6F7420656E6F7567682062616C616E6365 PUSH1 0x70 SHL PUSH1 0x44 DUP3 ADD MSTORE PUSH1 0x64 ADD PUSH2 0x5A9 JUMP JUMPDEST PUSH2 0x1BBD PUSH1 0xA0 DUP5 ADD PUSH1 0x80 DUP6 ADD PUSH2 0x507D JUMP JUMPDEST PUSH5 0xFFFFFFFFFF AND TIMESTAMP LT DUP1 ISZERO PUSH2 0x1BFD JUMPI POP PUSH2 0x1BDD PUSH1 0xC0 DUP5 ADD PUSH1 0xA0 DUP6 ADD PUSH2 0x507D JUMP JUMPDEST PUSH5 0xFFFFFFFFFF AND PUSH2 0x1BF4 PUSH1 0xA0 DUP6 ADD PUSH1 0x80 DUP7 ADD PUSH2 0x507D JUMP JUMPDEST PUSH5 0xFFFFFFFFFF AND LT JUMPDEST DUP1 ISZERO PUSH2 0x1C35 JUMPI POP PUSH2 0x1C14 PUSH1 0xC0 DUP5 ADD PUSH1 0xA0 DUP6 ADD PUSH2 0x507D JUMP JUMPDEST PUSH5 0xFFFFFFFFFF AND PUSH2 0x1C2B PUSH1 0x80 DUP6 ADD PUSH1 0x60 DUP7 ADD PUSH2 0x507D JUMP JUMPDEST PUSH5 0xFFFFFFFFFF AND GT ISZERO JUMPDEST DUP1 ISZERO PUSH2 0x1C56 JUMPI POP TIMESTAMP PUSH2 0x1C4D PUSH1 0xC0 DUP6 ADD PUSH1 0xA0 DUP7 ADD PUSH2 0x507D JUMP JUMPDEST PUSH5 0xFFFFFFFFFF AND GT JUMPDEST PUSH2 0x1CA2 JUMPI PUSH1 0x40 MLOAD PUSH3 0x461BCD PUSH1 0xE5 SHL DUP2 MSTORE PUSH1 0x20 PUSH1 0x4 DUP3 ADD MSTORE PUSH1 0x1D PUSH1 0x24 DUP3 ADD MSTORE PUSH32 0x44617465206E6F7420636F6E6669677572656420636F72726563746C79000000 PUSH1 0x44 DUP3 ADD MSTORE PUSH1 0x64 ADD PUSH2 0x5A9 JUMP JUMPDEST PUSH1 0x0 PUSH2 0x1CB4 PUSH1 0xE0 DUP6 ADD PUSH1 0xC0 DUP7 ADD PUSH2 0x503E JUMP JUMPDEST PUSH1 0x1 PUSH1 0x1 PUSH1 0x60 SHL SUB AND GT DUP1 ISZERO PUSH2 0x1CE3 JUMPI POP PUSH1 0x0 PUSH2 0x1CD8 PUSH2 0x100 DUP6 ADD PUSH1 0xE0 DUP7 ADD PUSH2 0x503E JUMP JUMPDEST PUSH1 0x1 PUSH1 0x1 PUSH1 0x60 SHL SUB AND GT JUMPDEST DUP1 ISZERO PUSH2 0x1CF4 JUMPI POP PUSH1 0x0 DUP4 PUSH2 0x100 ADD CALLDATALOAD GT JUMPDEST PUSH2 0x1D38 JUMPI PUSH1 0x40 MLOAD PUSH3 0x461BCD PUSH1 0xE5 SHL DUP2 MSTORE PUSH1 0x20 PUSH1 0x4 DUP3 ADD MSTORE PUSH1 0x15 PUSH1 0x24 DUP3 ADD MSTORE PUSH21 0x416D6D6F756E742063616E2774206265207A65726F PUSH1 0x58 SHL PUSH1 0x44 DUP3 ADD MSTORE PUSH1 0x64 ADD PUSH2 0x5A9 JUMP JUMPDEST PUSH2 0x1D5F CALLER ADDRESS DUP4 PUSH2 0x1D4E PUSH1 0x40 DUP9 ADD PUSH1 0x20 DUP10 ADD PUSH2 0x4951 JUMP JUMPDEST PUSH1 0x1 PUSH1 0x1 PUSH1 0xA0 SHL SUB AND SWAP3 SWAP2 SWAP1 PUSH2 0x3F0A JUMP JUMPDEST PUSH1 0x67 SLOAD PUSH2 0x1D7D SWAP1 PUSH1 0x1 PUSH1 0x40 SHL SWAP1 DIV PUSH1 0x1 PUSH1 0x1 PUSH1 0x40 SHL SUB AND PUSH1 0x1 PUSH2 0x5098 JUMP JUMPDEST PUSH1 0x67 DUP1 SLOAD PUSH16 0xFFFFFFFFFFFFFFFF0000000000000000 NOT AND PUSH1 0x1 PUSH1 0x40 SHL PUSH1 0x1 PUSH1 0x1 PUSH1 0x40 SHL SUB SWAP4 DUP5 AND DUP2 MUL SWAP2 SWAP1 SWAP2 OR SWAP2 DUP3 SWAP1 SSTORE SWAP1 DIV AND PUSH1 0x0 SWAP1 DUP2 MSTORE PUSH1 0x66 PUSH1 0x20 SWAP1 DUP2 MSTORE PUSH1 0x40 DUP1 DUP4 KECCAK256 PUSH1 0x1 DUP1 DUP6 MSTORE DUP2 DUP5 MSTORE DUP3 DUP6 KECCAK256 PUSH1 0x2 PUSH1 0x1 PUSH1 0x60 SHL SUB NOT SWAP1 DUP2 SWAP1 SSTORE DUP6 MSTORE SWAP1 DUP2 ADD SWAP1 SWAP3 MSTORE SWAP1 SWAP2 KECCAK256 SSTORE PUSH1 0x0 PUSH2 0x1DF1 CALLER PUSH2 0xCB9 JUMP JUMPDEST SWAP1 POP PUSH1 0x40 MLOAD DUP1 PUSH2 0x140 ADD PUSH1 0x40 MSTORE DUP1 DUP6 PUSH2 0x1E09 SWAP1 PUSH2 0x512A JUMP JUMPDEST DUP2 MSTORE PUSH1 0x40 DUP1 MLOAD PUSH1 0x80 DUP2 ADD DUP3 MSTORE PUSH1 0x0 DUP1 DUP3 MSTORE PUSH1 0x20 DUP3 DUP2 ADD DUP3 SWAP1 MSTORE DUP3 DUP5 ADD DUP3 SWAP1 MSTORE PUSH1 0x60 DUP1 DUP5 ADD SWAP3 SWAP1 SWAP3 MSTORE DUP5 ADD SWAP2 SWAP1 SWAP2 MSTORE CALLER SWAP2 DUP4 ADD SWAP2 SWAP1 SWAP2 MSTORE ADD PUSH2 0x1E65 DUP4 PUSH2 0x1E55 PUSH2 0x100 DUP10 ADD PUSH1 0xE0 DUP11 ADD PUSH2 0x503E JUMP JUMPDEST PUSH2 0x297 PUSH1 0xE0 DUP11 ADD PUSH1 0xC0 DUP12 ADD PUSH2 0x503E JUMP JUMPDEST DUP2 MSTORE PUSH1 0x0 PUSH1 0x20 DUP1 DUP4 ADD DUP3 SWAP1 MSTORE PUSH1 0x1 PUSH1 0x40 DUP1 DUP6 ADD SWAP2 SWAP1 SWAP2 MSTORE PUSH1 0x60 DUP5 ADD DUP4 SWAP1 MSTORE PUSH1 0x80 DUP5 ADD DUP4 SWAP1 MSTORE PUSH1 0x6B SLOAD PUSH1 0xA0 DUP6 ADD MSTORE PUSH1 0xC0 SWAP1 SWAP4 ADD DUP3 SWAP1 MSTORE PUSH1 0x67 SLOAD PUSH1 0x1 PUSH1 0x40 SHL SWAP1 DIV PUSH1 0x1 PUSH1 0x1 PUSH1 0x40 SHL SUB AND DUP3 MSTORE PUSH1 0x65 DUP2 MSTORE SWAP2 SWAP1 KECCAK256 DUP3 MLOAD DUP1 MLOAD DUP1 MLOAD SWAP3 SWAP4 SWAP2 SWAP3 DUP5 SWAP3 PUSH2 0x1ED0 SWAP3 DUP5 SWAP3 SWAP2 ADD SWAP1 PUSH2 0x45FB JUMP JUMPDEST POP PUSH1 0x20 DUP3 ADD MLOAD DUP2 PUSH1 0x1 ADD PUSH1 0x0 PUSH2 0x100 EXP DUP2 SLOAD DUP2 PUSH1 0x1 PUSH1 0x1 PUSH1 0xA0 SHL SUB MUL NOT AND SWAP1 DUP4 PUSH1 0x1 PUSH1 0x1 PUSH1 0xA0 SHL SUB AND MUL OR SWAP1 SSTORE POP PUSH1 0x40 DUP3 ADD MLOAD DUP2 PUSH1 0x2 ADD PUSH1 0x0 PUSH2 0x100 EXP DUP2 SLOAD DUP2 PUSH1 0x1 PUSH1 0x1 PUSH1 0xA0 SHL SUB MUL NOT AND SWAP1 DUP4 PUSH1 0x1 PUSH1 0x1 PUSH1 0xA0 SHL SUB AND MUL OR SWAP1 SSTORE POP PUSH1 0x60 DUP3 ADD MLOAD DUP2 PUSH1 0x2 ADD PUSH1 0x14 PUSH2 0x100 EXP DUP2 SLOAD DUP2 PUSH5 0xFFFFFFFFFF MUL NOT AND SWAP1 DUP4 PUSH5 0xFFFFFFFFFF AND MUL OR SWAP1 SSTORE POP PUSH1 0x80 DUP3 ADD MLOAD DUP2 PUSH1 0x2 ADD PUSH1 0x19 PUSH2 0x100 EXP DUP2 SLOAD DUP2 PUSH5 0xFFFFFFFFFF MUL NOT AND SWAP1 DUP4 PUSH5 0xFFFFFFFFFF AND MUL OR SWAP1 SSTORE POP PUSH1 0xA0 DUP3 ADD MLOAD DUP2 PUSH1 0x3 ADD PUSH1 0x0 PUSH2 0x100 EXP DUP2 SLOAD DUP2 PUSH5 0xFFFFFFFFFF MUL NOT AND SWAP1 DUP4 PUSH5 0xFFFFFFFFFF AND MUL OR SWAP1 SSTORE POP PUSH1 0xC0 DUP3 ADD MLOAD DUP2 PUSH1 0x3 ADD PUSH1 0x5 PUSH2 0x100 EXP DUP2 SLOAD DUP2 PUSH1 0x1 PUSH1 0x1 PUSH1 0x60 SHL SUB MUL NOT AND SWAP1 DUP4 PUSH1 0x1 PUSH1 0x1 PUSH1 0x60 SHL SUB AND MUL OR SWAP1 SSTORE POP PUSH1 0xE0 DUP3 ADD MLOAD DUP2 PUSH1 0x3 ADD PUSH1 0x11 PUSH2 0x100 EXP DUP2 SLOAD DUP2 PUSH1 0x1 PUSH1 0x1 PUSH1 0x60 SHL SUB MUL NOT AND SWAP1 DUP4 PUSH1 0x1 PUSH1 0x1 PUSH1 0x60 SHL SUB AND MUL OR SWAP1 SSTORE POP PUSH2 0x100 DUP3 ADD MLOAD DUP2 PUSH1 0x4 ADD SSTORE PUSH2 0x120 DUP3 ADD MLOAD DUP2 PUSH1 0x5 ADD SSTORE PUSH2 0x140 DUP3 ADD MLOAD DUP2 PUSH1 0x6 ADD PUSH1 0x0 PUSH2 0x100 EXP DUP2 SLOAD DUP2 PUSH1 0xFF MUL NOT AND SWAP1 DUP4 ISZERO ISZERO MUL OR SWAP1 SSTORE POP PUSH2 0x160 DUP3 ADD MLOAD DUP2 PUSH1 0x7 ADD PUSH1 0x0 DUP3 ADD MLOAD DUP2 PUSH1 0x0 ADD SSTORE PUSH1 0x20 DUP3 ADD MLOAD DUP2 PUSH1 0x1 ADD SSTORE POP POP POP POP PUSH1 0x20 DUP3 ADD MLOAD DUP2 PUSH1 0x9 ADD PUSH1 0x0 DUP3 ADD MLOAD DUP2 PUSH1 0x0 ADD PUSH1 0x0 PUSH2 0x100 EXP DUP2 SLOAD DUP2 PUSH1 0xFF MUL NOT AND SWAP1 DUP4 ISZERO ISZERO MUL OR SWAP1 SSTORE POP PUSH1 0x20 DUP3 ADD MLOAD DUP2 PUSH1 0x0 ADD PUSH1 0x1 PUSH2 0x100 EXP DUP2 SLOAD DUP2 PUSH1 0xFF MUL NOT AND SWAP1 DUP4 ISZERO ISZERO MUL OR SWAP1 SSTORE POP PUSH1 0x40 DUP3 ADD MLOAD DUP2 PUSH1 0x0 ADD PUSH1 0x2 PUSH2 0x100 EXP DUP2 SLOAD DUP2 PUSH1 0xFF MUL NOT AND SWAP1 DUP4 ISZERO ISZERO MUL OR SWAP1 SSTORE POP PUSH1 0x60 DUP3 ADD MLOAD DUP2 PUSH1 0x0 ADD PUSH1 0x3 PUSH2 0x100 EXP DUP2 SLOAD DUP2 PUSH1 0xFF MUL NOT AND SWAP1 DUP4 ISZERO ISZERO MUL OR SWAP1 SSTORE POP POP POP PUSH1 0x40 DUP3 ADD MLOAD DUP2 PUSH1 0xA ADD PUSH1 0x0 PUSH2 0x100 EXP DUP2 SLOAD DUP2 PUSH1 0x1 PUSH1 0x1 PUSH1 0xA0 SHL SUB MUL NOT AND SWAP1 DUP4 PUSH1 0x1 PUSH1 0x1 PUSH1 0xA0 SHL SUB AND MUL OR SWAP1 SSTORE POP PUSH1 0x60 DUP3 ADD MLOAD DUP2 PUSH1 0xB ADD SSTORE PUSH1 0x80 DUP3 ADD MLOAD DUP2 PUSH1 0xC ADD SSTORE PUSH1 0xA0 DUP3 ADD MLOAD DUP2 PUSH1 0xD ADD SSTORE PUSH1 0xC0 DUP3 ADD MLOAD DUP2 PUSH1 0xE ADD SSTORE PUSH1 0xE0 DUP3 ADD MLOAD DUP2 PUSH1 0xF ADD PUSH1 0x0 PUSH2 0x100 EXP DUP2 SLOAD DUP2 PUSH1 0x1 PUSH1 0x1 PUSH1 0x60 SHL SUB MUL NOT AND SWAP1 DUP4 PUSH1 0x1 PUSH1 0x1 PUSH1 0x60 SHL SUB AND MUL OR SWAP1 SSTORE POP PUSH2 0x100 DUP3 ADD MLOAD DUP2 PUSH1 0x10 ADD SSTORE PUSH2 0x120 DUP3 ADD MLOAD DUP2 PUSH1 0x11 ADD SSTORE SWAP1 POP POP CALLER PUSH1 0x1 PUSH1 0x1 PUSH1 0xA0 SHL SUB AND DUP2 PUSH1 0x1 PUSH1 0x1 PUSH1 0x40 SHL SUB AND PUSH1 0x67 PUSH1 0x8 SWAP1 SLOAD SWAP1 PUSH2 0x100 EXP SWAP1 DIV PUSH1 0x1 PUSH1 0x1 PUSH1 0x40 SHL SUB AND PUSH1 0x1 PUSH1 0x1 PUSH1 0x40 SHL SUB AND PUSH32 0x9FB015B01070CBD34FF57B2C9A642A2CEFB6446BB225D05C21BE80CD8399C94B DUP8 DUP1 PUSH1 0x0 ADD SWAP1 PUSH2 0x21E3 SWAP2 SWAP1 PUSH2 0x5222 JUMP JUMPDEST PUSH2 0x21F3 PUSH1 0x40 DUP12 ADD PUSH1 0x20 DUP13 ADD PUSH2 0x4951 JUMP JUMPDEST PUSH2 0x2203 PUSH1 0x60 DUP13 ADD PUSH1 0x40 DUP14 ADD PUSH2 0x4951 JUMP JUMPDEST PUSH2 0x2213 PUSH1 0x80 DUP14 ADD PUSH1 0x60 DUP15 ADD PUSH2 0x507D JUMP JUMPDEST PUSH2 0x2223 PUSH1 0xA0 DUP15 ADD PUSH1 0x80 DUP16 ADD PUSH2 0x507D JUMP JUMPDEST DUP14 PUSH1 0xA0 ADD PUSH1 0x20 DUP2 ADD SWAP1 PUSH2 0x2236 SWAP2 SWAP1 PUSH2 0x507D JUMP JUMPDEST DUP15 PUSH1 0xC0 ADD PUSH1 0x20 DUP2 ADD SWAP1 PUSH2 0x2249 SWAP2 SWAP1 PUSH2 0x503E JUMP JUMPDEST DUP16 PUSH1 0xE0 ADD PUSH1 0x20 DUP2 ADD SWAP1 PUSH2 0x225C SWAP2 SWAP1 PUSH2 0x503E JUMP JUMPDEST PUSH1 0x40 MLOAD PUSH2 0x2271 SWAP10 SWAP9 SWAP8 SWAP7 SWAP6 SWAP5 SWAP4 SWAP3 SWAP2 SWAP1 PUSH2 0x526F JUMP JUMPDEST PUSH1 0x40 MLOAD DUP1 SWAP2 SUB SWAP1 LOG4 PUSH1 0x67 SLOAD PUSH1 0x1 PUSH1 0x40 SHL SWAP1 DIV PUSH1 0x1 PUSH1 0x1 PUSH1 0x40 SHL SUB AND PUSH32 0x956B430F300258F6D757FDF489C0BC3A95CFFADC9995D416781835590ACC1858 PUSH2 0x22C2 DUP4 PUSH2 0x1E55 PUSH2 0x100 DUP10 ADD PUSH1 0xE0 DUP11 ADD PUSH2 0x503E JUMP JUMPDEST PUSH1 0x0 PUSH1 0x1 DUP2 DUP1 PUSH2 0x100 DUP12 ADD CALLDATALOAD PUSH2 0x120 DUP13 ADD CALLDATALOAD PUSH2 0x22E6 PUSH2 0x160 DUP15 ADD PUSH2 0x140 DUP16 ADD PUSH2 0x52F2 JUMP JUMPDEST PUSH1 0x6B SLOAD PUSH1 0x40 DUP1 MLOAD SWAP10 DUP11 MSTORE PUSH1 0x20 DUP11 ADD SWAP9 SWAP1 SWAP9 MSTORE SWAP7 DUP9 ADD SWAP6 SWAP1 SWAP6 MSTORE PUSH1 0x60 DUP8 ADD SWAP4 SWAP1 SWAP4 MSTORE PUSH1 0x1 PUSH1 0x1 PUSH1 0x60 SHL SUB SWAP1 SWAP2 AND PUSH1 0x80 DUP7 ADD MSTORE PUSH1 0xA0 DUP6 ADD MSTORE PUSH1 0xC0 DUP5 ADD MSTORE ISZERO ISZERO PUSH1 0xE0 DUP4 ADD MSTORE PUSH2 0x100 DUP3 ADD MSTORE PUSH2 0x120 ADD PUSH1 0x40 MLOAD DUP1 SWAP2 SUB SWAP1 LOG2 POP POP PUSH1 0x67 SLOAD PUSH1 0x1 PUSH1 0x40 SHL SWAP1 DIV PUSH1 0x1 PUSH1 0x1 PUSH1 0x40 SHL SUB AND SWAP3 SWAP2 POP POP JUMP JUMPDEST PUSH1 0x0 SLOAD PUSH2 0x100 SWAP1 DIV PUSH1 0xFF AND ISZERO DUP1 DUP1 ISZERO PUSH2 0x2375 JUMPI POP PUSH1 0x0 SLOAD PUSH1 0x1 PUSH1 0xFF SWAP1 SWAP2 AND LT JUMPDEST DUP1 PUSH2 0x238F JUMPI POP ADDRESS EXTCODESIZE ISZERO DUP1 ISZERO PUSH2 0x238F JUMPI POP PUSH1 0x0 SLOAD PUSH1 0xFF AND PUSH1 0x1 EQ JUMPDEST PUSH2 0x23F2 JUMPI PUSH1 0x40 MLOAD PUSH3 0x461BCD PUSH1 0xE5 SHL DUP2 MSTORE PUSH1 0x20 PUSH1 0x4 DUP3 ADD MSTORE PUSH1 0x2E PUSH1 0x24 DUP3 ADD MSTORE PUSH32 0x496E697469616C697A61626C653A20636F6E747261637420697320616C726561 PUSH1 0x44 DUP3 ADD MSTORE PUSH14 0x191E481A5B9A5D1A585B1A5E9959 PUSH1 0x92 SHL PUSH1 0x64 DUP3 ADD MSTORE PUSH1 0x84 ADD PUSH2 0x5A9 JUMP JUMPDEST PUSH1 0x0 DUP1 SLOAD PUSH1 0xFF NOT AND PUSH1 0x1 OR SWAP1 SSTORE DUP1 ISZERO PUSH2 0x2415 JUMPI PUSH1 0x0 DUP1 SLOAD PUSH2 0xFF00 NOT AND PUSH2 0x100 OR SWAP1 SSTORE JUMPDEST PUSH2 0x241D PUSH2 0x3F48 JUMP JUMPDEST PUSH1 0x6A DUP1 SLOAD PUSH8 0xFFFFFFFFFFFFFFFF NOT AND PUSH1 0x1 OR SWAP1 SSTORE PUSH1 0xF PUSH1 0x6B SSTORE DUP1 ISZERO PUSH2 0xCB6 JUMPI PUSH1 0x0 DUP1 SLOAD PUSH2 0xFF00 NOT AND SWAP1 SSTORE PUSH1 0x40 MLOAD PUSH1 0x1 DUP2 MSTORE PUSH32 0x7F26B83FF96E1F2B6A682F133852F6798A09C465DA95921460CEFB3847402498 SWAP1 PUSH1 0x20 ADD PUSH1 0x40 MLOAD DUP1 SWAP2 SUB SWAP1 LOG1 POP JUMP JUMPDEST PUSH1 0x1 PUSH1 0x1 PUSH1 0x40 SHL SUB DUP7 AND PUSH1 0x0 SWAP1 DUP2 MSTORE PUSH1 0x65 PUSH1 0x20 MSTORE PUSH1 0x40 DUP2 KECCAK256 PUSH1 0x3 ADD SLOAD DUP8 SWAP1 PUSH5 0xFFFFFFFFFF AND TIMESTAMP LT PUSH2 0x24F1 JUMPI PUSH1 0x40 MLOAD PUSH3 0x461BCD PUSH1 0xE5 SHL DUP2 MSTORE PUSH1 0x20 PUSH1 0x4 DUP3 ADD MSTORE PUSH1 0x1C PUSH1 0x24 DUP3 ADD MSTORE PUSH32 0x4E6F7420696E206F7264657220706C6163656D656E7420706861736500000000 PUSH1 0x44 DUP3 ADD MSTORE PUSH1 0x64 ADD PUSH2 0x5A9 JUMP JUMPDEST PUSH1 0x1 PUSH1 0x1 PUSH1 0x40 SHL SUB DUP9 AND PUSH1 0x0 SWAP1 DUP2 MSTORE PUSH1 0x65 PUSH1 0x20 MSTORE PUSH1 0x40 SWAP1 KECCAK256 PUSH1 0x9 ADD SLOAD DUP9 SWAP1 PUSH1 0xFF AND ISZERO DUP1 ISZERO PUSH2 0x2540 JUMPI POP PUSH1 0x1 PUSH1 0x1 PUSH1 0x40 SHL SUB DUP2 AND PUSH1 0x0 SWAP1 DUP2 MSTORE PUSH1 0x65 PUSH1 0x20 MSTORE PUSH1 0x40 SWAP1 KECCAK256 PUSH1 0x9 ADD SLOAD PUSH2 0x100 SWAP1 DIV PUSH1 0xFF AND ISZERO JUMPDEST DUP1 ISZERO PUSH2 0x256E JUMPI POP PUSH1 0x1 PUSH1 0x1 PUSH1 0x40 SHL SUB DUP2 AND PUSH1 0x0 SWAP1 DUP2 MSTORE PUSH1 0x65 PUSH1 0x20 MSTORE PUSH1 0x40 SWAP1 KECCAK256 PUSH1 0x9 ADD SLOAD PUSH3 0x10000 SWAP1 DIV PUSH1 0xFF AND ISZERO JUMPDEST PUSH2 0x258A JUMPI PUSH1 0x40 MLOAD PUSH3 0x461BCD PUSH1 0xE5 SHL DUP2 MSTORE PUSH1 0x4 ADD PUSH2 0x5A9 SWAP1 PUSH2 0x4F04 JUMP JUMPDEST PUSH1 0x40 MLOAD PUSH1 0x20 ADD PUSH2 0x25EE SWAP1 PUSH32 0x3078303030303030303030303030303030303030303030303030303030303030 DUP2 MSTORE PUSH32 0x3030303030303030303030303030303030303030303030303030303030303030 PUSH1 0x20 DUP3 ADD MSTORE PUSH2 0x303 PUSH1 0xF4 SHL PUSH1 0x40 DUP3 ADD MSTORE PUSH1 0x42 ADD SWAP1 JUMP JUMPDEST PUSH1 0x40 DUP1 MLOAD DUP1 DUP4 SUB PUSH1 0x1F NOT ADD DUP2 MSTORE DUP3 DUP3 MSTORE DUP1 MLOAD PUSH1 0x20 SWAP2 DUP3 ADD KECCAK256 PUSH1 0x1 PUSH1 0x1 PUSH1 0x40 SHL SUB DUP14 AND PUSH1 0x0 SWAP1 DUP2 MSTORE PUSH1 0x65 DUP4 MSTORE DUP4 SWAP1 KECCAK256 PUSH1 0x11 ADD SLOAD SWAP2 DUP5 ADD SWAP2 SWAP1 SWAP2 MSTORE SWAP2 ADD PUSH1 0x40 MLOAD PUSH1 0x20 DUP2 DUP4 SUB SUB DUP2 MSTORE SWAP1 PUSH1 0x40 MSTORE DUP1 MLOAD SWAP1 PUSH1 0x20 ADD KECCAK256 EQ ISZERO PUSH2 0x2737 JUMPI PUSH1 0x40 MLOAD PUSH12 0xFFFFFFFFFFFFFFFFFFFFFFFF NOT CALLER PUSH1 0x60 SHL AND PUSH1 0x20 DUP3 ADD MSTORE PUSH1 0x0 SWAP1 PUSH1 0x34 ADD PUSH1 0x40 MLOAD PUSH1 0x20 DUP2 DUP4 SUB SUB DUP2 MSTORE SWAP1 PUSH1 0x40 MSTORE DUP1 MLOAD SWAP1 PUSH1 0x20 ADD KECCAK256 SWAP1 POP PUSH2 0x26F2 DUP10 DUP10 DUP1 DUP1 PUSH1 0x20 MUL PUSH1 0x20 ADD PUSH1 0x40 MLOAD SWAP1 DUP2 ADD PUSH1 0x40 MSTORE DUP1 SWAP4 SWAP3 SWAP2 SWAP1 DUP2 DUP2 MSTORE PUSH1 0x20 ADD DUP4 DUP4 PUSH1 0x20 MUL DUP1 DUP3 DUP5 CALLDATACOPY PUSH1 0x0 DUP2 DUP5 ADD MSTORE PUSH1 0x1F NOT PUSH1 0x1F DUP3 ADD AND SWAP1 POP DUP1 DUP4 ADD SWAP3 POP POP POP POP POP POP POP PUSH1 0x65 PUSH1 0x0 DUP14 PUSH1 0x1 PUSH1 0x1 PUSH1 0x40 SHL SUB AND PUSH1 0x1 PUSH1 0x1 PUSH1 0x40 SHL SUB AND DUP2 MSTORE PUSH1 0x20 ADD SWAP1 DUP2 MSTORE PUSH1 0x20 ADD PUSH1 0x0 KECCAK256 PUSH1 0x11 ADD SLOAD DUP4 PUSH2 0x3F77 JUMP JUMPDEST PUSH2 0x2735 JUMPI PUSH1 0x40 MLOAD PUSH3 0x461BCD PUSH1 0xE5 SHL DUP2 MSTORE PUSH1 0x20 PUSH1 0x4 DUP3 ADD MSTORE PUSH1 0x14 PUSH1 0x24 DUP3 ADD MSTORE PUSH20 0x155CD95C881B9BDD081DDA1A5D195B1A5CDD1959 PUSH1 0x62 SHL PUSH1 0x44 DUP3 ADD MSTORE PUSH1 0x64 ADD PUSH2 0x5A9 JUMP JUMPDEST POP JUMPDEST PUSH2 0x2744 DUP10 DUP8 DUP8 DUP8 CALLER PUSH2 0x33EA JUMP JUMPDEST SWAP10 SWAP9 POP POP POP POP POP POP POP POP POP JUMP JUMPDEST PUSH1 0x65 PUSH1 0x20 MSTORE DUP1 PUSH1 0x0 MSTORE PUSH1 0x40 PUSH1 0x0 KECCAK256 PUSH1 0x0 SWAP2 POP SWAP1 POP DUP1 PUSH1 0x0 ADD PUSH1 0x40 MLOAD DUP1 PUSH2 0x180 ADD PUSH1 0x40 MSTORE SWAP1 DUP2 PUSH1 0x0 DUP3 ADD DUP1 SLOAD PUSH2 0x2785 SWAP1 PUSH2 0x530F JUMP JUMPDEST DUP1 PUSH1 0x1F ADD PUSH1 0x20 DUP1 SWAP2 DIV MUL PUSH1 0x20 ADD PUSH1 0x40 MLOAD SWAP1 DUP2 ADD PUSH1 0x40 MSTORE DUP1 SWAP3 SWAP2 SWAP1 DUP2 DUP2 MSTORE PUSH1 0x20 ADD DUP3 DUP1 SLOAD PUSH2 0x27B1 SWAP1 PUSH2 0x530F JUMP JUMPDEST DUP1 ISZERO PUSH2 0x27FE JUMPI DUP1 PUSH1 0x1F LT PUSH2 0x27D3 JUMPI PUSH2 0x100 DUP1 DUP4 SLOAD DIV MUL DUP4 MSTORE SWAP2 PUSH1 0x20 ADD SWAP2 PUSH2 0x27FE JUMP JUMPDEST DUP3 ADD SWAP2 SWAP1 PUSH1 0x0 MSTORE PUSH1 0x20 PUSH1 0x0 KECCAK256 SWAP1 JUMPDEST DUP2 SLOAD DUP2 MSTORE SWAP1 PUSH1 0x1 ADD SWAP1 PUSH1 0x20 ADD DUP1 DUP4 GT PUSH2 0x27E1 JUMPI DUP3 SWAP1 SUB PUSH1 0x1F AND DUP3 ADD SWAP2 JUMPDEST POP POP POP SWAP2 DUP4 MSTORE POP POP PUSH1 0x1 DUP3 ADD SLOAD PUSH1 0x1 PUSH1 0x1 PUSH1 0xA0 SHL SUB SWAP1 DUP2 AND PUSH1 0x20 DUP1 DUP5 ADD SWAP2 SWAP1 SWAP2 MSTORE PUSH1 0x2 DUP5 ADD SLOAD DUP1 DUP4 AND PUSH1 0x40 DUP1 DUP7 ADD SWAP2 SWAP1 SWAP2 MSTORE PUSH5 0xFFFFFFFFFF PUSH1 0x1 PUSH1 0xA0 SHL DUP4 DIV DUP2 AND PUSH1 0x60 DUP1 DUP9 ADD SWAP2 SWAP1 SWAP2 MSTORE PUSH1 0x1 PUSH1 0xC8 SHL SWAP1 SWAP4 DIV DUP2 AND PUSH1 0x80 DUP1 DUP9 ADD SWAP2 SWAP1 SWAP2 MSTORE PUSH1 0x3 DUP9 ADD SLOAD SWAP2 DUP3 AND PUSH1 0xA0 DUP9 ADD MSTORE PUSH1 0x1 PUSH1 0x1 PUSH1 0x60 SHL SUB PUSH1 0x1 PUSH1 0x28 SHL DUP4 DIV DUP2 AND PUSH1 0xC0 DUP10 ADD MSTORE PUSH1 0x1 PUSH1 0x88 SHL SWAP1 SWAP3 DIV DUP3 AND PUSH1 0xE0 DUP9 ADD MSTORE PUSH1 0x4 DUP9 ADD SLOAD PUSH2 0x100 DUP1 DUP10 ADD SWAP2 SWAP1 SWAP2 MSTORE PUSH1 0x5 DUP10 ADD SLOAD PUSH2 0x120 DUP10 ADD MSTORE PUSH1 0x6 DUP10 ADD SLOAD PUSH1 0xFF SWAP1 DUP2 AND ISZERO ISZERO PUSH2 0x140 DUP11 ADD MSTORE DUP5 MLOAD DUP1 DUP7 ADD DUP7 MSTORE PUSH1 0x7 DUP12 ADD SLOAD DUP2 MSTORE PUSH1 0x8 SWAP1 SWAP11 ADD SLOAD DUP11 DUP9 ADD MSTORE PUSH2 0x160 SWAP1 SWAP9 ADD SWAP9 SWAP1 SWAP9 MSTORE DUP3 MLOAD SWAP1 DUP2 ADD DUP4 MSTORE PUSH1 0x9 DUP11 ADD SLOAD DUP1 DUP9 AND ISZERO ISZERO DUP3 MSTORE SWAP8 DUP9 DIV DUP8 AND ISZERO ISZERO SWAP5 DUP2 ADD SWAP5 SWAP1 SWAP5 MSTORE PUSH3 0x10000 DUP8 DIV DUP7 AND ISZERO ISZERO SWAP2 DUP5 ADD SWAP2 SWAP1 SWAP2 MSTORE PUSH4 0x1000000 SWAP1 SWAP6 DIV SWAP1 SWAP4 AND ISZERO ISZERO SWAP3 DUP2 ADD SWAP3 SWAP1 SWAP3 MSTORE PUSH1 0xA DUP6 ADD SLOAD PUSH1 0xB DUP7 ADD SLOAD PUSH1 0xC DUP8 ADD SLOAD PUSH1 0xD DUP9 ADD SLOAD PUSH1 0xE DUP10 ADD SLOAD PUSH1 0xF DUP11 ADD SLOAD PUSH1 0x10 DUP12 ADD SLOAD PUSH1 0x11 SWAP12 SWAP1 SWAP12 ADD SLOAD SWAP10 SWAP11 SWAP8 SWAP10 SWAP6 SWAP1 SWAP7 AND SWAP8 SWAP4 SWAP7 SWAP3 SWAP6 SWAP2 SWAP5 SWAP1 SWAP4 SWAP2 SWAP1 SWAP2 AND SWAP2 SWAP1 DUP11 JUMP JUMPDEST PUSH2 0x296D PUSH2 0x39B5 JUMP JUMPDEST PUSH1 0x1 PUSH1 0x1 PUSH1 0x40 SHL SUB DUP2 AND PUSH1 0x0 SWAP1 DUP2 MSTORE PUSH1 0x65 PUSH1 0x20 MSTORE PUSH1 0x40 SWAP1 KECCAK256 PUSH1 0x9 DUP2 ADD DUP1 SLOAD PUSH1 0xFF NOT AND PUSH1 0x1 OR SWAP1 SSTORE PUSH1 0xA DUP2 ADD SLOAD PUSH1 0x7 DUP3 ADD SLOAD PUSH1 0x3 SWAP1 SWAP3 ADD SLOAD PUSH2 0xCB6 SWAP3 PUSH1 0x1 PUSH1 0x1 PUSH1 0xA0 SHL SUB SWAP1 SWAP3 AND SWAP2 PUSH8 0xDE0B6B3A7640000 SWAP2 PUSH2 0xC80 SWAP2 SWAP1 PUSH1 0x1 PUSH1 0x1 PUSH1 0x60 SHL SUB PUSH1 0x1 PUSH1 0x28 SHL SWAP1 SWAP2 DIV AND PUSH2 0x4F82 JUMP JUMPDEST PUSH1 0x1 PUSH1 0x1 PUSH1 0x40 SHL SUB DUP2 AND PUSH1 0x0 SWAP1 DUP2 MSTORE PUSH1 0x65 PUSH1 0x20 MSTORE PUSH1 0x40 DUP2 KECCAK256 PUSH1 0x3 ADD SLOAD TIMESTAMP PUSH5 0xFFFFFFFFFF SWAP1 SWAP2 AND LT ISZERO PUSH2 0x2A0D JUMPI POP PUSH1 0x0 SWAP2 SWAP1 POP JUMP JUMPDEST PUSH1 0x1 PUSH1 0x1 PUSH1 0x40 SHL SUB DUP3 AND PUSH1 0x0 SWAP1 DUP2 MSTORE PUSH1 0x65 PUSH1 0x20 MSTORE PUSH1 0x40 SWAP1 KECCAK256 PUSH1 0x3 ADD SLOAD PUSH2 0xCD6 SWAP1 PUSH5 0xFFFFFFFFFF AND TIMESTAMP PUSH2 0x3AFB JUMP JUMPDEST PUSH1 0x0 PUSH2 0x2A47 PUSH1 0x68 DUP4 PUSH2 0x3903 JUMP JUMPDEST PUSH2 0x2A88 JUMPI PUSH1 0x40 MLOAD PUSH3 0x461BCD PUSH1 0xE5 SHL DUP2 MSTORE PUSH1 0x20 PUSH1 0x4 DUP3 ADD MSTORE PUSH1 0x12 PUSH1 0x24 DUP3 ADD MSTORE PUSH18 0x139BDD08149959DA5CDD195C99590816595D PUSH1 0x72 SHL PUSH1 0x44 DUP3 ADD MSTORE PUSH1 0x64 ADD PUSH2 0x5A9 JUMP JUMPDEST PUSH2 0xCD6 PUSH1 0x68 DUP4 PUSH2 0x392D JUMP JUMPDEST PUSH2 0x2A9B PUSH2 0x39B5 JUMP JUMPDEST PUSH1 0x1 PUSH1 0x1 PUSH1 0x40 SHL SUB DUP2 AND PUSH1 0x0 SWAP1 DUP2 MSTORE PUSH1 0x65 PUSH1 0x20 MSTORE PUSH1 0x40 SWAP1 KECCAK256 PUSH1 0x9 DUP2 ADD DUP1 SLOAD PUSH2 0xFF00 NOT AND PUSH2 0x100 OR SWAP1 SSTORE PUSH1 0xA DUP2 ADD SLOAD PUSH1 0x7 DUP3 ADD SLOAD PUSH1 0x3 SWAP1 SWAP3 ADD SLOAD PUSH2 0xCB6 SWAP3 PUSH1 0x1 PUSH1 0x1 PUSH1 0xA0 SHL SUB SWAP1 SWAP3 AND SWAP2 PUSH8 0xDE0B6B3A7640000 SWAP2 PUSH2 0xC80 SWAP2 SWAP1 PUSH1 0x1 PUSH1 0x1 PUSH1 0x60 SHL SUB PUSH1 0x1 PUSH1 0x28 SHL SWAP1 SWAP2 DIV AND PUSH2 0x4F82 JUMP JUMPDEST PUSH1 0x1 PUSH1 0x1 PUSH1 0x40 SHL SUB DUP3 AND PUSH1 0x0 SWAP1 DUP2 MSTORE PUSH1 0x65 PUSH1 0x20 MSTORE PUSH1 0x40 DUP2 KECCAK256 PUSH1 0xE ADD SLOAD DUP2 SWAP1 DUP5 SWAP1 PUSH2 0x2B69 JUMPI PUSH1 0x40 MLOAD PUSH3 0x461BCD PUSH1 0xE5 SHL DUP2 MSTORE PUSH1 0x20 PUSH1 0x4 DUP3 ADD MSTORE PUSH1 0x11 PUSH1 0x24 DUP3 ADD MSTORE PUSH17 0x141BDBDB081B9BDD08199A5B9A5CDA1959 PUSH1 0x7A SHL PUSH1 0x44 DUP3 ADD MSTORE PUSH1 0x64 ADD PUSH2 0x5A9 JUMP JUMPDEST PUSH1 0x1 PUSH1 0x1 PUSH1 0x40 SHL SUB DUP6 AND PUSH1 0x0 SWAP1 DUP2 MSTORE PUSH1 0x65 PUSH1 0x20 MSTORE PUSH1 0x40 SWAP1 KECCAK256 PUSH1 0x9 ADD SLOAD DUP6 SWAP1 PUSH1 0xFF AND ISZERO DUP1 ISZERO PUSH2 0x2BB8 JUMPI POP PUSH1 0x1 PUSH1 0x1 PUSH1 0x40 SHL SUB DUP2 AND PUSH1 0x0 SWAP1 DUP2 MSTORE PUSH1 0x65 PUSH1 0x20 MSTORE PUSH1 0x40 SWAP1 KECCAK256 PUSH1 0x9 ADD SLOAD PUSH2 0x100 SWAP1 DIV PUSH1 0xFF AND ISZERO JUMPDEST DUP1 ISZERO PUSH2 0x2BE6 JUMPI POP PUSH1 0x1 PUSH1 0x1 PUSH1 0x40 SHL SUB DUP2 AND PUSH1 0x0 SWAP1 DUP2 MSTORE PUSH1 0x65 PUSH1 0x20 MSTORE PUSH1 0x40 SWAP1 KECCAK256 PUSH1 0x9 ADD SLOAD PUSH3 0x10000 SWAP1 DIV PUSH1 0xFF AND ISZERO JUMPDEST PUSH2 0x2C02 JUMPI PUSH1 0x40 MLOAD PUSH3 0x461BCD PUSH1 0xE5 SHL DUP2 MSTORE PUSH1 0x4 ADD PUSH2 0x5A9 SWAP1 PUSH2 0x4F04 JUMP JUMPDEST PUSH1 0x0 JUMPDEST DUP6 MLOAD DUP2 LT ISZERO PUSH2 0x2CB3 JUMPI PUSH2 0x2C55 DUP7 DUP3 DUP2 MLOAD DUP2 LT PUSH2 0x2C23 JUMPI PUSH2 0x2C23 PUSH2 0x4F3B JUMP JUMPDEST PUSH1 0x20 MUL PUSH1 0x20 ADD ADD MLOAD PUSH1 0x66 PUSH1 0x0 DUP11 PUSH1 0x1 PUSH1 0x1 PUSH1 0x40 SHL SUB AND DUP2 MSTORE PUSH1 0x20 ADD SWAP1 DUP2 MSTORE PUSH1 0x20 ADD PUSH1 0x0 KECCAK256 PUSH2 0x3EDE SWAP1 SWAP2 SWAP1 PUSH4 0xFFFFFFFF AND JUMP JUMPDEST PUSH2 0x2CA1 JUMPI PUSH1 0x40 MLOAD PUSH3 0x461BCD PUSH1 0xE5 SHL DUP2 MSTORE PUSH1 0x20 PUSH1 0x4 DUP3 ADD MSTORE PUSH1 0x1C PUSH1 0x24 DUP3 ADD MSTORE PUSH32 0x6F72646572206973206E6F206C6F6E67657220636C61696D61626C6500000000 PUSH1 0x44 DUP3 ADD MSTORE PUSH1 0x64 ADD PUSH2 0x5A9 JUMP JUMPDEST DUP1 PUSH2 0x2CAB DUP2 PUSH2 0x4F67 JUMP JUMPDEST SWAP2 POP POP PUSH2 0x2C05 JUMP JUMPDEST POP PUSH1 0x1 PUSH1 0x1 PUSH1 0x40 SHL SUB DUP7 AND PUSH1 0x0 SWAP1 DUP2 MSTORE PUSH1 0x65 PUSH1 0x20 MSTORE PUSH1 0x40 DUP1 DUP3 KECCAK256 DUP2 MLOAD PUSH2 0x2C0 DUP2 ADD SWAP1 SWAP3 MSTORE DUP1 SLOAD DUP3 SWAP1 PUSH2 0x140 DUP3 ADD SWAP1 DUP4 SWAP1 DUP3 SWAP1 DUP3 SWAP1 PUSH2 0x2CF0 SWAP1 PUSH2 0x530F JUMP JUMPDEST DUP1 PUSH1 0x1F ADD PUSH1 0x20 DUP1 SWAP2 DIV MUL PUSH1 0x20 ADD PUSH1 0x40 MLOAD SWAP1 DUP2 ADD PUSH1 0x40 MSTORE DUP1 SWAP3 SWAP2 SWAP1 DUP2 DUP2 MSTORE PUSH1 0x20 ADD DUP3 DUP1 SLOAD PUSH2 0x2D1C SWAP1 PUSH2 0x530F JUMP JUMPDEST DUP1 ISZERO PUSH2 0x2D69 JUMPI DUP1 PUSH1 0x1F LT PUSH2 0x2D3E JUMPI PUSH2 0x100 DUP1 DUP4 SLOAD DIV MUL DUP4 MSTORE SWAP2 PUSH1 0x20 ADD SWAP2 PUSH2 0x2D69 JUMP JUMPDEST DUP3 ADD SWAP2 SWAP1 PUSH1 0x0 MSTORE PUSH1 0x20 PUSH1 0x0 KECCAK256 SWAP1 JUMPDEST DUP2 SLOAD DUP2 MSTORE SWAP1 PUSH1 0x1 ADD SWAP1 PUSH1 0x20 ADD DUP1 DUP4 GT PUSH2 0x2D4C JUMPI DUP3 SWAP1 SUB PUSH1 0x1F AND DUP3 ADD SWAP2 JUMPDEST POP POP POP SWAP2 DUP4 MSTORE POP POP PUSH1 0x1 DUP3 ADD SLOAD PUSH1 0x1 PUSH1 0x1 PUSH1 0xA0 SHL SUB SWAP1 DUP2 AND PUSH1 0x20 DUP1 DUP5 ADD SWAP2 SWAP1 SWAP2 MSTORE PUSH1 0x2 DUP5 ADD SLOAD DUP1 DUP4 AND PUSH1 0x40 DUP1 DUP7 ADD SWAP2 SWAP1 SWAP2 MSTORE PUSH5 0xFFFFFFFFFF PUSH1 0x1 PUSH1 0xA0 SHL DUP4 DIV DUP2 AND PUSH1 0x60 DUP1 DUP9 ADD SWAP2 SWAP1 SWAP2 MSTORE PUSH1 0x1 PUSH1 0xC8 SHL SWAP1 SWAP4 DIV DUP2 AND PUSH1 0x80 DUP1 DUP9 ADD SWAP2 SWAP1 SWAP2 MSTORE PUSH1 0x3 DUP9 ADD SLOAD SWAP2 DUP3 AND PUSH1 0xA0 DUP1 DUP10 ADD SWAP2 SWAP1 SWAP2 MSTORE PUSH1 0x1 PUSH1 0x1 PUSH1 0x60 SHL SUB PUSH1 0x1 PUSH1 0x28 SHL DUP5 DIV DUP2 AND PUSH1 0xC0 DUP1 DUP12 ADD SWAP2 SWAP1 SWAP2 MSTORE PUSH1 0x1 PUSH1 0x88 SHL SWAP1 SWAP5 DIV DUP2 AND PUSH1 0xE0 DUP1 DUP12 ADD SWAP2 SWAP1 SWAP2 MSTORE PUSH1 0x4 DUP12 ADD SLOAD PUSH2 0x100 DUP1 DUP13 ADD SWAP2 SWAP1 SWAP2 MSTORE PUSH1 0x5 DUP13 ADD SLOAD PUSH2 0x120 DUP1 DUP14 ADD SWAP2 SWAP1 SWAP2 MSTORE PUSH1 0x6 DUP14 ADD SLOAD PUSH1 0xFF SWAP1 DUP2 AND ISZERO ISZERO PUSH2 0x140 DUP15 ADD MSTORE DUP9 MLOAD DUP1 DUP11 ADD DUP11 MSTORE PUSH1 0x7 DUP16 ADD SLOAD DUP2 MSTORE PUSH1 0x8 SWAP1 SWAP15 ADD SLOAD DUP15 DUP13 ADD MSTORE PUSH2 0x160 SWAP1 SWAP13 ADD SWAP13 SWAP1 SWAP13 MSTORE SWAP12 DUP14 MSTORE DUP6 MLOAD DUP1 DUP6 ADD DUP8 MSTORE PUSH1 0x9 DUP16 ADD SLOAD DUP1 DUP13 AND ISZERO ISZERO DUP3 MSTORE DUP14 DUP2 DIV DUP13 AND ISZERO ISZERO DUP3 DUP12 ADD MSTORE PUSH3 0x10000 DUP2 DIV DUP13 AND ISZERO ISZERO DUP3 DUP10 ADD MSTORE PUSH4 0x1000000 SWAP1 DIV SWAP1 SWAP11 AND ISZERO ISZERO DUP11 DUP9 ADD MSTORE SWAP7 DUP13 ADD SWAP9 SWAP1 SWAP9 MSTORE PUSH1 0xA DUP13 ADD SLOAD SWAP1 SWAP7 AND SWAP3 DUP11 ADD SWAP3 SWAP1 SWAP3 MSTORE PUSH1 0xB DUP11 ADD SLOAD DUP10 DUP5 ADD MSTORE PUSH1 0xC DUP11 ADD SLOAD SWAP2 DUP10 ADD SWAP2 SWAP1 SWAP2 MSTORE PUSH1 0xD DUP10 ADD SLOAD SWAP4 DUP9 ADD SWAP4 SWAP1 SWAP4 MSTORE PUSH1 0xE DUP9 ADD SLOAD DUP8 DUP5 ADD MSTORE PUSH1 0xF DUP9 ADD SLOAD SWAP1 SWAP4 AND SWAP1 DUP7 ADD MSTORE PUSH1 0x10 DUP7 ADD SLOAD SWAP4 DUP6 ADD SWAP4 SWAP1 SWAP4 MSTORE PUSH1 0x11 SWAP1 SWAP5 ADD SLOAD SWAP3 ADD SWAP2 SWAP1 SWAP2 MSTORE DUP3 ADD MLOAD DUP9 MLOAD SWAP3 SWAP4 POP SWAP1 DUP2 SWAP1 SHR SWAP2 PUSH1 0x0 SWAP1 PUSH2 0x2F1D SWAP1 DUP11 SWAP1 DUP4 SWAP1 PUSH2 0x6D0 JUMPI PUSH2 0x6D0 PUSH2 0x4F3B JUMP JUMPDEST POP POP PUSH1 0x1 PUSH1 0x1 PUSH1 0x40 SHL SUB DUP12 AND PUSH1 0x0 SWAP1 DUP2 MSTORE PUSH1 0x65 PUSH1 0x20 MSTORE PUSH1 0x40 DUP2 KECCAK256 PUSH1 0x9 ADD SLOAD SWAP2 SWAP3 POP PUSH4 0x1000000 SWAP1 SWAP2 DIV PUSH1 0xFF AND SWAP1 JUMPDEST DUP11 MLOAD DUP2 LT ISZERO PUSH2 0x318E JUMPI PUSH1 0x0 DUP1 PUSH1 0x0 PUSH2 0x2F6E DUP15 DUP6 DUP2 MLOAD DUP2 LT PUSH2 0x6D0 JUMPI PUSH2 0x6D0 PUSH2 0x4F3B JUMP JUMPDEST SWAP3 POP SWAP3 POP SWAP3 POP DUP6 PUSH1 0x1 PUSH1 0x1 PUSH1 0x40 SHL SUB AND DUP4 PUSH1 0x1 PUSH1 0x1 PUSH1 0x40 SHL SUB AND EQ PUSH2 0x2FD5 JUMPI PUSH1 0x40 MLOAD PUSH3 0x461BCD PUSH1 0xE5 SHL DUP2 MSTORE PUSH1 0x20 PUSH1 0x4 DUP3 ADD MSTORE PUSH1 0x1F PUSH1 0x24 DUP3 ADD MSTORE PUSH32 0x6F6E6C792073616D65207573657220616C6C6F77656420746F20636C61696D00 PUSH1 0x44 DUP3 ADD MSTORE PUSH1 0x64 ADD PUSH2 0x5A9 JUMP JUMPDEST DUP5 ISZERO PUSH2 0x2FF5 JUMPI PUSH2 0x2FEE DUP13 PUSH1 0x1 PUSH1 0x1 PUSH1 0x60 SHL SUB DUP4 AND PUSH2 0x3376 JUMP JUMPDEST SWAP12 POP PUSH2 0x3116 JUMP JUMPDEST DUP9 PUSH1 0xC0 ADD MLOAD DUP15 DUP6 DUP2 MLOAD DUP2 LT PUSH2 0x300C JUMPI PUSH2 0x300C PUSH2 0x4F3B JUMP JUMPDEST PUSH1 0x20 MUL PUSH1 0x20 ADD ADD MLOAD EQ ISZERO PUSH2 0x308F JUMPI PUSH2 0x305A PUSH2 0x3053 DUP9 PUSH1 0x1 PUSH1 0x1 PUSH1 0x60 SHL SUB AND PUSH2 0x127B DUP12 PUSH1 0x1 PUSH1 0x1 PUSH1 0x60 SHL SUB AND DUP14 PUSH1 0xE0 ADD MLOAD PUSH1 0x1 PUSH1 0x1 PUSH1 0x60 SHL SUB AND PUSH2 0x3AE3 SWAP1 SWAP2 SWAP1 PUSH4 0xFFFFFFFF AND JUMP JUMPDEST DUP15 SWAP1 PUSH2 0x3376 JUMP JUMPDEST SWAP13 POP PUSH2 0x2FEE PUSH2 0x3088 DUP11 PUSH1 0xE0 ADD MLOAD PUSH1 0x1 PUSH1 0x1 PUSH1 0x60 SHL SUB AND DUP4 PUSH1 0x1 PUSH1 0x1 PUSH1 0x60 SHL SUB AND PUSH2 0x3AFB SWAP1 SWAP2 SWAP1 PUSH4 0xFFFFFFFF AND JUMP JUMPDEST DUP14 SWAP1 PUSH2 0x3376 JUMP JUMPDEST PUSH2 0x30BF DUP10 PUSH1 0xC0 ADD MLOAD DUP16 DUP7 DUP2 MLOAD DUP2 LT PUSH2 0x30A9 JUMPI PUSH2 0x30A9 PUSH2 0x4F3B JUMP JUMPDEST PUSH1 0x20 MUL PUSH1 0x20 ADD ADD MLOAD PUSH2 0x3CC6 SWAP1 SWAP2 SWAP1 PUSH4 0xFFFFFFFF AND JUMP JUMPDEST ISZERO PUSH2 0x3100 JUMPI PUSH2 0x30F9 PUSH2 0x3053 DUP9 PUSH1 0x1 PUSH1 0x1 PUSH1 0x60 SHL SUB AND PUSH2 0x127B DUP12 PUSH1 0x1 PUSH1 0x1 PUSH1 0x60 SHL SUB AND DUP6 PUSH1 0x1 PUSH1 0x1 PUSH1 0x60 SHL SUB AND PUSH2 0x3AE3 SWAP1 SWAP2 SWAP1 PUSH4 0xFFFFFFFF AND JUMP JUMPDEST SWAP13 POP PUSH2 0x3116 JUMP JUMPDEST PUSH2 0x3113 DUP13 PUSH1 0x1 PUSH1 0x1 PUSH1 0x60 SHL SUB DUP4 AND PUSH2 0x3376 JUMP JUMPDEST SWAP12 POP JUMPDEST DUP6 PUSH1 0x1 PUSH1 0x1 PUSH1 0x40 SHL SUB AND DUP16 PUSH1 0x1 PUSH1 0x1 PUSH1 0x40 SHL SUB AND PUSH32 0x643AFE0798B830AA1ADFDB4E84E469EE402F2C8CCCA1AD7CEECD21B78706D085 DUP5 DUP5 PUSH1 0x40 MLOAD PUSH2 0x3170 SWAP3 SWAP2 SWAP1 PUSH1 0x1 PUSH1 0x1 PUSH1 0x60 SHL SUB SWAP3 DUP4 AND DUP2 MSTORE SWAP2 AND PUSH1 0x20 DUP3 ADD MSTORE PUSH1 0x40 ADD SWAP1 JUMP JUMPDEST PUSH1 0x40 MLOAD DUP1 SWAP2 SUB SWAP1 LOG3 POP POP POP DUP1 DUP1 PUSH2 0x3186 SWAP1 PUSH2 0x4F67 JUMP JUMPDEST SWAP2 POP POP PUSH2 0x2F4B JUMP JUMPDEST POP PUSH2 0x319B DUP12 DUP11 DUP11 DUP6 PUSH2 0x3F8D JUMP JUMPDEST POP POP POP POP POP POP POP SWAP3 POP SWAP3 SWAP1 POP JUMP JUMPDEST PUSH1 0x67 SLOAD PUSH1 0x60 SWAP1 PUSH1 0x1 PUSH1 0x1 PUSH1 0x40 SHL SUB PUSH1 0x1 PUSH1 0x40 SHL SWAP1 SWAP2 DIV DUP2 AND SWAP1 DUP4 AND GT ISZERO PUSH2 0x3203 JUMPI PUSH1 0x40 MLOAD PUSH3 0x461BCD PUSH1 0xE5 SHL DUP2 MSTORE PUSH1 0x20 PUSH1 0x4 DUP3 ADD MSTORE PUSH1 0xE PUSH1 0x24 DUP3 ADD MSTORE PUSH14 0x125B9D985B1A481C1BDBDB081251 PUSH1 0x92 SHL PUSH1 0x44 DUP3 ADD MSTORE PUSH1 0x64 ADD PUSH2 0x5A9 JUMP JUMPDEST PUSH1 0x1 PUSH1 0x1 PUSH1 0x40 SHL SUB DUP3 AND PUSH1 0x0 SWAP1 DUP2 MSTORE PUSH1 0x65 PUSH1 0x20 MSTORE PUSH1 0x40 SWAP1 KECCAK256 DUP1 SLOAD PUSH2 0x3226 SWAP1 PUSH2 0x530F JUMP JUMPDEST DUP1 PUSH1 0x1F ADD PUSH1 0x20 DUP1 SWAP2 DIV MUL PUSH1 0x20 ADD PUSH1 0x40 MLOAD SWAP1 DUP2 ADD PUSH1 0x40 MSTORE DUP1 SWAP3 SWAP2 SWAP1 DUP2 DUP2 MSTORE PUSH1 0x20 ADD DUP3 DUP1 SLOAD PUSH2 0x3252 SWAP1 PUSH2 0x530F JUMP JUMPDEST DUP1 ISZERO PUSH2 0x329F JUMPI DUP1 PUSH1 0x1F LT PUSH2 0x3274 JUMPI PUSH2 0x100 DUP1 DUP4 SLOAD DIV MUL DUP4 MSTORE SWAP2 PUSH1 0x20 ADD SWAP2 PUSH2 0x329F JUMP JUMPDEST DUP3 ADD SWAP2 SWAP1 PUSH1 0x0 MSTORE PUSH1 0x20 PUSH1 0x0 KECCAK256 SWAP1 JUMPDEST DUP2 SLOAD DUP2 MSTORE SWAP1 PUSH1 0x1 ADD SWAP1 PUSH1 0x20 ADD DUP1 DUP4 GT PUSH2 0x3282 JUMPI DUP3 SWAP1 SUB PUSH1 0x1F AND DUP3 ADD SWAP2 JUMPDEST POP POP POP POP POP SWAP1 POP SWAP2 SWAP1 POP JUMP JUMPDEST PUSH2 0x32B3 PUSH2 0x39B5 JUMP JUMPDEST PUSH1 0x1 PUSH1 0x1 PUSH1 0xA0 SHL SUB DUP2 AND PUSH2 0x3318 JUMPI PUSH1 0x40 MLOAD PUSH3 0x461BCD PUSH1 0xE5 SHL DUP2 MSTORE PUSH1 0x20 PUSH1 0x4 DUP3 ADD MSTORE PUSH1 0x26 PUSH1 0x24 DUP3 ADD MSTORE PUSH32 0x4F776E61626C653A206E6577206F776E657220697320746865207A65726F2061 PUSH1 0x44 DUP3 ADD MSTORE PUSH6 0x646472657373 PUSH1 0xD0 SHL PUSH1 0x64 DUP3 ADD MSTORE PUSH1 0x84 ADD PUSH2 0x5A9 JUMP JUMPDEST PUSH2 0xCB6 DUP2 PUSH2 0x3E8C JUMP JUMPDEST PUSH1 0x0 PUSH2 0x332D DUP4 DUP4 PUSH2 0x3E63 JUMP JUMPDEST PUSH2 0x3339 JUMPI POP PUSH1 0x0 PUSH2 0xCD6 JUMP JUMPDEST POP PUSH1 0x0 DUP2 DUP2 MSTORE PUSH1 0x1 DUP4 DUP2 ADD PUSH1 0x20 DUP2 DUP2 MSTORE PUSH1 0x40 DUP1 DUP6 KECCAK256 SLOAD DUP8 DUP4 MSTORE DUP2 DUP7 KECCAK256 DUP1 SLOAD DUP3 DUP9 MSTORE DUP4 DUP9 KECCAK256 DUP2 SWAP1 SSTORE DUP8 MSTORE SWAP4 DUP4 MSTORE SWAP1 DUP6 KECCAK256 SSTORE SWAP4 DUP4 MSTORE SWAP4 SWAP1 SWAP3 MSTORE SWAP1 SWAP2 SSTORE SWAP1 JUMP JUMPDEST PUSH1 0x0 PUSH2 0xB89 DUP3 DUP5 PUSH2 0x4FC3 JUMP JUMPDEST PUSH1 0x40 MLOAD PUSH1 0x1 PUSH1 0x1 PUSH1 0xA0 SHL SUB DUP4 AND PUSH1 0x24 DUP3 ADD MSTORE PUSH1 0x44 DUP2 ADD DUP3 SWAP1 MSTORE PUSH2 0x33E5 SWAP1 DUP5 SWAP1 PUSH4 0xA9059CBB PUSH1 0xE0 SHL SWAP1 PUSH1 0x64 ADD JUMPDEST PUSH1 0x40 DUP1 MLOAD PUSH1 0x1F NOT DUP2 DUP5 SUB ADD DUP2 MSTORE SWAP2 SWAP1 MSTORE PUSH1 0x20 DUP2 ADD DUP1 MLOAD PUSH1 0x1 PUSH1 0x1 PUSH1 0xE0 SHL SUB AND PUSH1 0x1 PUSH1 0x1 PUSH1 0xE0 SHL SUB NOT SWAP1 SWAP4 AND SWAP3 SWAP1 SWAP3 OR SWAP1 SWAP2 MSTORE PUSH2 0x4080 JUMP JUMPDEST POP POP POP JUMP JUMPDEST PUSH1 0x0 DUP1 PUSH2 0x33F6 DUP4 PUSH2 0xCB9 JUMP JUMPDEST PUSH1 0x1 PUSH1 0x1 PUSH1 0x40 SHL SUB DUP9 AND PUSH1 0x0 SWAP1 DUP2 MSTORE PUSH1 0x65 PUSH1 0x20 MSTORE PUSH1 0x40 DUP2 KECCAK256 PUSH1 0x4 ADD SLOAD SWAP2 SWAP4 POP JUMPDEST DUP8 MLOAD DUP2 LT ISZERO PUSH2 0x3677 JUMPI PUSH1 0x0 DUP9 DUP3 DUP2 MLOAD DUP2 LT PUSH2 0x3433 JUMPI PUSH2 0x3433 PUSH2 0x4F3B JUMP JUMPDEST PUSH1 0x20 MUL PUSH1 0x20 ADD ADD MLOAD PUSH1 0x1 PUSH1 0x1 PUSH1 0x60 SHL SUB AND GT PUSH2 0x348A JUMPI PUSH1 0x40 MLOAD PUSH3 0x461BCD PUSH1 0xE5 SHL DUP2 MSTORE PUSH1 0x20 PUSH1 0x4 DUP3 ADD MSTORE PUSH1 0x16 PUSH1 0x24 DUP3 ADD MSTORE PUSH22 0x627579416D6F756E7473206D757374206265203E203 PUSH1 0x54 SHL PUSH1 0x44 DUP3 ADD MSTORE PUSH1 0x64 ADD PUSH2 0x5A9 JUMP JUMPDEST DUP2 DUP8 DUP3 DUP2 MLOAD DUP2 LT PUSH2 0x349D JUMPI PUSH2 0x349D PUSH2 0x4F3B JUMP JUMPDEST PUSH1 0x20 MUL PUSH1 0x20 ADD ADD MLOAD PUSH1 0x1 PUSH1 0x1 PUSH1 0x60 SHL SUB AND LT ISZERO PUSH2 0x34EE JUMPI PUSH1 0x40 MLOAD PUSH3 0x461BCD PUSH1 0xE5 SHL DUP2 MSTORE PUSH1 0x20 PUSH1 0x4 DUP3 ADD MSTORE PUSH1 0xF PUSH1 0x24 DUP3 ADD MSTORE PUSH15 0x1BDC99195C881D1BDBC81CDB585B1B PUSH1 0x8A SHL PUSH1 0x44 DUP3 ADD MSTORE PUSH1 0x64 ADD PUSH2 0x5A9 JUMP JUMPDEST PUSH2 0x3566 PUSH2 0x3521 DUP6 DUP11 DUP5 DUP2 MLOAD DUP2 LT PUSH2 0x3507 JUMPI PUSH2 0x3507 PUSH2 0x4F3B JUMP JUMPDEST PUSH1 0x20 MUL PUSH1 0x20 ADD ADD MLOAD DUP11 DUP6 DUP2 MLOAD DUP2 LT PUSH2 0x1684 JUMPI PUSH2 0x1684 PUSH2 0x4F3B JUMP JUMPDEST DUP8 DUP4 DUP2 MLOAD DUP2 LT PUSH2 0x3533 JUMPI PUSH2 0x3533 PUSH2 0x4F3B JUMP JUMPDEST PUSH1 0x20 MUL PUSH1 0x20 ADD ADD MLOAD PUSH1 0x66 PUSH1 0x0 DUP14 PUSH1 0x1 PUSH1 0x1 PUSH1 0x40 SHL SUB AND DUP2 MSTORE PUSH1 0x20 ADD SWAP1 DUP2 MSTORE PUSH1 0x20 ADD PUSH1 0x0 KECCAK256 PUSH2 0x4152 SWAP1 SWAP3 SWAP2 SWAP1 PUSH4 0xFFFFFFFF AND JUMP JUMPDEST ISZERO PUSH2 0x3665 JUMPI PUSH2 0x35A0 DUP8 DUP3 DUP2 MLOAD DUP2 LT PUSH2 0x3580 JUMPI PUSH2 0x3580 PUSH2 0x4F3B JUMP JUMPDEST PUSH1 0x20 MUL PUSH1 0x20 ADD ADD MLOAD PUSH1 0x1 PUSH1 0x1 PUSH1 0x60 SHL SUB AND DUP5 PUSH2 0x3376 SWAP1 SWAP2 SWAP1 PUSH4 0xFFFFFFFF AND JUMP JUMPDEST SWAP3 POP DUP4 PUSH1 0x1 PUSH1 0x1 PUSH1 0x40 SHL SUB AND DUP10 PUSH1 0x1 PUSH1 0x1 PUSH1 0x40 SHL SUB AND PUSH32 0xD1EB3AA4747AE96061EA9271199478378D5F0CAD92EDC3D7F78A63B658A93D6A DUP11 DUP5 DUP2 MLOAD DUP2 LT PUSH2 0x35E9 JUMPI PUSH2 0x35E9 PUSH2 0x4F3B JUMP JUMPDEST PUSH1 0x20 MUL PUSH1 0x20 ADD ADD MLOAD DUP11 DUP6 DUP2 MLOAD DUP2 LT PUSH2 0x3603 JUMPI PUSH2 0x3603 PUSH2 0x4F3B JUMP JUMPDEST PUSH1 0x20 MUL PUSH1 0x20 ADD ADD MLOAD PUSH2 0x363B DUP10 DUP15 DUP9 DUP2 MLOAD DUP2 LT PUSH2 0x3621 JUMPI PUSH2 0x3621 PUSH2 0x4F3B JUMP JUMPDEST PUSH1 0x20 MUL PUSH1 0x20 ADD ADD MLOAD DUP15 DUP10 DUP2 MLOAD DUP2 LT PUSH2 0x1684 JUMPI PUSH2 0x1684 PUSH2 0x4F3B JUMP JUMPDEST PUSH1 0x40 DUP1 MLOAD PUSH1 0x1 PUSH1 0x1 PUSH1 0x60 SHL SUB SWAP5 DUP6 AND DUP2 MSTORE SWAP4 SWAP1 SWAP3 AND PUSH1 0x20 DUP5 ADD MSTORE SWAP1 DUP3 ADD MSTORE PUSH1 0x60 ADD PUSH1 0x40 MLOAD DUP1 SWAP2 SUB SWAP1 LOG3 JUMPDEST DUP1 PUSH2 0x366F DUP2 PUSH2 0x4F67 JUMP JUMPDEST SWAP2 POP POP PUSH2 0x3416 JUMP JUMPDEST POP PUSH1 0x1 PUSH1 0x1 PUSH1 0x40 SHL SUB DUP9 AND PUSH1 0x0 SWAP1 DUP2 MSTORE PUSH1 0x65 PUSH1 0x20 MSTORE PUSH1 0x40 SWAP1 KECCAK256 PUSH1 0x8 ADD SLOAD PUSH2 0xA53 SWAP1 CALLER SWAP1 ADDRESS SWAP1 PUSH8 0xDE0B6B3A7640000 SWAP1 PUSH2 0x36B0 SWAP1 DUP8 PUSH2 0x4F82 JUMP JUMPDEST PUSH2 0x36BA SWAP2 SWAP1 PUSH2 0x4FA1 JUMP JUMPDEST PUSH1 0x1 PUSH1 0x1 PUSH1 0x40 SHL SUB DUP13 AND PUSH1 0x0 SWAP1 DUP2 MSTORE PUSH1 0x65 PUSH1 0x20 MSTORE PUSH1 0x40 SWAP1 KECCAK256 PUSH1 0x2 ADD SLOAD PUSH1 0x1 PUSH1 0x1 PUSH1 0xA0 SHL SUB AND SWAP3 SWAP2 SWAP1 PUSH2 0x3F0A JUMP JUMPDEST PUSH1 0x0 PUSH1 0x1 PUSH1 0x40 SHL DUP3 LT PUSH2 0x374B JUMPI PUSH1 0x40 MLOAD PUSH3 0x461BCD PUSH1 0xE5 SHL DUP2 MSTORE PUSH1 0x20 PUSH1 0x4 DUP3 ADD MSTORE PUSH1 0x26 PUSH1 0x24 DUP3 ADD MSTORE PUSH32 0x53616665436173743A2076616C756520646F65736E27742066697420696E2036 PUSH1 0x44 DUP3 ADD MSTORE PUSH6 0x342062697473 PUSH1 0xD0 SHL PUSH1 0x64 DUP3 ADD MSTORE PUSH1 0x84 ADD PUSH2 0x5A9 JUMP JUMPDEST POP SWAP1 JUMP JUMPDEST PUSH1 0x0 PUSH1 0x1 PUSH1 0x1 PUSH1 0xA0 SHL SUB DUP3 AND PUSH2 0x37A7 JUMPI PUSH1 0x40 MLOAD PUSH3 0x461BCD PUSH1 0xE5 SHL DUP2 MSTORE PUSH1 0x20 PUSH1 0x4 DUP3 ADD MSTORE PUSH1 0x1A PUSH1 0x24 DUP3 ADD MSTORE PUSH32 0x43616E6E6F7420696E73657274207A65726F2061646472657373000000000000 PUSH1 0x44 DUP3 ADD MSTORE PUSH1 0x64 ADD PUSH2 0x5A9 JUMP JUMPDEST PUSH1 0x1 PUSH1 0x1 PUSH1 0x40 SHL SUB DUP4 DUP2 AND EQ ISZERO PUSH2 0x3800 JUMPI PUSH1 0x40 MLOAD PUSH3 0x461BCD PUSH1 0xE5 SHL DUP2 MSTORE PUSH1 0x20 PUSH1 0x4 DUP3 ADD MSTORE PUSH1 0x18 PUSH1 0x24 DUP3 ADD MSTORE PUSH32 0x43616E6E6F7420696E73657274206D61782075696E7436340000000000000000 PUSH1 0x44 DUP3 ADD MSTORE PUSH1 0x64 ADD PUSH2 0x5A9 JUMP JUMPDEST PUSH1 0x1 PUSH1 0x1 PUSH1 0xA0 SHL SUB DUP3 AND PUSH1 0x0 SWAP1 DUP2 MSTORE PUSH1 0x1 DUP6 ADD PUSH1 0x20 MSTORE PUSH1 0x40 SWAP1 KECCAK256 SLOAD PUSH1 0x1 PUSH1 0x1 PUSH1 0x40 SHL SUB AND ISZERO ISZERO DUP1 PUSH2 0x3861 JUMPI POP PUSH1 0x0 DUP5 DUP2 PUSH2 0x383B DUP7 PUSH1 0x1 PUSH2 0x5098 JUMP JUMPDEST PUSH1 0x1 PUSH1 0x1 PUSH1 0x40 SHL SUB AND DUP2 MSTORE PUSH1 0x20 DUP2 ADD SWAP2 SWAP1 SWAP2 MSTORE PUSH1 0x40 ADD PUSH1 0x0 KECCAK256 SLOAD PUSH1 0x1 PUSH1 0x1 PUSH1 0xA0 SHL SUB AND EQ ISZERO JUMPDEST ISZERO PUSH2 0x386E JUMPI POP PUSH1 0x0 PUSH2 0xB89 JUMP JUMPDEST DUP2 DUP5 PUSH1 0x0 PUSH2 0x387D DUP7 PUSH1 0x1 PUSH2 0x5098 JUMP JUMPDEST PUSH1 0x1 PUSH1 0x1 PUSH1 0x40 SHL SUB AND DUP2 MSTORE PUSH1 0x20 DUP2 ADD SWAP2 SWAP1 SWAP2 MSTORE PUSH1 0x40 ADD PUSH1 0x0 KECCAK256 DUP1 SLOAD PUSH1 0x1 PUSH1 0x1 PUSH1 0xA0 SHL SUB NOT AND PUSH1 0x1 PUSH1 0x1 PUSH1 0xA0 SHL SUB SWAP3 SWAP1 SWAP3 AND SWAP2 SWAP1 SWAP2 OR SWAP1 SSTORE PUSH2 0x38BF DUP4 PUSH1 0x1 PUSH2 0x5098 JUMP JUMPDEST PUSH1 0x1 PUSH1 0x1 PUSH1 0xA0 SHL SUB SWAP3 SWAP1 SWAP3 AND PUSH1 0x0 SWAP1 DUP2 MSTORE PUSH1 0x1 SWAP5 DUP6 ADD PUSH1 0x20 MSTORE PUSH1 0x40 SWAP1 KECCAK256 DUP1 SLOAD PUSH8 0xFFFFFFFFFFFFFFFF NOT AND PUSH1 0x1 PUSH1 0x1 PUSH1 0x40 SHL SUB SWAP4 SWAP1 SWAP4 AND SWAP3 SWAP1 SWAP3 OR SWAP1 SWAP2 SSTORE POP SWAP1 SWAP2 SWAP1 POP JUMP JUMPDEST PUSH1 0x1 PUSH1 0x1 PUSH1 0xA0 SHL SUB AND PUSH1 0x0 SWAP1 DUP2 MSTORE PUSH1 0x1 SWAP2 SWAP1 SWAP2 ADD PUSH1 0x20 MSTORE PUSH1 0x40 SWAP1 KECCAK256 SLOAD PUSH1 0x1 PUSH1 0x1 PUSH1 0x40 SHL SUB AND ISZERO ISZERO SWAP1 JUMP JUMPDEST PUSH1 0x0 PUSH2 0x3939 DUP4 DUP4 PUSH2 0x3903 JUMP JUMPDEST PUSH2 0x3985 JUMPI PUSH1 0x40 MLOAD PUSH3 0x461BCD PUSH1 0xE5 SHL DUP2 MSTORE PUSH1 0x20 PUSH1 0x4 DUP3 ADD MSTORE PUSH1 0x1B PUSH1 0x24 DUP3 ADD MSTORE PUSH32 0x4D7573742068617665204164647265737320746F206765742049440000000000 PUSH1 0x44 DUP3 ADD MSTORE PUSH1 0x64 ADD PUSH2 0x5A9 JUMP JUMPDEST PUSH1 0x1 PUSH1 0x1 PUSH1 0xA0 SHL SUB DUP3 AND PUSH1 0x0 SWAP1 DUP2 MSTORE PUSH1 0x1 DUP5 DUP2 ADD PUSH1 0x20 MSTORE PUSH1 0x40 SWAP1 SWAP2 KECCAK256 SLOAD PUSH2 0xB89 SWAP2 SWAP1 PUSH1 0x1 PUSH1 0x1 PUSH1 0x40 SHL SUB AND PUSH2 0x534A JUMP JUMPDEST PUSH1 0x33 SLOAD PUSH1 0x1 PUSH1 0x1 PUSH1 0xA0 SHL SUB AND CALLER EQ PUSH2 0x18A9 JUMPI PUSH1 0x40 MLOAD PUSH3 0x461BCD PUSH1 0xE5 SHL DUP2 MSTORE PUSH1 0x20 PUSH1 0x4 DUP3 ADD DUP2 SWAP1 MSTORE PUSH1 0x24 DUP3 ADD MSTORE PUSH32 0x4F776E61626C653A2063616C6C6572206973206E6F7420746865206F776E6572 PUSH1 0x44 DUP3 ADD MSTORE PUSH1 0x64 ADD PUSH2 0x5A9 JUMP JUMPDEST PUSH1 0x0 PUSH1 0x2 PUSH1 0x1 PUSH1 0x60 SHL SUB NOT DUP3 EQ ISZERO PUSH2 0x3A74 JUMPI PUSH1 0x40 MLOAD PUSH3 0x461BCD PUSH1 0xE5 SHL DUP2 MSTORE PUSH1 0x20 PUSH1 0x4 DUP3 ADD MSTORE PUSH1 0x22 PUSH1 0x24 DUP3 ADD MSTORE PUSH32 0x547279696E6720746F20676574206E657874206F66206C61737420656C656D65 PUSH1 0x44 DUP3 ADD MSTORE PUSH2 0x1B9D PUSH1 0xF2 SHL PUSH1 0x64 DUP3 ADD MSTORE PUSH1 0x84 ADD PUSH2 0x5A9 JUMP JUMPDEST PUSH1 0x0 DUP3 DUP2 MSTORE PUSH1 0x20 DUP5 SWAP1 MSTORE PUSH1 0x40 SWAP1 KECCAK256 SLOAD DUP1 PUSH2 0xB89 JUMPI PUSH1 0x40 MLOAD PUSH3 0x461BCD PUSH1 0xE5 SHL DUP2 MSTORE PUSH1 0x20 PUSH1 0x4 DUP3 ADD MSTORE PUSH1 0x2A PUSH1 0x24 DUP3 ADD MSTORE PUSH32 0x547279696E6720746F20676574206E657874206F66206E6F6E2D657869737465 PUSH1 0x44 DUP3 ADD MSTORE PUSH10 0x1B9D08195B195B595B9D PUSH1 0xB2 SHL PUSH1 0x64 DUP3 ADD MSTORE PUSH1 0x84 ADD PUSH2 0x5A9 JUMP JUMPDEST PUSH1 0x0 PUSH2 0xB89 DUP3 DUP5 PUSH2 0x4F82 JUMP JUMPDEST PUSH1 0x0 PUSH2 0xB89 DUP3 DUP5 PUSH2 0x4FA1 JUMP JUMPDEST PUSH1 0x0 PUSH2 0xB89 DUP3 DUP5 PUSH2 0x5372 JUMP JUMPDEST PUSH1 0x0 PUSH1 0x1 PUSH1 0x60 SHL DUP3 LT PUSH2 0x374B JUMPI PUSH1 0x40 MLOAD PUSH3 0x461BCD PUSH1 0xE5 SHL DUP2 MSTORE PUSH1 0x20 PUSH1 0x4 DUP3 ADD MSTORE PUSH1 0x26 PUSH1 0x24 DUP3 ADD MSTORE PUSH32 0x53616665436173743A2076616C756520646F65736E27742066697420696E2039 PUSH1 0x44 DUP3 ADD MSTORE PUSH6 0x362062697473 PUSH1 0xD0 SHL PUSH1 0x64 DUP3 ADD MSTORE PUSH1 0x84 ADD PUSH2 0x5A9 JUMP JUMPDEST PUSH1 0x1 PUSH1 0x1 PUSH1 0x40 SHL SUB DUP5 AND PUSH1 0x0 SWAP1 DUP2 MSTORE PUSH1 0x65 PUSH1 0x20 MSTORE PUSH1 0x40 DUP2 KECCAK256 PUSH1 0x10 ADD SLOAD PUSH2 0x3BA3 SWAP1 PUSH2 0x3E8 SWAP1 PUSH2 0x127B SWAP1 PUSH1 0x1 PUSH1 0x1 PUSH1 0x60 SHL SUB DUP7 AND SWAP1 PUSH2 0x3AE3 JUMP JUMPDEST PUSH1 0x1 PUSH1 0x1 PUSH1 0x40 SHL SUB DUP7 AND PUSH1 0x0 SWAP1 DUP2 MSTORE PUSH1 0x65 PUSH1 0x20 MSTORE PUSH1 0x40 SWAP1 KECCAK256 PUSH1 0x9 ADD SLOAD SWAP1 SWAP2 POP PUSH4 0x1000000 SWAP1 DIV PUSH1 0xFF AND ISZERO PUSH2 0x3BF5 JUMPI PUSH2 0x3BF0 DUP6 PUSH2 0x3BE8 PUSH1 0x1 PUSH1 0x1 PUSH1 0x60 SHL SUB DUP6 AND DUP5 PUSH2 0x3376 JUMP JUMPDEST PUSH1 0x0 DUP7 PUSH2 0x3F8D JUMP JUMPDEST PUSH2 0x3CBF JUMP JUMPDEST PUSH1 0x1 PUSH1 0x1 PUSH1 0x40 SHL SUB DUP6 AND PUSH1 0x0 SWAP1 DUP2 MSTORE PUSH1 0x65 PUSH1 0x20 MSTORE PUSH1 0x40 DUP2 KECCAK256 PUSH1 0xE ADD SLOAD PUSH1 0x60 DUP2 SWAP1 SHR SWAP2 PUSH2 0x3C2A PUSH1 0x1 PUSH1 0x1 PUSH1 0x60 SHL SUB DUP7 AND DUP9 PUSH2 0x3AFB JUMP JUMPDEST SWAP1 POP PUSH1 0x0 PUSH2 0x3C4F PUSH2 0x3C48 PUSH1 0x1 PUSH1 0x1 PUSH1 0x60 SHL SUB DUP9 AND PUSH2 0x127B DUP9 DUP7 PUSH2 0x3AE3 JUMP JUMPDEST DUP4 SWAP1 PUSH2 0x3376 JUMP JUMPDEST SWAP1 POP PUSH1 0x0 PUSH2 0x3C7C DUP6 PUSH1 0x1 PUSH1 0x1 PUSH1 0x60 SHL SUB AND PUSH2 0x127B DUP7 PUSH1 0x1 PUSH1 0x1 PUSH1 0x60 SHL SUB AND DUP13 PUSH2 0x3AE3 SWAP1 SWAP2 SWAP1 PUSH4 0xFFFFFFFF AND JUMP JUMPDEST SWAP1 POP PUSH2 0x3C8A DUP11 DUP4 DUP4 DUP12 PUSH2 0x3F8D JUMP JUMPDEST PUSH2 0x3CB9 DUP11 PUSH2 0x3CA5 PUSH1 0x1 PUSH1 0x1 PUSH1 0x60 SHL SUB DUP11 AND PUSH2 0x127B DUP11 DUP15 PUSH2 0x3AE3 JUMP JUMPDEST PUSH1 0x6A SLOAD PUSH1 0x0 SWAP1 PUSH1 0x1 PUSH1 0x1 PUSH1 0x40 SHL SUB AND PUSH2 0x3F8D JUMP JUMPDEST POP POP POP POP POP JUMPDEST POP POP POP POP POP JUMP JUMPDEST PUSH1 0x0 PUSH1 0xC0 DUP4 DUP2 SHR SWAP1 PUSH1 0x60 DUP6 DUP2 SHR SWAP2 DUP7 SWAP2 SWAP1 DUP7 SWAP1 SHR SWAP1 DUP7 SWAP1 SHR DUP7 PUSH2 0x3CF5 PUSH1 0x1 PUSH1 0x1 PUSH1 0x60 SHL SUB DUP1 DUP5 AND SWAP1 DUP7 AND PUSH2 0x3AE3 JUMP JUMPDEST PUSH2 0x3D0B PUSH1 0x1 PUSH1 0x1 PUSH1 0x60 SHL SUB DUP8 DUP2 AND SWAP1 DUP5 AND PUSH2 0x3AE3 JUMP JUMPDEST LT ISZERO PUSH2 0x3D20 JUMPI PUSH1 0x1 SWAP7 POP POP POP POP POP POP POP PUSH2 0xCD6 JUMP JUMPDEST PUSH2 0x3D36 PUSH1 0x1 PUSH1 0x1 PUSH1 0x60 SHL SUB DUP4 DUP2 AND SWAP1 DUP7 AND PUSH2 0x3AE3 JUMP JUMPDEST PUSH2 0x3D4C PUSH1 0x1 PUSH1 0x1 PUSH1 0x60 SHL SUB DUP8 DUP2 AND SWAP1 DUP5 AND PUSH2 0x3AE3 JUMP JUMPDEST GT ISZERO PUSH2 0x3D61 JUMPI PUSH1 0x0 SWAP7 POP POP POP POP POP POP POP PUSH2 0xCD6 JUMP JUMPDEST DUP2 PUSH1 0x1 PUSH1 0x1 PUSH1 0x60 SHL SUB AND DUP6 PUSH1 0x1 PUSH1 0x1 PUSH1 0x60 SHL SUB AND LT ISZERO PUSH2 0x3D8A JUMPI PUSH1 0x1 SWAP7 POP POP POP POP POP POP POP PUSH2 0xCD6 JUMP JUMPDEST DUP2 PUSH1 0x1 PUSH1 0x1 PUSH1 0x60 SHL SUB AND DUP6 PUSH1 0x1 PUSH1 0x1 PUSH1 0x60 SHL SUB AND GT ISZERO PUSH2 0x3DB3 JUMPI PUSH1 0x0 SWAP7 POP POP POP POP POP POP POP PUSH2 0xCD6 JUMP JUMPDEST DUP3 PUSH1 0x1 PUSH1 0x1 PUSH1 0x40 SHL SUB AND DUP7 PUSH1 0x1 PUSH1 0x1 PUSH1 0x40 SHL SUB AND EQ ISZERO PUSH2 0x3E2B JUMPI PUSH1 0x40 MLOAD PUSH3 0x461BCD PUSH1 0xE5 SHL DUP2 MSTORE PUSH1 0x20 PUSH1 0x4 DUP3 ADD MSTORE PUSH1 0x2D PUSH1 0x24 DUP3 ADD MSTORE PUSH32 0x75736572206973206E6F7420616C6C6F77656420746F20706C6163652073616D PUSH1 0x44 DUP3 ADD MSTORE PUSH13 0x65206F72646572207477696365 PUSH1 0x98 SHL PUSH1 0x64 DUP3 ADD MSTORE PUSH1 0x84 ADD PUSH2 0x5A9 JUMP JUMPDEST DUP3 PUSH1 0x1 PUSH1 0x1 PUSH1 0x40 SHL SUB AND DUP7 PUSH1 0x1 PUSH1 0x1 PUSH1 0x40 SHL SUB AND LT ISZERO PUSH2 0x3E54 JUMPI PUSH1 0x1 SWAP7 POP POP POP POP POP POP POP PUSH2 0xCD6 JUMP JUMPDEST POP PUSH1 0x0 SWAP9 SWAP8 POP POP POP POP POP POP POP POP JUMP JUMPDEST PUSH1 0x0 PUSH1 0x1 DUP3 EQ ISZERO PUSH2 0x3E76 JUMPI POP PUSH1 0x0 PUSH2 0xCD6 JUMP JUMPDEST POP PUSH1 0x0 SWAP1 DUP2 MSTORE PUSH1 0x20 SWAP2 SWAP1 SWAP2 MSTORE PUSH1 0x40 SWAP1 KECCAK256 SLOAD ISZERO ISZERO SWAP1 JUMP JUMPDEST PUSH1 0x33 DUP1 SLOAD PUSH1 0x1 PUSH1 0x1 PUSH1 0xA0 SHL SUB DUP4 DUP2 AND PUSH1 0x1 PUSH1 0x1 PUSH1 0xA0 SHL SUB NOT DUP4 AND DUP2 OR SWAP1 SWAP4 SSTORE PUSH1 0x40 MLOAD SWAP2 AND SWAP2 SWAP1 DUP3 SWAP1 PUSH32 0x8BE0079C531659141344CD1FD0A4F28419497F9722A3DAAFE3B4186F6B6457E0 SWAP1 PUSH1 0x0 SWAP1 LOG3 POP POP JUMP JUMPDEST PUSH1 0x0 DUP1 PUSH2 0x3EEB DUP5 DUP5 PUSH2 0x3321 JUMP JUMPDEST SWAP1 POP DUP1 ISZERO PUSH2 0xB89 JUMPI PUSH1 0x0 SWAP3 DUP4 MSTORE PUSH1 0x1 SWAP4 SWAP1 SWAP4 ADD PUSH1 0x20 MSTORE POP PUSH1 0x40 DUP2 KECCAK256 SSTORE SWAP1 JUMP JUMPDEST PUSH1 0x40 MLOAD PUSH1 0x1 PUSH1 0x1 PUSH1 0xA0 SHL SUB DUP1 DUP6 AND PUSH1 0x24 DUP4 ADD MSTORE DUP4 AND PUSH1 0x44 DUP3 ADD MSTORE PUSH1 0x64 DUP2 ADD DUP3 SWAP1 MSTORE PUSH2 0x3F42 SWAP1 DUP6 SWAP1 PUSH4 0x23B872DD PUSH1 0xE0 SHL SWAP1 PUSH1 0x84 ADD PUSH2 0x33AE JUMP JUMPDEST POP POP POP POP JUMP JUMPDEST PUSH1 0x0 SLOAD PUSH2 0x100 SWAP1 DIV PUSH1 0xFF AND PUSH2 0x3F6F JUMPI PUSH1 0x40 MLOAD PUSH3 0x461BCD PUSH1 0xE5 SHL DUP2 MSTORE PUSH1 0x4 ADD PUSH2 0x5A9 SWAP1 PUSH2 0x5389 JUMP JUMPDEST PUSH2 0x18A9 PUSH2 0x42FC JUMP JUMPDEST PUSH1 0x0 DUP3 PUSH2 0x3F84 DUP6 DUP5 PUSH2 0x432C JUMP JUMPDEST EQ SWAP5 SWAP4 POP POP POP POP JUMP JUMPDEST PUSH1 0x0 PUSH2 0x3F9A PUSH1 0x68 DUP4 PUSH2 0x4379 JUMP JUMPDEST SWAP1 POP DUP4 ISZERO PUSH2 0x400E JUMPI PUSH1 0x1 PUSH1 0x1 PUSH1 0x40 SHL SUB DUP6 AND PUSH1 0x0 SWAP1 DUP2 MSTORE PUSH1 0x65 PUSH1 0x20 MSTORE PUSH1 0x40 SWAP1 KECCAK256 PUSH1 0x7 ADD SLOAD PUSH2 0x400E SWAP1 DUP3 SWAP1 PUSH8 0xDE0B6B3A7640000 SWAP1 PUSH2 0x3FD8 SWAP1 DUP9 PUSH2 0x4F82 JUMP JUMPDEST PUSH2 0x3FE2 SWAP2 SWAP1 PUSH2 0x4FA1 JUMP JUMPDEST PUSH1 0x1 PUSH1 0x1 PUSH1 0x40 SHL SUB DUP9 AND PUSH1 0x0 SWAP1 DUP2 MSTORE PUSH1 0x65 PUSH1 0x20 MSTORE PUSH1 0x40 SWAP1 KECCAK256 PUSH1 0x1 ADD SLOAD PUSH1 0x1 PUSH1 0x1 PUSH1 0xA0 SHL SUB AND SWAP2 SWAP1 PUSH2 0x3382 JUMP JUMPDEST DUP3 ISZERO PUSH2 0x3CBF JUMPI PUSH1 0x1 PUSH1 0x1 PUSH1 0x40 SHL SUB DUP6 AND PUSH1 0x0 SWAP1 DUP2 MSTORE PUSH1 0x65 PUSH1 0x20 MSTORE PUSH1 0x40 SWAP1 KECCAK256 PUSH1 0x8 ADD SLOAD PUSH2 0x3CBF SWAP1 DUP3 SWAP1 PUSH8 0xDE0B6B3A7640000 SWAP1 PUSH2 0x404A SWAP1 DUP8 PUSH2 0x4F82 JUMP JUMPDEST PUSH2 0x4054 SWAP2 SWAP1 PUSH2 0x4FA1 JUMP JUMPDEST PUSH1 0x1 PUSH1 0x1 PUSH1 0x40 SHL SUB DUP9 AND PUSH1 0x0 SWAP1 DUP2 MSTORE PUSH1 0x65 PUSH1 0x20 MSTORE PUSH1 0x40 SWAP1 KECCAK256 PUSH1 0x2 ADD SLOAD PUSH1 0x1 PUSH1 0x1 PUSH1 0xA0 SHL SUB AND SWAP2 SWAP1 PUSH2 0x3382 JUMP JUMPDEST PUSH1 0x0 PUSH2 0x40D5 DUP3 PUSH1 0x40 MLOAD DUP1 PUSH1 0x40 ADD PUSH1 0x40 MSTORE DUP1 PUSH1 0x20 DUP2 MSTORE PUSH1 0x20 ADD PUSH32 0x5361666545524332303A206C6F772D6C6576656C2063616C6C206661696C6564 DUP2 MSTORE POP DUP6 PUSH1 0x1 PUSH1 0x1 PUSH1 0xA0 SHL SUB AND PUSH2 0x4409 SWAP1 SWAP3 SWAP2 SWAP1 PUSH4 0xFFFFFFFF AND JUMP JUMPDEST DUP1 MLOAD SWAP1 SWAP2 POP ISZERO PUSH2 0x33E5 JUMPI DUP1 DUP1 PUSH1 0x20 ADD SWAP1 MLOAD DUP2 ADD SWAP1 PUSH2 0x40F3 SWAP2 SWAP1 PUSH2 0x53D4 JUMP JUMPDEST PUSH2 0x33E5 JUMPI PUSH1 0x40 MLOAD PUSH3 0x461BCD PUSH1 0xE5 SHL DUP2 MSTORE PUSH1 0x20 PUSH1 0x4 DUP3 ADD MSTORE PUSH1 0x2A PUSH1 0x24 DUP3 ADD MSTORE PUSH32 0x5361666545524332303A204552433230206F7065726174696F6E20646964206E PUSH1 0x44 DUP3 ADD MSTORE PUSH10 0x1BDD081CDD58D8D95959 PUSH1 0xB2 SHL PUSH1 0x64 DUP3 ADD MSTORE PUSH1 0x84 ADD PUSH2 0x5A9 JUMP JUMPDEST PUSH1 0x0 DUP3 PUSH1 0x1 PUSH1 0x1 PUSH1 0x60 SHL SUB DUP2 AND PUSH2 0x41AB JUMPI PUSH1 0x40 MLOAD PUSH3 0x461BCD PUSH1 0xE5 SHL DUP2 MSTORE PUSH1 0x20 PUSH1 0x4 DUP3 ADD MSTORE PUSH1 0x1F PUSH1 0x24 DUP3 ADD MSTORE PUSH32 0x496E73657274696E67207A65726F206973206E6F7420737570706F7274656400 PUSH1 0x44 DUP3 ADD MSTORE PUSH1 0x64 ADD PUSH2 0x5A9 JUMP JUMPDEST PUSH1 0x1 DUP5 EQ DUP1 ISZERO SWAP1 PUSH2 0x41C4 JUMPI POP PUSH1 0x2 PUSH1 0x1 PUSH1 0x60 SHL SUB NOT DUP5 EQ ISZERO JUMPDEST PUSH2 0x4210 JUMPI PUSH1 0x40 MLOAD PUSH3 0x461BCD PUSH1 0xE5 SHL DUP2 MSTORE PUSH1 0x20 PUSH1 0x4 DUP3 ADD MSTORE PUSH1 0x1E PUSH1 0x24 DUP3 ADD MSTORE PUSH32 0x496E73657274696E6720656C656D656E74206973206E6F742076616C69640000 PUSH1 0x44 DUP3 ADD MSTORE PUSH1 0x64 ADD PUSH2 0x5A9 JUMP JUMPDEST PUSH2 0x421A DUP6 DUP6 PUSH2 0x3E63 JUMP JUMPDEST ISZERO PUSH2 0x4229 JUMPI PUSH1 0x0 SWAP2 POP POP PUSH2 0xB89 JUMP JUMPDEST PUSH1 0x1 DUP4 EQ DUP1 ISZERO SWAP1 PUSH2 0x4248 JUMPI POP PUSH1 0x0 DUP4 DUP2 MSTORE PUSH1 0x1 DUP7 ADD PUSH1 0x20 MSTORE PUSH1 0x40 SWAP1 KECCAK256 SLOAD ISZERO JUMPDEST ISZERO PUSH2 0x4257 JUMPI PUSH1 0x0 SWAP2 POP POP PUSH2 0xB89 JUMP JUMPDEST PUSH2 0x4261 DUP4 DUP6 PUSH2 0x3CC6 JUMP JUMPDEST PUSH2 0x426F JUMPI PUSH1 0x0 SWAP2 POP POP PUSH2 0xB89 JUMP JUMPDEST JUMPDEST PUSH1 0x0 DUP4 DUP2 MSTORE PUSH1 0x20 DUP7 SWAP1 MSTORE PUSH1 0x40 SWAP1 KECCAK256 SLOAD PUSH2 0x429B JUMPI PUSH1 0x0 SWAP3 DUP4 MSTORE PUSH1 0x1 DUP6 ADD PUSH1 0x20 MSTORE PUSH1 0x40 SWAP1 SWAP3 KECCAK256 SLOAD SWAP2 PUSH2 0x4270 JUMP JUMPDEST PUSH1 0x0 DUP4 JUMPDEST PUSH1 0x0 DUP2 DUP2 MSTORE PUSH1 0x20 DUP9 SWAP1 MSTORE PUSH1 0x40 SWAP1 KECCAK256 SLOAD SWAP1 SWAP2 POP PUSH2 0x42BB DUP2 DUP8 PUSH2 0x3CC6 JUMP JUMPDEST PUSH2 0x429F JUMPI PUSH1 0x0 DUP3 DUP2 MSTORE PUSH1 0x20 DUP9 DUP2 MSTORE PUSH1 0x40 DUP1 DUP4 KECCAK256 DUP10 SWAP1 SSTORE DUP4 DUP4 MSTORE PUSH1 0x1 DUP1 DUP12 ADD DUP4 MSTORE DUP2 DUP5 KECCAK256 DUP11 SWAP1 SSTORE DUP10 DUP5 MSTORE DUP2 DUP5 KECCAK256 SWAP6 SWAP1 SWAP6 SSTORE SWAP1 DUP10 SWAP1 MSTORE SWAP1 KECCAK256 SSTORE SWAP2 POP POP SWAP4 SWAP3 POP POP POP JUMP JUMPDEST PUSH1 0x0 SLOAD PUSH2 0x100 SWAP1 DIV PUSH1 0xFF AND PUSH2 0x4323 JUMPI PUSH1 0x40 MLOAD PUSH3 0x461BCD PUSH1 0xE5 SHL DUP2 MSTORE PUSH1 0x4 ADD PUSH2 0x5A9 SWAP1 PUSH2 0x5389 JUMP JUMPDEST PUSH2 0x18A9 CALLER PUSH2 0x3E8C JUMP JUMPDEST PUSH1 0x0 DUP2 DUP2 JUMPDEST DUP5 MLOAD DUP2 LT ISZERO PUSH2 0x4371 JUMPI PUSH2 0x435D DUP3 DUP7 DUP4 DUP2 MLOAD DUP2 LT PUSH2 0x4350 JUMPI PUSH2 0x4350 PUSH2 0x4F3B JUMP JUMPDEST PUSH1 0x20 MUL PUSH1 0x20 ADD ADD MLOAD PUSH2 0x4418 JUMP JUMPDEST SWAP2 POP DUP1 PUSH2 0x4369 DUP2 PUSH2 0x4F67 JUMP JUMPDEST SWAP2 POP POP PUSH2 0x4331 JUMP JUMPDEST POP SWAP4 SWAP3 POP POP POP JUMP JUMPDEST PUSH1 0x0 PUSH2 0x4385 DUP4 DUP4 PUSH2 0x4447 JUMP JUMPDEST PUSH2 0x43D1 JUMPI PUSH1 0x40 MLOAD PUSH3 0x461BCD PUSH1 0xE5 SHL DUP2 MSTORE PUSH1 0x20 PUSH1 0x4 DUP3 ADD MSTORE PUSH1 0x1B PUSH1 0x24 DUP3 ADD MSTORE PUSH32 0x4D757374206861766520494420746F2067657420416464726573730000000000 PUSH1 0x44 DUP3 ADD MSTORE PUSH1 0x64 ADD PUSH2 0x5A9 JUMP JUMPDEST DUP3 PUSH1 0x0 PUSH2 0x43DF DUP5 PUSH1 0x1 PUSH2 0x5098 JUMP JUMPDEST PUSH1 0x1 PUSH1 0x1 PUSH1 0x40 SHL SUB AND DUP2 MSTORE PUSH1 0x20 DUP2 ADD SWAP2 SWAP1 SWAP2 MSTORE PUSH1 0x40 ADD PUSH1 0x0 KECCAK256 SLOAD PUSH1 0x1 PUSH1 0x1 PUSH1 0xA0 SHL SUB AND SWAP4 SWAP3 POP POP POP JUMP JUMPDEST PUSH1 0x60 PUSH2 0xB86 DUP5 DUP5 PUSH1 0x0 DUP6 PUSH2 0x4483 JUMP JUMPDEST PUSH1 0x0 DUP2 DUP4 LT PUSH2 0x4434 JUMPI PUSH1 0x0 DUP3 DUP2 MSTORE PUSH1 0x20 DUP5 SWAP1 MSTORE PUSH1 0x40 SWAP1 KECCAK256 PUSH2 0xB89 JUMP JUMPDEST PUSH1 0x0 DUP4 DUP2 MSTORE PUSH1 0x20 DUP4 SWAP1 MSTORE PUSH1 0x40 SWAP1 KECCAK256 PUSH2 0xB89 JUMP JUMPDEST PUSH1 0x0 DUP1 DUP4 DUP2 PUSH2 0x4457 DUP6 PUSH1 0x1 PUSH2 0x5098 JUMP JUMPDEST PUSH1 0x1 PUSH1 0x1 PUSH1 0x40 SHL SUB AND DUP2 MSTORE PUSH1 0x20 DUP2 ADD SWAP2 SWAP1 SWAP2 MSTORE PUSH1 0x40 ADD PUSH1 0x0 KECCAK256 SLOAD PUSH1 0x1 PUSH1 0x1 PUSH1 0xA0 SHL SUB AND EQ ISZERO SWAP4 SWAP3 POP POP POP JUMP JUMPDEST PUSH1 0x60 DUP3 SELFBALANCE LT ISZERO PUSH2 0x44E4 JUMPI PUSH1 0x40 MLOAD PUSH3 0x461BCD PUSH1 0xE5 SHL DUP2 MSTORE PUSH1 0x20 PUSH1 0x4 DUP3 ADD MSTORE PUSH1 0x26 PUSH1 0x24 DUP3 ADD MSTORE PUSH32 0x416464726573733A20696E73756666696369656E742062616C616E636520666F PUSH1 0x44 DUP3 ADD MSTORE PUSH6 0x1C8818D85B1B PUSH1 0xD2 SHL PUSH1 0x64 DUP3 ADD MSTORE PUSH1 0x84 ADD PUSH2 0x5A9 JUMP JUMPDEST PUSH1 0x0 DUP1 DUP7 PUSH1 0x1 PUSH1 0x1 PUSH1 0xA0 SHL SUB AND DUP6 DUP8 PUSH1 0x40 MLOAD PUSH2 0x4500 SWAP2 SWAP1 PUSH2 0x53F1 JUMP JUMPDEST PUSH1 0x0 PUSH1 0x40 MLOAD DUP1 DUP4 SUB DUP2 DUP6 DUP8 GAS CALL SWAP3 POP POP POP RETURNDATASIZE DUP1 PUSH1 0x0 DUP2 EQ PUSH2 0x453D JUMPI PUSH1 0x40 MLOAD SWAP2 POP PUSH1 0x1F NOT PUSH1 0x3F RETURNDATASIZE ADD AND DUP3 ADD PUSH1 0x40 MSTORE RETURNDATASIZE DUP3 MSTORE RETURNDATASIZE PUSH1 0x0 PUSH1 0x20 DUP5 ADD RETURNDATACOPY PUSH2 0x4542 JUMP JUMPDEST PUSH1 0x60 SWAP2 POP JUMPDEST POP SWAP2 POP SWAP2 POP PUSH2 0x4553 DUP8 DUP4 DUP4 DUP8 PUSH2 0x4560 JUMP JUMPDEST SWAP3 POP POP POP JUMPDEST SWAP5 SWAP4 POP POP POP POP JUMP JUMPDEST PUSH1 0x60 DUP4 ISZERO PUSH2 0x45CC JUMPI DUP3 MLOAD PUSH2 0x45C5 JUMPI PUSH1 0x1 PUSH1 0x1 PUSH1 0xA0 SHL SUB DUP6 AND EXTCODESIZE PUSH2 0x45C5 JUMPI PUSH1 0x40 MLOAD PUSH3 0x461BCD PUSH1 0xE5 SHL DUP2 MSTORE PUSH1 0x20 PUSH1 0x4 DUP3 ADD MSTORE PUSH1 0x1D PUSH1 0x24 DUP3 ADD MSTORE PUSH32 0x416464726573733A2063616C6C20746F206E6F6E2D636F6E7472616374000000 PUSH1 0x44 DUP3 ADD MSTORE PUSH1 0x64 ADD PUSH2 0x5A9 JUMP JUMPDEST POP DUP2 PUSH2 0x4558 JUMP JUMPDEST PUSH2 0x4558 DUP4 DUP4 DUP2 MLOAD ISZERO PUSH2 0x45E1 JUMPI DUP2 MLOAD DUP1 DUP4 PUSH1 0x20 ADD REVERT JUMPDEST DUP1 PUSH1 0x40 MLOAD PUSH3 0x461BCD PUSH1 0xE5 SHL DUP2 MSTORE PUSH1 0x4 ADD PUSH2 0x5A9 SWAP2 SWAP1 PUSH2 0x4EF1 JUMP JUMPDEST DUP3 DUP1 SLOAD PUSH2 0x4607 SWAP1 PUSH2 0x530F JUMP JUMPDEST SWAP1 PUSH1 0x0 MSTORE PUSH1 0x20 PUSH1 0x0 KECCAK256 SWAP1 PUSH1 0x1F ADD PUSH1 0x20 SWAP1 DIV DUP2 ADD SWAP3 DUP3 PUSH2 0x4629 JUMPI PUSH1 0x0 DUP6 SSTORE PUSH2 0x466F JUMP JUMPDEST DUP3 PUSH1 0x1F LT PUSH2 0x4642 JUMPI DUP1 MLOAD PUSH1 0xFF NOT AND DUP4 DUP1 ADD OR DUP6 SSTORE PUSH2 0x466F JUMP JUMPDEST DUP3 DUP1 ADD PUSH1 0x1 ADD DUP6 SSTORE DUP3 ISZERO PUSH2 0x466F JUMPI SWAP2 DUP3 ADD JUMPDEST DUP3 DUP2 GT ISZERO PUSH2 0x466F JUMPI DUP3 MLOAD DUP3 SSTORE SWAP2 PUSH1 0x20 ADD SWAP2 SWAP1 PUSH1 0x1 ADD SWAP1 PUSH2 0x4654 JUMP JUMPDEST POP PUSH2 0x374B SWAP3 SWAP2 POP JUMPDEST DUP1 DUP3 GT ISZERO PUSH2 0x374B JUMPI PUSH1 0x0 DUP2 SSTORE PUSH1 0x1 ADD PUSH2 0x4677 JUMP JUMPDEST DUP1 CALLDATALOAD PUSH1 0x1 PUSH1 0x1 PUSH1 0x40 SHL SUB DUP2 AND DUP2 EQ PUSH2 0xD28 JUMPI PUSH1 0x0 DUP1 REVERT JUMPDEST PUSH4 0x4E487B71 PUSH1 0xE0 SHL PUSH1 0x0 MSTORE PUSH1 0x41 PUSH1 0x4 MSTORE PUSH1 0x24 PUSH1 0x0 REVERT JUMPDEST PUSH1 0x40 MLOAD PUSH2 0x180 DUP2 ADD PUSH1 0x1 PUSH1 0x1 PUSH1 0x40 SHL SUB DUP2 GT DUP3 DUP3 LT OR ISZERO PUSH2 0x46DB JUMPI PUSH2 0x46DB PUSH2 0x46A2 JUMP JUMPDEST PUSH1 0x40 MSTORE SWAP1 JUMP JUMPDEST PUSH1 0x40 MLOAD PUSH1 0x1F DUP3 ADD PUSH1 0x1F NOT AND DUP2 ADD PUSH1 0x1 PUSH1 0x1 PUSH1 0x40 SHL SUB DUP2 GT DUP3 DUP3 LT OR ISZERO PUSH2 0x4709 JUMPI PUSH2 0x4709 PUSH2 0x46A2 JUMP JUMPDEST PUSH1 0x40 MSTORE SWAP2 SWAP1 POP JUMP JUMPDEST PUSH1 0x0 PUSH1 0x1 PUSH1 0x1 PUSH1 0x40 SHL SUB DUP3 GT ISZERO PUSH2 0x472A JUMPI PUSH2 0x472A PUSH2 0x46A2 JUMP JUMPDEST POP PUSH1 0x5 SHL PUSH1 0x20 ADD SWAP1 JUMP JUMPDEST PUSH1 0x0 DUP3 PUSH1 0x1F DUP4 ADD SLT PUSH2 0x4745 JUMPI PUSH1 0x0 DUP1 REVERT JUMPDEST DUP2 CALLDATALOAD PUSH1 0x20 PUSH2 0x475A PUSH2 0x4755 DUP4 PUSH2 0x4711 JUMP JUMPDEST PUSH2 0x46E1 JUMP JUMPDEST DUP3 DUP2 MSTORE PUSH1 0x5 SWAP3 SWAP1 SWAP3 SHL DUP5 ADD DUP2 ADD SWAP2 DUP2 DUP2 ADD SWAP1 DUP7 DUP5 GT ISZERO PUSH2 0x4779 JUMPI PUSH1 0x0 DUP1 REVERT JUMPDEST DUP3 DUP7 ADD JUMPDEST DUP5 DUP2 LT ISZERO PUSH2 0x4794 JUMPI DUP1 CALLDATALOAD DUP4 MSTORE SWAP2 DUP4 ADD SWAP2 DUP4 ADD PUSH2 0x477D JUMP JUMPDEST POP SWAP7 SWAP6 POP POP POP POP POP POP JUMP JUMPDEST PUSH1 0x0 DUP1 PUSH1 0x40 DUP4 DUP6 SUB SLT ISZERO PUSH2 0x47B2 JUMPI PUSH1 0x0 DUP1 REVERT JUMPDEST PUSH2 0x47BB DUP4 PUSH2 0x468B JUMP JUMPDEST SWAP2 POP PUSH1 0x20 DUP4 ADD CALLDATALOAD PUSH1 0x1 PUSH1 0x1 PUSH1 0x40 SHL SUB DUP2 GT ISZERO PUSH2 0x47D6 JUMPI PUSH1 0x0 DUP1 REVERT JUMPDEST PUSH2 0x47E2 DUP6 DUP3 DUP7 ADD PUSH2 0x4734 JUMP JUMPDEST SWAP2 POP POP SWAP3 POP SWAP3 SWAP1 POP JUMP JUMPDEST PUSH1 0x0 DUP1 PUSH1 0x40 DUP4 DUP6 SUB SLT ISZERO PUSH2 0x47FF JUMPI PUSH1 0x0 DUP1 REVERT JUMPDEST PUSH2 0x4808 DUP4 PUSH2 0x468B JUMP JUMPDEST SWAP5 PUSH1 0x20 SWAP4 SWAP1 SWAP4 ADD CALLDATALOAD SWAP4 POP POP POP JUMP JUMPDEST DUP1 CALLDATALOAD PUSH1 0x1 PUSH1 0x1 PUSH1 0x60 SHL SUB DUP2 AND DUP2 EQ PUSH2 0xD28 JUMPI PUSH1 0x0 DUP1 REVERT JUMPDEST PUSH1 0x0 DUP3 PUSH1 0x1F DUP4 ADD SLT PUSH2 0x483E JUMPI PUSH1 0x0 DUP1 REVERT JUMPDEST DUP2 CALLDATALOAD PUSH1 0x20 PUSH2 0x484E PUSH2 0x4755 DUP4 PUSH2 0x4711 JUMP JUMPDEST DUP3 DUP2 MSTORE PUSH1 0x5 SWAP3 SWAP1 SWAP3 SHL DUP5 ADD DUP2 ADD SWAP2 DUP2 DUP2 ADD SWAP1 DUP7 DUP5 GT ISZERO PUSH2 0x486D JUMPI PUSH1 0x0 DUP1 REVERT JUMPDEST DUP3 DUP7 ADD JUMPDEST DUP5 DUP2 LT ISZERO PUSH2 0x4794 JUMPI PUSH2 0x4882 DUP2 PUSH2 0x4816 JUMP JUMPDEST DUP4 MSTORE SWAP2 DUP4 ADD SWAP2 DUP4 ADD PUSH2 0x4871 JUMP JUMPDEST PUSH1 0x1 PUSH1 0x1 PUSH1 0xA0 SHL SUB DUP2 AND DUP2 EQ PUSH2 0xCB6 JUMPI PUSH1 0x0 DUP1 REVERT JUMPDEST PUSH1 0x0 DUP1 PUSH1 0x0 DUP1 PUSH1 0x0 PUSH1 0xA0 DUP7 DUP9 SUB SLT ISZERO PUSH2 0x48BC JUMPI PUSH1 0x0 DUP1 REVERT JUMPDEST PUSH2 0x48C5 DUP7 PUSH2 0x468B JUMP JUMPDEST SWAP5 POP PUSH1 0x20 DUP7 ADD CALLDATALOAD PUSH1 0x1 PUSH1 0x1 PUSH1 0x40 SHL SUB DUP1 DUP3 GT ISZERO PUSH2 0x48E1 JUMPI PUSH1 0x0 DUP1 REVERT JUMPDEST PUSH2 0x48ED DUP10 DUP4 DUP11 ADD PUSH2 0x482D JUMP JUMPDEST SWAP6 POP PUSH1 0x40 DUP9 ADD CALLDATALOAD SWAP2 POP DUP1 DUP3 GT ISZERO PUSH2 0x4903 JUMPI PUSH1 0x0 DUP1 REVERT JUMPDEST PUSH2 0x490F DUP10 DUP4 DUP11 ADD PUSH2 0x482D JUMP JUMPDEST SWAP5 POP PUSH1 0x60 DUP9 ADD CALLDATALOAD SWAP2 POP DUP1 DUP3 GT ISZERO PUSH2 0x4925 JUMPI PUSH1 0x0 DUP1 REVERT JUMPDEST POP PUSH2 0x4932 DUP9 DUP3 DUP10 ADD PUSH2 0x4734 JUMP JUMPDEST SWAP3 POP POP PUSH1 0x80 DUP7 ADD CALLDATALOAD PUSH2 0x4943 DUP2 PUSH2 0x488F JUMP JUMPDEST DUP1 SWAP2 POP POP SWAP3 SWAP6 POP SWAP3 SWAP6 SWAP1 SWAP4 POP JUMP JUMPDEST PUSH1 0x0 PUSH1 0x20 DUP3 DUP5 SUB SLT ISZERO PUSH2 0x4963 JUMPI PUSH1 0x0 DUP1 REVERT JUMPDEST DUP2 CALLDATALOAD PUSH2 0xB89 DUP2 PUSH2 0x488F JUMP JUMPDEST PUSH1 0x0 DUP1 PUSH1 0x0 PUSH1 0x60 DUP5 DUP7 SUB SLT ISZERO PUSH2 0x4983 JUMPI PUSH1 0x0 DUP1 REVERT JUMPDEST PUSH2 0x498C DUP5 PUSH2 0x468B JUMP JUMPDEST SWAP3 POP PUSH2 0x499A PUSH1 0x20 DUP6 ADD PUSH2 0x4816 JUMP JUMPDEST SWAP2 POP PUSH2 0x49A8 PUSH1 0x40 DUP6 ADD PUSH2 0x4816 JUMP JUMPDEST SWAP1 POP SWAP3 POP SWAP3 POP SWAP3 JUMP JUMPDEST PUSH1 0x0 PUSH1 0x20 DUP3 DUP5 SUB SLT ISZERO PUSH2 0x49C3 JUMPI PUSH1 0x0 DUP1 REVERT JUMPDEST PUSH2 0xB89 DUP3 PUSH2 0x468B JUMP JUMPDEST DUP1 CALLDATALOAD PUSH5 0xFFFFFFFFFF DUP2 AND DUP2 EQ PUSH2 0xD28 JUMPI PUSH1 0x0 DUP1 REVERT JUMPDEST PUSH1 0x0 DUP1 PUSH1 0x0 DUP1 PUSH1 0x0 DUP1 PUSH1 0xC0 DUP8 DUP10 SUB SLT ISZERO PUSH2 0x49FA JUMPI PUSH1 0x0 DUP1 REVERT JUMPDEST PUSH2 0x4A03 DUP8 PUSH2 0x468B JUMP JUMPDEST SWAP6 POP PUSH2 0x4A11 PUSH1 0x20 DUP9 ADD PUSH2 0x49CC JUMP JUMPDEST SWAP5 POP PUSH2 0x4A1F PUSH1 0x40 DUP9 ADD PUSH2 0x49CC JUMP JUMPDEST SWAP4 POP PUSH2 0x4A2D PUSH1 0x60 DUP9 ADD PUSH2 0x49CC JUMP JUMPDEST SWAP3 POP PUSH1 0x80 DUP8 ADD CALLDATALOAD SWAP2 POP PUSH1 0xA0 DUP8 ADD CALLDATALOAD SWAP1 POP SWAP3 SWAP6 POP SWAP3 SWAP6 POP SWAP3 SWAP6 JUMP JUMPDEST PUSH1 0x0 DUP1 PUSH1 0x0 DUP1 PUSH1 0x80 DUP6 DUP8 SUB SLT ISZERO PUSH2 0x4A5D JUMPI PUSH1 0x0 DUP1 REVERT JUMPDEST PUSH2 0x4A66 DUP6 PUSH2 0x468B JUMP JUMPDEST SWAP4 POP PUSH1 0x20 DUP6 ADD CALLDATALOAD PUSH1 0x1 PUSH1 0x1 PUSH1 0x40 SHL SUB DUP1 DUP3 GT ISZERO PUSH2 0x4A82 JUMPI PUSH1 0x0 DUP1 REVERT JUMPDEST PUSH2 0x4A8E DUP9 DUP4 DUP10 ADD PUSH2 0x482D JUMP JUMPDEST SWAP5 POP PUSH1 0x40 DUP8 ADD CALLDATALOAD SWAP2 POP DUP1 DUP3 GT ISZERO PUSH2 0x4AA4 JUMPI PUSH1 0x0 DUP1 REVERT JUMPDEST PUSH2 0x4AB0 DUP9 DUP4 DUP10 ADD PUSH2 0x482D JUMP JUMPDEST SWAP4 POP PUSH1 0x60 DUP8 ADD CALLDATALOAD SWAP2 POP DUP1 DUP3 GT ISZERO PUSH2 0x4AC6 JUMPI PUSH1 0x0 DUP1 REVERT JUMPDEST POP PUSH2 0x4AD3 DUP8 DUP3 DUP9 ADD PUSH2 0x4734 JUMP JUMPDEST SWAP2 POP POP SWAP3 SWAP6 SWAP2 SWAP5 POP SWAP3 POP JUMP JUMPDEST PUSH1 0x0 DUP1 PUSH1 0x40 DUP4 DUP6 SUB SLT ISZERO PUSH2 0x4AF2 JUMPI PUSH1 0x0 DUP1 REVERT JUMPDEST DUP3 CALLDATALOAD SWAP2 POP PUSH1 0x20 DUP4 ADD CALLDATALOAD PUSH2 0x4B04 DUP2 PUSH2 0x488F JUMP JUMPDEST DUP1 SWAP2 POP POP SWAP3 POP SWAP3 SWAP1 POP JUMP JUMPDEST PUSH1 0x0 DUP3 PUSH1 0x1F DUP4 ADD SLT PUSH2 0x4B20 JUMPI PUSH1 0x0 DUP1 REVERT JUMPDEST DUP2 CALLDATALOAD PUSH1 0x1 PUSH1 0x1 PUSH1 0x40 SHL SUB DUP2 GT ISZERO PUSH2 0x4B39 JUMPI PUSH2 0x4B39 PUSH2 0x46A2 JUMP JUMPDEST PUSH2 0x4B4C PUSH1 0x1F DUP3 ADD PUSH1 0x1F NOT AND PUSH1 0x20 ADD PUSH2 0x46E1 JUMP JUMPDEST DUP2 DUP2 MSTORE DUP5 PUSH1 0x20 DUP4 DUP7 ADD ADD GT ISZERO PUSH2 0x4B61 JUMPI PUSH1 0x0 DUP1 REVERT JUMPDEST DUP2 PUSH1 0x20 DUP6 ADD PUSH1 0x20 DUP4 ADD CALLDATACOPY PUSH1 0x0 SWAP2 DUP2 ADD PUSH1 0x20 ADD SWAP2 SWAP1 SWAP2 MSTORE SWAP4 SWAP3 POP POP POP JUMP JUMPDEST PUSH1 0x0 DUP1 PUSH1 0x40 DUP4 DUP6 SUB SLT ISZERO PUSH2 0x4B91 JUMPI PUSH1 0x0 DUP1 REVERT JUMPDEST PUSH2 0x4B9A DUP4 PUSH2 0x468B JUMP JUMPDEST SWAP2 POP PUSH1 0x20 DUP4 ADD CALLDATALOAD PUSH1 0x1 PUSH1 0x1 PUSH1 0x40 SHL SUB DUP2 GT ISZERO PUSH2 0x4BB5 JUMPI PUSH1 0x0 DUP1 REVERT JUMPDEST PUSH2 0x47E2 DUP6 DUP3 DUP7 ADD PUSH2 0x4B0F JUMP JUMPDEST PUSH1 0x0 PUSH1 0x20 DUP3 DUP5 SUB SLT ISZERO PUSH2 0x4BD3 JUMPI PUSH1 0x0 DUP1 REVERT JUMPDEST DUP2 CALLDATALOAD PUSH1 0x1 PUSH1 0x1 PUSH1 0x40 SHL SUB DUP2 GT ISZERO PUSH2 0x4BE9 JUMPI PUSH1 0x0 DUP1 REVERT JUMPDEST DUP3 ADD PUSH2 0x1A0 DUP2 DUP6 SUB SLT ISZERO PUSH2 0xB89 JUMPI PUSH1 0x0 DUP1 REVERT JUMPDEST PUSH1 0x0 DUP1 PUSH1 0x0 DUP1 PUSH1 0x0 DUP1 PUSH1 0xA0 DUP8 DUP10 SUB SLT ISZERO PUSH2 0x4C15 JUMPI PUSH1 0x0 DUP1 REVERT JUMPDEST PUSH2 0x4C1E DUP8 PUSH2 0x468B JUMP JUMPDEST SWAP6 POP PUSH1 0x20 DUP8 ADD CALLDATALOAD PUSH1 0x1 PUSH1 0x1 PUSH1 0x40 SHL SUB DUP1 DUP3 GT ISZERO PUSH2 0x4C3A JUMPI PUSH1 0x0 DUP1 REVERT JUMPDEST DUP2 DUP10 ADD SWAP2 POP DUP10 PUSH1 0x1F DUP4 ADD SLT PUSH2 0x4C4E JUMPI PUSH1 0x0 DUP1 REVERT JUMPDEST DUP2 CALLDATALOAD DUP2 DUP2 GT ISZERO PUSH2 0x4C5D JUMPI PUSH1 0x0 DUP1 REVERT JUMPDEST DUP11 PUSH1 0x20 DUP3 PUSH1 0x5 SHL DUP6 ADD ADD GT ISZERO PUSH2 0x4C72 JUMPI PUSH1 0x0 DUP1 REVERT JUMPDEST PUSH1 0x20 DUP4 ADD SWAP8 POP DUP1 SWAP7 POP POP PUSH1 0x40 DUP10 ADD CALLDATALOAD SWAP2 POP DUP1 DUP3 GT ISZERO PUSH2 0x4C90 JUMPI PUSH1 0x0 DUP1 REVERT JUMPDEST PUSH2 0x4C9C DUP11 DUP4 DUP12 ADD PUSH2 0x482D JUMP JUMPDEST SWAP5 POP PUSH1 0x60 DUP10 ADD CALLDATALOAD SWAP2 POP DUP1 DUP3 GT ISZERO PUSH2 0x4CB2 JUMPI PUSH1 0x0 DUP1 REVERT JUMPDEST PUSH2 0x4CBE DUP11 DUP4 DUP12 ADD PUSH2 0x482D JUMP JUMPDEST SWAP4 POP PUSH1 0x80 DUP10 ADD CALLDATALOAD SWAP2 POP DUP1 DUP3 GT ISZERO PUSH2 0x4CD4 JUMPI PUSH1 0x0 DUP1 REVERT JUMPDEST POP PUSH2 0x4CE1 DUP10 DUP3 DUP11 ADD PUSH2 0x4734 JUMP JUMPDEST SWAP2 POP POP SWAP3 SWAP6 POP SWAP3 SWAP6 POP SWAP3 SWAP6 JUMP JUMPDEST PUSH1 0x0 JUMPDEST DUP4 DUP2 LT ISZERO PUSH2 0x4D09 JUMPI DUP2 DUP2 ADD MLOAD DUP4 DUP3 ADD MSTORE PUSH1 0x20 ADD PUSH2 0x4CF1 JUMP JUMPDEST DUP4 DUP2 GT ISZERO PUSH2 0x3F42 JUMPI POP POP PUSH1 0x0 SWAP2 ADD MSTORE JUMP JUMPDEST PUSH1 0x0 DUP2 MLOAD DUP1 DUP5 MSTORE PUSH2 0x4D32 DUP2 PUSH1 0x20 DUP7 ADD PUSH1 0x20 DUP7 ADD PUSH2 0x4CEE JUMP JUMPDEST PUSH1 0x1F ADD PUSH1 0x1F NOT AND SWAP3 SWAP1 SWAP3 ADD PUSH1 0x20 ADD SWAP3 SWAP2 POP POP JUMP JUMPDEST PUSH1 0x0 PUSH2 0x1A0 DUP1 DUP4 MSTORE DUP13 MLOAD DUP2 DUP3 DUP6 ADD MSTORE PUSH2 0x4D63 PUSH2 0x340 DUP6 ADD DUP3 PUSH2 0x4D1A JUMP JUMPDEST SWAP2 POP POP PUSH1 0x20 DUP14 ADD MLOAD PUSH2 0x4D81 PUSH2 0x1C0 DUP6 ADD DUP3 PUSH1 0x1 PUSH1 0x1 PUSH1 0xA0 SHL SUB AND SWAP1 MSTORE JUMP JUMPDEST POP PUSH1 0x40 DUP14 ADD MLOAD PUSH1 0x1 PUSH1 0x1 PUSH1 0xA0 SHL SUB DUP2 AND PUSH2 0x1E0 DUP6 ADD MSTORE POP PUSH1 0x60 DUP14 ADD MLOAD PUSH5 0xFFFFFFFFFF DUP2 AND PUSH2 0x200 DUP6 ADD MSTORE POP PUSH1 0x80 DUP14 ADD MLOAD PUSH5 0xFFFFFFFFFF DUP2 AND PUSH2 0x220 DUP6 ADD MSTORE POP PUSH1 0xA0 DUP14 ADD MLOAD PUSH5 0xFFFFFFFFFF DUP2 AND PUSH2 0x240 DUP6 ADD MSTORE POP PUSH1 0xC0 DUP14 ADD MLOAD PUSH1 0x1 PUSH1 0x1 PUSH1 0x60 SHL SUB DUP2 AND PUSH2 0x260 DUP6 ADD MSTORE POP PUSH1 0xE0 DUP14 ADD MLOAD PUSH1 0x1 PUSH1 0x1 PUSH1 0x60 SHL SUB DUP2 AND PUSH2 0x280 DUP6 ADD MSTORE POP PUSH2 0x100 DUP14 ADD MLOAD PUSH2 0x2A0 DUP5 ADD MSTORE PUSH2 0x120 DUP14 ADD MLOAD PUSH2 0x2C0 DUP5 ADD MSTORE PUSH2 0x140 DUP1 DUP15 ADD MLOAD DUP1 ISZERO ISZERO PUSH2 0x2E0 DUP7 ADD MSTORE POP PUSH2 0x160 DUP15 DUP2 ADD MLOAD DUP1 MLOAD PUSH2 0x300 DUP8 ADD MSTORE PUSH1 0x20 DUP2 ADD MLOAD PUSH2 0x320 DUP8 ADD MSTORE POP DUP3 SWAP4 POP PUSH2 0x4E7D PUSH1 0x20 DUP7 ADD DUP16 DUP1 MLOAD ISZERO ISZERO DUP3 MSTORE PUSH1 0x20 DUP2 ADD MLOAD ISZERO ISZERO PUSH1 0x20 DUP4 ADD MSTORE PUSH1 0x40 DUP2 ADD MLOAD ISZERO ISZERO PUSH1 0x40 DUP4 ADD MSTORE PUSH1 0x60 DUP2 ADD MLOAD ISZERO ISZERO PUSH1 0x60 DUP4 ADD MSTORE POP POP JUMP JUMPDEST PUSH1 0x1 PUSH1 0x1 PUSH1 0xA0 SHL SUB DUP14 AND PUSH1 0xA0 DUP7 ADD MSTORE DUP12 PUSH1 0xC0 DUP7 ADD MSTORE DUP11 PUSH1 0xE0 DUP7 ADD MSTORE DUP10 PUSH2 0x100 DUP7 ADD MSTORE DUP9 PUSH2 0x120 DUP7 ADD MSTORE PUSH2 0x4EBA DUP3 DUP7 ADD DUP10 PUSH1 0x1 PUSH1 0x1 PUSH1 0x60 SHL SUB AND SWAP1 MSTORE JUMP JUMPDEST DUP7 DUP2 DUP7 ADD MSTORE POP POP POP DUP3 PUSH2 0x180 DUP4 ADD MSTORE SWAP12 SWAP11 POP POP POP POP POP POP POP POP POP POP POP JUMP JUMPDEST PUSH1 0x0 PUSH1 0x20 DUP3 DUP5 SUB SLT ISZERO PUSH2 0x4EEA JUMPI PUSH1 0x0 DUP1 REVERT JUMPDEST POP CALLDATALOAD SWAP2 SWAP1 POP JUMP JUMPDEST PUSH1 0x20 DUP2 MSTORE PUSH1 0x0 PUSH2 0xB89 PUSH1 0x20 DUP4 ADD DUP5 PUSH2 0x4D1A JUMP JUMPDEST PUSH1 0x20 DUP1 DUP3 MSTORE PUSH1 0x19 SWAP1 DUP3 ADD MSTORE PUSH32 0x44656C657465642F5363616D6D65642F43616E63656C6C656400000000000000 PUSH1 0x40 DUP3 ADD MSTORE PUSH1 0x60 ADD SWAP1 JUMP JUMPDEST PUSH4 0x4E487B71 PUSH1 0xE0 SHL PUSH1 0x0 MSTORE PUSH1 0x32 PUSH1 0x4 MSTORE PUSH1 0x24 PUSH1 0x0 REVERT JUMPDEST PUSH4 0x4E487B71 PUSH1 0xE0 SHL PUSH1 0x0 MSTORE PUSH1 0x11 PUSH1 0x4 MSTORE PUSH1 0x24 PUSH1 0x0 REVERT JUMPDEST PUSH1 0x0 PUSH1 0x0 NOT DUP3 EQ ISZERO PUSH2 0x4F7B JUMPI PUSH2 0x4F7B PUSH2 0x4F51 JUMP JUMPDEST POP PUSH1 0x1 ADD SWAP1 JUMP JUMPDEST PUSH1 0x0 DUP2 PUSH1 0x0 NOT DIV DUP4 GT DUP3 ISZERO ISZERO AND ISZERO PUSH2 0x4F9C JUMPI PUSH2 0x4F9C PUSH2 0x4F51 JUMP JUMPDEST POP MUL SWAP1 JUMP JUMPDEST PUSH1 0x0 DUP3 PUSH2 0x4FBE JUMPI PUSH4 0x4E487B71 PUSH1 0xE0 SHL PUSH1 0x0 MSTORE PUSH1 0x12 PUSH1 0x4 MSTORE PUSH1 0x24 PUSH1 0x0 REVERT JUMPDEST POP DIV SWAP1 JUMP JUMPDEST PUSH1 0x0 DUP3 NOT DUP3 GT ISZERO PUSH2 0x4FD6 JUMPI PUSH2 0x4FD6 PUSH2 0x4F51 JUMP JUMPDEST POP ADD SWAP1 JUMP JUMPDEST PUSH1 0x20 DUP1 DUP3 MSTORE PUSH1 0x17 SWAP1 DUP3 ADD MSTORE PUSH32 0x4E6F7420696E207375626D697373696F6E207068617365000000000000000000 PUSH1 0x40 DUP3 ADD MSTORE PUSH1 0x60 ADD SWAP1 JUMP JUMPDEST PUSH1 0x20 DUP1 DUP3 MSTORE PUSH1 0x12 SWAP1 DUP3 ADD MSTORE PUSH18 0x11195B195D1959081BDC8814D8D85B5B5959 PUSH1 0x72 SHL PUSH1 0x40 DUP3 ADD MSTORE PUSH1 0x60 ADD SWAP1 JUMP JUMPDEST PUSH1 0x0 PUSH1 0x20 DUP3 DUP5 SUB SLT ISZERO PUSH2 0x5050 JUMPI PUSH1 0x0 DUP1 REVERT JUMPDEST PUSH2 0xB89 DUP3 PUSH2 0x4816 JUMP JUMPDEST DUP1 CALLDATALOAD PUSH2 0xD28 DUP2 PUSH2 0x488F JUMP JUMPDEST PUSH1 0x0 PUSH1 0x20 DUP3 DUP5 SUB SLT ISZERO PUSH2 0x5076 JUMPI PUSH1 0x0 DUP1 REVERT JUMPDEST POP MLOAD SWAP2 SWAP1 POP JUMP JUMPDEST PUSH1 0x0 PUSH1 0x20 DUP3 DUP5 SUB SLT ISZERO PUSH2 0x508F JUMPI PUSH1 0x0 DUP1 REVERT JUMPDEST PUSH2 0xB89 DUP3 PUSH2 0x49CC JUMP JUMPDEST PUSH1 0x0 PUSH1 0x1 PUSH1 0x1 PUSH1 0x40 SHL SUB DUP1 DUP4 AND DUP2 DUP6 AND DUP1 DUP4 SUB DUP3 GT ISZERO PUSH2 0x50BA JUMPI PUSH2 0x50BA PUSH2 0x4F51 JUMP JUMPDEST ADD SWAP5 SWAP4 POP POP POP POP JUMP JUMPDEST DUP1 ISZERO ISZERO DUP2 EQ PUSH2 0xCB6 JUMPI PUSH1 0x0 DUP1 REVERT JUMPDEST DUP1 CALLDATALOAD PUSH2 0xD28 DUP2 PUSH2 0x50C3 JUMP JUMPDEST PUSH1 0x0 PUSH1 0x40 DUP3 DUP5 SUB SLT ISZERO PUSH2 0x50EE JUMPI PUSH1 0x0 DUP1 REVERT JUMPDEST PUSH1 0x40 MLOAD PUSH1 0x40 DUP2 ADD DUP2 DUP2 LT PUSH1 0x1 PUSH1 0x1 PUSH1 0x40 SHL SUB DUP3 GT OR ISZERO PUSH2 0x5110 JUMPI PUSH2 0x5110 PUSH2 0x46A2 JUMP JUMPDEST PUSH1 0x40 MSTORE DUP3 CALLDATALOAD DUP2 MSTORE PUSH1 0x20 SWAP3 DUP4 ADD CALLDATALOAD SWAP3 DUP2 ADD SWAP3 SWAP1 SWAP3 MSTORE POP SWAP2 SWAP1 POP JUMP JUMPDEST PUSH1 0x0 PUSH2 0x1A0 DUP3 CALLDATASIZE SUB SLT ISZERO PUSH2 0x513D JUMPI PUSH1 0x0 DUP1 REVERT JUMPDEST PUSH2 0x5145 PUSH2 0x46B8 JUMP JUMPDEST DUP3 CALLDATALOAD PUSH1 0x1 PUSH1 0x1 PUSH1 0x40 SHL SUB DUP2 GT ISZERO PUSH2 0x515B JUMPI PUSH1 0x0 DUP1 REVERT JUMPDEST PUSH2 0x5167 CALLDATASIZE DUP3 DUP7 ADD PUSH2 0x4B0F JUMP JUMPDEST DUP3 MSTORE POP PUSH2 0x5176 PUSH1 0x20 DUP5 ADD PUSH2 0x5059 JUMP JUMPDEST PUSH1 0x20 DUP3 ADD MSTORE PUSH2 0x5187 PUSH1 0x40 DUP5 ADD PUSH2 0x5059 JUMP JUMPDEST PUSH1 0x40 DUP3 ADD MSTORE PUSH2 0x5198 PUSH1 0x60 DUP5 ADD PUSH2 0x49CC JUMP JUMPDEST PUSH1 0x60 DUP3 ADD MSTORE PUSH2 0x51A9 PUSH1 0x80 DUP5 ADD PUSH2 0x49CC JUMP JUMPDEST PUSH1 0x80 DUP3 ADD MSTORE PUSH2 0x51BA PUSH1 0xA0 DUP5 ADD PUSH2 0x49CC JUMP JUMPDEST PUSH1 0xA0 DUP3 ADD MSTORE PUSH2 0x51CB PUSH1 0xC0 DUP5 ADD PUSH2 0x4816 JUMP JUMPDEST PUSH1 0xC0 DUP3 ADD MSTORE PUSH2 0x51DC PUSH1 0xE0 DUP5 ADD PUSH2 0x4816 JUMP JUMPDEST PUSH1 0xE0 DUP3 ADD MSTORE PUSH2 0x100 DUP4 DUP2 ADD CALLDATALOAD SWAP1 DUP3 ADD MSTORE PUSH2 0x120 DUP1 DUP5 ADD CALLDATALOAD SWAP1 DUP3 ADD MSTORE PUSH2 0x140 PUSH2 0x5205 DUP2 DUP6 ADD PUSH2 0x50D1 JUMP JUMPDEST SWAP1 DUP3 ADD MSTORE PUSH2 0x160 PUSH2 0x5218 CALLDATASIZE DUP6 DUP4 ADD PUSH2 0x50DC JUMP JUMPDEST SWAP1 DUP3 ADD MSTORE SWAP3 SWAP2 POP POP JUMP JUMPDEST PUSH1 0x0 DUP1 DUP4 CALLDATALOAD PUSH1 0x1E NOT DUP5 CALLDATASIZE SUB ADD DUP2 SLT PUSH2 0x5239 JUMPI PUSH1 0x0 DUP1 REVERT JUMPDEST DUP4 ADD DUP1 CALLDATALOAD SWAP2 POP PUSH1 0x1 PUSH1 0x1 PUSH1 0x40 SHL SUB DUP3 GT ISZERO PUSH2 0x5253 JUMPI PUSH1 0x0 DUP1 REVERT JUMPDEST PUSH1 0x20 ADD SWAP2 POP CALLDATASIZE DUP2 SWAP1 SUB DUP3 SGT ISZERO PUSH2 0x5268 JUMPI PUSH1 0x0 DUP1 REVERT JUMPDEST SWAP3 POP SWAP3 SWAP1 POP JUMP JUMPDEST PUSH2 0x100 DUP1 DUP3 MSTORE DUP2 ADD DUP10 SWAP1 MSTORE PUSH1 0x0 PUSH2 0x120 DUP11 DUP13 DUP3 DUP6 ADD CALLDATACOPY PUSH1 0x0 DUP4 DUP13 ADD DUP3 ADD MSTORE PUSH1 0x1 PUSH1 0x1 PUSH1 0xA0 SHL SUB SWAP10 DUP11 AND PUSH1 0x20 DUP5 ADD MSTORE SWAP8 SWAP1 SWAP9 AND PUSH1 0x40 DUP3 ADD MSTORE PUSH5 0xFFFFFFFFFF SWAP6 DUP7 AND PUSH1 0x60 DUP3 ADD MSTORE SWAP4 DUP6 AND PUSH1 0x80 DUP6 ADD MSTORE SWAP2 SWAP1 SWAP4 AND PUSH1 0xA0 DUP4 ADD MSTORE PUSH1 0x1 PUSH1 0x1 PUSH1 0x60 SHL SUB SWAP3 DUP4 AND PUSH1 0xC0 DUP4 ADD MSTORE SWAP1 SWAP2 AND PUSH1 0xE0 DUP3 ADD MSTORE PUSH1 0x1F SWAP1 SWAP4 ADD PUSH1 0x1F NOT AND SWAP1 SWAP3 ADD SWAP1 SWAP2 ADD SWAP3 SWAP2 POP POP JUMP JUMPDEST PUSH1 0x0 PUSH1 0x20 DUP3 DUP5 SUB SLT ISZERO PUSH2 0x5304 JUMPI PUSH1 0x0 DUP1 REVERT JUMPDEST DUP2 CALLDATALOAD PUSH2 0xB89 DUP2 PUSH2 0x50C3 JUMP JUMPDEST PUSH1 0x1 DUP2 DUP2 SHR SWAP1 DUP3 AND DUP1 PUSH2 0x5323 JUMPI PUSH1 0x7F DUP3 AND SWAP2 POP JUMPDEST PUSH1 0x20 DUP3 LT DUP2 EQ ISZERO PUSH2 0x5344 JUMPI PUSH4 0x4E487B71 PUSH1 0xE0 SHL PUSH1 0x0 MSTORE PUSH1 0x22 PUSH1 0x4 MSTORE PUSH1 0x24 PUSH1 0x0 REVERT JUMPDEST POP SWAP2 SWAP1 POP JUMP JUMPDEST PUSH1 0x0 PUSH1 0x1 PUSH1 0x1 PUSH1 0x40 SHL SUB DUP4 DUP2 AND SWAP1 DUP4 AND DUP2 DUP2 LT ISZERO PUSH2 0x536A JUMPI PUSH2 0x536A PUSH2 0x4F51 JUMP JUMPDEST SUB SWAP4 SWAP3 POP POP POP JUMP JUMPDEST PUSH1 0x0 DUP3 DUP3 LT ISZERO PUSH2 0x5384 JUMPI PUSH2 0x5384 PUSH2 0x4F51 JUMP JUMPDEST POP SUB SWAP1 JUMP JUMPDEST PUSH1 0x20 DUP1 DUP3 MSTORE PUSH1 0x2B SWAP1 DUP3 ADD MSTORE PUSH32 0x496E697469616C697A61626C653A20636F6E7472616374206973206E6F742069 PUSH1 0x40 DUP3 ADD MSTORE PUSH11 0x6E697469616C697A696E67 PUSH1 0xA8 SHL PUSH1 0x60 DUP3 ADD MSTORE PUSH1 0x80 ADD SWAP1 JUMP JUMPDEST PUSH1 0x0 PUSH1 0x20 DUP3 DUP5 SUB SLT ISZERO PUSH2 0x53E6 JUMPI PUSH1 0x0 DUP1 REVERT JUMPDEST DUP2 MLOAD PUSH2 0xB89 DUP2 PUSH2 0x50C3 JUMP JUMPDEST PUSH1 0x0 DUP3 MLOAD PUSH2 0x5403 DUP2 DUP5 PUSH1 0x20 DUP8 ADD PUSH2 0x4CEE JUMP JUMPDEST SWAP2 SWAP1 SWAP2 ADD SWAP3 SWAP2 POP POP JUMP INVALID LOG2 PUSH5 0x6970667358 0x22 SLT KECCAK256 PUSH9 0x5F750B3D1AF38F12C1 KECCAK256 0xAB CALLDATACOPY GASPRICE 0x2E 0xE8 SWAP3 PUSH7 0xE2F51C1A200816 0xE5 LOG4 0xBC PUSH24 0xCD981164736F6C6343000809003300000000000000000000 "},"methodIdentifiers":{"FEE_DENOMINATOR()":"d73792a9","cancelSellOrders(uint64,bytes32[])":"0a49a186","checkUserId(address)":"ca648ff5","claimFromParticipantOrder(uint64,bytes32[])":"e4c73fc1","containsOrder(uint64,bytes32)":"5ebc7f12","deletPool(uint64)":"d8a9f29e","feeNumerator()":"e86dea4a","feeReceiverUserId()":"5cefb291","getCurrentPoolPrice(uint256)":"cadd147c","getEncodedOrder(uint64,uint96,uint96)":"291ab528","getFormHash(uint64)":"eaf5aa58","getSecondsRemainingInBatch(uint64)":"c5a36d54","getUserId(address)":"2b956ff7","initialize()":"8129fc1c","initiatePool((string,address,address,uint40,uint40,uint40,uint96,uint96,uint256,uint256,bool,(uint256,uint256)))":"7f513cb8","markCancel(uint64)":"2a6b405f","markSpam(uint64)":"ae98df16","numUsers()":"19a50f49","owner()":"8da5cb5b","placeSellOrders(uint64,bytes32[],uint96[],uint96[],bytes32[])":"9607fd9f","placeSellOrdersOnBehalf(uint64,uint96[],uint96[],bytes32[],address)":"11221c1e","poolCounter()":"9e3079cb","poolData(uint64)":"ad8ae9fc","precalculateSellAmountSum(uint64,uint256)":"30433843","refundOrder(uint64,bytes32)":"7273c6ba","registerUser(address)":"2199d5cd","renounceOwnership()":"715018a6","setFeeParameters(uint256,address)":"40b20b09","settlePool(uint64)":"3a62500c","settlePoolAtomically(uint64,uint96[],uint96[],bytes32[])":"3bb6b279","transferOwnership(address)":"f2fde38b","updatePoolAdmin(uint64,uint40,uint40,uint40,uint256,uint256)":"2e1772e4","updatePoolUser(uint64,string)":"465ce9a9","whitelistUpdate(uint64,bytes32)":"10ece323"}},"storageLayout":{"storage":[{"astId":138,"contract":"contracts/MutoPool.sol:MutoPool","label":"_initialized","offset":0,"slot":"0","type":"t_uint8"},{"astId":141,"contract":"contracts/MutoPool.sol:MutoPool","label":"_initializing","offset":1,"slot":"0","type":"t_bool"},{"astId":1020,"contract":"contracts/MutoPool.sol:MutoPool","label":"__gap","offset":0,"slot":"1","type":"t_array(t_uint256)50_storage"},{"astId":10,"contract":"contracts/MutoPool.sol:MutoPool","label":"_owner","offset":0,"slot":"51","type":"t_address"},{"astId":130,"contract":"contracts/MutoPool.sol:MutoPool","label":"__gap","offset":0,"slot":"52","type":"t_array(t_uint256)49_storage"},{"astId":2262,"contract":"contracts/MutoPool.sol:MutoPool","label":"poolData","offset":0,"slot":"101","type":"t_mapping(t_uint64,t_struct(PoolData)2222_storage)"},{"astId":2267,"contract":"contracts/MutoPool.sol:MutoPool","label":"sellOrders","offset":0,"slot":"102","type":"t_mapping(t_uint256,t_struct(Data)4837_storage)"},{"astId":2269,"contract":"contracts/MutoPool.sol:MutoPool","label":"numUsers","offset":0,"slot":"103","type":"t_uint64"},{"astId":2271,"contract":"contracts/MutoPool.sol:MutoPool","label":"poolCounter","offset":8,"slot":"103","type":"t_uint64"},{"astId":2274,"contract":"contracts/MutoPool.sol:MutoPool","label":"registeredUsers","offset":0,"slot":"104","type":"t_struct(Data)4638_storage"},{"astId":2276,"contract":"contracts/MutoPool.sol:MutoPool","label":"feeReceiverUserId","offset":0,"slot":"106","type":"t_uint64"},{"astId":2278,"contract":"contracts/MutoPool.sol:MutoPool","label":"feeNumerator","offset":0,"slot":"107","type":"t_uint256"}],"types":{"t_address":{"encoding":"inplace","label":"address","numberOfBytes":"20"},"t_array(t_uint256)49_storage":{"base":"t_uint256","encoding":"inplace","label":"uint256[49]","numberOfBytes":"1568"},"t_array(t_uint256)50_storage":{"base":"t_uint256","encoding":"inplace","label":"uint256[50]","numberOfBytes":"1600"},"t_bool":{"encoding":"inplace","label":"bool","numberOfBytes":"1"},"t_bytes32":{"encoding":"inplace","label":"bytes32","numberOfBytes":"32"},"t_contract(IERC20Upgradeable)378":{"encoding":"inplace","label":"contract IERC20Upgradeable","numberOfBytes":"20"},"t_mapping(t_address,t_uint64)":{"encoding":"mapping","key":"t_address","label":"mapping(address => uint64)","numberOfBytes":"32","value":"t_uint64"},"t_mapping(t_bytes32,t_bytes32)":{"encoding":"mapping","key":"t_bytes32","label":"mapping(bytes32 => bytes32)","numberOfBytes":"32","value":"t_bytes32"},"t_mapping(t_uint256,t_struct(Data)4837_storage)":{"encoding":"mapping","key":"t_uint256","label":"mapping(uint256 => struct IterableOrderedOrderSet.Data)","numberOfBytes":"32","value":"t_struct(Data)4837_storage"},"t_mapping(t_uint64,t_address)":{"encoding":"mapping","key":"t_uint64","label":"mapping(uint64 => address)","numberOfBytes":"32","value":"t_address"},"t_mapping(t_uint64,t_struct(PoolData)2222_storage)":{"encoding":"mapping","key":"t_uint64","label":"mapping(uint64 => struct PoolData)","numberOfBytes":"32","value":"t_struct(PoolData)2222_storage"},"t_string_storage":{"encoding":"bytes","label":"string","numberOfBytes":"32"},"t_struct(Data)4638_storage":{"encoding":"inplace","label":"struct IdToAddressBiMap.Data","members":[{"astId":4633,"contract":"contracts/MutoPool.sol:MutoPool","label":"idToAddress","offset":0,"slot":"0","type":"t_mapping(t_uint64,t_address)"},{"astId":4637,"contract":"contracts/MutoPool.sol:MutoPool","label":"addressToId","offset":0,"slot":"1","type":"t_mapping(t_address,t_uint64)"}],"numberOfBytes":"64"},"t_struct(Data)4837_storage":{"encoding":"inplace","label":"struct IterableOrderedOrderSet.Data","members":[{"astId":4832,"contract":"contracts/MutoPool.sol:MutoPool","label":"nextMap","offset":0,"slot":"0","type":"t_mapping(t_bytes32,t_bytes32)"},{"astId":4836,"contract":"contracts/MutoPool.sol:MutoPool","label":"prevMap","offset":0,"slot":"1","type":"t_mapping(t_bytes32,t_bytes32)"}],"numberOfBytes":"64"},"t_struct(Decimals)2162_storage":{"encoding":"inplace","label":"struct Decimals","members":[{"astId":2159,"contract":"contracts/MutoPool.sol:MutoPool","label":"tokenADecimal","offset":0,"slot":"0","type":"t_uint256"},{"astId":2161,"contract":"contracts/MutoPool.sol:MutoPool","label":"tokenBDecimal","offset":0,"slot":"1","type":"t_uint256"}],"numberOfBytes":"64"},"t_struct(InitialPoolData)2190_storage":{"encoding":"inplace","label":"struct InitialPoolData","members":[{"astId":2164,"contract":"contracts/MutoPool.sol:MutoPool","label":"formHash","offset":0,"slot":"0","type":"t_string_storage"},{"astId":2167,"contract":"contracts/MutoPool.sol:MutoPool","label":"poolingToken","offset":0,"slot":"1","type":"t_contract(IERC20Upgradeable)378"},{"astId":2170,"contract":"contracts/MutoPool.sol:MutoPool","label":"biddingToken","offset":0,"slot":"2","type":"t_contract(IERC20Upgradeable)378"},{"astId":2172,"contract":"contracts/MutoPool.sol:MutoPool","label":"orderCancellationEndDate","offset":20,"slot":"2","type":"t_uint40"},{"astId":2174,"contract":"contracts/MutoPool.sol:MutoPool","label":"poolStartDate","offset":25,"slot":"2","type":"t_uint40"},{"astId":2176,"contract":"contracts/MutoPool.sol:MutoPool","label":"poolEndDate","offset":0,"slot":"3","type":"t_uint40"},{"astId":2178,"contract":"contracts/MutoPool.sol:MutoPool","label":"pooledSellAmount","offset":5,"slot":"3","type":"t_uint96"},{"astId":2180,"contract":"contracts/MutoPool.sol:MutoPool","label":"minBuyAmount","offset":17,"slot":"3","type":"t_uint96"},{"astId":2182,"contract":"contracts/MutoPool.sol:MutoPool","label":"minimumBiddingAmountPerOrder","offset":0,"slot":"4","type":"t_uint256"},{"astId":2184,"contract":"contracts/MutoPool.sol:MutoPool","label":"minFundingThreshold","offset":0,"slot":"5","type":"t_uint256"},{"astId":2186,"contract":"contracts/MutoPool.sol:MutoPool","label":"isAtomicClosureAllowed","offset":0,"slot":"6","type":"t_bool"},{"astId":2189,"contract":"contracts/MutoPool.sol:MutoPool","label":"tokenDecimals","offset":0,"slot":"7","type":"t_struct(Decimals)2162_storage"}],"numberOfBytes":"288"},"t_struct(PoolData)2222_storage":{"encoding":"inplace","label":"struct PoolData","members":[{"astId":2202,"contract":"contracts/MutoPool.sol:MutoPool","label":"initData","offset":0,"slot":"0","type":"t_struct(InitialPoolData)2190_storage"},{"astId":2205,"contract":"contracts/MutoPool.sol:MutoPool","label":"statusData","offset":0,"slot":"9","type":"t_struct(StatusData)2199_storage"},{"astId":2207,"contract":"contracts/MutoPool.sol:MutoPool","label":"poolOwner","offset":0,"slot":"10","type":"t_address"},{"astId":2209,"contract":"contracts/MutoPool.sol:MutoPool","label":"initialPoolOrder","offset":0,"slot":"11","type":"t_bytes32"},{"astId":2211,"contract":"contracts/MutoPool.sol:MutoPool","label":"interimSumBidAmount","offset":0,"slot":"12","type":"t_uint256"},{"astId":2213,"contract":"contracts/MutoPool.sol:MutoPool","label":"interimOrder","offset":0,"slot":"13","type":"t_bytes32"},{"astId":2215,"contract":"contracts/MutoPool.sol:MutoPool","label":"clearingPriceOrder","offset":0,"slot":"14","type":"t_bytes32"},{"astId":2217,"contract":"contracts/MutoPool.sol:MutoPool","label":"volumeClearingPriceOrder","offset":0,"slot":"15","type":"t_uint96"},{"astId":2219,"contract":"contracts/MutoPool.sol:MutoPool","label":"feeNumerator","offset":0,"slot":"16","type":"t_uint256"},{"astId":2221,"contract":"contracts/MutoPool.sol:MutoPool","label":"merkleRoot","offset":0,"slot":"17","type":"t_bytes32"}],"numberOfBytes":"576"},"t_struct(StatusData)2199_storage":{"encoding":"inplace","label":"struct StatusData","members":[{"astId":2192,"contract":"contracts/MutoPool.sol:MutoPool","label":"isScam","offset":0,"slot":"0","type":"t_bool"},{"astId":2194,"contract":"contracts/MutoPool.sol:MutoPool","label":"isDeleted","offset":1,"slot":"0","type":"t_bool"},{"astId":2196,"contract":"contracts/MutoPool.sol:MutoPool","label":"isCancelled","offset":2,"slot":"0","type":"t_bool"},{"astId":2198,"contract":"contracts/MutoPool.sol:MutoPool","label":"minFundingThresholdNotReached","offset":3,"slot":"0","type":"t_bool"}],"numberOfBytes":"32"},"t_uint256":{"encoding":"inplace","label":"uint256","numberOfBytes":"32"},"t_uint40":{"encoding":"inplace","label":"uint40","numberOfBytes":"5"},"t_uint64":{"encoding":"inplace","label":"uint64","numberOfBytes":"8"},"t_uint8":{"encoding":"inplace","label":"uint8","numberOfBytes":"1"},"t_uint96":{"encoding":"inplace","label":"uint96","numberOfBytes":"12"}}}}}}