{"contracts/MutoPool.sol":{"MutoPool":{"abi":[{"anonymous":false,"inputs":[{"indexed":false,"internalType":"uint8","name":"version","type":"uint8"}],"name":"Initialized","type":"event"},{"anonymous":false,"inputs":[{"indexed":true,"internalType":"uint64","name":"poolId","type":"uint64"},{"indexed":true,"internalType":"uint256","name":"userId","type":"uint256"},{"indexed":true,"internalType":"address","name":"poolOwner","type":"address"},{"indexed":false,"internalType":"string","name":"formHash","type":"string"},{"indexed":false,"internalType":"contract IERC20Upgradeable","name":"poolingToken","type":"address"},{"indexed":false,"internalType":"contract IERC20Upgradeable","name":"biddingToken","type":"address"},{"indexed":false,"internalType":"uint40","name":"orderCancellationEndDate","type":"uint40"},{"indexed":false,"internalType":"uint40","name":"poolStartDate","type":"uint40"},{"indexed":false,"internalType":"uint40","name":"poolEndDate","type":"uint40"},{"indexed":false,"internalType":"uint96","name":"pooledSellAmount","type":"uint96"},{"indexed":false,"internalType":"uint96","name":"minBuyAmount","type":"uint96"}],"name":"NewPoolE1","type":"event"},{"anonymous":false,"inputs":[{"indexed":true,"internalType":"uint64","name":"poolId","type":"uint64"},{"indexed":false,"internalType":"bytes32","name":"initialPoolOrder","type":"bytes32"},{"indexed":false,"internalType":"uint256","name":"interimsumBidAmount","type":"uint256"},{"indexed":false,"internalType":"bytes32","name":"interimOrder","type":"bytes32"},{"indexed":false,"internalType":"bytes32","name":"clearingPriceOrder","type":"bytes32"},{"indexed":false,"internalType":"uint96","name":"volumeClearingOrder","type":"uint96"},{"indexed":false,"internalType":"uint256","name":"minimumBiddingAmountPerOrder","type":"uint256"},{"indexed":false,"internalType":"uint256","name":"minFundingThreshold","type":"uint256"},{"indexed":false,"internalType":"bool","name":"isAtomicClosureAllowed","type":"bool"},{"indexed":false,"internalType":"uint256","name":"feeNumerator","type":"uint256"}],"name":"NewPoolE2","type":"event"},{"anonymous":false,"inputs":[{"indexed":true,"internalType":"uint64","name":"poolId","type":"uint64"},{"indexed":true,"internalType":"uint64","name":"userId","type":"uint64"},{"indexed":false,"internalType":"uint96","name":"buyAmount","type":"uint96"},{"indexed":false,"internalType":"uint96","name":"sellAmount","type":"uint96"},{"indexed":false,"internalType":"bytes32","name":"sellOrder","type":"bytes32"}],"name":"NewSellOrderPlaced","type":"event"},{"anonymous":false,"inputs":[{"indexed":true,"internalType":"uint64","name":"userId","type":"uint64"},{"indexed":true,"internalType":"address","name":"userAddress","type":"address"}],"name":"NewUser","type":"event"},{"anonymous":false,"inputs":[{"indexed":true,"internalType":"uint64","name":"poolId","type":"uint64"},{"indexed":true,"internalType":"uint64","name":"userId","type":"uint64"},{"indexed":false,"internalType":"uint96","name":"buyAmount","type":"uint96"},{"indexed":false,"internalType":"uint96","name":"sellAmount","type":"uint96"}],"name":"OrderClaimedByUser","type":"event"},{"anonymous":false,"inputs":[{"indexed":true,"internalType":"uint64","name":"poolId","type":"uint64"},{"indexed":true,"internalType":"uint64","name":"userId","type":"uint64"},{"indexed":false,"internalType":"uint96","name":"buyAmount","type":"uint96"},{"indexed":false,"internalType":"uint96","name":"sellAmount","type":"uint96"},{"indexed":false,"internalType":"bytes32","name":"sellOrder","type":"bytes32"}],"name":"OrderRefunded","type":"event"},{"anonymous":false,"inputs":[{"indexed":true,"internalType":"address","name":"previousOwner","type":"address"},{"indexed":true,"internalType":"address","name":"newOwner","type":"address"}],"name":"OwnershipTransferred","type":"event"},{"anonymous":false,"inputs":[{"indexed":true,"internalType":"uint64","name":"poolId","type":"uint64"},{"indexed":false,"internalType":"uint96","name":"soldPoolingTokens","type":"uint96"},{"indexed":false,"internalType":"uint96","name":"soldBiddingTokens","type":"uint96"},{"indexed":false,"internalType":"bytes32","name":"clearingPriceOrder","type":"bytes32"}],"name":"PoolCleared","type":"event"},{"anonymous":false,"inputs":[{"indexed":true,"internalType":"uint64","name":"poolId","type":"uint64"},{"indexed":false,"internalType":"uint256","name":"poolStartDate","type":"uint256"},{"indexed":false,"internalType":"uint256","name":"poolEndDate","type":"uint256"},{"indexed":false,"internalType":"uint256","name":"orderCancellationEndDate","type":"uint256"},{"indexed":false,"internalType":"uint256","name":"minimumBiddingAmountPerOrder","type":"uint256"},{"indexed":false,"internalType":"uint256","name":"minFundingThreshold","type":"uint256"}],"name":"PoolEdittedByAdmin","type":"event"},{"anonymous":false,"inputs":[{"indexed":true,"internalType":"uint64","name":"poolId","type":"uint64"},{"indexed":false,"internalType":"string","name":"formHash","type":"string"}],"name":"PoolEdittedByUser","type":"event"},{"anonymous":false,"inputs":[{"indexed":true,"internalType":"uint64","name":"poolId","type":"uint64"},{"indexed":true,"internalType":"uint64","name":"userId","type":"uint64"},{"indexed":false,"internalType":"uint96","name":"buyAmount","type":"uint96"},{"indexed":false,"internalType":"uint96","name":"sellAmount","type":"uint96"},{"indexed":false,"internalType":"bytes32","name":"sellOrder","type":"bytes32"}],"name":"SellOrderCancelled","type":"event"},{"anonymous":false,"inputs":[{"indexed":true,"internalType":"address","name":"user","type":"address"},{"indexed":false,"internalType":"uint64","name":"userId","type":"uint64"}],"name":"UserRegistration","type":"event"},{"inputs":[],"name":"FEE_DENOMINATOR","outputs":[{"internalType":"uint256","name":"","type":"uint256"}],"stateMutability":"view","type":"function"},{"inputs":[{"internalType":"uint64","name":"poolId","type":"uint64"},{"internalType":"bytes32[]","name":"_sellOrders","type":"bytes32[]"}],"name":"cancelSellOrders","outputs":[],"stateMutability":"nonpayable","type":"function"},{"inputs":[{"internalType":"address","name":"userAddress","type":"address"}],"name":"checkUserId","outputs":[{"internalType":"uint64","name":"","type":"uint64"}],"stateMutability":"view","type":"function"},{"inputs":[{"internalType":"uint64","name":"poolId","type":"uint64"},{"internalType":"bytes32[]","name":"orders","type":"bytes32[]"}],"name":"claimFromParticipantOrder","outputs":[{"internalType":"uint256","name":"sumPoolingTokenAmount","type":"uint256"},{"internalType":"uint256","name":"sumBiddingTokenAmount","type":"uint256"}],"stateMutability":"nonpayable","type":"function"},{"inputs":[{"internalType":"uint64","name":"poolId","type":"uint64"},{"internalType":"bytes32","name":"order","type":"bytes32"}],"name":"containsOrder","outputs":[{"internalType":"bool","name":"","type":"bool"}],"stateMutability":"view","type":"function"},{"inputs":[{"internalType":"uint64","name":"poolId","type":"uint64"}],"name":"deletPool","outputs":[],"stateMutability":"nonpayable","type":"function"},{"inputs":[],"name":"feeNumerator","outputs":[{"internalType":"uint256","name":"","type":"uint256"}],"stateMutability":"view","type":"function"},{"inputs":[],"name":"feeReceiverUserId","outputs":[{"internalType":"uint64","name":"","type":"uint64"}],"stateMutability":"view","type":"function"},{"inputs":[{"internalType":"uint256","name":"_poolId","type":"uint256"}],"name":"getCurrentPoolPrice","outputs":[{"internalType":"uint96","name":"buyAmount","type":"uint96"},{"internalType":"uint96","name":"sellAmount","type":"uint96"}],"stateMutability":"view","type":"function"},{"inputs":[{"internalType":"uint64","name":"userId","type":"uint64"},{"internalType":"uint96","name":"buyAmount","type":"uint96"},{"internalType":"uint96","name":"sellAmount","type":"uint96"}],"name":"getEncodedOrder","outputs":[{"internalType":"bytes32","name":"","type":"bytes32"}],"stateMutability":"pure","type":"function"},{"inputs":[{"internalType":"uint64","name":"poolId","type":"uint64"}],"name":"getFormHash","outputs":[{"internalType":"string","name":"","type":"string"}],"stateMutability":"view","type":"function"},{"inputs":[{"internalType":"uint64","name":"poolId","type":"uint64"}],"name":"getSecondsRemainingInBatch","outputs":[{"internalType":"uint256","name":"","type":"uint256"}],"stateMutability":"view","type":"function"},{"inputs":[{"internalType":"address","name":"user","type":"address"}],"name":"getUserId","outputs":[{"internalType":"uint64","name":"userId","type":"uint64"}],"stateMutability":"nonpayable","type":"function"},{"inputs":[],"name":"initialize","outputs":[],"stateMutability":"nonpayable","type":"function"},{"inputs":[{"components":[{"internalType":"string","name":"formHash","type":"string"},{"internalType":"contract IERC20Upgradeable","name":"poolingToken","type":"address"},{"internalType":"contract IERC20Upgradeable","name":"biddingToken","type":"address"},{"internalType":"uint40","name":"orderCancellationEndDate","type":"uint40"},{"internalType":"uint40","name":"poolStartDate","type":"uint40"},{"internalType":"uint40","name":"poolEndDate","type":"uint40"},{"internalType":"uint96","name":"pooledSellAmount","type":"uint96"},{"internalType":"uint96","name":"minBuyAmount","type":"uint96"},{"internalType":"uint256","name":"minimumBiddingAmountPerOrder","type":"uint256"},{"internalType":"uint256","name":"minFundingThreshold","type":"uint256"},{"internalType":"bool","name":"isAtomicClosureAllowed","type":"bool"},{"components":[{"internalType":"uint256","name":"tokenADecimal","type":"uint256"},{"internalType":"uint256","name":"tokenBDecimal","type":"uint256"}],"internalType":"struct Decimals","name":"tokenDecimals","type":"tuple"}],"internalType":"struct InitialPoolData","name":"_initData","type":"tuple"}],"name":"initiatePool","outputs":[{"internalType":"uint256","name":"","type":"uint256"}],"stateMutability":"nonpayable","type":"function"},{"inputs":[{"internalType":"uint64","name":"poolId","type":"uint64"}],"name":"markCancel","outputs":[],"stateMutability":"nonpayable","type":"function"},{"inputs":[{"internalType":"uint64","name":"poolId","type":"uint64"}],"name":"markSpam","outputs":[],"stateMutability":"nonpayable","type":"function"},{"inputs":[],"name":"numUsers","outputs":[{"internalType":"uint64","name":"","type":"uint64"}],"stateMutability":"view","type":"function"},{"inputs":[],"name":"owner","outputs":[{"internalType":"address","name":"","type":"address"}],"stateMutability":"view","type":"function"},{"inputs":[{"internalType":"uint64","name":"poolId","type":"uint64"},{"internalType":"bytes32[]","name":"_merkleProof","type":"bytes32[]"},{"internalType":"uint96[]","name":"_minBuyAmounts","type":"uint96[]"},{"internalType":"uint96[]","name":"_sellAmounts","type":"uint96[]"},{"internalType":"bytes32[]","name":"_prevSellOrders","type":"bytes32[]"}],"name":"placeSellOrders","outputs":[{"internalType":"uint64","name":"userId","type":"uint64"}],"stateMutability":"nonpayable","type":"function"},{"inputs":[{"internalType":"uint64","name":"poolId","type":"uint64"},{"internalType":"uint96[]","name":"_minBuyAmounts","type":"uint96[]"},{"internalType":"uint96[]","name":"_sellAmounts","type":"uint96[]"},{"internalType":"bytes32[]","name":"_prevSellOrders","type":"bytes32[]"},{"internalType":"address","name":"orderSubmitter","type":"address"}],"name":"placeSellOrdersOnBehalf","outputs":[{"internalType":"uint64","name":"userId","type":"uint64"}],"stateMutability":"nonpayable","type":"function"},{"inputs":[],"name":"poolCounter","outputs":[{"internalType":"uint64","name":"","type":"uint64"}],"stateMutability":"view","type":"function"},{"inputs":[{"internalType":"uint64","name":"","type":"uint64"}],"name":"poolData","outputs":[{"components":[{"internalType":"string","name":"formHash","type":"string"},{"internalType":"contract IERC20Upgradeable","name":"poolingToken","type":"address"},{"internalType":"contract IERC20Upgradeable","name":"biddingToken","type":"address"},{"internalType":"uint40","name":"orderCancellationEndDate","type":"uint40"},{"internalType":"uint40","name":"poolStartDate","type":"uint40"},{"internalType":"uint40","name":"poolEndDate","type":"uint40"},{"internalType":"uint96","name":"pooledSellAmount","type":"uint96"},{"internalType":"uint96","name":"minBuyAmount","type":"uint96"},{"internalType":"uint256","name":"minimumBiddingAmountPerOrder","type":"uint256"},{"internalType":"uint256","name":"minFundingThreshold","type":"uint256"},{"internalType":"bool","name":"isAtomicClosureAllowed","type":"bool"},{"components":[{"internalType":"uint256","name":"tokenADecimal","type":"uint256"},{"internalType":"uint256","name":"tokenBDecimal","type":"uint256"}],"internalType":"struct Decimals","name":"tokenDecimals","type":"tuple"}],"internalType":"struct InitialPoolData","name":"initData","type":"tuple"},{"components":[{"internalType":"bool","name":"isScam","type":"bool"},{"internalType":"bool","name":"isDeleted","type":"bool"},{"internalType":"bool","name":"isCancelled","type":"bool"},{"internalType":"bool","name":"minFundingThresholdNotReached","type":"bool"}],"internalType":"struct StatusData","name":"statusData","type":"tuple"},{"internalType":"address","name":"poolOwner","type":"address"},{"internalType":"bytes32","name":"initialPoolOrder","type":"bytes32"},{"internalType":"uint256","name":"interimSumBidAmount","type":"uint256"},{"internalType":"bytes32","name":"interimOrder","type":"bytes32"},{"internalType":"bytes32","name":"clearingPriceOrder","type":"bytes32"},{"internalType":"uint96","name":"volumeClearingPriceOrder","type":"uint96"},{"internalType":"uint256","name":"feeNumerator","type":"uint256"},{"internalType":"bytes32","name":"merkleRoot","type":"bytes32"}],"stateMutability":"view","type":"function"},{"inputs":[{"internalType":"uint64","name":"poolId","type":"uint64"},{"internalType":"uint256","name":"iterationSteps","type":"uint256"}],"name":"precalculateSellAmountSum","outputs":[],"stateMutability":"nonpayable","type":"function"},{"inputs":[{"internalType":"uint64","name":"poolId","type":"uint64"},{"internalType":"bytes32","name":"order","type":"bytes32"}],"name":"refundOrder","outputs":[],"stateMutability":"nonpayable","type":"function"},{"inputs":[{"internalType":"address","name":"user","type":"address"}],"name":"registerUser","outputs":[{"internalType":"uint64","name":"userId","type":"uint64"}],"stateMutability":"nonpayable","type":"function"},{"inputs":[],"name":"renounceOwnership","outputs":[],"stateMutability":"nonpayable","type":"function"},{"inputs":[{"internalType":"uint256","name":"newFeeNumerator","type":"uint256"},{"internalType":"address","name":"newfeeReceiverAddress","type":"address"}],"name":"setFeeParameters","outputs":[],"stateMutability":"nonpayable","type":"function"},{"inputs":[{"internalType":"uint64","name":"poolId","type":"uint64"}],"name":"settlePool","outputs":[{"internalType":"bytes32","name":"clearingOrder","type":"bytes32"}],"stateMutability":"nonpayable","type":"function"},{"inputs":[{"internalType":"uint64","name":"poolId","type":"uint64"},{"internalType":"uint96[]","name":"_minBuyAmount","type":"uint96[]"},{"internalType":"uint96[]","name":"_sellAmount","type":"uint96[]"},{"internalType":"bytes32[]","name":"_prevSellOrder","type":"bytes32[]"}],"name":"settlePoolAtomically","outputs":[],"stateMutability":"nonpayable","type":"function"},{"inputs":[{"internalType":"address","name":"newOwner","type":"address"}],"name":"transferOwnership","outputs":[],"stateMutability":"nonpayable","type":"function"},{"inputs":[{"internalType":"uint64","name":"poolId","type":"uint64"},{"internalType":"uint40","name":"_startTime","type":"uint40"},{"internalType":"uint40","name":"_endTime","type":"uint40"},{"internalType":"uint40","name":"_cancelTime","type":"uint40"},{"internalType":"uint256","name":"_fundingThreshold","type":"uint256"},{"internalType":"uint256","name":"_minBid","type":"uint256"}],"name":"updatePoolAdmin","outputs":[],"stateMutability":"nonpayable","type":"function"},{"inputs":[{"internalType":"uint64","name":"poolId","type":"uint64"},{"internalType":"string","name":"_formHash","type":"string"}],"name":"updatePoolUser","outputs":[],"stateMutability":"nonpayable","type":"function"}],"evm":{"bytecode":{"linkReferences":{},"object":"608060405234801561001057600080fd5b5061530b806100206000396000f3fe608060405234801561001057600080fd5b50600436106101fb5760003560e01c80637273c6ba1161011a578063c5a36d54116100ad578063d8a9f29e1161007c578063d8a9f29e1461049e578063e4c73fc1146104b1578063e86dea4a146104d9578063eaf5aa58146104e2578063f2fde38b1461050257600080fd5b8063c5a36d5414610414578063ca648ff514610427578063cadd147c1461043a578063d73792a91461049557600080fd5b80639607fd9f116100e95780639607fd9f146103ab5780639e3079cb146103be578063ad8ae9fc146103d8578063ae98df161461040157600080fd5b80637273c6ba146103625780637f513cb8146103755780638129fc1c146103885780638da5cb5b1461039057600080fd5b80633043384311610192578063465ce9a911610161578063465ce9a9146103115780635cefb291146103245780635ebc7f1214610337578063715018a61461035a57600080fd5b806330433843146102c55780633a62500c146102d85780633bb6b279146102eb57806340b20b09146102fe57600080fd5b8063291ab528116101ce578063291ab5281461026b5780632a6b405f1461028c5780632b956ff71461029f5780632e1772e4146102b257600080fd5b80630a49a1861461020057806311221c1e1461021557806319a50f49146102455780632199d5cd14610258575b600080fd5b61021361020e366004614667565b610515565b005b610228610223366004614742565b610858565b6040516001600160401b0390911681526020015b60405180910390f35b606754610228906001600160401b031681565b6102286102663660046147ef565b61097f565b61027e61027936600461480c565b610a64565b60405190815260200161023c565b61021361029a36600461484f565b610ab1565b6102286102ad3660046147ef565b610bc5565b6102136102c036600461487f565b610c39565b6102136102d33660046148e5565b610d1c565b61027e6102e636600461484f565b610f80565b6102136102f936600461490f565b611396565b61021361030c3660046149a7565b61162b565b61021361031f366004614a46565b6116ab565b606a54610228906001600160401b031681565b61034a6103453660046148e5565b61178d565b604051901515815260200161023c565b6102136117af565b6102136103703660046148e5565b6117c3565b61027e610383366004614a89565b6119fc565b6102136122d9565b6033546040516001600160a01b03909116815260200161023c565b6102286103b9366004614ac4565b612402565b60675461022890600160401b90046001600160401b031681565b6103eb6103e636600461484f565b612619565b60405161023c9a99989796959493929190614c0e565b61021361040f36600461484f565b61282d565b61027e61042236600461484f565b6128a1565b6102286104353660046147ef565b612902565b610475610448366004614da0565b60009081526066602090815260408083206002600160601b03198452600101909152902054606081901c91565b604080516001600160601b0393841681529290911660208301520161023c565b61027e6103e881565b6102136104ac36600461484f565b61295b565b6104c46104bf366004614667565b6129d1565b6040805192835260208301919091520161023c565b61027e606b5481565b6104f56104f036600461484f565b613071565b60405161023c9190614db9565b6102136105103660046147ef565b613173565b6001600160401b0382166000908152606560205260409020600201548290600160a01b900464ffffffffff1642106105945760405162461bcd60e51b815260206004820152601f60248201527f4e6f7420696e206f7264657220706c6163652f63616e63656c2070686173650060448201526064015b60405180910390fd5b6001600160401b038316600090815260656020526040902060090154839060ff161580156105e357506001600160401b038116600090815260656020526040902060090154610100900460ff16155b801561061157506001600160401b03811660009081526065602052604090206009015462010000900460ff16155b61062d5760405162461bcd60e51b815260040161058b90614dcc565b600061063833610bc5565b90506000805b85518110156107e357600061069087838151811061065e5761065e614e03565b6020026020010151606660008b6001600160401b031681526020019081526020016000206131e990919063ffffffff16565b905080156107d05760008060006106c98a86815181106106b2576106b2614e03565b602002602001015160c081901c91606082901c9190565b925092509250866001600160401b0316836001600160401b0316146107305760405162461bcd60e51b815260206004820152601c60248201527f4f6e6c79206f7264657220706c616365722063616e2063616e63656c00000000604482015260640161058b565b610743866001600160601b03831661323e565b9550866001600160401b03168b6001600160401b03167fd9aecbedcbd21d1fd8217aa3393aa4411489064ed05bad6eda25c6105de63da084848e8a8151811061078e5761078e614e03565b60200260200101516040516107c4939291906001600160601b039384168152919092166020820152604081019190915260600190565b60405180910390a35050505b50806107db81614e2f565b91505061063e565b506001600160401b038616600090815260656020526040902060080154610850903390670de0b6b3a76400009061081a9085614e4a565b6108249190614e69565b6001600160401b0389166000908152606560205260409020600201546001600160a01b0316919061324a565b505050505050565b6001600160401b038516600090815260656020526040812060030154869064ffffffffff1642106108cb5760405162461bcd60e51b815260206004820152601c60248201527f4e6f7420696e206f7264657220706c6163656d656e7420706861736500000000604482015260640161058b565b6001600160401b038716600090815260656020526040902060090154879060ff1615801561091a57506001600160401b038116600090815260656020526040902060090154610100900460ff16155b801561094857506001600160401b03811660009081526065602052604090206009015462010000900460ff16155b6109645760405162461bcd60e51b815260040161058b90614dcc565b61097188888888886132b2565b92505b505095945050505050565b6067546000906109a29061099d906001600160401b0316600161323e565b6135af565b6067805467ffffffffffffffff19166001600160401b039290921691821790556109cf9060689084613617565b610a115760405162461bcd60e51b81526020600482015260136024820152725573657220616c72656164792065786973747360681b604482015260640161058b565b506067546040516001600160401b03909116808252906001600160a01b038316907f6838f67cb358c332087b73dbe769a6c869a5f87225236c16dda5d0013a77074c9060200160405180910390a2919050565b60006001600160601b038216610a9d6bffffffffffffffffffffffff60601b606086901b166001600160c01b031960c088901b16614e8b565b610aa79190614e8b565b90505b9392505050565b6001600160401b0381166000908152606560205260409020600a01546001600160a01b03163314610b1c5760405162461bcd60e51b815260206004820152601560248201527413db9b1e4813dddb995c8818d85b8818d85b98d95b605a1b604482015260640161058b565b6001600160401b038116600090815260656020526040902060098101805462ff0000191662010000179055600a8101546007820154600390920154610bc2926001600160a01b0390921691670de0b6b3a764000091610b8c91906001600160601b03600160281b90910416614e4a565b610b969190614e69565b6001600160401b0384166000908152606560205260409020600101546001600160a01b0316919061324a565b50565b6000610bd26068836137cb565b15610be857610be26068836137f5565b92915050565b610bf18261097f565b9050816001600160a01b0316816001600160401b03167f969d438b19b6b5fb3c0d3c6f16867e519fcec4233799d6be29d1c00f2045ba2660405160405180910390a35b919050565b610c4161387d565b6001600160401b03861660008181526065602090815260409182902060028101805460038301805464ffffffffff191664ffffffffff8c811691821790925569ffffffffffffffffffff60a01b19909216600160c81b8d831690810264ffffffffff60a01b191691909117600160a01b928c169283021790935560058401899055600490930187905584519182529281019290925281830152606081018490526080810185905290517f4407dc7a4bd36c6232da9c99ee7295621d6b255d714a309904e143a4592959bc9181900360a00190a2505050505050565b6001600160401b038216600090815260656020526040902060030154829064ffffffffff1615801590610d7157506001600160401b03811660009081526065602052604090206003015464ffffffffff164210155b8015610d9657506001600160401b0381166000908152606560205260409020600e0154155b610db25760405162461bcd60e51b815260040161058b90614ea3565b6001600160401b03811660009081526065602052604090206009015460ff16158015610dff57506001600160401b038116600090815260656020526040902060090154610100900460ff16155b610e1b5760405162461bcd60e51b815260040161058b90614eda565b6001600160401b0383166000908152606560205260408120600b810154600c820154600d9092015490925b85811015610e9c576001600160401b0387166000908152606660205260409020610e7090836138d7565b915081610e86846001600160601b03831661323e565b9350508080610e9490614e2f565b915050610e46565b506002600160601b0319811415610ee35760405162461bcd60e51b815260206004820152600b60248201526a14995858da195908195b9960aa1b604482015260640161058b565b606081901c81610eff6001600160601b038681169083166139ab565b610f12856001600160601b0385166139ab565b10610f515760405162461bcd60e51b815260206004820152600f60248201526e546f6f206d616e79206f726465727360881b604482015260640161058b565b50506001600160401b039095166000908152606560205260409020600c810191909155600d0193909355505050565b6001600160401b038116600090815260656020526040812060030154829064ffffffffff1615801590610fd557506001600160401b03811660009081526065602052604090206003015464ffffffffff164210155b8015610ffa57506001600160401b0381166000908152606560205260409020600e0154155b6110165760405162461bcd60e51b815260040161058b90614ea3565b6001600160401b03811660009081526065602052604090206009015460ff1615801561106357506001600160401b038116600090815260656020526040902060090154610100900460ff16155b61107f5760405162461bcd60e51b815260040161058b90614eda565b6001600160401b0383166000908152606560205260408120600b810154600c820154600d9092015460c082901c93606083901c93919080845b6001600160401b038b1660009081526066602052604081206110da90866138d7565b90506002600160601b03198114156110f2575061113b565b93506001600160601b03606085901c811693508416915083611114868461323e565b955061112b90506001600160601b038716836139ab565b61113586856139ab565b106110b8575b60008511801561116657506111596001600160601b038716836139ab565b61116386856139ab565b10155b1561122b57600061119461118d856111876001600160601b038b16876139ab565b906139b7565b87906139c3565b90508083106112075760006111a984836139c3565b90506111b4816139cf565b6001600160401b038e166000908152606560205260409020600f0180546bffffffffffffffffffffffff19166001600160601b03929092169190911790556111fc87836139c3565b9650859b5050611225565b61121186846139c3565b9550611222600088610279896139cf565b9a505b50611294565b866001600160601b03168511156112525761124b600087610279886139cf565b9950611294565b61125e60008789610a64565b995061129161128c886001600160601b0316611187896001600160601b0316896139ab90919063ffffffff16565b6139cf565b90505b6001600160401b038b166000908152606560205260409020600e81018b9055600501548510156112eb576001600160401b038b166000908152606560205260409020600901805463ff000000191663010000001790555b6113008b826001600160601b03168a89613a33565b604080516001600160601b038084168252871660208201529081018b90526001600160401b038c16907fcaa63be930fc54c8a55db93b269209878f7027abb93692a515c9dc483c5bf31d9060600160405180910390a25050506001600160401b039097166000908152606560205260408120600b8101829055600d8101829055600c810182905560040155509395945050505050565b6001600160401b038416600090815260656020526040902060030154849064ffffffffff16158015906113eb57506001600160401b03811660009081526065602052604090206003015464ffffffffff164210155b801561141057506001600160401b0381166000908152606560205260409020600e0154155b61142c5760405162461bcd60e51b815260040161058b90614ea3565b6001600160401b03811660009081526065602052604090206009015460ff1615801561147957506001600160401b038116600090815260656020526040902060090154610100900460ff16155b6114955760405162461bcd60e51b815260040161058b90614eda565b6001600160401b03851660009081526065602052604090206006015460ff166114f95760405162461bcd60e51b8152602060048201526016602482015275139bdd08185d5d1bdcd95d1d1b1948185b1b1bddd95960521b604482015260640161058b565b8351600114801561150b575082516001145b61154e5760405162461bcd60e51b81526020600482015260146024820152734d6f7265207468616e206f6e65206f726465727360601b604482015260640161058b565b600061155933610bc5565b90506115bf61159d828760008151811061157557611575614e03565b60200260200101518760008151811061159057611590614e03565b6020026020010151610a64565b6001600160401b0388166000908152606560205260409020600d015490613b8e565b61160b5760405162461bcd60e51b815260206004820152601c60248201527f6f72646572206c6573737468616e20696e746572696d206f7264657200000000604482015260640161058b565b61161886868686336132b2565b5061162286610f80565b50505050505050565b61163361387d565b600f82111561167b5760405162461bcd60e51b81526020600482015260146024820152734665652063616e2774206265203e20312e35202560601b604482015260640161058b565b61168481610bc5565b606a805467ffffffffffffffff19166001600160401b039290921691909117905550606b55565b6001600160401b0382166000908152606560205260409020600a01546001600160a01b0316331461171e5760405162461bcd60e51b815260206004820152601a60248201527f706f6f6c206f776e6572206f6e6c792063616e20757064617465000000000000604482015260640161058b565b6001600160401b03821660009081526065602090815260409091208251611747928401906144c3565b50816001600160401b03167fb03f287ef824b12c231cf3b9b3d8756a68e0eda11532714bb5b0c69afac327ba826040516117819190614db9565b60405180910390a25050565b6001600160401b0382166000908152606660205260408120610aaa9083613d2b565b6117b761387d565b6117c16000613d54565b565b6001600160401b038216600090815260656020526040902060090154829060ff168061180f57506001600160401b038116600090815260656020526040902060090154610100900460ff165b61185b5760405162461bcd60e51b815260206004820152601b60248201527f506f6f6c206e6f74205363616d6d6564206f722044656c657465640000000000604482015260640161058b565b6001600160401b038316600090815260666020526040902061187d9083613da6565b6118c05760405162461bcd60e51b81526020600482015260146024820152734f72646572206e6f7420726566756e6461626c6560601b604482015260640161058b565b60006118cb33610bc5565b905060c083901c606084901c846001600160401b03841683146119235760405162461bcd60e51b815260206004820152601060248201526f2737ba1027b93232b910283630b1b2b960811b604482015260640161058b565b6001600160401b038716600090815260656020526040902060080154611998903390670de0b6b3a764000090611962906001600160601b038616614e4a565b61196c9190614e69565b6001600160401b038a166000908152606560205260409020600201546001600160a01b0316919061324a565b604080516001600160601b038085168252831660208201529081018790526001600160401b0380861691908916907ff991e538154c5ad2eff925762e4a8e269c611939c2c8460211bc8e402d0263969060600160405180910390a350505050505050565b600080611a3e6103e8611187611a1f606b546103e861323e90919063ffffffff16565b611a2f60e0880160c08901614f06565b6001600160601b0316906139ab565b9050670de0b6b3a7640000611a5861016085013583614e4a565b611a629190614e69565b905080611a7560408501602086016147ef565b6040516370a0823160e01b81523360048201526001600160a01b0391909116906370a082319060240160206040518083038186803b158015611ab657600080fd5b505afa158015611aca573d6000803e3d6000fd5b505050506040513d601f19601f82011682018060405250810190611aee9190614f2c565b1015611b315760405162461bcd60e51b81526020600482015260126024820152714e6f7420656e6f7567682062616c616e636560701b604482015260640161058b565b611b4160a0840160808501614f45565b64ffffffffff1642108015611b815750611b6160c0840160a08501614f45565b64ffffffffff16611b7860a0850160808601614f45565b64ffffffffff16105b8015611bb95750611b9860c0840160a08501614f45565b64ffffffffff16611baf6080850160608601614f45565b64ffffffffff1611155b8015611bda575042611bd160c0850160a08601614f45565b64ffffffffff16115b611c265760405162461bcd60e51b815260206004820152601d60248201527f44617465206e6f7420636f6e6669677572656420636f72726563746c79000000604482015260640161058b565b6000611c3860e0850160c08601614f06565b6001600160601b0316118015611c6757506000611c5c610100850160e08601614f06565b6001600160601b0316115b8015611c7857506000836101000135115b611cbc5760405162461bcd60e51b8152602060048201526015602482015274416d6d6f756e742063616e2774206265207a65726f60581b604482015260640161058b565b611ce3333083611cd260408801602089016147ef565b6001600160a01b0316929190613dd2565b606754611d0190600160401b90046001600160401b03166001614f60565b606780546fffffffffffffffff00000000000000001916600160401b6001600160401b0393841681029190911791829055900416600090815260666020908152604080832060018085528184528285206002600160601b0319908190558552908101909252909120556000611d7533610bc5565b905060405180610140016040528085611d8d90614ff2565b81526040805160808101825260008082526020828101829052828401829052606080840192909252840191909152339183019190915201611de983611dd9610100890160e08a01614f06565b61027960e08a0160c08b01614f06565b81526000602080830182905260016040808501919091526060840183905260808401839052606b5460a085015260c0909301829052606754600160401b90046001600160401b0316825260658152919020825180518051929391928492611e549284929101906144c3565b5060208201518160010160006101000a8154816001600160a01b0302191690836001600160a01b0316021790555060408201518160020160006101000a8154816001600160a01b0302191690836001600160a01b0316021790555060608201518160020160146101000a81548164ffffffffff021916908364ffffffffff16021790555060808201518160020160196101000a81548164ffffffffff021916908364ffffffffff16021790555060a08201518160030160006101000a81548164ffffffffff021916908364ffffffffff16021790555060c08201518160030160056101000a8154816001600160601b0302191690836001600160601b0316021790555060e08201518160030160116101000a8154816001600160601b0302191690836001600160601b03160217905550610100820151816004015561012082015181600501556101408201518160060160006101000a81548160ff0219169083151502179055506101608201518160070160008201518160000155602082015181600101555050505060208201518160090160008201518160000160006101000a81548160ff02191690831515021790555060208201518160000160016101000a81548160ff02191690831515021790555060408201518160000160026101000a81548160ff02191690831515021790555060608201518160000160036101000a81548160ff0219169083151502179055505050604082015181600a0160006101000a8154816001600160a01b0302191690836001600160a01b03160217905550606082015181600b0155608082015181600c015560a082015181600d015560c082015181600e015560e082015181600f0160006101000a8154816001600160601b0302191690836001600160601b0316021790555061010082015181601001556101208201518160110155905050336001600160a01b0316816001600160401b0316606760089054906101000a90046001600160401b03166001600160401b03167f9fb015b01070cbd34ff57b2c9a642a2cefb6446bb225d05c21be80cd8399c94b87806000019061216791906150ea565b61217760408b0160208c016147ef565b61218760608c0160408d016147ef565b61219760808d0160608e01614f45565b6121a760a08e0160808f01614f45565b8d60a00160208101906121ba9190614f45565b8e60c00160208101906121cd9190614f06565b8f60e00160208101906121e09190614f06565b6040516121f599989796959493929190615137565b60405180910390a4606754600160401b90046001600160401b03167f956b430f300258f6d757fdf489c0bc3a95cffadc9995d416781835590acc185861224683611dd9610100890160e08a01614f06565b6000600181806101008b01356101208c013561226a6101608e016101408f016151ba565b606b5460408051998a5260208a01989098529688019590955260608701939093526001600160601b03909116608086015260a085015260c0840152151560e08301526101008201526101200160405180910390a25050606754600160401b90046001600160401b031692915050565b600054610100900460ff16158080156122f95750600054600160ff909116105b806123135750303b158015612313575060005460ff166001145b6123765760405162461bcd60e51b815260206004820152602e60248201527f496e697469616c697a61626c653a20636f6e747261637420697320616c72656160448201526d191e481a5b9a5d1a585b1a5e995960921b606482015260840161058b565b6000805460ff191660011790558015612399576000805461ff0019166101001790555b6123a1613e10565b606a805467ffffffffffffffff19166001179055600f606b558015610bc2576000805461ff0019169055604051600181527f7f26b83ff96e1f2b6a682f133852f6798a09c465da95921460cefb38474024989060200160405180910390a150565b6001600160401b038616600090815260656020526040812060030154879064ffffffffff1642106124755760405162461bcd60e51b815260206004820152601c60248201527f4e6f7420696e206f7264657220706c6163656d656e7420706861736500000000604482015260640161058b565b6001600160401b038816600090815260656020526040902060090154889060ff161580156124c457506001600160401b038116600090815260656020526040902060090154610100900460ff16155b80156124f257506001600160401b03811660009081526065602052604090206009015462010000900460ff16155b61250e5760405162461bcd60e51b815260040161058b90614dcc565b6040516bffffffffffffffffffffffff193360601b1660208201526000906034016040516020818303038152906040528051906020012090506125bb898980806020026020016040519081016040528093929190818152602001838360200280828437600081840152601f19601f82011690508083019250505050505050606560008d6001600160401b03166001600160401b031681526020019081526020016000206011015483613e3f565b6125fe5760405162461bcd60e51b8152602060048201526014602482015273155cd95c881b9bdd081dda1a5d195b1a5cdd195960621b604482015260640161058b565b61260b8a888888336132b2565b9a9950505050505050505050565b6065602052806000526040600020600091509050806000016040518061018001604052908160008201805461264d906151d7565b80601f0160208091040260200160405190810160405280929190818152602001828054612679906151d7565b80156126c65780601f1061269b576101008083540402835291602001916126c6565b820191906000526020600020905b8154815290600101906020018083116126a957829003601f168201915b505050918352505060018201546001600160a01b03908116602080840191909152600284015480831660408086019190915264ffffffffff600160a01b83048116606080880191909152600160c81b9093048116608080880191909152600388015491821660a08801526001600160601b03600160281b8304811660c0890152600160881b909204821660e08801526004880154610100808901919091526005890154610120890152600689015460ff90811615156101408a01528451808601865260078b015481526008909a01548a880152610160909801989098528251908101835260098a015480881615158252978804871615159481019490945262010000870486161515918401919091526301000000909504909316151592810192909252600a850154600b860154600c870154600d880154600e890154600f8a015460108b015460119b909b0154999a9799959096169793969295919490939190911691908a565b61283561387d565b6001600160401b038116600090815260656020526040902060098101805460ff19166001179055600a8101546007820154600390920154610bc2926001600160a01b0390921691670de0b6b3a764000091610b8c91906001600160601b03600160281b90910416614e4a565b6001600160401b0381166000908152606560205260408120600301544264ffffffffff90911610156128d557506000919050565b6001600160401b038216600090815260656020526040902060030154610be29064ffffffffff16426139c3565b600061290f6068836137cb565b6129505760405162461bcd60e51b8152602060048201526012602482015271139bdd08149959da5cdd195c99590816595d60721b604482015260640161058b565b610be26068836137f5565b61296361387d565b6001600160401b038116600090815260656020526040902060098101805461ff001916610100179055600a8101546007820154600390920154610bc2926001600160a01b0390921691670de0b6b3a764000091610b8c91906001600160601b03600160281b90910416614e4a565b6001600160401b0382166000908152606560205260408120600e015481908490612a315760405162461bcd60e51b8152602060048201526011602482015270141bdbdb081b9bdd08199a5b9a5cda1959607a1b604482015260640161058b565b6001600160401b038516600090815260656020526040902060090154859060ff16158015612a8057506001600160401b038116600090815260656020526040902060090154610100900460ff16155b8015612aae57506001600160401b03811660009081526065602052604090206009015462010000900460ff16155b612aca5760405162461bcd60e51b815260040161058b90614dcc565b60005b8551811015612b7b57612b1d868281518110612aeb57612aeb614e03565b6020026020010151606660008a6001600160401b03168152602001908152602001600020613da690919063ffffffff16565b612b695760405162461bcd60e51b815260206004820152601c60248201527f6f72646572206973206e6f206c6f6e67657220636c61696d61626c6500000000604482015260640161058b565b80612b7381614e2f565b915050612acd565b506001600160401b03861660009081526065602052604080822081516102c0810190925280548290610140820190839082908290612bb8906151d7565b80601f0160208091040260200160405190810160405280929190818152602001828054612be4906151d7565b8015612c315780601f10612c0657610100808354040283529160200191612c31565b820191906000526020600020905b815481529060010190602001808311612c1457829003601f168201915b505050918352505060018201546001600160a01b03908116602080840191909152600284015480831660408086019190915264ffffffffff600160a01b83048116606080880191909152600160c81b9093048116608080880191909152600388015491821660a0808901919091526001600160601b03600160281b8404811660c0808b0191909152600160881b909404811660e0808b019190915260048b0154610100808c019190915260058c0154610120808d019190915260068d015460ff90811615156101408e01528851808a018a5260078f015481526008909e01548e8c0152610160909c019c909c529b8d528551808501875260098f0154808c16151582528d81048c161515828b01526201000081048c1615158289015263010000009004909a1615158a880152968c0198909852600a8c0154909616928a0192909252600b8a015489840152600c8a015491890191909152600d89015493880193909352600e88015487840152600f8801549093169086015260108601549385019390935260119094015492019190915282015188519293509081901c91600090612de5908a9083906106b2576106b2614e03565b50506001600160401b038b16600090815260656020526040812060090154919250630100000090910460ff16905b8a51811015613056576000806000612e368e85815181106106b2576106b2614e03565b925092509250856001600160401b0316836001600160401b031614612e9d5760405162461bcd60e51b815260206004820152601f60248201527f6f6e6c792073616d65207573657220616c6c6f77656420746f20636c61696d00604482015260640161058b565b8415612ebd57612eb68c6001600160601b03831661323e565b9b50612fde565b8860c001518e8581518110612ed457612ed4614e03565b60200260200101511415612f5757612f22612f1b886001600160601b03166111878b6001600160601b03168d60e001516001600160601b03166139ab90919063ffffffff16565b8e9061323e565b9c50612eb6612f508a60e001516001600160601b0316836001600160601b03166139c390919063ffffffff16565b8d9061323e565b612f878960c001518f8681518110612f7157612f71614e03565b6020026020010151613b8e90919063ffffffff16565b15612fc857612fc1612f1b886001600160601b03166111878b6001600160601b0316856001600160601b03166139ab90919063ffffffff16565b9c50612fde565b612fdb8c6001600160601b03831661323e565b9b505b856001600160401b03168f6001600160401b03167f643afe0798b830aa1adfdb4e84e469ee402f2c8ccca1ad7ceecd21b78706d08584846040516130389291906001600160601b0392831681529116602082015260400190565b60405180910390a3505050808061304e90614e2f565b915050612e13565b506130638b8a8a85613e55565b505050505050509250929050565b6067546060906001600160401b03600160401b909104811690831611156130cb5760405162461bcd60e51b815260206004820152600e60248201526d125b9d985b1a481c1bdbdb08125160921b604482015260640161058b565b6001600160401b038216600090815260656020526040902080546130ee906151d7565b80601f016020809104026020016040519081016040528092919081815260200182805461311a906151d7565b80156131675780601f1061313c57610100808354040283529160200191613167565b820191906000526020600020905b81548152906001019060200180831161314a57829003601f168201915b50505050509050919050565b61317b61387d565b6001600160a01b0381166131e05760405162461bcd60e51b815260206004820152602660248201527f4f776e61626c653a206e6577206f776e657220697320746865207a65726f206160448201526564647265737360d01b606482015260840161058b565b610bc281613d54565b60006131f58383613d2b565b61320157506000610be2565b5060008181526001838101602081815260408085205487835281862080548288528388208190558752938352908520559383529390925290915590565b6000610aaa8284614e8b565b6040516001600160a01b0383166024820152604481018290526132ad90849063a9059cbb60e01b906064015b60408051601f198184030181529190526020810180516001600160e01b03166001600160e01b031990931692909217909152613f48565b505050565b6000806132be83610bc5565b6001600160401b0388166000908152606560205260408120600401549193505b875181101561353f5760008882815181106132fb576132fb614e03565b60200260200101516001600160601b0316116133525760405162461bcd60e51b81526020600482015260166024820152750627579416d6f756e7473206d757374206265203e20360541b604482015260640161058b565b8187828151811061336557613365614e03565b60200260200101516001600160601b031610156133b65760405162461bcd60e51b815260206004820152600f60248201526e1bdc99195c881d1bdbc81cdb585b1b608a1b604482015260640161058b565b61342e6133e9858a84815181106133cf576133cf614e03565b60200260200101518a858151811061159057611590614e03565b8783815181106133fb576133fb614e03565b6020026020010151606660008d6001600160401b0316815260200190815260200160002061401a9092919063ffffffff16565b1561352d5761346887828151811061344857613448614e03565b60200260200101516001600160601b03168461323e90919063ffffffff16565b9250836001600160401b0316896001600160401b03167fd1eb3aa4747ae96061ea9271199478378d5f0cad92edc3d7f78a63b658a93d6a8a84815181106134b1576134b1614e03565b60200260200101518a85815181106134cb576134cb614e03565b6020026020010151613503898e88815181106134e9576134e9614e03565b60200260200101518e898151811061159057611590614e03565b604080516001600160601b0394851681529390921660208401529082015260600160405180910390a35b8061353781614e2f565b9150506132de565b506001600160401b0388166000908152606560205260409020600801546109749033903090670de0b6b3a7640000906135789087614e4a565b6135829190614e69565b6001600160401b038c166000908152606560205260409020600201546001600160a01b0316929190613dd2565b6000600160401b82106136135760405162461bcd60e51b815260206004820152602660248201527f53616665436173743a2076616c756520646f65736e27742066697420696e203660448201526534206269747360d01b606482015260840161058b565b5090565b60006001600160a01b03821661366f5760405162461bcd60e51b815260206004820152601a60248201527f43616e6e6f7420696e73657274207a65726f2061646472657373000000000000604482015260640161058b565b6001600160401b0383811614156136c85760405162461bcd60e51b815260206004820152601860248201527f43616e6e6f7420696e73657274206d61782075696e7436340000000000000000604482015260640161058b565b6001600160a01b03821660009081526001850160205260409020546001600160401b0316151580613729575060008481613703866001614f60565b6001600160401b031681526020810191909152604001600020546001600160a01b031614155b1561373657506000610aaa565b81846000613745866001614f60565b6001600160401b03168152602081019190915260400160002080546001600160a01b0319166001600160a01b0392909216919091179055613787836001614f60565b6001600160a01b03929092166000908152600194850160205260409020805467ffffffffffffffff19166001600160401b0393909316929092179091555090919050565b6001600160a01b0316600090815260019190910160205260409020546001600160401b0316151590565b600061380183836137cb565b61384d5760405162461bcd60e51b815260206004820152601b60248201527f4d7573742068617665204164647265737320746f206765742049440000000000604482015260640161058b565b6001600160a01b03821660009081526001848101602052604090912054610aaa91906001600160401b0316615212565b6033546001600160a01b031633146117c15760405162461bcd60e51b815260206004820181905260248201527f4f776e61626c653a2063616c6c6572206973206e6f7420746865206f776e6572604482015260640161058b565b60006002600160601b031982141561393c5760405162461bcd60e51b815260206004820152602260248201527f547279696e6720746f20676574206e657874206f66206c61737420656c656d656044820152611b9d60f21b606482015260840161058b565b60008281526020849052604090205480610aaa5760405162461bcd60e51b815260206004820152602a60248201527f547279696e6720746f20676574206e657874206f66206e6f6e2d6578697374656044820152691b9d08195b195b595b9d60b21b606482015260840161058b565b6000610aaa8284614e4a565b6000610aaa8284614e69565b6000610aaa828461523a565b6000600160601b82106136135760405162461bcd60e51b815260206004820152602660248201527f53616665436173743a2076616c756520646f65736e27742066697420696e203960448201526536206269747360d01b606482015260840161058b565b6001600160401b038416600090815260656020526040812060100154613a6b906103e890611187906001600160601b038616906139ab565b6001600160401b0386166000908152606560205260409020600901549091506301000000900460ff1615613abd57613ab885613ab06001600160601b0385168461323e565b600086613e55565b613b87565b6001600160401b0385166000908152606560205260408120600e0154606081901c91613af26001600160601b038616886139c3565b90506000613b17613b106001600160601b03881661118788866139ab565b839061323e565b90506000613b44856001600160601b0316611187866001600160601b03168c6139ab90919063ffffffff16565b9050613b528a83838b613e55565b613b818a613b6d6001600160601b038a166111878a8e6139ab565b606a546000906001600160401b0316613e55565b50505050505b5050505050565b600060c083811c90606085811c9186919086901c9086901c86613bbd6001600160601b038084169086166139ab565b613bd36001600160601b038781169084166139ab565b1015613be85760019650505050505050610be2565b613bfe6001600160601b038381169086166139ab565b613c146001600160601b038781169084166139ab565b1115613c295760009650505050505050610be2565b816001600160601b0316856001600160601b03161015613c525760019650505050505050610be2565b816001600160601b0316856001600160601b03161115613c7b5760009650505050505050610be2565b826001600160401b0316866001600160401b03161415613cf35760405162461bcd60e51b815260206004820152602d60248201527f75736572206973206e6f7420616c6c6f77656420746f20706c6163652073616d60448201526c65206f7264657220747769636560981b606482015260840161058b565b826001600160401b0316866001600160401b03161015613d1c5760019650505050505050610be2565b50600098975050505050505050565b60006001821415613d3e57506000610be2565b5060009081526020919091526040902054151590565b603380546001600160a01b038381166001600160a01b0319831681179093556040519116919082907f8be0079c531659141344cd1fd0a4f28419497f9722a3daafe3b4186f6b6457e090600090a35050565b600080613db384846131e9565b90508015610aaa57600092835260019390930160205250604081205590565b6040516001600160a01b0380851660248301528316604482015260648101829052613e0a9085906323b872dd60e01b90608401613276565b50505050565b600054610100900460ff16613e375760405162461bcd60e51b815260040161058b90615251565b6117c16141c4565b600082613e4c85846141f4565b14949350505050565b6000613e62606883614241565b90508315613ed6576001600160401b038516600090815260656020526040902060070154613ed6908290670de0b6b3a764000090613ea09088614e4a565b613eaa9190614e69565b6001600160401b0388166000908152606560205260409020600101546001600160a01b0316919061324a565b8215613b87576001600160401b038516600090815260656020526040902060080154613b87908290670de0b6b3a764000090613f129087614e4a565b613f1c9190614e69565b6001600160401b0388166000908152606560205260409020600201546001600160a01b0316919061324a565b6000613f9d826040518060400160405280602081526020017f5361666545524332303a206c6f772d6c6576656c2063616c6c206661696c6564815250856001600160a01b03166142d19092919063ffffffff16565b8051909150156132ad5780806020019051810190613fbb919061529c565b6132ad5760405162461bcd60e51b815260206004820152602a60248201527f5361666545524332303a204552433230206f7065726174696f6e20646964206e6044820152691bdd081cdd58d8d9595960b21b606482015260840161058b565b6000826001600160601b0381166140735760405162461bcd60e51b815260206004820152601f60248201527f496e73657274696e67207a65726f206973206e6f7420737570706f7274656400604482015260640161058b565b6001841480159061408c57506002600160601b03198414155b6140d85760405162461bcd60e51b815260206004820152601e60248201527f496e73657274696e6720656c656d656e74206973206e6f742076616c69640000604482015260640161058b565b6140e28585613d2b565b156140f1576000915050610aaa565b6001831480159061411057506000838152600186016020526040902054155b1561411f576000915050610aaa565b6141298385613b8e565b614137576000915050610aaa565b5b6000838152602086905260409020546141635760009283526001850160205260409092205491614138565b6000835b6000818152602088905260409020549091506141838187613b8e565b614167576000828152602088815260408083208990558383526001808b0183528184208a905589845281842095909555908990529020559150509392505050565b600054610100900460ff166141eb5760405162461bcd60e51b815260040161058b90615251565b6117c133613d54565b600081815b8451811015614239576142258286838151811061421857614218614e03565b60200260200101516142e0565b91508061423181614e2f565b9150506141f9565b509392505050565b600061424d838361430f565b6142995760405162461bcd60e51b815260206004820152601b60248201527f4d757374206861766520494420746f2067657420416464726573730000000000604482015260640161058b565b8260006142a7846001614f60565b6001600160401b031681526020810191909152604001600020546001600160a01b03169392505050565b6060610aa7848460008561434b565b60008183106142fc576000828152602084905260409020610aaa565b6000838152602083905260409020610aaa565b600080838161431f856001614f60565b6001600160401b031681526020810191909152604001600020546001600160a01b031614159392505050565b6060824710156143ac5760405162461bcd60e51b815260206004820152602660248201527f416464726573733a20696e73756666696369656e742062616c616e636520666f6044820152651c8818d85b1b60d21b606482015260840161058b565b600080866001600160a01b031685876040516143c891906152b9565b60006040518083038185875af1925050503d8060008114614405576040519150601f19603f3d011682016040523d82523d6000602084013e61440a565b606091505b509150915061441b87838387614428565b925050505b949350505050565b6060831561449457825161448d576001600160a01b0385163b61448d5760405162461bcd60e51b815260206004820152601d60248201527f416464726573733a2063616c6c20746f206e6f6e2d636f6e7472616374000000604482015260640161058b565b5081614420565b61442083838151156144a95781518083602001fd5b8060405162461bcd60e51b815260040161058b9190614db9565b8280546144cf906151d7565b90600052602060002090601f0160209004810192826144f15760008555614537565b82601f1061450a57805160ff1916838001178555614537565b82800160010185558215614537579182015b8281111561453757825182559160200191906001019061451c565b506136139291505b80821115613613576000815560010161453f565b80356001600160401b0381168114610c3457600080fd5b634e487b7160e01b600052604160045260246000fd5b60405161018081016001600160401b03811182821017156145a3576145a361456a565b60405290565b604051601f8201601f191681016001600160401b03811182821017156145d1576145d161456a565b604052919050565b60006001600160401b038211156145f2576145f261456a565b5060051b60200190565b600082601f83011261460d57600080fd5b8135602061462261461d836145d9565b6145a9565b82815260059290921b8401810191818101908684111561464157600080fd5b8286015b8481101561465c5780358352918301918301614645565b509695505050505050565b6000806040838503121561467a57600080fd5b61468383614553565b915060208301356001600160401b0381111561469e57600080fd5b6146aa858286016145fc565b9150509250929050565b80356001600160601b0381168114610c3457600080fd5b600082601f8301126146dc57600080fd5b813560206146ec61461d836145d9565b82815260059290921b8401810191818101908684111561470b57600080fd5b8286015b8481101561465c57614720816146b4565b835291830191830161470f565b6001600160a01b0381168114610bc257600080fd5b600080600080600060a0868803121561475a57600080fd5b61476386614553565b945060208601356001600160401b038082111561477f57600080fd5b61478b89838a016146cb565b955060408801359150808211156147a157600080fd5b6147ad89838a016146cb565b945060608801359150808211156147c357600080fd5b506147d0888289016145fc565b92505060808601356147e18161472d565b809150509295509295909350565b60006020828403121561480157600080fd5b8135610aaa8161472d565b60008060006060848603121561482157600080fd5b61482a84614553565b9250614838602085016146b4565b9150614846604085016146b4565b90509250925092565b60006020828403121561486157600080fd5b610aaa82614553565b803564ffffffffff81168114610c3457600080fd5b60008060008060008060c0878903121561489857600080fd5b6148a187614553565b95506148af6020880161486a565b94506148bd6040880161486a565b93506148cb6060880161486a565b92506080870135915060a087013590509295509295509295565b600080604083850312156148f857600080fd5b61490183614553565b946020939093013593505050565b6000806000806080858703121561492557600080fd5b61492e85614553565b935060208501356001600160401b038082111561494a57600080fd5b614956888389016146cb565b9450604087013591508082111561496c57600080fd5b614978888389016146cb565b9350606087013591508082111561498e57600080fd5b5061499b878288016145fc565b91505092959194509250565b600080604083850312156149ba57600080fd5b8235915060208301356149cc8161472d565b809150509250929050565b600082601f8301126149e857600080fd5b81356001600160401b03811115614a0157614a0161456a565b614a14601f8201601f19166020016145a9565b818152846020838601011115614a2957600080fd5b816020850160208301376000918101602001919091529392505050565b60008060408385031215614a5957600080fd5b614a6283614553565b915060208301356001600160401b03811115614a7d57600080fd5b6146aa858286016149d7565b600060208284031215614a9b57600080fd5b81356001600160401b03811115614ab157600080fd5b82016101a08185031215610aaa57600080fd5b60008060008060008060a08789031215614add57600080fd5b614ae687614553565b955060208701356001600160401b0380821115614b0257600080fd5b818901915089601f830112614b1657600080fd5b813581811115614b2557600080fd5b8a60208260051b8501011115614b3a57600080fd5b602083019750809650506040890135915080821115614b5857600080fd5b614b648a838b016146cb565b94506060890135915080821115614b7a57600080fd5b614b868a838b016146cb565b93506080890135915080821115614b9c57600080fd5b50614ba989828a016145fc565b9150509295509295509295565b60005b83811015614bd1578181015183820152602001614bb9565b83811115613e0a5750506000910152565b60008151808452614bfa816020860160208601614bb6565b601f01601f19169290920160200192915050565b60006101a08083528c518182850152614c2b610340850182614be2565b91505060208d0151614c496101c08501826001600160a01b03169052565b5060408d01516001600160a01b0381166101e08501525060608d015164ffffffffff81166102008501525060808d015164ffffffffff81166102208501525060a08d015164ffffffffff81166102408501525060c08d01516001600160601b0381166102608501525060e08d01516001600160601b038116610280850152506101008d01516102a08401526101208d01516102c0840152610140808e01518015156102e0860152506101608e8101518051610300870152602081015161032087015250829350614d45602086018f8051151582526020810151151560208301526040810151151560408301526060810151151560608301525050565b6001600160a01b038d1660a08601528b60c08601528a60e08601528961010086015288610120860152614d82828601896001600160601b03169052565b8681860152505050826101808301529b9a5050505050505050505050565b600060208284031215614db257600080fd5b5035919050565b602081526000610aaa6020830184614be2565b60208082526019908201527f44656c657465642f5363616d6d65642f43616e63656c6c656400000000000000604082015260600190565b634e487b7160e01b600052603260045260246000fd5b634e487b7160e01b600052601160045260246000fd5b6000600019821415614e4357614e43614e19565b5060010190565b6000816000190483118215151615614e6457614e64614e19565b500290565b600082614e8657634e487b7160e01b600052601260045260246000fd5b500490565b60008219821115614e9e57614e9e614e19565b500190565b60208082526017908201527f4e6f7420696e207375626d697373696f6e207068617365000000000000000000604082015260600190565b60208082526012908201527111195b195d1959081bdc8814d8d85b5b595960721b604082015260600190565b600060208284031215614f1857600080fd5b610aaa826146b4565b8035610c348161472d565b600060208284031215614f3e57600080fd5b5051919050565b600060208284031215614f5757600080fd5b610aaa8261486a565b60006001600160401b03808316818516808303821115614f8257614f82614e19565b01949350505050565b8015158114610bc257600080fd5b8035610c3481614f8b565b600060408284031215614fb657600080fd5b604051604081018181106001600160401b0382111715614fd857614fd861456a565b604052823581526020928301359281019290925250919050565b60006101a0823603121561500557600080fd5b61500d614580565b82356001600160401b0381111561502357600080fd5b61502f368286016149d7565b82525061503e60208401614f21565b602082015261504f60408401614f21565b60408201526150606060840161486a565b60608201526150716080840161486a565b608082015261508260a0840161486a565b60a082015261509360c084016146b4565b60c08201526150a460e084016146b4565b60e0820152610100838101359082015261012080840135908201526101406150cd818501614f99565b908201526101606150e036858301614fa4565b9082015292915050565b6000808335601e1984360301811261510157600080fd5b8301803591506001600160401b0382111561511b57600080fd5b60200191503681900382131561513057600080fd5b9250929050565b610100808252810189905260006101208a8c828501376000838c018201526001600160a01b03998a16602084015297909816604082015264ffffffffff958616606082015293851660808501529190931660a08301526001600160601b0392831660c083015290911660e0820152601f909301601f191690920190910192915050565b6000602082840312156151cc57600080fd5b8135610aaa81614f8b565b600181811c908216806151eb57607f821691505b6020821081141561520c57634e487b7160e01b600052602260045260246000fd5b50919050565b60006001600160401b038381169083168181101561523257615232614e19565b039392505050565b60008282101561524c5761524c614e19565b500390565b6020808252602b908201527f496e697469616c697a61626c653a20636f6e7472616374206973206e6f74206960408201526a6e697469616c697a696e6760a81b606082015260800190565b6000602082840312156152ae57600080fd5b8151610aaa81614f8b565b600082516152cb818460208701614bb6565b919091019291505056fea264697066735822122008d7e10cd65c89376402a63fd046ffb4b3718336d36196e02c454e1049ce3a4964736f6c63430008090033","opcodes":"PUSH1 0x80 PUSH1 0x40 MSTORE CALLVALUE DUP1 ISZERO PUSH2 0x10 JUMPI PUSH1 0x0 DUP1 REVERT JUMPDEST POP PUSH2 0x530B DUP1 PUSH2 0x20 PUSH1 0x0 CODECOPY PUSH1 0x0 RETURN INVALID PUSH1 0x80 PUSH1 0x40 MSTORE CALLVALUE DUP1 ISZERO PUSH2 0x10 JUMPI PUSH1 0x0 DUP1 REVERT JUMPDEST POP PUSH1 0x4 CALLDATASIZE LT PUSH2 0x1FB JUMPI PUSH1 0x0 CALLDATALOAD PUSH1 0xE0 SHR DUP1 PUSH4 0x7273C6BA GT PUSH2 0x11A JUMPI DUP1 PUSH4 0xC5A36D54 GT PUSH2 0xAD JUMPI DUP1 PUSH4 0xD8A9F29E GT PUSH2 0x7C JUMPI DUP1 PUSH4 0xD8A9F29E EQ PUSH2 0x49E JUMPI DUP1 PUSH4 0xE4C73FC1 EQ PUSH2 0x4B1 JUMPI DUP1 PUSH4 0xE86DEA4A EQ PUSH2 0x4D9 JUMPI DUP1 PUSH4 0xEAF5AA58 EQ PUSH2 0x4E2 JUMPI DUP1 PUSH4 0xF2FDE38B EQ PUSH2 0x502 JUMPI PUSH1 0x0 DUP1 REVERT JUMPDEST DUP1 PUSH4 0xC5A36D54 EQ PUSH2 0x414 JUMPI DUP1 PUSH4 0xCA648FF5 EQ PUSH2 0x427 JUMPI DUP1 PUSH4 0xCADD147C EQ PUSH2 0x43A JUMPI DUP1 PUSH4 0xD73792A9 EQ PUSH2 0x495 JUMPI PUSH1 0x0 DUP1 REVERT JUMPDEST DUP1 PUSH4 0x9607FD9F GT PUSH2 0xE9 JUMPI DUP1 PUSH4 0x9607FD9F EQ PUSH2 0x3AB JUMPI DUP1 PUSH4 0x9E3079CB EQ PUSH2 0x3BE JUMPI DUP1 PUSH4 0xAD8AE9FC EQ PUSH2 0x3D8 JUMPI DUP1 PUSH4 0xAE98DF16 EQ PUSH2 0x401 JUMPI PUSH1 0x0 DUP1 REVERT JUMPDEST DUP1 PUSH4 0x7273C6BA EQ PUSH2 0x362 JUMPI DUP1 PUSH4 0x7F513CB8 EQ PUSH2 0x375 JUMPI DUP1 PUSH4 0x8129FC1C EQ PUSH2 0x388 JUMPI DUP1 PUSH4 0x8DA5CB5B EQ PUSH2 0x390 JUMPI PUSH1 0x0 DUP1 REVERT JUMPDEST DUP1 PUSH4 0x30433843 GT PUSH2 0x192 JUMPI DUP1 PUSH4 0x465CE9A9 GT PUSH2 0x161 JUMPI DUP1 PUSH4 0x465CE9A9 EQ PUSH2 0x311 JUMPI DUP1 PUSH4 0x5CEFB291 EQ PUSH2 0x324 JUMPI DUP1 PUSH4 0x5EBC7F12 EQ PUSH2 0x337 JUMPI DUP1 PUSH4 0x715018A6 EQ PUSH2 0x35A JUMPI PUSH1 0x0 DUP1 REVERT JUMPDEST DUP1 PUSH4 0x30433843 EQ PUSH2 0x2C5 JUMPI DUP1 PUSH4 0x3A62500C EQ PUSH2 0x2D8 JUMPI DUP1 PUSH4 0x3BB6B279 EQ PUSH2 0x2EB JUMPI DUP1 PUSH4 0x40B20B09 EQ PUSH2 0x2FE JUMPI PUSH1 0x0 DUP1 REVERT JUMPDEST DUP1 PUSH4 0x291AB528 GT PUSH2 0x1CE JUMPI DUP1 PUSH4 0x291AB528 EQ PUSH2 0x26B JUMPI DUP1 PUSH4 0x2A6B405F EQ PUSH2 0x28C JUMPI DUP1 PUSH4 0x2B956FF7 EQ PUSH2 0x29F JUMPI DUP1 PUSH4 0x2E1772E4 EQ PUSH2 0x2B2 JUMPI PUSH1 0x0 DUP1 REVERT JUMPDEST DUP1 PUSH4 0xA49A186 EQ PUSH2 0x200 JUMPI DUP1 PUSH4 0x11221C1E EQ PUSH2 0x215 JUMPI DUP1 PUSH4 0x19A50F49 EQ PUSH2 0x245 JUMPI DUP1 PUSH4 0x2199D5CD EQ PUSH2 0x258 JUMPI JUMPDEST PUSH1 0x0 DUP1 REVERT JUMPDEST PUSH2 0x213 PUSH2 0x20E CALLDATASIZE PUSH1 0x4 PUSH2 0x4667 JUMP JUMPDEST PUSH2 0x515 JUMP JUMPDEST STOP JUMPDEST PUSH2 0x228 PUSH2 0x223 CALLDATASIZE PUSH1 0x4 PUSH2 0x4742 JUMP JUMPDEST PUSH2 0x858 JUMP JUMPDEST PUSH1 0x40 MLOAD PUSH1 0x1 PUSH1 0x1 PUSH1 0x40 SHL SUB SWAP1 SWAP2 AND DUP2 MSTORE PUSH1 0x20 ADD JUMPDEST PUSH1 0x40 MLOAD DUP1 SWAP2 SUB SWAP1 RETURN JUMPDEST PUSH1 0x67 SLOAD PUSH2 0x228 SWAP1 PUSH1 0x1 PUSH1 0x1 PUSH1 0x40 SHL SUB AND DUP2 JUMP JUMPDEST PUSH2 0x228 PUSH2 0x266 CALLDATASIZE PUSH1 0x4 PUSH2 0x47EF JUMP JUMPDEST PUSH2 0x97F JUMP JUMPDEST PUSH2 0x27E PUSH2 0x279 CALLDATASIZE PUSH1 0x4 PUSH2 0x480C JUMP JUMPDEST PUSH2 0xA64 JUMP JUMPDEST PUSH1 0x40 MLOAD SWAP1 DUP2 MSTORE PUSH1 0x20 ADD PUSH2 0x23C JUMP JUMPDEST PUSH2 0x213 PUSH2 0x29A CALLDATASIZE PUSH1 0x4 PUSH2 0x484F JUMP JUMPDEST PUSH2 0xAB1 JUMP JUMPDEST PUSH2 0x228 PUSH2 0x2AD CALLDATASIZE PUSH1 0x4 PUSH2 0x47EF JUMP JUMPDEST PUSH2 0xBC5 JUMP JUMPDEST PUSH2 0x213 PUSH2 0x2C0 CALLDATASIZE PUSH1 0x4 PUSH2 0x487F JUMP JUMPDEST PUSH2 0xC39 JUMP JUMPDEST PUSH2 0x213 PUSH2 0x2D3 CALLDATASIZE PUSH1 0x4 PUSH2 0x48E5 JUMP JUMPDEST PUSH2 0xD1C JUMP JUMPDEST PUSH2 0x27E PUSH2 0x2E6 CALLDATASIZE PUSH1 0x4 PUSH2 0x484F JUMP JUMPDEST PUSH2 0xF80 JUMP JUMPDEST PUSH2 0x213 PUSH2 0x2F9 CALLDATASIZE PUSH1 0x4 PUSH2 0x490F JUMP JUMPDEST PUSH2 0x1396 JUMP JUMPDEST PUSH2 0x213 PUSH2 0x30C CALLDATASIZE PUSH1 0x4 PUSH2 0x49A7 JUMP JUMPDEST PUSH2 0x162B JUMP JUMPDEST PUSH2 0x213 PUSH2 0x31F CALLDATASIZE PUSH1 0x4 PUSH2 0x4A46 JUMP JUMPDEST PUSH2 0x16AB JUMP JUMPDEST PUSH1 0x6A SLOAD PUSH2 0x228 SWAP1 PUSH1 0x1 PUSH1 0x1 PUSH1 0x40 SHL SUB AND DUP2 JUMP JUMPDEST PUSH2 0x34A PUSH2 0x345 CALLDATASIZE PUSH1 0x4 PUSH2 0x48E5 JUMP JUMPDEST PUSH2 0x178D JUMP JUMPDEST PUSH1 0x40 MLOAD SWAP1 ISZERO ISZERO DUP2 MSTORE PUSH1 0x20 ADD PUSH2 0x23C JUMP JUMPDEST PUSH2 0x213 PUSH2 0x17AF JUMP JUMPDEST PUSH2 0x213 PUSH2 0x370 CALLDATASIZE PUSH1 0x4 PUSH2 0x48E5 JUMP JUMPDEST PUSH2 0x17C3 JUMP JUMPDEST PUSH2 0x27E PUSH2 0x383 CALLDATASIZE PUSH1 0x4 PUSH2 0x4A89 JUMP JUMPDEST PUSH2 0x19FC JUMP JUMPDEST PUSH2 0x213 PUSH2 0x22D9 JUMP JUMPDEST PUSH1 0x33 SLOAD PUSH1 0x40 MLOAD PUSH1 0x1 PUSH1 0x1 PUSH1 0xA0 SHL SUB SWAP1 SWAP2 AND DUP2 MSTORE PUSH1 0x20 ADD PUSH2 0x23C JUMP JUMPDEST PUSH2 0x228 PUSH2 0x3B9 CALLDATASIZE PUSH1 0x4 PUSH2 0x4AC4 JUMP JUMPDEST PUSH2 0x2402 JUMP JUMPDEST PUSH1 0x67 SLOAD PUSH2 0x228 SWAP1 PUSH1 0x1 PUSH1 0x40 SHL SWAP1 DIV PUSH1 0x1 PUSH1 0x1 PUSH1 0x40 SHL SUB AND DUP2 JUMP JUMPDEST PUSH2 0x3EB PUSH2 0x3E6 CALLDATASIZE PUSH1 0x4 PUSH2 0x484F JUMP JUMPDEST PUSH2 0x2619 JUMP JUMPDEST PUSH1 0x40 MLOAD PUSH2 0x23C SWAP11 SWAP10 SWAP9 SWAP8 SWAP7 SWAP6 SWAP5 SWAP4 SWAP3 SWAP2 SWAP1 PUSH2 0x4C0E JUMP JUMPDEST PUSH2 0x213 PUSH2 0x40F CALLDATASIZE PUSH1 0x4 PUSH2 0x484F JUMP JUMPDEST PUSH2 0x282D JUMP JUMPDEST PUSH2 0x27E PUSH2 0x422 CALLDATASIZE PUSH1 0x4 PUSH2 0x484F JUMP JUMPDEST PUSH2 0x28A1 JUMP JUMPDEST PUSH2 0x228 PUSH2 0x435 CALLDATASIZE PUSH1 0x4 PUSH2 0x47EF JUMP JUMPDEST PUSH2 0x2902 JUMP JUMPDEST PUSH2 0x475 PUSH2 0x448 CALLDATASIZE PUSH1 0x4 PUSH2 0x4DA0 JUMP JUMPDEST PUSH1 0x0 SWAP1 DUP2 MSTORE PUSH1 0x66 PUSH1 0x20 SWAP1 DUP2 MSTORE PUSH1 0x40 DUP1 DUP4 KECCAK256 PUSH1 0x2 PUSH1 0x1 PUSH1 0x60 SHL SUB NOT DUP5 MSTORE PUSH1 0x1 ADD SWAP1 SWAP2 MSTORE SWAP1 KECCAK256 SLOAD PUSH1 0x60 DUP2 SWAP1 SHR SWAP2 JUMP JUMPDEST PUSH1 0x40 DUP1 MLOAD PUSH1 0x1 PUSH1 0x1 PUSH1 0x60 SHL SUB SWAP4 DUP5 AND DUP2 MSTORE SWAP3 SWAP1 SWAP2 AND PUSH1 0x20 DUP4 ADD MSTORE ADD PUSH2 0x23C JUMP JUMPDEST PUSH2 0x27E PUSH2 0x3E8 DUP2 JUMP JUMPDEST PUSH2 0x213 PUSH2 0x4AC CALLDATASIZE PUSH1 0x4 PUSH2 0x484F JUMP JUMPDEST PUSH2 0x295B JUMP JUMPDEST PUSH2 0x4C4 PUSH2 0x4BF CALLDATASIZE PUSH1 0x4 PUSH2 0x4667 JUMP JUMPDEST PUSH2 0x29D1 JUMP JUMPDEST PUSH1 0x40 DUP1 MLOAD SWAP3 DUP4 MSTORE PUSH1 0x20 DUP4 ADD SWAP2 SWAP1 SWAP2 MSTORE ADD PUSH2 0x23C JUMP JUMPDEST PUSH2 0x27E PUSH1 0x6B SLOAD DUP2 JUMP JUMPDEST PUSH2 0x4F5 PUSH2 0x4F0 CALLDATASIZE PUSH1 0x4 PUSH2 0x484F JUMP JUMPDEST PUSH2 0x3071 JUMP JUMPDEST PUSH1 0x40 MLOAD PUSH2 0x23C SWAP2 SWAP1 PUSH2 0x4DB9 JUMP JUMPDEST PUSH2 0x213 PUSH2 0x510 CALLDATASIZE PUSH1 0x4 PUSH2 0x47EF JUMP JUMPDEST PUSH2 0x3173 JUMP JUMPDEST PUSH1 0x1 PUSH1 0x1 PUSH1 0x40 SHL SUB DUP3 AND PUSH1 0x0 SWAP1 DUP2 MSTORE PUSH1 0x65 PUSH1 0x20 MSTORE PUSH1 0x40 SWAP1 KECCAK256 PUSH1 0x2 ADD SLOAD DUP3 SWAP1 PUSH1 0x1 PUSH1 0xA0 SHL SWAP1 DIV PUSH5 0xFFFFFFFFFF AND TIMESTAMP LT PUSH2 0x594 JUMPI PUSH1 0x40 MLOAD PUSH3 0x461BCD PUSH1 0xE5 SHL DUP2 MSTORE PUSH1 0x20 PUSH1 0x4 DUP3 ADD MSTORE PUSH1 0x1F PUSH1 0x24 DUP3 ADD MSTORE PUSH32 0x4E6F7420696E206F7264657220706C6163652F63616E63656C20706861736500 PUSH1 0x44 DUP3 ADD MSTORE PUSH1 0x64 ADD JUMPDEST PUSH1 0x40 MLOAD DUP1 SWAP2 SUB SWAP1 REVERT JUMPDEST PUSH1 0x1 PUSH1 0x1 PUSH1 0x40 SHL SUB DUP4 AND PUSH1 0x0 SWAP1 DUP2 MSTORE PUSH1 0x65 PUSH1 0x20 MSTORE PUSH1 0x40 SWAP1 KECCAK256 PUSH1 0x9 ADD SLOAD DUP4 SWAP1 PUSH1 0xFF AND ISZERO DUP1 ISZERO PUSH2 0x5E3 JUMPI POP PUSH1 0x1 PUSH1 0x1 PUSH1 0x40 SHL SUB DUP2 AND PUSH1 0x0 SWAP1 DUP2 MSTORE PUSH1 0x65 PUSH1 0x20 MSTORE PUSH1 0x40 SWAP1 KECCAK256 PUSH1 0x9 ADD SLOAD PUSH2 0x100 SWAP1 DIV PUSH1 0xFF AND ISZERO JUMPDEST DUP1 ISZERO PUSH2 0x611 JUMPI POP PUSH1 0x1 PUSH1 0x1 PUSH1 0x40 SHL SUB DUP2 AND PUSH1 0x0 SWAP1 DUP2 MSTORE PUSH1 0x65 PUSH1 0x20 MSTORE PUSH1 0x40 SWAP1 KECCAK256 PUSH1 0x9 ADD SLOAD PUSH3 0x10000 SWAP1 DIV PUSH1 0xFF AND ISZERO JUMPDEST PUSH2 0x62D JUMPI PUSH1 0x40 MLOAD PUSH3 0x461BCD PUSH1 0xE5 SHL DUP2 MSTORE PUSH1 0x4 ADD PUSH2 0x58B SWAP1 PUSH2 0x4DCC JUMP JUMPDEST PUSH1 0x0 PUSH2 0x638 CALLER PUSH2 0xBC5 JUMP JUMPDEST SWAP1 POP PUSH1 0x0 DUP1 JUMPDEST DUP6 MLOAD DUP2 LT ISZERO PUSH2 0x7E3 JUMPI PUSH1 0x0 PUSH2 0x690 DUP8 DUP4 DUP2 MLOAD DUP2 LT PUSH2 0x65E JUMPI PUSH2 0x65E PUSH2 0x4E03 JUMP JUMPDEST PUSH1 0x20 MUL PUSH1 0x20 ADD ADD MLOAD PUSH1 0x66 PUSH1 0x0 DUP12 PUSH1 0x1 PUSH1 0x1 PUSH1 0x40 SHL SUB AND DUP2 MSTORE PUSH1 0x20 ADD SWAP1 DUP2 MSTORE PUSH1 0x20 ADD PUSH1 0x0 KECCAK256 PUSH2 0x31E9 SWAP1 SWAP2 SWAP1 PUSH4 0xFFFFFFFF AND JUMP JUMPDEST SWAP1 POP DUP1 ISZERO PUSH2 0x7D0 JUMPI PUSH1 0x0 DUP1 PUSH1 0x0 PUSH2 0x6C9 DUP11 DUP7 DUP2 MLOAD DUP2 LT PUSH2 0x6B2 JUMPI PUSH2 0x6B2 PUSH2 0x4E03 JUMP JUMPDEST PUSH1 0x20 MUL PUSH1 0x20 ADD ADD MLOAD PUSH1 0xC0 DUP2 SWAP1 SHR SWAP2 PUSH1 0x60 DUP3 SWAP1 SHR SWAP2 SWAP1 JUMP JUMPDEST SWAP3 POP SWAP3 POP SWAP3 POP DUP7 PUSH1 0x1 PUSH1 0x1 PUSH1 0x40 SHL SUB AND DUP4 PUSH1 0x1 PUSH1 0x1 PUSH1 0x40 SHL SUB AND EQ PUSH2 0x730 JUMPI PUSH1 0x40 MLOAD PUSH3 0x461BCD PUSH1 0xE5 SHL DUP2 MSTORE PUSH1 0x20 PUSH1 0x4 DUP3 ADD MSTORE PUSH1 0x1C PUSH1 0x24 DUP3 ADD MSTORE PUSH32 0x4F6E6C79206F7264657220706C616365722063616E2063616E63656C00000000 PUSH1 0x44 DUP3 ADD MSTORE PUSH1 0x64 ADD PUSH2 0x58B JUMP JUMPDEST PUSH2 0x743 DUP7 PUSH1 0x1 PUSH1 0x1 PUSH1 0x60 SHL SUB DUP4 AND PUSH2 0x323E JUMP JUMPDEST SWAP6 POP DUP7 PUSH1 0x1 PUSH1 0x1 PUSH1 0x40 SHL SUB AND DUP12 PUSH1 0x1 PUSH1 0x1 PUSH1 0x40 SHL SUB AND PUSH32 0xD9AECBEDCBD21D1FD8217AA3393AA4411489064ED05BAD6EDA25C6105DE63DA0 DUP5 DUP5 DUP15 DUP11 DUP2 MLOAD DUP2 LT PUSH2 0x78E JUMPI PUSH2 0x78E PUSH2 0x4E03 JUMP JUMPDEST PUSH1 0x20 MUL PUSH1 0x20 ADD ADD MLOAD PUSH1 0x40 MLOAD PUSH2 0x7C4 SWAP4 SWAP3 SWAP2 SWAP1 PUSH1 0x1 PUSH1 0x1 PUSH1 0x60 SHL SUB SWAP4 DUP5 AND DUP2 MSTORE SWAP2 SWAP1 SWAP3 AND PUSH1 0x20 DUP3 ADD MSTORE PUSH1 0x40 DUP2 ADD SWAP2 SWAP1 SWAP2 MSTORE PUSH1 0x60 ADD SWAP1 JUMP JUMPDEST PUSH1 0x40 MLOAD DUP1 SWAP2 SUB SWAP1 LOG3 POP POP POP JUMPDEST POP DUP1 PUSH2 0x7DB DUP2 PUSH2 0x4E2F JUMP JUMPDEST SWAP2 POP POP PUSH2 0x63E JUMP JUMPDEST POP PUSH1 0x1 PUSH1 0x1 PUSH1 0x40 SHL SUB DUP7 AND PUSH1 0x0 SWAP1 DUP2 MSTORE PUSH1 0x65 PUSH1 0x20 MSTORE PUSH1 0x40 SWAP1 KECCAK256 PUSH1 0x8 ADD SLOAD PUSH2 0x850 SWAP1 CALLER SWAP1 PUSH8 0xDE0B6B3A7640000 SWAP1 PUSH2 0x81A SWAP1 DUP6 PUSH2 0x4E4A JUMP JUMPDEST PUSH2 0x824 SWAP2 SWAP1 PUSH2 0x4E69 JUMP JUMPDEST PUSH1 0x1 PUSH1 0x1 PUSH1 0x40 SHL SUB DUP10 AND PUSH1 0x0 SWAP1 DUP2 MSTORE PUSH1 0x65 PUSH1 0x20 MSTORE PUSH1 0x40 SWAP1 KECCAK256 PUSH1 0x2 ADD SLOAD PUSH1 0x1 PUSH1 0x1 PUSH1 0xA0 SHL SUB AND SWAP2 SWAP1 PUSH2 0x324A JUMP JUMPDEST POP POP POP POP POP POP JUMP JUMPDEST PUSH1 0x1 PUSH1 0x1 PUSH1 0x40 SHL SUB DUP6 AND PUSH1 0x0 SWAP1 DUP2 MSTORE PUSH1 0x65 PUSH1 0x20 MSTORE PUSH1 0x40 DUP2 KECCAK256 PUSH1 0x3 ADD SLOAD DUP7 SWAP1 PUSH5 0xFFFFFFFFFF AND TIMESTAMP LT PUSH2 0x8CB JUMPI PUSH1 0x40 MLOAD PUSH3 0x461BCD PUSH1 0xE5 SHL DUP2 MSTORE PUSH1 0x20 PUSH1 0x4 DUP3 ADD MSTORE PUSH1 0x1C PUSH1 0x24 DUP3 ADD MSTORE PUSH32 0x4E6F7420696E206F7264657220706C6163656D656E7420706861736500000000 PUSH1 0x44 DUP3 ADD MSTORE PUSH1 0x64 ADD PUSH2 0x58B JUMP JUMPDEST PUSH1 0x1 PUSH1 0x1 PUSH1 0x40 SHL SUB DUP8 AND PUSH1 0x0 SWAP1 DUP2 MSTORE PUSH1 0x65 PUSH1 0x20 MSTORE PUSH1 0x40 SWAP1 KECCAK256 PUSH1 0x9 ADD SLOAD DUP8 SWAP1 PUSH1 0xFF AND ISZERO DUP1 ISZERO PUSH2 0x91A JUMPI POP PUSH1 0x1 PUSH1 0x1 PUSH1 0x40 SHL SUB DUP2 AND PUSH1 0x0 SWAP1 DUP2 MSTORE PUSH1 0x65 PUSH1 0x20 MSTORE PUSH1 0x40 SWAP1 KECCAK256 PUSH1 0x9 ADD SLOAD PUSH2 0x100 SWAP1 DIV PUSH1 0xFF AND ISZERO JUMPDEST DUP1 ISZERO PUSH2 0x948 JUMPI POP PUSH1 0x1 PUSH1 0x1 PUSH1 0x40 SHL SUB DUP2 AND PUSH1 0x0 SWAP1 DUP2 MSTORE PUSH1 0x65 PUSH1 0x20 MSTORE PUSH1 0x40 SWAP1 KECCAK256 PUSH1 0x9 ADD SLOAD PUSH3 0x10000 SWAP1 DIV PUSH1 0xFF AND ISZERO JUMPDEST PUSH2 0x964 JUMPI PUSH1 0x40 MLOAD PUSH3 0x461BCD PUSH1 0xE5 SHL DUP2 MSTORE PUSH1 0x4 ADD PUSH2 0x58B SWAP1 PUSH2 0x4DCC JUMP JUMPDEST PUSH2 0x971 DUP9 DUP9 DUP9 DUP9 DUP9 PUSH2 0x32B2 JUMP JUMPDEST SWAP3 POP JUMPDEST POP POP SWAP6 SWAP5 POP POP POP POP POP JUMP JUMPDEST PUSH1 0x67 SLOAD PUSH1 0x0 SWAP1 PUSH2 0x9A2 SWAP1 PUSH2 0x99D SWAP1 PUSH1 0x1 PUSH1 0x1 PUSH1 0x40 SHL SUB AND PUSH1 0x1 PUSH2 0x323E JUMP JUMPDEST PUSH2 0x35AF JUMP JUMPDEST PUSH1 0x67 DUP1 SLOAD PUSH8 0xFFFFFFFFFFFFFFFF NOT AND PUSH1 0x1 PUSH1 0x1 PUSH1 0x40 SHL SUB SWAP3 SWAP1 SWAP3 AND SWAP2 DUP3 OR SWAP1 SSTORE PUSH2 0x9CF SWAP1 PUSH1 0x68 SWAP1 DUP5 PUSH2 0x3617 JUMP JUMPDEST PUSH2 0xA11 JUMPI PUSH1 0x40 MLOAD PUSH3 0x461BCD PUSH1 0xE5 SHL DUP2 MSTORE PUSH1 0x20 PUSH1 0x4 DUP3 ADD MSTORE PUSH1 0x13 PUSH1 0x24 DUP3 ADD MSTORE PUSH19 0x5573657220616C726561647920657869737473 PUSH1 0x68 SHL PUSH1 0x44 DUP3 ADD MSTORE PUSH1 0x64 ADD PUSH2 0x58B JUMP JUMPDEST POP PUSH1 0x67 SLOAD PUSH1 0x40 MLOAD PUSH1 0x1 PUSH1 0x1 PUSH1 0x40 SHL SUB SWAP1 SWAP2 AND DUP1 DUP3 MSTORE SWAP1 PUSH1 0x1 PUSH1 0x1 PUSH1 0xA0 SHL SUB DUP4 AND SWAP1 PUSH32 0x6838F67CB358C332087B73DBE769A6C869A5F87225236C16DDA5D0013A77074C SWAP1 PUSH1 0x20 ADD PUSH1 0x40 MLOAD DUP1 SWAP2 SUB SWAP1 LOG2 SWAP2 SWAP1 POP JUMP JUMPDEST PUSH1 0x0 PUSH1 0x1 PUSH1 0x1 PUSH1 0x60 SHL SUB DUP3 AND PUSH2 0xA9D PUSH12 0xFFFFFFFFFFFFFFFFFFFFFFFF PUSH1 0x60 SHL PUSH1 0x60 DUP7 SWAP1 SHL AND PUSH1 0x1 PUSH1 0x1 PUSH1 0xC0 SHL SUB NOT PUSH1 0xC0 DUP9 SWAP1 SHL AND PUSH2 0x4E8B JUMP JUMPDEST PUSH2 0xAA7 SWAP2 SWAP1 PUSH2 0x4E8B JUMP JUMPDEST SWAP1 POP JUMPDEST SWAP4 SWAP3 POP POP POP JUMP JUMPDEST PUSH1 0x1 PUSH1 0x1 PUSH1 0x40 SHL SUB DUP2 AND PUSH1 0x0 SWAP1 DUP2 MSTORE PUSH1 0x65 PUSH1 0x20 MSTORE PUSH1 0x40 SWAP1 KECCAK256 PUSH1 0xA ADD SLOAD PUSH1 0x1 PUSH1 0x1 PUSH1 0xA0 SHL SUB AND CALLER EQ PUSH2 0xB1C JUMPI PUSH1 0x40 MLOAD PUSH3 0x461BCD PUSH1 0xE5 SHL DUP2 MSTORE PUSH1 0x20 PUSH1 0x4 DUP3 ADD MSTORE PUSH1 0x15 PUSH1 0x24 DUP3 ADD MSTORE PUSH21 0x13DB9B1E4813DDDB995C8818D85B8818D85B98D95B PUSH1 0x5A SHL PUSH1 0x44 DUP3 ADD MSTORE PUSH1 0x64 ADD PUSH2 0x58B JUMP JUMPDEST PUSH1 0x1 PUSH1 0x1 PUSH1 0x40 SHL SUB DUP2 AND PUSH1 0x0 SWAP1 DUP2 MSTORE PUSH1 0x65 PUSH1 0x20 MSTORE PUSH1 0x40 SWAP1 KECCAK256 PUSH1 0x9 DUP2 ADD DUP1 SLOAD PUSH3 0xFF0000 NOT AND PUSH3 0x10000 OR SWAP1 SSTORE PUSH1 0xA DUP2 ADD SLOAD PUSH1 0x7 DUP3 ADD SLOAD PUSH1 0x3 SWAP1 SWAP3 ADD SLOAD PUSH2 0xBC2 SWAP3 PUSH1 0x1 PUSH1 0x1 PUSH1 0xA0 SHL SUB SWAP1 SWAP3 AND SWAP2 PUSH8 0xDE0B6B3A7640000 SWAP2 PUSH2 0xB8C SWAP2 SWAP1 PUSH1 0x1 PUSH1 0x1 PUSH1 0x60 SHL SUB PUSH1 0x1 PUSH1 0x28 SHL SWAP1 SWAP2 DIV AND PUSH2 0x4E4A JUMP JUMPDEST PUSH2 0xB96 SWAP2 SWAP1 PUSH2 0x4E69 JUMP JUMPDEST PUSH1 0x1 PUSH1 0x1 PUSH1 0x40 SHL SUB DUP5 AND PUSH1 0x0 SWAP1 DUP2 MSTORE PUSH1 0x65 PUSH1 0x20 MSTORE PUSH1 0x40 SWAP1 KECCAK256 PUSH1 0x1 ADD SLOAD PUSH1 0x1 PUSH1 0x1 PUSH1 0xA0 SHL SUB AND SWAP2 SWAP1 PUSH2 0x324A JUMP JUMPDEST POP JUMP JUMPDEST PUSH1 0x0 PUSH2 0xBD2 PUSH1 0x68 DUP4 PUSH2 0x37CB JUMP JUMPDEST ISZERO PUSH2 0xBE8 JUMPI PUSH2 0xBE2 PUSH1 0x68 DUP4 PUSH2 0x37F5 JUMP JUMPDEST SWAP3 SWAP2 POP POP JUMP JUMPDEST PUSH2 0xBF1 DUP3 PUSH2 0x97F JUMP JUMPDEST SWAP1 POP DUP2 PUSH1 0x1 PUSH1 0x1 PUSH1 0xA0 SHL SUB AND DUP2 PUSH1 0x1 PUSH1 0x1 PUSH1 0x40 SHL SUB AND PUSH32 0x969D438B19B6B5FB3C0D3C6F16867E519FCEC4233799D6BE29D1C00F2045BA26 PUSH1 0x40 MLOAD PUSH1 0x40 MLOAD DUP1 SWAP2 SUB SWAP1 LOG3 JUMPDEST SWAP2 SWAP1 POP JUMP JUMPDEST PUSH2 0xC41 PUSH2 0x387D JUMP JUMPDEST PUSH1 0x1 PUSH1 0x1 PUSH1 0x40 SHL SUB DUP7 AND PUSH1 0x0 DUP2 DUP2 MSTORE PUSH1 0x65 PUSH1 0x20 SWAP1 DUP2 MSTORE PUSH1 0x40 SWAP2 DUP3 SWAP1 KECCAK256 PUSH1 0x2 DUP2 ADD DUP1 SLOAD PUSH1 0x3 DUP4 ADD DUP1 SLOAD PUSH5 0xFFFFFFFFFF NOT AND PUSH5 0xFFFFFFFFFF DUP13 DUP2 AND SWAP2 DUP3 OR SWAP1 SWAP3 SSTORE PUSH10 0xFFFFFFFFFFFFFFFFFFFF PUSH1 0xA0 SHL NOT SWAP1 SWAP3 AND PUSH1 0x1 PUSH1 0xC8 SHL DUP14 DUP4 AND SWAP1 DUP2 MUL PUSH5 0xFFFFFFFFFF PUSH1 0xA0 SHL NOT AND SWAP2 SWAP1 SWAP2 OR PUSH1 0x1 PUSH1 0xA0 SHL SWAP3 DUP13 AND SWAP3 DUP4 MUL OR SWAP1 SWAP4 SSTORE PUSH1 0x5 DUP5 ADD DUP10 SWAP1 SSTORE PUSH1 0x4 SWAP1 SWAP4 ADD DUP8 SWAP1 SSTORE DUP5 MLOAD SWAP2 DUP3 MSTORE SWAP3 DUP2 ADD SWAP3 SWAP1 SWAP3 MSTORE DUP2 DUP4 ADD MSTORE PUSH1 0x60 DUP2 ADD DUP5 SWAP1 MSTORE PUSH1 0x80 DUP2 ADD DUP6 SWAP1 MSTORE SWAP1 MLOAD PUSH32 0x4407DC7A4BD36C6232DA9C99EE7295621D6B255D714A309904E143A4592959BC SWAP2 DUP2 SWAP1 SUB PUSH1 0xA0 ADD SWAP1 LOG2 POP POP POP POP POP POP JUMP JUMPDEST PUSH1 0x1 PUSH1 0x1 PUSH1 0x40 SHL SUB DUP3 AND PUSH1 0x0 SWAP1 DUP2 MSTORE PUSH1 0x65 PUSH1 0x20 MSTORE PUSH1 0x40 SWAP1 KECCAK256 PUSH1 0x3 ADD SLOAD DUP3 SWAP1 PUSH5 0xFFFFFFFFFF AND ISZERO DUP1 ISZERO SWAP1 PUSH2 0xD71 JUMPI POP PUSH1 0x1 PUSH1 0x1 PUSH1 0x40 SHL SUB DUP2 AND PUSH1 0x0 SWAP1 DUP2 MSTORE PUSH1 0x65 PUSH1 0x20 MSTORE PUSH1 0x40 SWAP1 KECCAK256 PUSH1 0x3 ADD SLOAD PUSH5 0xFFFFFFFFFF AND TIMESTAMP LT ISZERO JUMPDEST DUP1 ISZERO PUSH2 0xD96 JUMPI POP PUSH1 0x1 PUSH1 0x1 PUSH1 0x40 SHL SUB DUP2 AND PUSH1 0x0 SWAP1 DUP2 MSTORE PUSH1 0x65 PUSH1 0x20 MSTORE PUSH1 0x40 SWAP1 KECCAK256 PUSH1 0xE ADD SLOAD ISZERO JUMPDEST PUSH2 0xDB2 JUMPI PUSH1 0x40 MLOAD PUSH3 0x461BCD PUSH1 0xE5 SHL DUP2 MSTORE PUSH1 0x4 ADD PUSH2 0x58B SWAP1 PUSH2 0x4EA3 JUMP JUMPDEST PUSH1 0x1 PUSH1 0x1 PUSH1 0x40 SHL SUB DUP2 AND PUSH1 0x0 SWAP1 DUP2 MSTORE PUSH1 0x65 PUSH1 0x20 MSTORE PUSH1 0x40 SWAP1 KECCAK256 PUSH1 0x9 ADD SLOAD PUSH1 0xFF AND ISZERO DUP1 ISZERO PUSH2 0xDFF JUMPI POP PUSH1 0x1 PUSH1 0x1 PUSH1 0x40 SHL SUB DUP2 AND PUSH1 0x0 SWAP1 DUP2 MSTORE PUSH1 0x65 PUSH1 0x20 MSTORE PUSH1 0x40 SWAP1 KECCAK256 PUSH1 0x9 ADD SLOAD PUSH2 0x100 SWAP1 DIV PUSH1 0xFF AND ISZERO JUMPDEST PUSH2 0xE1B JUMPI PUSH1 0x40 MLOAD PUSH3 0x461BCD PUSH1 0xE5 SHL DUP2 MSTORE PUSH1 0x4 ADD PUSH2 0x58B SWAP1 PUSH2 0x4EDA JUMP JUMPDEST PUSH1 0x1 PUSH1 0x1 PUSH1 0x40 SHL SUB DUP4 AND PUSH1 0x0 SWAP1 DUP2 MSTORE PUSH1 0x65 PUSH1 0x20 MSTORE PUSH1 0x40 DUP2 KECCAK256 PUSH1 0xB DUP2 ADD SLOAD PUSH1 0xC DUP3 ADD SLOAD PUSH1 0xD SWAP1 SWAP3 ADD SLOAD SWAP1 SWAP3 JUMPDEST DUP6 DUP2 LT ISZERO PUSH2 0xE9C JUMPI PUSH1 0x1 PUSH1 0x1 PUSH1 0x40 SHL SUB DUP8 AND PUSH1 0x0 SWAP1 DUP2 MSTORE PUSH1 0x66 PUSH1 0x20 MSTORE PUSH1 0x40 SWAP1 KECCAK256 PUSH2 0xE70 SWAP1 DUP4 PUSH2 0x38D7 JUMP JUMPDEST SWAP2 POP DUP2 PUSH2 0xE86 DUP5 PUSH1 0x1 PUSH1 0x1 PUSH1 0x60 SHL SUB DUP4 AND PUSH2 0x323E JUMP JUMPDEST SWAP4 POP POP DUP1 DUP1 PUSH2 0xE94 SWAP1 PUSH2 0x4E2F JUMP JUMPDEST SWAP2 POP POP PUSH2 0xE46 JUMP JUMPDEST POP PUSH1 0x2 PUSH1 0x1 PUSH1 0x60 SHL SUB NOT DUP2 EQ ISZERO PUSH2 0xEE3 JUMPI PUSH1 0x40 MLOAD PUSH3 0x461BCD PUSH1 0xE5 SHL DUP2 MSTORE PUSH1 0x20 PUSH1 0x4 DUP3 ADD MSTORE PUSH1 0xB PUSH1 0x24 DUP3 ADD MSTORE PUSH11 0x14995858DA195908195B99 PUSH1 0xAA SHL PUSH1 0x44 DUP3 ADD MSTORE PUSH1 0x64 ADD PUSH2 0x58B JUMP JUMPDEST PUSH1 0x60 DUP2 SWAP1 SHR DUP2 PUSH2 0xEFF PUSH1 0x1 PUSH1 0x1 PUSH1 0x60 SHL SUB DUP7 DUP2 AND SWAP1 DUP4 AND PUSH2 0x39AB JUMP JUMPDEST PUSH2 0xF12 DUP6 PUSH1 0x1 PUSH1 0x1 PUSH1 0x60 SHL SUB DUP6 AND PUSH2 0x39AB JUMP JUMPDEST LT PUSH2 0xF51 JUMPI PUSH1 0x40 MLOAD PUSH3 0x461BCD PUSH1 0xE5 SHL DUP2 MSTORE PUSH1 0x20 PUSH1 0x4 DUP3 ADD MSTORE PUSH1 0xF PUSH1 0x24 DUP3 ADD MSTORE PUSH15 0x546F6F206D616E79206F7264657273 PUSH1 0x88 SHL PUSH1 0x44 DUP3 ADD MSTORE PUSH1 0x64 ADD PUSH2 0x58B JUMP JUMPDEST POP POP PUSH1 0x1 PUSH1 0x1 PUSH1 0x40 SHL SUB SWAP1 SWAP6 AND PUSH1 0x0 SWAP1 DUP2 MSTORE PUSH1 0x65 PUSH1 0x20 MSTORE PUSH1 0x40 SWAP1 KECCAK256 PUSH1 0xC DUP2 ADD SWAP2 SWAP1 SWAP2 SSTORE PUSH1 0xD ADD SWAP4 SWAP1 SWAP4 SSTORE POP POP POP JUMP JUMPDEST PUSH1 0x1 PUSH1 0x1 PUSH1 0x40 SHL SUB DUP2 AND PUSH1 0x0 SWAP1 DUP2 MSTORE PUSH1 0x65 PUSH1 0x20 MSTORE PUSH1 0x40 DUP2 KECCAK256 PUSH1 0x3 ADD SLOAD DUP3 SWAP1 PUSH5 0xFFFFFFFFFF AND ISZERO DUP1 ISZERO SWAP1 PUSH2 0xFD5 JUMPI POP PUSH1 0x1 PUSH1 0x1 PUSH1 0x40 SHL SUB DUP2 AND PUSH1 0x0 SWAP1 DUP2 MSTORE PUSH1 0x65 PUSH1 0x20 MSTORE PUSH1 0x40 SWAP1 KECCAK256 PUSH1 0x3 ADD SLOAD PUSH5 0xFFFFFFFFFF AND TIMESTAMP LT ISZERO JUMPDEST DUP1 ISZERO PUSH2 0xFFA JUMPI POP PUSH1 0x1 PUSH1 0x1 PUSH1 0x40 SHL SUB DUP2 AND PUSH1 0x0 SWAP1 DUP2 MSTORE PUSH1 0x65 PUSH1 0x20 MSTORE PUSH1 0x40 SWAP1 KECCAK256 PUSH1 0xE ADD SLOAD ISZERO JUMPDEST PUSH2 0x1016 JUMPI PUSH1 0x40 MLOAD PUSH3 0x461BCD PUSH1 0xE5 SHL DUP2 MSTORE PUSH1 0x4 ADD PUSH2 0x58B SWAP1 PUSH2 0x4EA3 JUMP JUMPDEST PUSH1 0x1 PUSH1 0x1 PUSH1 0x40 SHL SUB DUP2 AND PUSH1 0x0 SWAP1 DUP2 MSTORE PUSH1 0x65 PUSH1 0x20 MSTORE PUSH1 0x40 SWAP1 KECCAK256 PUSH1 0x9 ADD SLOAD PUSH1 0xFF AND ISZERO DUP1 ISZERO PUSH2 0x1063 JUMPI POP PUSH1 0x1 PUSH1 0x1 PUSH1 0x40 SHL SUB DUP2 AND PUSH1 0x0 SWAP1 DUP2 MSTORE PUSH1 0x65 PUSH1 0x20 MSTORE PUSH1 0x40 SWAP1 KECCAK256 PUSH1 0x9 ADD SLOAD PUSH2 0x100 SWAP1 DIV PUSH1 0xFF AND ISZERO JUMPDEST PUSH2 0x107F JUMPI PUSH1 0x40 MLOAD PUSH3 0x461BCD PUSH1 0xE5 SHL DUP2 MSTORE PUSH1 0x4 ADD PUSH2 0x58B SWAP1 PUSH2 0x4EDA JUMP JUMPDEST PUSH1 0x1 PUSH1 0x1 PUSH1 0x40 SHL SUB DUP4 AND PUSH1 0x0 SWAP1 DUP2 MSTORE PUSH1 0x65 PUSH1 0x20 MSTORE PUSH1 0x40 DUP2 KECCAK256 PUSH1 0xB DUP2 ADD SLOAD PUSH1 0xC DUP3 ADD SLOAD PUSH1 0xD SWAP1 SWAP3 ADD SLOAD PUSH1 0xC0 DUP3 SWAP1 SHR SWAP4 PUSH1 0x60 DUP4 SWAP1 SHR SWAP4 SWAP2 SWAP1 DUP1 DUP5 JUMPDEST PUSH1 0x1 PUSH1 0x1 PUSH1 0x40 SHL SUB DUP12 AND PUSH1 0x0 SWAP1 DUP2 MSTORE PUSH1 0x66 PUSH1 0x20 MSTORE PUSH1 0x40 DUP2 KECCAK256 PUSH2 0x10DA SWAP1 DUP7 PUSH2 0x38D7 JUMP JUMPDEST SWAP1 POP PUSH1 0x2 PUSH1 0x1 PUSH1 0x60 SHL SUB NOT DUP2 EQ ISZERO PUSH2 0x10F2 JUMPI POP PUSH2 0x113B JUMP JUMPDEST SWAP4 POP PUSH1 0x1 PUSH1 0x1 PUSH1 0x60 SHL SUB PUSH1 0x60 DUP6 SWAP1 SHR DUP2 AND SWAP4 POP DUP5 AND SWAP2 POP DUP4 PUSH2 0x1114 DUP7 DUP5 PUSH2 0x323E JUMP JUMPDEST SWAP6 POP PUSH2 0x112B SWAP1 POP PUSH1 0x1 PUSH1 0x1 PUSH1 0x60 SHL SUB DUP8 AND DUP4 PUSH2 0x39AB JUMP JUMPDEST PUSH2 0x1135 DUP7 DUP6 PUSH2 0x39AB JUMP JUMPDEST LT PUSH2 0x10B8 JUMPI JUMPDEST PUSH1 0x0 DUP6 GT DUP1 ISZERO PUSH2 0x1166 JUMPI POP PUSH2 0x1159 PUSH1 0x1 PUSH1 0x1 PUSH1 0x60 SHL SUB DUP8 AND DUP4 PUSH2 0x39AB JUMP JUMPDEST PUSH2 0x1163 DUP7 DUP6 PUSH2 0x39AB JUMP JUMPDEST LT ISZERO JUMPDEST ISZERO PUSH2 0x122B JUMPI PUSH1 0x0 PUSH2 0x1194 PUSH2 0x118D DUP6 PUSH2 0x1187 PUSH1 0x1 PUSH1 0x1 PUSH1 0x60 SHL SUB DUP12 AND DUP8 PUSH2 0x39AB JUMP JUMPDEST SWAP1 PUSH2 0x39B7 JUMP JUMPDEST DUP8 SWAP1 PUSH2 0x39C3 JUMP JUMPDEST SWAP1 POP DUP1 DUP4 LT PUSH2 0x1207 JUMPI PUSH1 0x0 PUSH2 0x11A9 DUP5 DUP4 PUSH2 0x39C3 JUMP JUMPDEST SWAP1 POP PUSH2 0x11B4 DUP2 PUSH2 0x39CF JUMP JUMPDEST PUSH1 0x1 PUSH1 0x1 PUSH1 0x40 SHL SUB DUP15 AND PUSH1 0x0 SWAP1 DUP2 MSTORE PUSH1 0x65 PUSH1 0x20 MSTORE PUSH1 0x40 SWAP1 KECCAK256 PUSH1 0xF ADD DUP1 SLOAD PUSH12 0xFFFFFFFFFFFFFFFFFFFFFFFF NOT AND PUSH1 0x1 PUSH1 0x1 PUSH1 0x60 SHL SUB SWAP3 SWAP1 SWAP3 AND SWAP2 SWAP1 SWAP2 OR SWAP1 SSTORE PUSH2 0x11FC DUP8 DUP4 PUSH2 0x39C3 JUMP JUMPDEST SWAP7 POP DUP6 SWAP12 POP POP PUSH2 0x1225 JUMP JUMPDEST PUSH2 0x1211 DUP7 DUP5 PUSH2 0x39C3 JUMP JUMPDEST SWAP6 POP PUSH2 0x1222 PUSH1 0x0 DUP9 PUSH2 0x279 DUP10 PUSH2 0x39CF JUMP JUMPDEST SWAP11 POP JUMPDEST POP PUSH2 0x1294 JUMP JUMPDEST DUP7 PUSH1 0x1 PUSH1 0x1 PUSH1 0x60 SHL SUB AND DUP6 GT ISZERO PUSH2 0x1252 JUMPI PUSH2 0x124B PUSH1 0x0 DUP8 PUSH2 0x279 DUP9 PUSH2 0x39CF JUMP JUMPDEST SWAP10 POP PUSH2 0x1294 JUMP JUMPDEST PUSH2 0x125E PUSH1 0x0 DUP8 DUP10 PUSH2 0xA64 JUMP JUMPDEST SWAP10 POP PUSH2 0x1291 PUSH2 0x128C DUP9 PUSH1 0x1 PUSH1 0x1 PUSH1 0x60 SHL SUB AND PUSH2 0x1187 DUP10 PUSH1 0x1 PUSH1 0x1 PUSH1 0x60 SHL SUB AND DUP10 PUSH2 0x39AB SWAP1 SWAP2 SWAP1 PUSH4 0xFFFFFFFF AND JUMP JUMPDEST PUSH2 0x39CF JUMP JUMPDEST SWAP1 POP JUMPDEST PUSH1 0x1 PUSH1 0x1 PUSH1 0x40 SHL SUB DUP12 AND PUSH1 0x0 SWAP1 DUP2 MSTORE PUSH1 0x65 PUSH1 0x20 MSTORE PUSH1 0x40 SWAP1 KECCAK256 PUSH1 0xE DUP2 ADD DUP12 SWAP1 SSTORE PUSH1 0x5 ADD SLOAD DUP6 LT ISZERO PUSH2 0x12EB JUMPI PUSH1 0x1 PUSH1 0x1 PUSH1 0x40 SHL SUB DUP12 AND PUSH1 0x0 SWAP1 DUP2 MSTORE PUSH1 0x65 PUSH1 0x20 MSTORE PUSH1 0x40 SWAP1 KECCAK256 PUSH1 0x9 ADD DUP1 SLOAD PUSH4 0xFF000000 NOT AND PUSH4 0x1000000 OR SWAP1 SSTORE JUMPDEST PUSH2 0x1300 DUP12 DUP3 PUSH1 0x1 PUSH1 0x1 PUSH1 0x60 SHL SUB AND DUP11 DUP10 PUSH2 0x3A33 JUMP JUMPDEST PUSH1 0x40 DUP1 MLOAD PUSH1 0x1 PUSH1 0x1 PUSH1 0x60 SHL SUB DUP1 DUP5 AND DUP3 MSTORE DUP8 AND PUSH1 0x20 DUP3 ADD MSTORE SWAP1 DUP2 ADD DUP12 SWAP1 MSTORE PUSH1 0x1 PUSH1 0x1 PUSH1 0x40 SHL SUB DUP13 AND SWAP1 PUSH32 0xCAA63BE930FC54C8A55DB93B269209878F7027ABB93692A515C9DC483C5BF31D SWAP1 PUSH1 0x60 ADD PUSH1 0x40 MLOAD DUP1 SWAP2 SUB SWAP1 LOG2 POP POP POP PUSH1 0x1 PUSH1 0x1 PUSH1 0x40 SHL SUB SWAP1 SWAP8 AND PUSH1 0x0 SWAP1 DUP2 MSTORE PUSH1 0x65 PUSH1 0x20 MSTORE PUSH1 0x40 DUP2 KECCAK256 PUSH1 0xB DUP2 ADD DUP3 SWAP1 SSTORE PUSH1 0xD DUP2 ADD DUP3 SWAP1 SSTORE PUSH1 0xC DUP2 ADD DUP3 SWAP1 SSTORE PUSH1 0x4 ADD SSTORE POP SWAP4 SWAP6 SWAP5 POP POP POP POP POP JUMP JUMPDEST PUSH1 0x1 PUSH1 0x1 PUSH1 0x40 SHL SUB DUP5 AND PUSH1 0x0 SWAP1 DUP2 MSTORE PUSH1 0x65 PUSH1 0x20 MSTORE PUSH1 0x40 SWAP1 KECCAK256 PUSH1 0x3 ADD SLOAD DUP5 SWAP1 PUSH5 0xFFFFFFFFFF AND ISZERO DUP1 ISZERO SWAP1 PUSH2 0x13EB JUMPI POP PUSH1 0x1 PUSH1 0x1 PUSH1 0x40 SHL SUB DUP2 AND PUSH1 0x0 SWAP1 DUP2 MSTORE PUSH1 0x65 PUSH1 0x20 MSTORE PUSH1 0x40 SWAP1 KECCAK256 PUSH1 0x3 ADD SLOAD PUSH5 0xFFFFFFFFFF AND TIMESTAMP LT ISZERO JUMPDEST DUP1 ISZERO PUSH2 0x1410 JUMPI POP PUSH1 0x1 PUSH1 0x1 PUSH1 0x40 SHL SUB DUP2 AND PUSH1 0x0 SWAP1 DUP2 MSTORE PUSH1 0x65 PUSH1 0x20 MSTORE PUSH1 0x40 SWAP1 KECCAK256 PUSH1 0xE ADD SLOAD ISZERO JUMPDEST PUSH2 0x142C JUMPI PUSH1 0x40 MLOAD PUSH3 0x461BCD PUSH1 0xE5 SHL DUP2 MSTORE PUSH1 0x4 ADD PUSH2 0x58B SWAP1 PUSH2 0x4EA3 JUMP JUMPDEST PUSH1 0x1 PUSH1 0x1 PUSH1 0x40 SHL SUB DUP2 AND PUSH1 0x0 SWAP1 DUP2 MSTORE PUSH1 0x65 PUSH1 0x20 MSTORE PUSH1 0x40 SWAP1 KECCAK256 PUSH1 0x9 ADD SLOAD PUSH1 0xFF AND ISZERO DUP1 ISZERO PUSH2 0x1479 JUMPI POP PUSH1 0x1 PUSH1 0x1 PUSH1 0x40 SHL SUB DUP2 AND PUSH1 0x0 SWAP1 DUP2 MSTORE PUSH1 0x65 PUSH1 0x20 MSTORE PUSH1 0x40 SWAP1 KECCAK256 PUSH1 0x9 ADD SLOAD PUSH2 0x100 SWAP1 DIV PUSH1 0xFF AND ISZERO JUMPDEST PUSH2 0x1495 JUMPI PUSH1 0x40 MLOAD PUSH3 0x461BCD PUSH1 0xE5 SHL DUP2 MSTORE PUSH1 0x4 ADD PUSH2 0x58B SWAP1 PUSH2 0x4EDA JUMP JUMPDEST PUSH1 0x1 PUSH1 0x1 PUSH1 0x40 SHL SUB DUP6 AND PUSH1 0x0 SWAP1 DUP2 MSTORE PUSH1 0x65 PUSH1 0x20 MSTORE PUSH1 0x40 SWAP1 KECCAK256 PUSH1 0x6 ADD SLOAD PUSH1 0xFF AND PUSH2 0x14F9 JUMPI PUSH1 0x40 MLOAD PUSH3 0x461BCD PUSH1 0xE5 SHL DUP2 MSTORE PUSH1 0x20 PUSH1 0x4 DUP3 ADD MSTORE PUSH1 0x16 PUSH1 0x24 DUP3 ADD MSTORE PUSH22 0x139BDD08185D5D1BDCD95D1D1B1948185B1B1BDDD959 PUSH1 0x52 SHL PUSH1 0x44 DUP3 ADD MSTORE PUSH1 0x64 ADD PUSH2 0x58B JUMP JUMPDEST DUP4 MLOAD PUSH1 0x1 EQ DUP1 ISZERO PUSH2 0x150B JUMPI POP DUP3 MLOAD PUSH1 0x1 EQ JUMPDEST PUSH2 0x154E JUMPI PUSH1 0x40 MLOAD PUSH3 0x461BCD PUSH1 0xE5 SHL DUP2 MSTORE PUSH1 0x20 PUSH1 0x4 DUP3 ADD MSTORE PUSH1 0x14 PUSH1 0x24 DUP3 ADD MSTORE PUSH20 0x4D6F7265207468616E206F6E65206F7264657273 PUSH1 0x60 SHL PUSH1 0x44 DUP3 ADD MSTORE PUSH1 0x64 ADD PUSH2 0x58B JUMP JUMPDEST PUSH1 0x0 PUSH2 0x1559 CALLER PUSH2 0xBC5 JUMP JUMPDEST SWAP1 POP PUSH2 0x15BF PUSH2 0x159D DUP3 DUP8 PUSH1 0x0 DUP2 MLOAD DUP2 LT PUSH2 0x1575 JUMPI PUSH2 0x1575 PUSH2 0x4E03 JUMP JUMPDEST PUSH1 0x20 MUL PUSH1 0x20 ADD ADD MLOAD DUP8 PUSH1 0x0 DUP2 MLOAD DUP2 LT PUSH2 0x1590 JUMPI PUSH2 0x1590 PUSH2 0x4E03 JUMP JUMPDEST PUSH1 0x20 MUL PUSH1 0x20 ADD ADD MLOAD PUSH2 0xA64 JUMP JUMPDEST PUSH1 0x1 PUSH1 0x1 PUSH1 0x40 SHL SUB DUP9 AND PUSH1 0x0 SWAP1 DUP2 MSTORE PUSH1 0x65 PUSH1 0x20 MSTORE PUSH1 0x40 SWAP1 KECCAK256 PUSH1 0xD ADD SLOAD SWAP1 PUSH2 0x3B8E JUMP JUMPDEST PUSH2 0x160B JUMPI PUSH1 0x40 MLOAD PUSH3 0x461BCD PUSH1 0xE5 SHL DUP2 MSTORE PUSH1 0x20 PUSH1 0x4 DUP3 ADD MSTORE PUSH1 0x1C PUSH1 0x24 DUP3 ADD MSTORE PUSH32 0x6F72646572206C6573737468616E20696E746572696D206F7264657200000000 PUSH1 0x44 DUP3 ADD MSTORE PUSH1 0x64 ADD PUSH2 0x58B JUMP JUMPDEST PUSH2 0x1618 DUP7 DUP7 DUP7 DUP7 CALLER PUSH2 0x32B2 JUMP JUMPDEST POP PUSH2 0x1622 DUP7 PUSH2 0xF80 JUMP JUMPDEST POP POP POP POP POP POP POP JUMP JUMPDEST PUSH2 0x1633 PUSH2 0x387D JUMP JUMPDEST PUSH1 0xF DUP3 GT ISZERO PUSH2 0x167B JUMPI PUSH1 0x40 MLOAD PUSH3 0x461BCD PUSH1 0xE5 SHL DUP2 MSTORE PUSH1 0x20 PUSH1 0x4 DUP3 ADD MSTORE PUSH1 0x14 PUSH1 0x24 DUP3 ADD MSTORE PUSH20 0x4665652063616E2774206265203E20312E352025 PUSH1 0x60 SHL PUSH1 0x44 DUP3 ADD MSTORE PUSH1 0x64 ADD PUSH2 0x58B JUMP JUMPDEST PUSH2 0x1684 DUP2 PUSH2 0xBC5 JUMP JUMPDEST PUSH1 0x6A DUP1 SLOAD PUSH8 0xFFFFFFFFFFFFFFFF NOT AND PUSH1 0x1 PUSH1 0x1 PUSH1 0x40 SHL SUB SWAP3 SWAP1 SWAP3 AND SWAP2 SWAP1 SWAP2 OR SWAP1 SSTORE POP PUSH1 0x6B SSTORE JUMP JUMPDEST PUSH1 0x1 PUSH1 0x1 PUSH1 0x40 SHL SUB DUP3 AND PUSH1 0x0 SWAP1 DUP2 MSTORE PUSH1 0x65 PUSH1 0x20 MSTORE PUSH1 0x40 SWAP1 KECCAK256 PUSH1 0xA ADD SLOAD PUSH1 0x1 PUSH1 0x1 PUSH1 0xA0 SHL SUB AND CALLER EQ PUSH2 0x171E JUMPI PUSH1 0x40 MLOAD PUSH3 0x461BCD PUSH1 0xE5 SHL DUP2 MSTORE PUSH1 0x20 PUSH1 0x4 DUP3 ADD MSTORE PUSH1 0x1A PUSH1 0x24 DUP3 ADD MSTORE PUSH32 0x706F6F6C206F776E6572206F6E6C792063616E20757064617465000000000000 PUSH1 0x44 DUP3 ADD MSTORE PUSH1 0x64 ADD PUSH2 0x58B JUMP JUMPDEST PUSH1 0x1 PUSH1 0x1 PUSH1 0x40 SHL SUB DUP3 AND PUSH1 0x0 SWAP1 DUP2 MSTORE PUSH1 0x65 PUSH1 0x20 SWAP1 DUP2 MSTORE PUSH1 0x40 SWAP1 SWAP2 KECCAK256 DUP3 MLOAD PUSH2 0x1747 SWAP3 DUP5 ADD SWAP1 PUSH2 0x44C3 JUMP JUMPDEST POP DUP2 PUSH1 0x1 PUSH1 0x1 PUSH1 0x40 SHL SUB AND PUSH32 0xB03F287EF824B12C231CF3B9B3D8756A68E0EDA11532714BB5B0C69AFAC327BA DUP3 PUSH1 0x40 MLOAD PUSH2 0x1781 SWAP2 SWAP1 PUSH2 0x4DB9 JUMP JUMPDEST PUSH1 0x40 MLOAD DUP1 SWAP2 SUB SWAP1 LOG2 POP POP JUMP JUMPDEST PUSH1 0x1 PUSH1 0x1 PUSH1 0x40 SHL SUB DUP3 AND PUSH1 0x0 SWAP1 DUP2 MSTORE PUSH1 0x66 PUSH1 0x20 MSTORE PUSH1 0x40 DUP2 KECCAK256 PUSH2 0xAAA SWAP1 DUP4 PUSH2 0x3D2B JUMP JUMPDEST PUSH2 0x17B7 PUSH2 0x387D JUMP JUMPDEST PUSH2 0x17C1 PUSH1 0x0 PUSH2 0x3D54 JUMP JUMPDEST JUMP JUMPDEST PUSH1 0x1 PUSH1 0x1 PUSH1 0x40 SHL SUB DUP3 AND PUSH1 0x0 SWAP1 DUP2 MSTORE PUSH1 0x65 PUSH1 0x20 MSTORE PUSH1 0x40 SWAP1 KECCAK256 PUSH1 0x9 ADD SLOAD DUP3 SWAP1 PUSH1 0xFF AND DUP1 PUSH2 0x180F JUMPI POP PUSH1 0x1 PUSH1 0x1 PUSH1 0x40 SHL SUB DUP2 AND PUSH1 0x0 SWAP1 DUP2 MSTORE PUSH1 0x65 PUSH1 0x20 MSTORE PUSH1 0x40 SWAP1 KECCAK256 PUSH1 0x9 ADD SLOAD PUSH2 0x100 SWAP1 DIV PUSH1 0xFF AND JUMPDEST PUSH2 0x185B JUMPI PUSH1 0x40 MLOAD PUSH3 0x461BCD PUSH1 0xE5 SHL DUP2 MSTORE PUSH1 0x20 PUSH1 0x4 DUP3 ADD MSTORE PUSH1 0x1B PUSH1 0x24 DUP3 ADD MSTORE PUSH32 0x506F6F6C206E6F74205363616D6D6564206F722044656C657465640000000000 PUSH1 0x44 DUP3 ADD MSTORE PUSH1 0x64 ADD PUSH2 0x58B JUMP JUMPDEST PUSH1 0x1 PUSH1 0x1 PUSH1 0x40 SHL SUB DUP4 AND PUSH1 0x0 SWAP1 DUP2 MSTORE PUSH1 0x66 PUSH1 0x20 MSTORE PUSH1 0x40 SWAP1 KECCAK256 PUSH2 0x187D SWAP1 DUP4 PUSH2 0x3DA6 JUMP JUMPDEST PUSH2 0x18C0 JUMPI PUSH1 0x40 MLOAD PUSH3 0x461BCD PUSH1 0xE5 SHL DUP2 MSTORE PUSH1 0x20 PUSH1 0x4 DUP3 ADD MSTORE PUSH1 0x14 PUSH1 0x24 DUP3 ADD MSTORE PUSH20 0x4F72646572206E6F7420726566756E6461626C65 PUSH1 0x60 SHL PUSH1 0x44 DUP3 ADD MSTORE PUSH1 0x64 ADD PUSH2 0x58B JUMP JUMPDEST PUSH1 0x0 PUSH2 0x18CB CALLER PUSH2 0xBC5 JUMP JUMPDEST SWAP1 POP PUSH1 0xC0 DUP4 SWAP1 SHR PUSH1 0x60 DUP5 SWAP1 SHR DUP5 PUSH1 0x1 PUSH1 0x1 PUSH1 0x40 SHL SUB DUP5 AND DUP4 EQ PUSH2 0x1923 JUMPI PUSH1 0x40 MLOAD PUSH3 0x461BCD PUSH1 0xE5 SHL DUP2 MSTORE PUSH1 0x20 PUSH1 0x4 DUP3 ADD MSTORE PUSH1 0x10 PUSH1 0x24 DUP3 ADD MSTORE PUSH16 0x2737BA1027B93232B910283630B1B2B9 PUSH1 0x81 SHL PUSH1 0x44 DUP3 ADD MSTORE PUSH1 0x64 ADD PUSH2 0x58B JUMP JUMPDEST PUSH1 0x1 PUSH1 0x1 PUSH1 0x40 SHL SUB DUP8 AND PUSH1 0x0 SWAP1 DUP2 MSTORE PUSH1 0x65 PUSH1 0x20 MSTORE PUSH1 0x40 SWAP1 KECCAK256 PUSH1 0x8 ADD SLOAD PUSH2 0x1998 SWAP1 CALLER SWAP1 PUSH8 0xDE0B6B3A7640000 SWAP1 PUSH2 0x1962 SWAP1 PUSH1 0x1 PUSH1 0x1 PUSH1 0x60 SHL SUB DUP7 AND PUSH2 0x4E4A JUMP JUMPDEST PUSH2 0x196C SWAP2 SWAP1 PUSH2 0x4E69 JUMP JUMPDEST PUSH1 0x1 PUSH1 0x1 PUSH1 0x40 SHL SUB DUP11 AND PUSH1 0x0 SWAP1 DUP2 MSTORE PUSH1 0x65 PUSH1 0x20 MSTORE PUSH1 0x40 SWAP1 KECCAK256 PUSH1 0x2 ADD SLOAD PUSH1 0x1 PUSH1 0x1 PUSH1 0xA0 SHL SUB AND SWAP2 SWAP1 PUSH2 0x324A JUMP JUMPDEST PUSH1 0x40 DUP1 MLOAD PUSH1 0x1 PUSH1 0x1 PUSH1 0x60 SHL SUB DUP1 DUP6 AND DUP3 MSTORE DUP4 AND PUSH1 0x20 DUP3 ADD MSTORE SWAP1 DUP2 ADD DUP8 SWAP1 MSTORE PUSH1 0x1 PUSH1 0x1 PUSH1 0x40 SHL SUB DUP1 DUP7 AND SWAP2 SWAP1 DUP10 AND SWAP1 PUSH32 0xF991E538154C5AD2EFF925762E4A8E269C611939C2C8460211BC8E402D026396 SWAP1 PUSH1 0x60 ADD PUSH1 0x40 MLOAD DUP1 SWAP2 SUB SWAP1 LOG3 POP POP POP POP POP POP POP JUMP JUMPDEST PUSH1 0x0 DUP1 PUSH2 0x1A3E PUSH2 0x3E8 PUSH2 0x1187 PUSH2 0x1A1F PUSH1 0x6B SLOAD PUSH2 0x3E8 PUSH2 0x323E SWAP1 SWAP2 SWAP1 PUSH4 0xFFFFFFFF AND JUMP JUMPDEST PUSH2 0x1A2F PUSH1 0xE0 DUP9 ADD PUSH1 0xC0 DUP10 ADD PUSH2 0x4F06 JUMP JUMPDEST PUSH1 0x1 PUSH1 0x1 PUSH1 0x60 SHL SUB AND SWAP1 PUSH2 0x39AB JUMP JUMPDEST SWAP1 POP PUSH8 0xDE0B6B3A7640000 PUSH2 0x1A58 PUSH2 0x160 DUP6 ADD CALLDATALOAD DUP4 PUSH2 0x4E4A JUMP JUMPDEST PUSH2 0x1A62 SWAP2 SWAP1 PUSH2 0x4E69 JUMP JUMPDEST SWAP1 POP DUP1 PUSH2 0x1A75 PUSH1 0x40 DUP6 ADD PUSH1 0x20 DUP7 ADD PUSH2 0x47EF JUMP JUMPDEST PUSH1 0x40 MLOAD PUSH4 0x70A08231 PUSH1 0xE0 SHL DUP2 MSTORE CALLER PUSH1 0x4 DUP3 ADD MSTORE PUSH1 0x1 PUSH1 0x1 PUSH1 0xA0 SHL SUB SWAP2 SWAP1 SWAP2 AND SWAP1 PUSH4 0x70A08231 SWAP1 PUSH1 0x24 ADD PUSH1 0x20 PUSH1 0x40 MLOAD DUP1 DUP4 SUB DUP2 DUP7 DUP1 EXTCODESIZE ISZERO DUP1 ISZERO PUSH2 0x1AB6 JUMPI PUSH1 0x0 DUP1 REVERT JUMPDEST POP GAS STATICCALL ISZERO DUP1 ISZERO PUSH2 0x1ACA JUMPI RETURNDATASIZE PUSH1 0x0 DUP1 RETURNDATACOPY RETURNDATASIZE PUSH1 0x0 REVERT JUMPDEST POP POP POP POP PUSH1 0x40 MLOAD RETURNDATASIZE PUSH1 0x1F NOT PUSH1 0x1F DUP3 ADD AND DUP3 ADD DUP1 PUSH1 0x40 MSTORE POP DUP2 ADD SWAP1 PUSH2 0x1AEE SWAP2 SWAP1 PUSH2 0x4F2C JUMP JUMPDEST LT ISZERO PUSH2 0x1B31 JUMPI PUSH1 0x40 MLOAD PUSH3 0x461BCD PUSH1 0xE5 SHL DUP2 MSTORE PUSH1 0x20 PUSH1 0x4 DUP3 ADD MSTORE PUSH1 0x12 PUSH1 0x24 DUP3 ADD MSTORE PUSH18 0x4E6F7420656E6F7567682062616C616E6365 PUSH1 0x70 SHL PUSH1 0x44 DUP3 ADD MSTORE PUSH1 0x64 ADD PUSH2 0x58B JUMP JUMPDEST PUSH2 0x1B41 PUSH1 0xA0 DUP5 ADD PUSH1 0x80 DUP6 ADD PUSH2 0x4F45 JUMP JUMPDEST PUSH5 0xFFFFFFFFFF AND TIMESTAMP LT DUP1 ISZERO PUSH2 0x1B81 JUMPI POP PUSH2 0x1B61 PUSH1 0xC0 DUP5 ADD PUSH1 0xA0 DUP6 ADD PUSH2 0x4F45 JUMP JUMPDEST PUSH5 0xFFFFFFFFFF AND PUSH2 0x1B78 PUSH1 0xA0 DUP6 ADD PUSH1 0x80 DUP7 ADD PUSH2 0x4F45 JUMP JUMPDEST PUSH5 0xFFFFFFFFFF AND LT JUMPDEST DUP1 ISZERO PUSH2 0x1BB9 JUMPI POP PUSH2 0x1B98 PUSH1 0xC0 DUP5 ADD PUSH1 0xA0 DUP6 ADD PUSH2 0x4F45 JUMP JUMPDEST PUSH5 0xFFFFFFFFFF AND PUSH2 0x1BAF PUSH1 0x80 DUP6 ADD PUSH1 0x60 DUP7 ADD PUSH2 0x4F45 JUMP JUMPDEST PUSH5 0xFFFFFFFFFF AND GT ISZERO JUMPDEST DUP1 ISZERO PUSH2 0x1BDA JUMPI POP TIMESTAMP PUSH2 0x1BD1 PUSH1 0xC0 DUP6 ADD PUSH1 0xA0 DUP7 ADD PUSH2 0x4F45 JUMP JUMPDEST PUSH5 0xFFFFFFFFFF AND GT JUMPDEST PUSH2 0x1C26 JUMPI PUSH1 0x40 MLOAD PUSH3 0x461BCD PUSH1 0xE5 SHL DUP2 MSTORE PUSH1 0x20 PUSH1 0x4 DUP3 ADD MSTORE PUSH1 0x1D PUSH1 0x24 DUP3 ADD MSTORE PUSH32 0x44617465206E6F7420636F6E6669677572656420636F72726563746C79000000 PUSH1 0x44 DUP3 ADD MSTORE PUSH1 0x64 ADD PUSH2 0x58B JUMP JUMPDEST PUSH1 0x0 PUSH2 0x1C38 PUSH1 0xE0 DUP6 ADD PUSH1 0xC0 DUP7 ADD PUSH2 0x4F06 JUMP JUMPDEST PUSH1 0x1 PUSH1 0x1 PUSH1 0x60 SHL SUB AND GT DUP1 ISZERO PUSH2 0x1C67 JUMPI POP PUSH1 0x0 PUSH2 0x1C5C PUSH2 0x100 DUP6 ADD PUSH1 0xE0 DUP7 ADD PUSH2 0x4F06 JUMP JUMPDEST PUSH1 0x1 PUSH1 0x1 PUSH1 0x60 SHL SUB AND GT JUMPDEST DUP1 ISZERO PUSH2 0x1C78 JUMPI POP PUSH1 0x0 DUP4 PUSH2 0x100 ADD CALLDATALOAD GT JUMPDEST PUSH2 0x1CBC JUMPI PUSH1 0x40 MLOAD PUSH3 0x461BCD PUSH1 0xE5 SHL DUP2 MSTORE PUSH1 0x20 PUSH1 0x4 DUP3 ADD MSTORE PUSH1 0x15 PUSH1 0x24 DUP3 ADD MSTORE PUSH21 0x416D6D6F756E742063616E2774206265207A65726F PUSH1 0x58 SHL PUSH1 0x44 DUP3 ADD MSTORE PUSH1 0x64 ADD PUSH2 0x58B JUMP JUMPDEST PUSH2 0x1CE3 CALLER ADDRESS DUP4 PUSH2 0x1CD2 PUSH1 0x40 DUP9 ADD PUSH1 0x20 DUP10 ADD PUSH2 0x47EF JUMP JUMPDEST PUSH1 0x1 PUSH1 0x1 PUSH1 0xA0 SHL SUB AND SWAP3 SWAP2 SWAP1 PUSH2 0x3DD2 JUMP JUMPDEST PUSH1 0x67 SLOAD PUSH2 0x1D01 SWAP1 PUSH1 0x1 PUSH1 0x40 SHL SWAP1 DIV PUSH1 0x1 PUSH1 0x1 PUSH1 0x40 SHL SUB AND PUSH1 0x1 PUSH2 0x4F60 JUMP JUMPDEST PUSH1 0x67 DUP1 SLOAD PUSH16 0xFFFFFFFFFFFFFFFF0000000000000000 NOT AND PUSH1 0x1 PUSH1 0x40 SHL PUSH1 0x1 PUSH1 0x1 PUSH1 0x40 SHL SUB SWAP4 DUP5 AND DUP2 MUL SWAP2 SWAP1 SWAP2 OR SWAP2 DUP3 SWAP1 SSTORE SWAP1 DIV AND PUSH1 0x0 SWAP1 DUP2 MSTORE PUSH1 0x66 PUSH1 0x20 SWAP1 DUP2 MSTORE PUSH1 0x40 DUP1 DUP4 KECCAK256 PUSH1 0x1 DUP1 DUP6 MSTORE DUP2 DUP5 MSTORE DUP3 DUP6 KECCAK256 PUSH1 0x2 PUSH1 0x1 PUSH1 0x60 SHL SUB NOT SWAP1 DUP2 SWAP1 SSTORE DUP6 MSTORE SWAP1 DUP2 ADD SWAP1 SWAP3 MSTORE SWAP1 SWAP2 KECCAK256 SSTORE PUSH1 0x0 PUSH2 0x1D75 CALLER PUSH2 0xBC5 JUMP JUMPDEST SWAP1 POP PUSH1 0x40 MLOAD DUP1 PUSH2 0x140 ADD PUSH1 0x40 MSTORE DUP1 DUP6 PUSH2 0x1D8D SWAP1 PUSH2 0x4FF2 JUMP JUMPDEST DUP2 MSTORE PUSH1 0x40 DUP1 MLOAD PUSH1 0x80 DUP2 ADD DUP3 MSTORE PUSH1 0x0 DUP1 DUP3 MSTORE PUSH1 0x20 DUP3 DUP2 ADD DUP3 SWAP1 MSTORE DUP3 DUP5 ADD DUP3 SWAP1 MSTORE PUSH1 0x60 DUP1 DUP5 ADD SWAP3 SWAP1 SWAP3 MSTORE DUP5 ADD SWAP2 SWAP1 SWAP2 MSTORE CALLER SWAP2 DUP4 ADD SWAP2 SWAP1 SWAP2 MSTORE ADD PUSH2 0x1DE9 DUP4 PUSH2 0x1DD9 PUSH2 0x100 DUP10 ADD PUSH1 0xE0 DUP11 ADD PUSH2 0x4F06 JUMP JUMPDEST PUSH2 0x279 PUSH1 0xE0 DUP11 ADD PUSH1 0xC0 DUP12 ADD PUSH2 0x4F06 JUMP JUMPDEST DUP2 MSTORE PUSH1 0x0 PUSH1 0x20 DUP1 DUP4 ADD DUP3 SWAP1 MSTORE PUSH1 0x1 PUSH1 0x40 DUP1 DUP6 ADD SWAP2 SWAP1 SWAP2 MSTORE PUSH1 0x60 DUP5 ADD DUP4 SWAP1 MSTORE PUSH1 0x80 DUP5 ADD DUP4 SWAP1 MSTORE PUSH1 0x6B SLOAD PUSH1 0xA0 DUP6 ADD MSTORE PUSH1 0xC0 SWAP1 SWAP4 ADD DUP3 SWAP1 MSTORE PUSH1 0x67 SLOAD PUSH1 0x1 PUSH1 0x40 SHL SWAP1 DIV PUSH1 0x1 PUSH1 0x1 PUSH1 0x40 SHL SUB AND DUP3 MSTORE PUSH1 0x65 DUP2 MSTORE SWAP2 SWAP1 KECCAK256 DUP3 MLOAD DUP1 MLOAD DUP1 MLOAD SWAP3 SWAP4 SWAP2 SWAP3 DUP5 SWAP3 PUSH2 0x1E54 SWAP3 DUP5 SWAP3 SWAP2 ADD SWAP1 PUSH2 0x44C3 JUMP JUMPDEST POP PUSH1 0x20 DUP3 ADD MLOAD DUP2 PUSH1 0x1 ADD PUSH1 0x0 PUSH2 0x100 EXP DUP2 SLOAD DUP2 PUSH1 0x1 PUSH1 0x1 PUSH1 0xA0 SHL SUB MUL NOT AND SWAP1 DUP4 PUSH1 0x1 PUSH1 0x1 PUSH1 0xA0 SHL SUB AND MUL OR SWAP1 SSTORE POP PUSH1 0x40 DUP3 ADD MLOAD DUP2 PUSH1 0x2 ADD PUSH1 0x0 PUSH2 0x100 EXP DUP2 SLOAD DUP2 PUSH1 0x1 PUSH1 0x1 PUSH1 0xA0 SHL SUB MUL NOT AND SWAP1 DUP4 PUSH1 0x1 PUSH1 0x1 PUSH1 0xA0 SHL SUB AND MUL OR SWAP1 SSTORE POP PUSH1 0x60 DUP3 ADD MLOAD DUP2 PUSH1 0x2 ADD PUSH1 0x14 PUSH2 0x100 EXP DUP2 SLOAD DUP2 PUSH5 0xFFFFFFFFFF MUL NOT AND SWAP1 DUP4 PUSH5 0xFFFFFFFFFF AND MUL OR SWAP1 SSTORE POP PUSH1 0x80 DUP3 ADD MLOAD DUP2 PUSH1 0x2 ADD PUSH1 0x19 PUSH2 0x100 EXP DUP2 SLOAD DUP2 PUSH5 0xFFFFFFFFFF MUL NOT AND SWAP1 DUP4 PUSH5 0xFFFFFFFFFF AND MUL OR SWAP1 SSTORE POP PUSH1 0xA0 DUP3 ADD MLOAD DUP2 PUSH1 0x3 ADD PUSH1 0x0 PUSH2 0x100 EXP DUP2 SLOAD DUP2 PUSH5 0xFFFFFFFFFF MUL NOT AND SWAP1 DUP4 PUSH5 0xFFFFFFFFFF AND MUL OR SWAP1 SSTORE POP PUSH1 0xC0 DUP3 ADD MLOAD DUP2 PUSH1 0x3 ADD PUSH1 0x5 PUSH2 0x100 EXP DUP2 SLOAD DUP2 PUSH1 0x1 PUSH1 0x1 PUSH1 0x60 SHL SUB MUL NOT AND SWAP1 DUP4 PUSH1 0x1 PUSH1 0x1 PUSH1 0x60 SHL SUB AND MUL OR SWAP1 SSTORE POP PUSH1 0xE0 DUP3 ADD MLOAD DUP2 PUSH1 0x3 ADD PUSH1 0x11 PUSH2 0x100 EXP DUP2 SLOAD DUP2 PUSH1 0x1 PUSH1 0x1 PUSH1 0x60 SHL SUB MUL NOT AND SWAP1 DUP4 PUSH1 0x1 PUSH1 0x1 PUSH1 0x60 SHL SUB AND MUL OR SWAP1 SSTORE POP PUSH2 0x100 DUP3 ADD MLOAD DUP2 PUSH1 0x4 ADD SSTORE PUSH2 0x120 DUP3 ADD MLOAD DUP2 PUSH1 0x5 ADD SSTORE PUSH2 0x140 DUP3 ADD MLOAD DUP2 PUSH1 0x6 ADD PUSH1 0x0 PUSH2 0x100 EXP DUP2 SLOAD DUP2 PUSH1 0xFF MUL NOT AND SWAP1 DUP4 ISZERO ISZERO MUL OR SWAP1 SSTORE POP PUSH2 0x160 DUP3 ADD MLOAD DUP2 PUSH1 0x7 ADD PUSH1 0x0 DUP3 ADD MLOAD DUP2 PUSH1 0x0 ADD SSTORE PUSH1 0x20 DUP3 ADD MLOAD DUP2 PUSH1 0x1 ADD SSTORE POP POP POP POP PUSH1 0x20 DUP3 ADD MLOAD DUP2 PUSH1 0x9 ADD PUSH1 0x0 DUP3 ADD MLOAD DUP2 PUSH1 0x0 ADD PUSH1 0x0 PUSH2 0x100 EXP DUP2 SLOAD DUP2 PUSH1 0xFF MUL NOT AND SWAP1 DUP4 ISZERO ISZERO MUL OR SWAP1 SSTORE POP PUSH1 0x20 DUP3 ADD MLOAD DUP2 PUSH1 0x0 ADD PUSH1 0x1 PUSH2 0x100 EXP DUP2 SLOAD DUP2 PUSH1 0xFF MUL NOT AND SWAP1 DUP4 ISZERO ISZERO MUL OR SWAP1 SSTORE POP PUSH1 0x40 DUP3 ADD MLOAD DUP2 PUSH1 0x0 ADD PUSH1 0x2 PUSH2 0x100 EXP DUP2 SLOAD DUP2 PUSH1 0xFF MUL NOT AND SWAP1 DUP4 ISZERO ISZERO MUL OR SWAP1 SSTORE POP PUSH1 0x60 DUP3 ADD MLOAD DUP2 PUSH1 0x0 ADD PUSH1 0x3 PUSH2 0x100 EXP DUP2 SLOAD DUP2 PUSH1 0xFF MUL NOT AND SWAP1 DUP4 ISZERO ISZERO MUL OR SWAP1 SSTORE POP POP POP PUSH1 0x40 DUP3 ADD MLOAD DUP2 PUSH1 0xA ADD PUSH1 0x0 PUSH2 0x100 EXP DUP2 SLOAD DUP2 PUSH1 0x1 PUSH1 0x1 PUSH1 0xA0 SHL SUB MUL NOT AND SWAP1 DUP4 PUSH1 0x1 PUSH1 0x1 PUSH1 0xA0 SHL SUB AND MUL OR SWAP1 SSTORE POP PUSH1 0x60 DUP3 ADD MLOAD DUP2 PUSH1 0xB ADD SSTORE PUSH1 0x80 DUP3 ADD MLOAD DUP2 PUSH1 0xC ADD SSTORE PUSH1 0xA0 DUP3 ADD MLOAD DUP2 PUSH1 0xD ADD SSTORE PUSH1 0xC0 DUP3 ADD MLOAD DUP2 PUSH1 0xE ADD SSTORE PUSH1 0xE0 DUP3 ADD MLOAD DUP2 PUSH1 0xF ADD PUSH1 0x0 PUSH2 0x100 EXP DUP2 SLOAD DUP2 PUSH1 0x1 PUSH1 0x1 PUSH1 0x60 SHL SUB MUL NOT AND SWAP1 DUP4 PUSH1 0x1 PUSH1 0x1 PUSH1 0x60 SHL SUB AND MUL OR SWAP1 SSTORE POP PUSH2 0x100 DUP3 ADD MLOAD DUP2 PUSH1 0x10 ADD SSTORE PUSH2 0x120 DUP3 ADD MLOAD DUP2 PUSH1 0x11 ADD SSTORE SWAP1 POP POP CALLER PUSH1 0x1 PUSH1 0x1 PUSH1 0xA0 SHL SUB AND DUP2 PUSH1 0x1 PUSH1 0x1 PUSH1 0x40 SHL SUB AND PUSH1 0x67 PUSH1 0x8 SWAP1 SLOAD SWAP1 PUSH2 0x100 EXP SWAP1 DIV PUSH1 0x1 PUSH1 0x1 PUSH1 0x40 SHL SUB AND PUSH1 0x1 PUSH1 0x1 PUSH1 0x40 SHL SUB AND PUSH32 0x9FB015B01070CBD34FF57B2C9A642A2CEFB6446BB225D05C21BE80CD8399C94B DUP8 DUP1 PUSH1 0x0 ADD SWAP1 PUSH2 0x2167 SWAP2 SWAP1 PUSH2 0x50EA JUMP JUMPDEST PUSH2 0x2177 PUSH1 0x40 DUP12 ADD PUSH1 0x20 DUP13 ADD PUSH2 0x47EF JUMP JUMPDEST PUSH2 0x2187 PUSH1 0x60 DUP13 ADD PUSH1 0x40 DUP14 ADD PUSH2 0x47EF JUMP JUMPDEST PUSH2 0x2197 PUSH1 0x80 DUP14 ADD PUSH1 0x60 DUP15 ADD PUSH2 0x4F45 JUMP JUMPDEST PUSH2 0x21A7 PUSH1 0xA0 DUP15 ADD PUSH1 0x80 DUP16 ADD PUSH2 0x4F45 JUMP JUMPDEST DUP14 PUSH1 0xA0 ADD PUSH1 0x20 DUP2 ADD SWAP1 PUSH2 0x21BA SWAP2 SWAP1 PUSH2 0x4F45 JUMP JUMPDEST DUP15 PUSH1 0xC0 ADD PUSH1 0x20 DUP2 ADD SWAP1 PUSH2 0x21CD SWAP2 SWAP1 PUSH2 0x4F06 JUMP JUMPDEST DUP16 PUSH1 0xE0 ADD PUSH1 0x20 DUP2 ADD SWAP1 PUSH2 0x21E0 SWAP2 SWAP1 PUSH2 0x4F06 JUMP JUMPDEST PUSH1 0x40 MLOAD PUSH2 0x21F5 SWAP10 SWAP9 SWAP8 SWAP7 SWAP6 SWAP5 SWAP4 SWAP3 SWAP2 SWAP1 PUSH2 0x5137 JUMP JUMPDEST PUSH1 0x40 MLOAD DUP1 SWAP2 SUB SWAP1 LOG4 PUSH1 0x67 SLOAD PUSH1 0x1 PUSH1 0x40 SHL SWAP1 DIV PUSH1 0x1 PUSH1 0x1 PUSH1 0x40 SHL SUB AND PUSH32 0x956B430F300258F6D757FDF489C0BC3A95CFFADC9995D416781835590ACC1858 PUSH2 0x2246 DUP4 PUSH2 0x1DD9 PUSH2 0x100 DUP10 ADD PUSH1 0xE0 DUP11 ADD PUSH2 0x4F06 JUMP JUMPDEST PUSH1 0x0 PUSH1 0x1 DUP2 DUP1 PUSH2 0x100 DUP12 ADD CALLDATALOAD PUSH2 0x120 DUP13 ADD CALLDATALOAD PUSH2 0x226A PUSH2 0x160 DUP15 ADD PUSH2 0x140 DUP16 ADD PUSH2 0x51BA JUMP JUMPDEST PUSH1 0x6B SLOAD PUSH1 0x40 DUP1 MLOAD SWAP10 DUP11 MSTORE PUSH1 0x20 DUP11 ADD SWAP9 SWAP1 SWAP9 MSTORE SWAP7 DUP9 ADD SWAP6 SWAP1 SWAP6 MSTORE PUSH1 0x60 DUP8 ADD SWAP4 SWAP1 SWAP4 MSTORE PUSH1 0x1 PUSH1 0x1 PUSH1 0x60 SHL SUB SWAP1 SWAP2 AND PUSH1 0x80 DUP7 ADD MSTORE PUSH1 0xA0 DUP6 ADD MSTORE PUSH1 0xC0 DUP5 ADD MSTORE ISZERO ISZERO PUSH1 0xE0 DUP4 ADD MSTORE PUSH2 0x100 DUP3 ADD MSTORE PUSH2 0x120 ADD PUSH1 0x40 MLOAD DUP1 SWAP2 SUB SWAP1 LOG2 POP POP PUSH1 0x67 SLOAD PUSH1 0x1 PUSH1 0x40 SHL SWAP1 DIV PUSH1 0x1 PUSH1 0x1 PUSH1 0x40 SHL SUB AND SWAP3 SWAP2 POP POP JUMP JUMPDEST PUSH1 0x0 SLOAD PUSH2 0x100 SWAP1 DIV PUSH1 0xFF AND ISZERO DUP1 DUP1 ISZERO PUSH2 0x22F9 JUMPI POP PUSH1 0x0 SLOAD PUSH1 0x1 PUSH1 0xFF SWAP1 SWAP2 AND LT JUMPDEST DUP1 PUSH2 0x2313 JUMPI POP ADDRESS EXTCODESIZE ISZERO DUP1 ISZERO PUSH2 0x2313 JUMPI POP PUSH1 0x0 SLOAD PUSH1 0xFF AND PUSH1 0x1 EQ JUMPDEST PUSH2 0x2376 JUMPI PUSH1 0x40 MLOAD PUSH3 0x461BCD PUSH1 0xE5 SHL DUP2 MSTORE PUSH1 0x20 PUSH1 0x4 DUP3 ADD MSTORE PUSH1 0x2E PUSH1 0x24 DUP3 ADD MSTORE PUSH32 0x496E697469616C697A61626C653A20636F6E747261637420697320616C726561 PUSH1 0x44 DUP3 ADD MSTORE PUSH14 0x191E481A5B9A5D1A585B1A5E9959 PUSH1 0x92 SHL PUSH1 0x64 DUP3 ADD MSTORE PUSH1 0x84 ADD PUSH2 0x58B JUMP JUMPDEST PUSH1 0x0 DUP1 SLOAD PUSH1 0xFF NOT AND PUSH1 0x1 OR SWAP1 SSTORE DUP1 ISZERO PUSH2 0x2399 JUMPI PUSH1 0x0 DUP1 SLOAD PUSH2 0xFF00 NOT AND PUSH2 0x100 OR SWAP1 SSTORE JUMPDEST PUSH2 0x23A1 PUSH2 0x3E10 JUMP JUMPDEST PUSH1 0x6A DUP1 SLOAD PUSH8 0xFFFFFFFFFFFFFFFF NOT AND PUSH1 0x1 OR SWAP1 SSTORE PUSH1 0xF PUSH1 0x6B SSTORE DUP1 ISZERO PUSH2 0xBC2 JUMPI PUSH1 0x0 DUP1 SLOAD PUSH2 0xFF00 NOT AND SWAP1 SSTORE PUSH1 0x40 MLOAD PUSH1 0x1 DUP2 MSTORE PUSH32 0x7F26B83FF96E1F2B6A682F133852F6798A09C465DA95921460CEFB3847402498 SWAP1 PUSH1 0x20 ADD PUSH1 0x40 MLOAD DUP1 SWAP2 SUB SWAP1 LOG1 POP JUMP JUMPDEST PUSH1 0x1 PUSH1 0x1 PUSH1 0x40 SHL SUB DUP7 AND PUSH1 0x0 SWAP1 DUP2 MSTORE PUSH1 0x65 PUSH1 0x20 MSTORE PUSH1 0x40 DUP2 KECCAK256 PUSH1 0x3 ADD SLOAD DUP8 SWAP1 PUSH5 0xFFFFFFFFFF AND TIMESTAMP LT PUSH2 0x2475 JUMPI PUSH1 0x40 MLOAD PUSH3 0x461BCD PUSH1 0xE5 SHL DUP2 MSTORE PUSH1 0x20 PUSH1 0x4 DUP3 ADD MSTORE PUSH1 0x1C PUSH1 0x24 DUP3 ADD MSTORE PUSH32 0x4E6F7420696E206F7264657220706C6163656D656E7420706861736500000000 PUSH1 0x44 DUP3 ADD MSTORE PUSH1 0x64 ADD PUSH2 0x58B JUMP JUMPDEST PUSH1 0x1 PUSH1 0x1 PUSH1 0x40 SHL SUB DUP9 AND PUSH1 0x0 SWAP1 DUP2 MSTORE PUSH1 0x65 PUSH1 0x20 MSTORE PUSH1 0x40 SWAP1 KECCAK256 PUSH1 0x9 ADD SLOAD DUP9 SWAP1 PUSH1 0xFF AND ISZERO DUP1 ISZERO PUSH2 0x24C4 JUMPI POP PUSH1 0x1 PUSH1 0x1 PUSH1 0x40 SHL SUB DUP2 AND PUSH1 0x0 SWAP1 DUP2 MSTORE PUSH1 0x65 PUSH1 0x20 MSTORE PUSH1 0x40 SWAP1 KECCAK256 PUSH1 0x9 ADD SLOAD PUSH2 0x100 SWAP1 DIV PUSH1 0xFF AND ISZERO JUMPDEST DUP1 ISZERO PUSH2 0x24F2 JUMPI POP PUSH1 0x1 PUSH1 0x1 PUSH1 0x40 SHL SUB DUP2 AND PUSH1 0x0 SWAP1 DUP2 MSTORE PUSH1 0x65 PUSH1 0x20 MSTORE PUSH1 0x40 SWAP1 KECCAK256 PUSH1 0x9 ADD SLOAD PUSH3 0x10000 SWAP1 DIV PUSH1 0xFF AND ISZERO JUMPDEST PUSH2 0x250E JUMPI PUSH1 0x40 MLOAD PUSH3 0x461BCD PUSH1 0xE5 SHL DUP2 MSTORE PUSH1 0x4 ADD PUSH2 0x58B SWAP1 PUSH2 0x4DCC JUMP JUMPDEST PUSH1 0x40 MLOAD PUSH12 0xFFFFFFFFFFFFFFFFFFFFFFFF NOT CALLER PUSH1 0x60 SHL AND PUSH1 0x20 DUP3 ADD MSTORE PUSH1 0x0 SWAP1 PUSH1 0x34 ADD PUSH1 0x40 MLOAD PUSH1 0x20 DUP2 DUP4 SUB SUB DUP2 MSTORE SWAP1 PUSH1 0x40 MSTORE DUP1 MLOAD SWAP1 PUSH1 0x20 ADD KECCAK256 SWAP1 POP PUSH2 0x25BB DUP10 DUP10 DUP1 DUP1 PUSH1 0x20 MUL PUSH1 0x20 ADD PUSH1 0x40 MLOAD SWAP1 DUP2 ADD PUSH1 0x40 MSTORE DUP1 SWAP4 SWAP3 SWAP2 SWAP1 DUP2 DUP2 MSTORE PUSH1 0x20 ADD DUP4 DUP4 PUSH1 0x20 MUL DUP1 DUP3 DUP5 CALLDATACOPY PUSH1 0x0 DUP2 DUP5 ADD MSTORE PUSH1 0x1F NOT PUSH1 0x1F DUP3 ADD AND SWAP1 POP DUP1 DUP4 ADD SWAP3 POP POP POP POP POP POP POP PUSH1 0x65 PUSH1 0x0 DUP14 PUSH1 0x1 PUSH1 0x1 PUSH1 0x40 SHL SUB AND PUSH1 0x1 PUSH1 0x1 PUSH1 0x40 SHL SUB AND DUP2 MSTORE PUSH1 0x20 ADD SWAP1 DUP2 MSTORE PUSH1 0x20 ADD PUSH1 0x0 KECCAK256 PUSH1 0x11 ADD SLOAD DUP4 PUSH2 0x3E3F JUMP JUMPDEST PUSH2 0x25FE JUMPI PUSH1 0x40 MLOAD PUSH3 0x461BCD PUSH1 0xE5 SHL DUP2 MSTORE PUSH1 0x20 PUSH1 0x4 DUP3 ADD MSTORE PUSH1 0x14 PUSH1 0x24 DUP3 ADD MSTORE PUSH20 0x155CD95C881B9BDD081DDA1A5D195B1A5CDD1959 PUSH1 0x62 SHL PUSH1 0x44 DUP3 ADD MSTORE PUSH1 0x64 ADD PUSH2 0x58B JUMP JUMPDEST PUSH2 0x260B DUP11 DUP9 DUP9 DUP9 CALLER PUSH2 0x32B2 JUMP JUMPDEST SWAP11 SWAP10 POP POP POP POP POP POP POP POP POP POP JUMP JUMPDEST PUSH1 0x65 PUSH1 0x20 MSTORE DUP1 PUSH1 0x0 MSTORE PUSH1 0x40 PUSH1 0x0 KECCAK256 PUSH1 0x0 SWAP2 POP SWAP1 POP DUP1 PUSH1 0x0 ADD PUSH1 0x40 MLOAD DUP1 PUSH2 0x180 ADD PUSH1 0x40 MSTORE SWAP1 DUP2 PUSH1 0x0 DUP3 ADD DUP1 SLOAD PUSH2 0x264D SWAP1 PUSH2 0x51D7 JUMP JUMPDEST DUP1 PUSH1 0x1F ADD PUSH1 0x20 DUP1 SWAP2 DIV MUL PUSH1 0x20 ADD PUSH1 0x40 MLOAD SWAP1 DUP2 ADD PUSH1 0x40 MSTORE DUP1 SWAP3 SWAP2 SWAP1 DUP2 DUP2 MSTORE PUSH1 0x20 ADD DUP3 DUP1 SLOAD PUSH2 0x2679 SWAP1 PUSH2 0x51D7 JUMP JUMPDEST DUP1 ISZERO PUSH2 0x26C6 JUMPI DUP1 PUSH1 0x1F LT PUSH2 0x269B JUMPI PUSH2 0x100 DUP1 DUP4 SLOAD DIV MUL DUP4 MSTORE SWAP2 PUSH1 0x20 ADD SWAP2 PUSH2 0x26C6 JUMP JUMPDEST DUP3 ADD SWAP2 SWAP1 PUSH1 0x0 MSTORE PUSH1 0x20 PUSH1 0x0 KECCAK256 SWAP1 JUMPDEST DUP2 SLOAD DUP2 MSTORE SWAP1 PUSH1 0x1 ADD SWAP1 PUSH1 0x20 ADD DUP1 DUP4 GT PUSH2 0x26A9 JUMPI DUP3 SWAP1 SUB PUSH1 0x1F AND DUP3 ADD SWAP2 JUMPDEST POP POP POP SWAP2 DUP4 MSTORE POP POP PUSH1 0x1 DUP3 ADD SLOAD PUSH1 0x1 PUSH1 0x1 PUSH1 0xA0 SHL SUB SWAP1 DUP2 AND PUSH1 0x20 DUP1 DUP5 ADD SWAP2 SWAP1 SWAP2 MSTORE PUSH1 0x2 DUP5 ADD SLOAD DUP1 DUP4 AND PUSH1 0x40 DUP1 DUP7 ADD SWAP2 SWAP1 SWAP2 MSTORE PUSH5 0xFFFFFFFFFF PUSH1 0x1 PUSH1 0xA0 SHL DUP4 DIV DUP2 AND PUSH1 0x60 DUP1 DUP9 ADD SWAP2 SWAP1 SWAP2 MSTORE PUSH1 0x1 PUSH1 0xC8 SHL SWAP1 SWAP4 DIV DUP2 AND PUSH1 0x80 DUP1 DUP9 ADD SWAP2 SWAP1 SWAP2 MSTORE PUSH1 0x3 DUP9 ADD SLOAD SWAP2 DUP3 AND PUSH1 0xA0 DUP9 ADD MSTORE PUSH1 0x1 PUSH1 0x1 PUSH1 0x60 SHL SUB PUSH1 0x1 PUSH1 0x28 SHL DUP4 DIV DUP2 AND PUSH1 0xC0 DUP10 ADD MSTORE PUSH1 0x1 PUSH1 0x88 SHL SWAP1 SWAP3 DIV DUP3 AND PUSH1 0xE0 DUP9 ADD MSTORE PUSH1 0x4 DUP9 ADD SLOAD PUSH2 0x100 DUP1 DUP10 ADD SWAP2 SWAP1 SWAP2 MSTORE PUSH1 0x5 DUP10 ADD SLOAD PUSH2 0x120 DUP10 ADD MSTORE PUSH1 0x6 DUP10 ADD SLOAD PUSH1 0xFF SWAP1 DUP2 AND ISZERO ISZERO PUSH2 0x140 DUP11 ADD MSTORE DUP5 MLOAD DUP1 DUP7 ADD DUP7 MSTORE PUSH1 0x7 DUP12 ADD SLOAD DUP2 MSTORE PUSH1 0x8 SWAP1 SWAP11 ADD SLOAD DUP11 DUP9 ADD MSTORE PUSH2 0x160 SWAP1 SWAP9 ADD SWAP9 SWAP1 SWAP9 MSTORE DUP3 MLOAD SWAP1 DUP2 ADD DUP4 MSTORE PUSH1 0x9 DUP11 ADD SLOAD DUP1 DUP9 AND ISZERO ISZERO DUP3 MSTORE SWAP8 DUP9 DIV DUP8 AND ISZERO ISZERO SWAP5 DUP2 ADD SWAP5 SWAP1 SWAP5 MSTORE PUSH3 0x10000 DUP8 DIV DUP7 AND ISZERO ISZERO SWAP2 DUP5 ADD SWAP2 SWAP1 SWAP2 MSTORE PUSH4 0x1000000 SWAP1 SWAP6 DIV SWAP1 SWAP4 AND ISZERO ISZERO SWAP3 DUP2 ADD SWAP3 SWAP1 SWAP3 MSTORE PUSH1 0xA DUP6 ADD SLOAD PUSH1 0xB DUP7 ADD SLOAD PUSH1 0xC DUP8 ADD SLOAD PUSH1 0xD DUP9 ADD SLOAD PUSH1 0xE DUP10 ADD SLOAD PUSH1 0xF DUP11 ADD SLOAD PUSH1 0x10 DUP12 ADD SLOAD PUSH1 0x11 SWAP12 SWAP1 SWAP12 ADD SLOAD SWAP10 SWAP11 SWAP8 SWAP10 SWAP6 SWAP1 SWAP7 AND SWAP8 SWAP4 SWAP7 SWAP3 SWAP6 SWAP2 SWAP5 SWAP1 SWAP4 SWAP2 SWAP1 SWAP2 AND SWAP2 SWAP1 DUP11 JUMP JUMPDEST PUSH2 0x2835 PUSH2 0x387D JUMP JUMPDEST PUSH1 0x1 PUSH1 0x1 PUSH1 0x40 SHL SUB DUP2 AND PUSH1 0x0 SWAP1 DUP2 MSTORE PUSH1 0x65 PUSH1 0x20 MSTORE PUSH1 0x40 SWAP1 KECCAK256 PUSH1 0x9 DUP2 ADD DUP1 SLOAD PUSH1 0xFF NOT AND PUSH1 0x1 OR SWAP1 SSTORE PUSH1 0xA DUP2 ADD SLOAD PUSH1 0x7 DUP3 ADD SLOAD PUSH1 0x3 SWAP1 SWAP3 ADD SLOAD PUSH2 0xBC2 SWAP3 PUSH1 0x1 PUSH1 0x1 PUSH1 0xA0 SHL SUB SWAP1 SWAP3 AND SWAP2 PUSH8 0xDE0B6B3A7640000 SWAP2 PUSH2 0xB8C SWAP2 SWAP1 PUSH1 0x1 PUSH1 0x1 PUSH1 0x60 SHL SUB PUSH1 0x1 PUSH1 0x28 SHL SWAP1 SWAP2 DIV AND PUSH2 0x4E4A JUMP JUMPDEST PUSH1 0x1 PUSH1 0x1 PUSH1 0x40 SHL SUB DUP2 AND PUSH1 0x0 SWAP1 DUP2 MSTORE PUSH1 0x65 PUSH1 0x20 MSTORE PUSH1 0x40 DUP2 KECCAK256 PUSH1 0x3 ADD SLOAD TIMESTAMP PUSH5 0xFFFFFFFFFF SWAP1 SWAP2 AND LT ISZERO PUSH2 0x28D5 JUMPI POP PUSH1 0x0 SWAP2 SWAP1 POP JUMP JUMPDEST PUSH1 0x1 PUSH1 0x1 PUSH1 0x40 SHL SUB DUP3 AND PUSH1 0x0 SWAP1 DUP2 MSTORE PUSH1 0x65 PUSH1 0x20 MSTORE PUSH1 0x40 SWAP1 KECCAK256 PUSH1 0x3 ADD SLOAD PUSH2 0xBE2 SWAP1 PUSH5 0xFFFFFFFFFF AND TIMESTAMP PUSH2 0x39C3 JUMP JUMPDEST PUSH1 0x0 PUSH2 0x290F PUSH1 0x68 DUP4 PUSH2 0x37CB JUMP JUMPDEST PUSH2 0x2950 JUMPI PUSH1 0x40 MLOAD PUSH3 0x461BCD PUSH1 0xE5 SHL DUP2 MSTORE PUSH1 0x20 PUSH1 0x4 DUP3 ADD MSTORE PUSH1 0x12 PUSH1 0x24 DUP3 ADD MSTORE PUSH18 0x139BDD08149959DA5CDD195C99590816595D PUSH1 0x72 SHL PUSH1 0x44 DUP3 ADD MSTORE PUSH1 0x64 ADD PUSH2 0x58B JUMP JUMPDEST PUSH2 0xBE2 PUSH1 0x68 DUP4 PUSH2 0x37F5 JUMP JUMPDEST PUSH2 0x2963 PUSH2 0x387D JUMP JUMPDEST PUSH1 0x1 PUSH1 0x1 PUSH1 0x40 SHL SUB DUP2 AND PUSH1 0x0 SWAP1 DUP2 MSTORE PUSH1 0x65 PUSH1 0x20 MSTORE PUSH1 0x40 SWAP1 KECCAK256 PUSH1 0x9 DUP2 ADD DUP1 SLOAD PUSH2 0xFF00 NOT AND PUSH2 0x100 OR SWAP1 SSTORE PUSH1 0xA DUP2 ADD SLOAD PUSH1 0x7 DUP3 ADD SLOAD PUSH1 0x3 SWAP1 SWAP3 ADD SLOAD PUSH2 0xBC2 SWAP3 PUSH1 0x1 PUSH1 0x1 PUSH1 0xA0 SHL SUB SWAP1 SWAP3 AND SWAP2 PUSH8 0xDE0B6B3A7640000 SWAP2 PUSH2 0xB8C SWAP2 SWAP1 PUSH1 0x1 PUSH1 0x1 PUSH1 0x60 SHL SUB PUSH1 0x1 PUSH1 0x28 SHL SWAP1 SWAP2 DIV AND PUSH2 0x4E4A JUMP JUMPDEST PUSH1 0x1 PUSH1 0x1 PUSH1 0x40 SHL SUB DUP3 AND PUSH1 0x0 SWAP1 DUP2 MSTORE PUSH1 0x65 PUSH1 0x20 MSTORE PUSH1 0x40 DUP2 KECCAK256 PUSH1 0xE ADD SLOAD DUP2 SWAP1 DUP5 SWAP1 PUSH2 0x2A31 JUMPI PUSH1 0x40 MLOAD PUSH3 0x461BCD PUSH1 0xE5 SHL DUP2 MSTORE PUSH1 0x20 PUSH1 0x4 DUP3 ADD MSTORE PUSH1 0x11 PUSH1 0x24 DUP3 ADD MSTORE PUSH17 0x141BDBDB081B9BDD08199A5B9A5CDA1959 PUSH1 0x7A SHL PUSH1 0x44 DUP3 ADD MSTORE PUSH1 0x64 ADD PUSH2 0x58B JUMP JUMPDEST PUSH1 0x1 PUSH1 0x1 PUSH1 0x40 SHL SUB DUP6 AND PUSH1 0x0 SWAP1 DUP2 MSTORE PUSH1 0x65 PUSH1 0x20 MSTORE PUSH1 0x40 SWAP1 KECCAK256 PUSH1 0x9 ADD SLOAD DUP6 SWAP1 PUSH1 0xFF AND ISZERO DUP1 ISZERO PUSH2 0x2A80 JUMPI POP PUSH1 0x1 PUSH1 0x1 PUSH1 0x40 SHL SUB DUP2 AND PUSH1 0x0 SWAP1 DUP2 MSTORE PUSH1 0x65 PUSH1 0x20 MSTORE PUSH1 0x40 SWAP1 KECCAK256 PUSH1 0x9 ADD SLOAD PUSH2 0x100 SWAP1 DIV PUSH1 0xFF AND ISZERO JUMPDEST DUP1 ISZERO PUSH2 0x2AAE JUMPI POP PUSH1 0x1 PUSH1 0x1 PUSH1 0x40 SHL SUB DUP2 AND PUSH1 0x0 SWAP1 DUP2 MSTORE PUSH1 0x65 PUSH1 0x20 MSTORE PUSH1 0x40 SWAP1 KECCAK256 PUSH1 0x9 ADD SLOAD PUSH3 0x10000 SWAP1 DIV PUSH1 0xFF AND ISZERO JUMPDEST PUSH2 0x2ACA JUMPI PUSH1 0x40 MLOAD PUSH3 0x461BCD PUSH1 0xE5 SHL DUP2 MSTORE PUSH1 0x4 ADD PUSH2 0x58B SWAP1 PUSH2 0x4DCC JUMP JUMPDEST PUSH1 0x0 JUMPDEST DUP6 MLOAD DUP2 LT ISZERO PUSH2 0x2B7B JUMPI PUSH2 0x2B1D DUP7 DUP3 DUP2 MLOAD DUP2 LT PUSH2 0x2AEB JUMPI PUSH2 0x2AEB PUSH2 0x4E03 JUMP JUMPDEST PUSH1 0x20 MUL PUSH1 0x20 ADD ADD MLOAD PUSH1 0x66 PUSH1 0x0 DUP11 PUSH1 0x1 PUSH1 0x1 PUSH1 0x40 SHL SUB AND DUP2 MSTORE PUSH1 0x20 ADD SWAP1 DUP2 MSTORE PUSH1 0x20 ADD PUSH1 0x0 KECCAK256 PUSH2 0x3DA6 SWAP1 SWAP2 SWAP1 PUSH4 0xFFFFFFFF AND JUMP JUMPDEST PUSH2 0x2B69 JUMPI PUSH1 0x40 MLOAD PUSH3 0x461BCD PUSH1 0xE5 SHL DUP2 MSTORE PUSH1 0x20 PUSH1 0x4 DUP3 ADD MSTORE PUSH1 0x1C PUSH1 0x24 DUP3 ADD MSTORE PUSH32 0x6F72646572206973206E6F206C6F6E67657220636C61696D61626C6500000000 PUSH1 0x44 DUP3 ADD MSTORE PUSH1 0x64 ADD PUSH2 0x58B JUMP JUMPDEST DUP1 PUSH2 0x2B73 DUP2 PUSH2 0x4E2F JUMP JUMPDEST SWAP2 POP POP PUSH2 0x2ACD JUMP JUMPDEST POP PUSH1 0x1 PUSH1 0x1 PUSH1 0x40 SHL SUB DUP7 AND PUSH1 0x0 SWAP1 DUP2 MSTORE PUSH1 0x65 PUSH1 0x20 MSTORE PUSH1 0x40 DUP1 DUP3 KECCAK256 DUP2 MLOAD PUSH2 0x2C0 DUP2 ADD SWAP1 SWAP3 MSTORE DUP1 SLOAD DUP3 SWAP1 PUSH2 0x140 DUP3 ADD SWAP1 DUP4 SWAP1 DUP3 SWAP1 DUP3 SWAP1 PUSH2 0x2BB8 SWAP1 PUSH2 0x51D7 JUMP JUMPDEST DUP1 PUSH1 0x1F ADD PUSH1 0x20 DUP1 SWAP2 DIV MUL PUSH1 0x20 ADD PUSH1 0x40 MLOAD SWAP1 DUP2 ADD PUSH1 0x40 MSTORE DUP1 SWAP3 SWAP2 SWAP1 DUP2 DUP2 MSTORE PUSH1 0x20 ADD DUP3 DUP1 SLOAD PUSH2 0x2BE4 SWAP1 PUSH2 0x51D7 JUMP JUMPDEST DUP1 ISZERO PUSH2 0x2C31 JUMPI DUP1 PUSH1 0x1F LT PUSH2 0x2C06 JUMPI PUSH2 0x100 DUP1 DUP4 SLOAD DIV MUL DUP4 MSTORE SWAP2 PUSH1 0x20 ADD SWAP2 PUSH2 0x2C31 JUMP JUMPDEST DUP3 ADD SWAP2 SWAP1 PUSH1 0x0 MSTORE PUSH1 0x20 PUSH1 0x0 KECCAK256 SWAP1 JUMPDEST DUP2 SLOAD DUP2 MSTORE SWAP1 PUSH1 0x1 ADD SWAP1 PUSH1 0x20 ADD DUP1 DUP4 GT PUSH2 0x2C14 JUMPI DUP3 SWAP1 SUB PUSH1 0x1F AND DUP3 ADD SWAP2 JUMPDEST POP POP POP SWAP2 DUP4 MSTORE POP POP PUSH1 0x1 DUP3 ADD SLOAD PUSH1 0x1 PUSH1 0x1 PUSH1 0xA0 SHL SUB SWAP1 DUP2 AND PUSH1 0x20 DUP1 DUP5 ADD SWAP2 SWAP1 SWAP2 MSTORE PUSH1 0x2 DUP5 ADD SLOAD DUP1 DUP4 AND PUSH1 0x40 DUP1 DUP7 ADD SWAP2 SWAP1 SWAP2 MSTORE PUSH5 0xFFFFFFFFFF PUSH1 0x1 PUSH1 0xA0 SHL DUP4 DIV DUP2 AND PUSH1 0x60 DUP1 DUP9 ADD SWAP2 SWAP1 SWAP2 MSTORE PUSH1 0x1 PUSH1 0xC8 SHL SWAP1 SWAP4 DIV DUP2 AND PUSH1 0x80 DUP1 DUP9 ADD SWAP2 SWAP1 SWAP2 MSTORE PUSH1 0x3 DUP9 ADD SLOAD SWAP2 DUP3 AND PUSH1 0xA0 DUP1 DUP10 ADD SWAP2 SWAP1 SWAP2 MSTORE PUSH1 0x1 PUSH1 0x1 PUSH1 0x60 SHL SUB PUSH1 0x1 PUSH1 0x28 SHL DUP5 DIV DUP2 AND PUSH1 0xC0 DUP1 DUP12 ADD SWAP2 SWAP1 SWAP2 MSTORE PUSH1 0x1 PUSH1 0x88 SHL SWAP1 SWAP5 DIV DUP2 AND PUSH1 0xE0 DUP1 DUP12 ADD SWAP2 SWAP1 SWAP2 MSTORE PUSH1 0x4 DUP12 ADD SLOAD PUSH2 0x100 DUP1 DUP13 ADD SWAP2 SWAP1 SWAP2 MSTORE PUSH1 0x5 DUP13 ADD SLOAD PUSH2 0x120 DUP1 DUP14 ADD SWAP2 SWAP1 SWAP2 MSTORE PUSH1 0x6 DUP14 ADD SLOAD PUSH1 0xFF SWAP1 DUP2 AND ISZERO ISZERO PUSH2 0x140 DUP15 ADD MSTORE DUP9 MLOAD DUP1 DUP11 ADD DUP11 MSTORE PUSH1 0x7 DUP16 ADD SLOAD DUP2 MSTORE PUSH1 0x8 SWAP1 SWAP15 ADD SLOAD DUP15 DUP13 ADD MSTORE PUSH2 0x160 SWAP1 SWAP13 ADD SWAP13 SWAP1 SWAP13 MSTORE SWAP12 DUP14 MSTORE DUP6 MLOAD DUP1 DUP6 ADD DUP8 MSTORE PUSH1 0x9 DUP16 ADD SLOAD DUP1 DUP13 AND ISZERO ISZERO DUP3 MSTORE DUP14 DUP2 DIV DUP13 AND ISZERO ISZERO DUP3 DUP12 ADD MSTORE PUSH3 0x10000 DUP2 DIV DUP13 AND ISZERO ISZERO DUP3 DUP10 ADD MSTORE PUSH4 0x1000000 SWAP1 DIV SWAP1 SWAP11 AND ISZERO ISZERO DUP11 DUP9 ADD MSTORE SWAP7 DUP13 ADD SWAP9 SWAP1 SWAP9 MSTORE PUSH1 0xA DUP13 ADD SLOAD SWAP1 SWAP7 AND SWAP3 DUP11 ADD SWAP3 SWAP1 SWAP3 MSTORE PUSH1 0xB DUP11 ADD SLOAD DUP10 DUP5 ADD MSTORE PUSH1 0xC DUP11 ADD SLOAD SWAP2 DUP10 ADD SWAP2 SWAP1 SWAP2 MSTORE PUSH1 0xD DUP10 ADD SLOAD SWAP4 DUP9 ADD SWAP4 SWAP1 SWAP4 MSTORE PUSH1 0xE DUP9 ADD SLOAD DUP8 DUP5 ADD MSTORE PUSH1 0xF DUP9 ADD SLOAD SWAP1 SWAP4 AND SWAP1 DUP7 ADD MSTORE PUSH1 0x10 DUP7 ADD SLOAD SWAP4 DUP6 ADD SWAP4 SWAP1 SWAP4 MSTORE PUSH1 0x11 SWAP1 SWAP5 ADD SLOAD SWAP3 ADD SWAP2 SWAP1 SWAP2 MSTORE DUP3 ADD MLOAD DUP9 MLOAD SWAP3 SWAP4 POP SWAP1 DUP2 SWAP1 SHR SWAP2 PUSH1 0x0 SWAP1 PUSH2 0x2DE5 SWAP1 DUP11 SWAP1 DUP4 SWAP1 PUSH2 0x6B2 JUMPI PUSH2 0x6B2 PUSH2 0x4E03 JUMP JUMPDEST POP POP PUSH1 0x1 PUSH1 0x1 PUSH1 0x40 SHL SUB DUP12 AND PUSH1 0x0 SWAP1 DUP2 MSTORE PUSH1 0x65 PUSH1 0x20 MSTORE PUSH1 0x40 DUP2 KECCAK256 PUSH1 0x9 ADD SLOAD SWAP2 SWAP3 POP PUSH4 0x1000000 SWAP1 SWAP2 DIV PUSH1 0xFF AND SWAP1 JUMPDEST DUP11 MLOAD DUP2 LT ISZERO PUSH2 0x3056 JUMPI PUSH1 0x0 DUP1 PUSH1 0x0 PUSH2 0x2E36 DUP15 DUP6 DUP2 MLOAD DUP2 LT PUSH2 0x6B2 JUMPI PUSH2 0x6B2 PUSH2 0x4E03 JUMP JUMPDEST SWAP3 POP SWAP3 POP SWAP3 POP DUP6 PUSH1 0x1 PUSH1 0x1 PUSH1 0x40 SHL SUB AND DUP4 PUSH1 0x1 PUSH1 0x1 PUSH1 0x40 SHL SUB AND EQ PUSH2 0x2E9D JUMPI PUSH1 0x40 MLOAD PUSH3 0x461BCD PUSH1 0xE5 SHL DUP2 MSTORE PUSH1 0x20 PUSH1 0x4 DUP3 ADD MSTORE PUSH1 0x1F PUSH1 0x24 DUP3 ADD MSTORE PUSH32 0x6F6E6C792073616D65207573657220616C6C6F77656420746F20636C61696D00 PUSH1 0x44 DUP3 ADD MSTORE PUSH1 0x64 ADD PUSH2 0x58B JUMP JUMPDEST DUP5 ISZERO PUSH2 0x2EBD JUMPI PUSH2 0x2EB6 DUP13 PUSH1 0x1 PUSH1 0x1 PUSH1 0x60 SHL SUB DUP4 AND PUSH2 0x323E JUMP JUMPDEST SWAP12 POP PUSH2 0x2FDE JUMP JUMPDEST DUP9 PUSH1 0xC0 ADD MLOAD DUP15 DUP6 DUP2 MLOAD DUP2 LT PUSH2 0x2ED4 JUMPI PUSH2 0x2ED4 PUSH2 0x4E03 JUMP JUMPDEST PUSH1 0x20 MUL PUSH1 0x20 ADD ADD MLOAD EQ ISZERO PUSH2 0x2F57 JUMPI PUSH2 0x2F22 PUSH2 0x2F1B DUP9 PUSH1 0x1 PUSH1 0x1 PUSH1 0x60 SHL SUB AND PUSH2 0x1187 DUP12 PUSH1 0x1 PUSH1 0x1 PUSH1 0x60 SHL SUB AND DUP14 PUSH1 0xE0 ADD MLOAD PUSH1 0x1 PUSH1 0x1 PUSH1 0x60 SHL SUB AND PUSH2 0x39AB SWAP1 SWAP2 SWAP1 PUSH4 0xFFFFFFFF AND JUMP JUMPDEST DUP15 SWAP1 PUSH2 0x323E JUMP JUMPDEST SWAP13 POP PUSH2 0x2EB6 PUSH2 0x2F50 DUP11 PUSH1 0xE0 ADD MLOAD PUSH1 0x1 PUSH1 0x1 PUSH1 0x60 SHL SUB AND DUP4 PUSH1 0x1 PUSH1 0x1 PUSH1 0x60 SHL SUB AND PUSH2 0x39C3 SWAP1 SWAP2 SWAP1 PUSH4 0xFFFFFFFF AND JUMP JUMPDEST DUP14 SWAP1 PUSH2 0x323E JUMP JUMPDEST PUSH2 0x2F87 DUP10 PUSH1 0xC0 ADD MLOAD DUP16 DUP7 DUP2 MLOAD DUP2 LT PUSH2 0x2F71 JUMPI PUSH2 0x2F71 PUSH2 0x4E03 JUMP JUMPDEST PUSH1 0x20 MUL PUSH1 0x20 ADD ADD MLOAD PUSH2 0x3B8E SWAP1 SWAP2 SWAP1 PUSH4 0xFFFFFFFF AND JUMP JUMPDEST ISZERO PUSH2 0x2FC8 JUMPI PUSH2 0x2FC1 PUSH2 0x2F1B DUP9 PUSH1 0x1 PUSH1 0x1 PUSH1 0x60 SHL SUB AND PUSH2 0x1187 DUP12 PUSH1 0x1 PUSH1 0x1 PUSH1 0x60 SHL SUB AND DUP6 PUSH1 0x1 PUSH1 0x1 PUSH1 0x60 SHL SUB AND PUSH2 0x39AB SWAP1 SWAP2 SWAP1 PUSH4 0xFFFFFFFF AND JUMP JUMPDEST SWAP13 POP PUSH2 0x2FDE JUMP JUMPDEST PUSH2 0x2FDB DUP13 PUSH1 0x1 PUSH1 0x1 PUSH1 0x60 SHL SUB DUP4 AND PUSH2 0x323E JUMP JUMPDEST SWAP12 POP JUMPDEST DUP6 PUSH1 0x1 PUSH1 0x1 PUSH1 0x40 SHL SUB AND DUP16 PUSH1 0x1 PUSH1 0x1 PUSH1 0x40 SHL SUB AND PUSH32 0x643AFE0798B830AA1ADFDB4E84E469EE402F2C8CCCA1AD7CEECD21B78706D085 DUP5 DUP5 PUSH1 0x40 MLOAD PUSH2 0x3038 SWAP3 SWAP2 SWAP1 PUSH1 0x1 PUSH1 0x1 PUSH1 0x60 SHL SUB SWAP3 DUP4 AND DUP2 MSTORE SWAP2 AND PUSH1 0x20 DUP3 ADD MSTORE PUSH1 0x40 ADD SWAP1 JUMP JUMPDEST PUSH1 0x40 MLOAD DUP1 SWAP2 SUB SWAP1 LOG3 POP POP POP DUP1 DUP1 PUSH2 0x304E SWAP1 PUSH2 0x4E2F JUMP JUMPDEST SWAP2 POP POP PUSH2 0x2E13 JUMP JUMPDEST POP PUSH2 0x3063 DUP12 DUP11 DUP11 DUP6 PUSH2 0x3E55 JUMP JUMPDEST POP POP POP POP POP POP POP SWAP3 POP SWAP3 SWAP1 POP JUMP JUMPDEST PUSH1 0x67 SLOAD PUSH1 0x60 SWAP1 PUSH1 0x1 PUSH1 0x1 PUSH1 0x40 SHL SUB PUSH1 0x1 PUSH1 0x40 SHL SWAP1 SWAP2 DIV DUP2 AND SWAP1 DUP4 AND GT ISZERO PUSH2 0x30CB JUMPI PUSH1 0x40 MLOAD PUSH3 0x461BCD PUSH1 0xE5 SHL DUP2 MSTORE PUSH1 0x20 PUSH1 0x4 DUP3 ADD MSTORE PUSH1 0xE PUSH1 0x24 DUP3 ADD MSTORE PUSH14 0x125B9D985B1A481C1BDBDB081251 PUSH1 0x92 SHL PUSH1 0x44 DUP3 ADD MSTORE PUSH1 0x64 ADD PUSH2 0x58B JUMP JUMPDEST PUSH1 0x1 PUSH1 0x1 PUSH1 0x40 SHL SUB DUP3 AND PUSH1 0x0 SWAP1 DUP2 MSTORE PUSH1 0x65 PUSH1 0x20 MSTORE PUSH1 0x40 SWAP1 KECCAK256 DUP1 SLOAD PUSH2 0x30EE SWAP1 PUSH2 0x51D7 JUMP JUMPDEST DUP1 PUSH1 0x1F ADD PUSH1 0x20 DUP1 SWAP2 DIV MUL PUSH1 0x20 ADD PUSH1 0x40 MLOAD SWAP1 DUP2 ADD PUSH1 0x40 MSTORE DUP1 SWAP3 SWAP2 SWAP1 DUP2 DUP2 MSTORE PUSH1 0x20 ADD DUP3 DUP1 SLOAD PUSH2 0x311A SWAP1 PUSH2 0x51D7 JUMP JUMPDEST DUP1 ISZERO PUSH2 0x3167 JUMPI DUP1 PUSH1 0x1F LT PUSH2 0x313C JUMPI PUSH2 0x100 DUP1 DUP4 SLOAD DIV MUL DUP4 MSTORE SWAP2 PUSH1 0x20 ADD SWAP2 PUSH2 0x3167 JUMP JUMPDEST DUP3 ADD SWAP2 SWAP1 PUSH1 0x0 MSTORE PUSH1 0x20 PUSH1 0x0 KECCAK256 SWAP1 JUMPDEST DUP2 SLOAD DUP2 MSTORE SWAP1 PUSH1 0x1 ADD SWAP1 PUSH1 0x20 ADD DUP1 DUP4 GT PUSH2 0x314A JUMPI DUP3 SWAP1 SUB PUSH1 0x1F AND DUP3 ADD SWAP2 JUMPDEST POP POP POP POP POP SWAP1 POP SWAP2 SWAP1 POP JUMP JUMPDEST PUSH2 0x317B PUSH2 0x387D JUMP JUMPDEST PUSH1 0x1 PUSH1 0x1 PUSH1 0xA0 SHL SUB DUP2 AND PUSH2 0x31E0 JUMPI PUSH1 0x40 MLOAD PUSH3 0x461BCD PUSH1 0xE5 SHL DUP2 MSTORE PUSH1 0x20 PUSH1 0x4 DUP3 ADD MSTORE PUSH1 0x26 PUSH1 0x24 DUP3 ADD MSTORE PUSH32 0x4F776E61626C653A206E6577206F776E657220697320746865207A65726F2061 PUSH1 0x44 DUP3 ADD MSTORE PUSH6 0x646472657373 PUSH1 0xD0 SHL PUSH1 0x64 DUP3 ADD MSTORE PUSH1 0x84 ADD PUSH2 0x58B JUMP JUMPDEST PUSH2 0xBC2 DUP2 PUSH2 0x3D54 JUMP JUMPDEST PUSH1 0x0 PUSH2 0x31F5 DUP4 DUP4 PUSH2 0x3D2B JUMP JUMPDEST PUSH2 0x3201 JUMPI POP PUSH1 0x0 PUSH2 0xBE2 JUMP JUMPDEST POP PUSH1 0x0 DUP2 DUP2 MSTORE PUSH1 0x1 DUP4 DUP2 ADD PUSH1 0x20 DUP2 DUP2 MSTORE PUSH1 0x40 DUP1 DUP6 KECCAK256 SLOAD DUP8 DUP4 MSTORE DUP2 DUP7 KECCAK256 DUP1 SLOAD DUP3 DUP9 MSTORE DUP4 DUP9 KECCAK256 DUP2 SWAP1 SSTORE DUP8 MSTORE SWAP4 DUP4 MSTORE SWAP1 DUP6 KECCAK256 SSTORE SWAP4 DUP4 MSTORE SWAP4 SWAP1 SWAP3 MSTORE SWAP1 SWAP2 SSTORE SWAP1 JUMP JUMPDEST PUSH1 0x0 PUSH2 0xAAA DUP3 DUP5 PUSH2 0x4E8B JUMP JUMPDEST PUSH1 0x40 MLOAD PUSH1 0x1 PUSH1 0x1 PUSH1 0xA0 SHL SUB DUP4 AND PUSH1 0x24 DUP3 ADD MSTORE PUSH1 0x44 DUP2 ADD DUP3 SWAP1 MSTORE PUSH2 0x32AD SWAP1 DUP5 SWAP1 PUSH4 0xA9059CBB PUSH1 0xE0 SHL SWAP1 PUSH1 0x64 ADD JUMPDEST PUSH1 0x40 DUP1 MLOAD PUSH1 0x1F NOT DUP2 DUP5 SUB ADD DUP2 MSTORE SWAP2 SWAP1 MSTORE PUSH1 0x20 DUP2 ADD DUP1 MLOAD PUSH1 0x1 PUSH1 0x1 PUSH1 0xE0 SHL SUB AND PUSH1 0x1 PUSH1 0x1 PUSH1 0xE0 SHL SUB NOT SWAP1 SWAP4 AND SWAP3 SWAP1 SWAP3 OR SWAP1 SWAP2 MSTORE PUSH2 0x3F48 JUMP JUMPDEST POP POP POP JUMP JUMPDEST PUSH1 0x0 DUP1 PUSH2 0x32BE DUP4 PUSH2 0xBC5 JUMP JUMPDEST PUSH1 0x1 PUSH1 0x1 PUSH1 0x40 SHL SUB DUP9 AND PUSH1 0x0 SWAP1 DUP2 MSTORE PUSH1 0x65 PUSH1 0x20 MSTORE PUSH1 0x40 DUP2 KECCAK256 PUSH1 0x4 ADD SLOAD SWAP2 SWAP4 POP JUMPDEST DUP8 MLOAD DUP2 LT ISZERO PUSH2 0x353F JUMPI PUSH1 0x0 DUP9 DUP3 DUP2 MLOAD DUP2 LT PUSH2 0x32FB JUMPI PUSH2 0x32FB PUSH2 0x4E03 JUMP JUMPDEST PUSH1 0x20 MUL PUSH1 0x20 ADD ADD MLOAD PUSH1 0x1 PUSH1 0x1 PUSH1 0x60 SHL SUB AND GT PUSH2 0x3352 JUMPI PUSH1 0x40 MLOAD PUSH3 0x461BCD PUSH1 0xE5 SHL DUP2 MSTORE PUSH1 0x20 PUSH1 0x4 DUP3 ADD MSTORE PUSH1 0x16 PUSH1 0x24 DUP3 ADD MSTORE PUSH22 0x627579416D6F756E7473206D757374206265203E203 PUSH1 0x54 SHL PUSH1 0x44 DUP3 ADD MSTORE PUSH1 0x64 ADD PUSH2 0x58B JUMP JUMPDEST DUP2 DUP8 DUP3 DUP2 MLOAD DUP2 LT PUSH2 0x3365 JUMPI PUSH2 0x3365 PUSH2 0x4E03 JUMP JUMPDEST PUSH1 0x20 MUL PUSH1 0x20 ADD ADD MLOAD PUSH1 0x1 PUSH1 0x1 PUSH1 0x60 SHL SUB AND LT ISZERO PUSH2 0x33B6 JUMPI PUSH1 0x40 MLOAD PUSH3 0x461BCD PUSH1 0xE5 SHL DUP2 MSTORE PUSH1 0x20 PUSH1 0x4 DUP3 ADD MSTORE PUSH1 0xF PUSH1 0x24 DUP3 ADD MSTORE PUSH15 0x1BDC99195C881D1BDBC81CDB585B1B PUSH1 0x8A SHL PUSH1 0x44 DUP3 ADD MSTORE PUSH1 0x64 ADD PUSH2 0x58B JUMP JUMPDEST PUSH2 0x342E PUSH2 0x33E9 DUP6 DUP11 DUP5 DUP2 MLOAD DUP2 LT PUSH2 0x33CF JUMPI PUSH2 0x33CF PUSH2 0x4E03 JUMP JUMPDEST PUSH1 0x20 MUL PUSH1 0x20 ADD ADD MLOAD DUP11 DUP6 DUP2 MLOAD DUP2 LT PUSH2 0x1590 JUMPI PUSH2 0x1590 PUSH2 0x4E03 JUMP JUMPDEST DUP8 DUP4 DUP2 MLOAD DUP2 LT PUSH2 0x33FB JUMPI PUSH2 0x33FB PUSH2 0x4E03 JUMP JUMPDEST PUSH1 0x20 MUL PUSH1 0x20 ADD ADD MLOAD PUSH1 0x66 PUSH1 0x0 DUP14 PUSH1 0x1 PUSH1 0x1 PUSH1 0x40 SHL SUB AND DUP2 MSTORE PUSH1 0x20 ADD SWAP1 DUP2 MSTORE PUSH1 0x20 ADD PUSH1 0x0 KECCAK256 PUSH2 0x401A SWAP1 SWAP3 SWAP2 SWAP1 PUSH4 0xFFFFFFFF AND JUMP JUMPDEST ISZERO PUSH2 0x352D JUMPI PUSH2 0x3468 DUP8 DUP3 DUP2 MLOAD DUP2 LT PUSH2 0x3448 JUMPI PUSH2 0x3448 PUSH2 0x4E03 JUMP JUMPDEST PUSH1 0x20 MUL PUSH1 0x20 ADD ADD MLOAD PUSH1 0x1 PUSH1 0x1 PUSH1 0x60 SHL SUB AND DUP5 PUSH2 0x323E SWAP1 SWAP2 SWAP1 PUSH4 0xFFFFFFFF AND JUMP JUMPDEST SWAP3 POP DUP4 PUSH1 0x1 PUSH1 0x1 PUSH1 0x40 SHL SUB AND DUP10 PUSH1 0x1 PUSH1 0x1 PUSH1 0x40 SHL SUB AND PUSH32 0xD1EB3AA4747AE96061EA9271199478378D5F0CAD92EDC3D7F78A63B658A93D6A DUP11 DUP5 DUP2 MLOAD DUP2 LT PUSH2 0x34B1 JUMPI PUSH2 0x34B1 PUSH2 0x4E03 JUMP JUMPDEST PUSH1 0x20 MUL PUSH1 0x20 ADD ADD MLOAD DUP11 DUP6 DUP2 MLOAD DUP2 LT PUSH2 0x34CB JUMPI PUSH2 0x34CB PUSH2 0x4E03 JUMP JUMPDEST PUSH1 0x20 MUL PUSH1 0x20 ADD ADD MLOAD PUSH2 0x3503 DUP10 DUP15 DUP9 DUP2 MLOAD DUP2 LT PUSH2 0x34E9 JUMPI PUSH2 0x34E9 PUSH2 0x4E03 JUMP JUMPDEST PUSH1 0x20 MUL PUSH1 0x20 ADD ADD MLOAD DUP15 DUP10 DUP2 MLOAD DUP2 LT PUSH2 0x1590 JUMPI PUSH2 0x1590 PUSH2 0x4E03 JUMP JUMPDEST PUSH1 0x40 DUP1 MLOAD PUSH1 0x1 PUSH1 0x1 PUSH1 0x60 SHL SUB SWAP5 DUP6 AND DUP2 MSTORE SWAP4 SWAP1 SWAP3 AND PUSH1 0x20 DUP5 ADD MSTORE SWAP1 DUP3 ADD MSTORE PUSH1 0x60 ADD PUSH1 0x40 MLOAD DUP1 SWAP2 SUB SWAP1 LOG3 JUMPDEST DUP1 PUSH2 0x3537 DUP2 PUSH2 0x4E2F JUMP JUMPDEST SWAP2 POP POP PUSH2 0x32DE JUMP JUMPDEST POP PUSH1 0x1 PUSH1 0x1 PUSH1 0x40 SHL SUB DUP9 AND PUSH1 0x0 SWAP1 DUP2 MSTORE PUSH1 0x65 PUSH1 0x20 MSTORE PUSH1 0x40 SWAP1 KECCAK256 PUSH1 0x8 ADD SLOAD PUSH2 0x974 SWAP1 CALLER SWAP1 ADDRESS SWAP1 PUSH8 0xDE0B6B3A7640000 SWAP1 PUSH2 0x3578 SWAP1 DUP8 PUSH2 0x4E4A JUMP JUMPDEST PUSH2 0x3582 SWAP2 SWAP1 PUSH2 0x4E69 JUMP JUMPDEST PUSH1 0x1 PUSH1 0x1 PUSH1 0x40 SHL SUB DUP13 AND PUSH1 0x0 SWAP1 DUP2 MSTORE PUSH1 0x65 PUSH1 0x20 MSTORE PUSH1 0x40 SWAP1 KECCAK256 PUSH1 0x2 ADD SLOAD PUSH1 0x1 PUSH1 0x1 PUSH1 0xA0 SHL SUB AND SWAP3 SWAP2 SWAP1 PUSH2 0x3DD2 JUMP JUMPDEST PUSH1 0x0 PUSH1 0x1 PUSH1 0x40 SHL DUP3 LT PUSH2 0x3613 JUMPI PUSH1 0x40 MLOAD PUSH3 0x461BCD PUSH1 0xE5 SHL DUP2 MSTORE PUSH1 0x20 PUSH1 0x4 DUP3 ADD MSTORE PUSH1 0x26 PUSH1 0x24 DUP3 ADD MSTORE PUSH32 0x53616665436173743A2076616C756520646F65736E27742066697420696E2036 PUSH1 0x44 DUP3 ADD MSTORE PUSH6 0x342062697473 PUSH1 0xD0 SHL PUSH1 0x64 DUP3 ADD MSTORE PUSH1 0x84 ADD PUSH2 0x58B JUMP JUMPDEST POP SWAP1 JUMP JUMPDEST PUSH1 0x0 PUSH1 0x1 PUSH1 0x1 PUSH1 0xA0 SHL SUB DUP3 AND PUSH2 0x366F JUMPI PUSH1 0x40 MLOAD PUSH3 0x461BCD PUSH1 0xE5 SHL DUP2 MSTORE PUSH1 0x20 PUSH1 0x4 DUP3 ADD MSTORE PUSH1 0x1A PUSH1 0x24 DUP3 ADD MSTORE PUSH32 0x43616E6E6F7420696E73657274207A65726F2061646472657373000000000000 PUSH1 0x44 DUP3 ADD MSTORE PUSH1 0x64 ADD PUSH2 0x58B JUMP JUMPDEST PUSH1 0x1 PUSH1 0x1 PUSH1 0x40 SHL SUB DUP4 DUP2 AND EQ ISZERO PUSH2 0x36C8 JUMPI PUSH1 0x40 MLOAD PUSH3 0x461BCD PUSH1 0xE5 SHL DUP2 MSTORE PUSH1 0x20 PUSH1 0x4 DUP3 ADD MSTORE PUSH1 0x18 PUSH1 0x24 DUP3 ADD MSTORE PUSH32 0x43616E6E6F7420696E73657274206D61782075696E7436340000000000000000 PUSH1 0x44 DUP3 ADD MSTORE PUSH1 0x64 ADD PUSH2 0x58B JUMP JUMPDEST PUSH1 0x1 PUSH1 0x1 PUSH1 0xA0 SHL SUB DUP3 AND PUSH1 0x0 SWAP1 DUP2 MSTORE PUSH1 0x1 DUP6 ADD PUSH1 0x20 MSTORE PUSH1 0x40 SWAP1 KECCAK256 SLOAD PUSH1 0x1 PUSH1 0x1 PUSH1 0x40 SHL SUB AND ISZERO ISZERO DUP1 PUSH2 0x3729 JUMPI POP PUSH1 0x0 DUP5 DUP2 PUSH2 0x3703 DUP7 PUSH1 0x1 PUSH2 0x4F60 JUMP JUMPDEST PUSH1 0x1 PUSH1 0x1 PUSH1 0x40 SHL SUB AND DUP2 MSTORE PUSH1 0x20 DUP2 ADD SWAP2 SWAP1 SWAP2 MSTORE PUSH1 0x40 ADD PUSH1 0x0 KECCAK256 SLOAD PUSH1 0x1 PUSH1 0x1 PUSH1 0xA0 SHL SUB AND EQ ISZERO JUMPDEST ISZERO PUSH2 0x3736 JUMPI POP PUSH1 0x0 PUSH2 0xAAA JUMP JUMPDEST DUP2 DUP5 PUSH1 0x0 PUSH2 0x3745 DUP7 PUSH1 0x1 PUSH2 0x4F60 JUMP JUMPDEST PUSH1 0x1 PUSH1 0x1 PUSH1 0x40 SHL SUB AND DUP2 MSTORE PUSH1 0x20 DUP2 ADD SWAP2 SWAP1 SWAP2 MSTORE PUSH1 0x40 ADD PUSH1 0x0 KECCAK256 DUP1 SLOAD PUSH1 0x1 PUSH1 0x1 PUSH1 0xA0 SHL SUB NOT AND PUSH1 0x1 PUSH1 0x1 PUSH1 0xA0 SHL SUB SWAP3 SWAP1 SWAP3 AND SWAP2 SWAP1 SWAP2 OR SWAP1 SSTORE PUSH2 0x3787 DUP4 PUSH1 0x1 PUSH2 0x4F60 JUMP JUMPDEST PUSH1 0x1 PUSH1 0x1 PUSH1 0xA0 SHL SUB SWAP3 SWAP1 SWAP3 AND PUSH1 0x0 SWAP1 DUP2 MSTORE PUSH1 0x1 SWAP5 DUP6 ADD PUSH1 0x20 MSTORE PUSH1 0x40 SWAP1 KECCAK256 DUP1 SLOAD PUSH8 0xFFFFFFFFFFFFFFFF NOT AND PUSH1 0x1 PUSH1 0x1 PUSH1 0x40 SHL SUB SWAP4 SWAP1 SWAP4 AND SWAP3 SWAP1 SWAP3 OR SWAP1 SWAP2 SSTORE POP SWAP1 SWAP2 SWAP1 POP JUMP JUMPDEST PUSH1 0x1 PUSH1 0x1 PUSH1 0xA0 SHL SUB AND PUSH1 0x0 SWAP1 DUP2 MSTORE PUSH1 0x1 SWAP2 SWAP1 SWAP2 ADD PUSH1 0x20 MSTORE PUSH1 0x40 SWAP1 KECCAK256 SLOAD PUSH1 0x1 PUSH1 0x1 PUSH1 0x40 SHL SUB AND ISZERO ISZERO SWAP1 JUMP JUMPDEST PUSH1 0x0 PUSH2 0x3801 DUP4 DUP4 PUSH2 0x37CB JUMP JUMPDEST PUSH2 0x384D JUMPI PUSH1 0x40 MLOAD PUSH3 0x461BCD PUSH1 0xE5 SHL DUP2 MSTORE PUSH1 0x20 PUSH1 0x4 DUP3 ADD MSTORE PUSH1 0x1B PUSH1 0x24 DUP3 ADD MSTORE PUSH32 0x4D7573742068617665204164647265737320746F206765742049440000000000 PUSH1 0x44 DUP3 ADD MSTORE PUSH1 0x64 ADD PUSH2 0x58B JUMP JUMPDEST PUSH1 0x1 PUSH1 0x1 PUSH1 0xA0 SHL SUB DUP3 AND PUSH1 0x0 SWAP1 DUP2 MSTORE PUSH1 0x1 DUP5 DUP2 ADD PUSH1 0x20 MSTORE PUSH1 0x40 SWAP1 SWAP2 KECCAK256 SLOAD PUSH2 0xAAA SWAP2 SWAP1 PUSH1 0x1 PUSH1 0x1 PUSH1 0x40 SHL SUB AND PUSH2 0x5212 JUMP JUMPDEST PUSH1 0x33 SLOAD PUSH1 0x1 PUSH1 0x1 PUSH1 0xA0 SHL SUB AND CALLER EQ PUSH2 0x17C1 JUMPI PUSH1 0x40 MLOAD PUSH3 0x461BCD PUSH1 0xE5 SHL DUP2 MSTORE PUSH1 0x20 PUSH1 0x4 DUP3 ADD DUP2 SWAP1 MSTORE PUSH1 0x24 DUP3 ADD MSTORE PUSH32 0x4F776E61626C653A2063616C6C6572206973206E6F7420746865206F776E6572 PUSH1 0x44 DUP3 ADD MSTORE PUSH1 0x64 ADD PUSH2 0x58B JUMP JUMPDEST PUSH1 0x0 PUSH1 0x2 PUSH1 0x1 PUSH1 0x60 SHL SUB NOT DUP3 EQ ISZERO PUSH2 0x393C JUMPI PUSH1 0x40 MLOAD PUSH3 0x461BCD PUSH1 0xE5 SHL DUP2 MSTORE PUSH1 0x20 PUSH1 0x4 DUP3 ADD MSTORE PUSH1 0x22 PUSH1 0x24 DUP3 ADD MSTORE PUSH32 0x547279696E6720746F20676574206E657874206F66206C61737420656C656D65 PUSH1 0x44 DUP3 ADD MSTORE PUSH2 0x1B9D PUSH1 0xF2 SHL PUSH1 0x64 DUP3 ADD MSTORE PUSH1 0x84 ADD PUSH2 0x58B JUMP JUMPDEST PUSH1 0x0 DUP3 DUP2 MSTORE PUSH1 0x20 DUP5 SWAP1 MSTORE PUSH1 0x40 SWAP1 KECCAK256 SLOAD DUP1 PUSH2 0xAAA JUMPI PUSH1 0x40 MLOAD PUSH3 0x461BCD PUSH1 0xE5 SHL DUP2 MSTORE PUSH1 0x20 PUSH1 0x4 DUP3 ADD MSTORE PUSH1 0x2A PUSH1 0x24 DUP3 ADD MSTORE PUSH32 0x547279696E6720746F20676574206E657874206F66206E6F6E2D657869737465 PUSH1 0x44 DUP3 ADD MSTORE PUSH10 0x1B9D08195B195B595B9D PUSH1 0xB2 SHL PUSH1 0x64 DUP3 ADD MSTORE PUSH1 0x84 ADD PUSH2 0x58B JUMP JUMPDEST PUSH1 0x0 PUSH2 0xAAA DUP3 DUP5 PUSH2 0x4E4A JUMP JUMPDEST PUSH1 0x0 PUSH2 0xAAA DUP3 DUP5 PUSH2 0x4E69 JUMP JUMPDEST PUSH1 0x0 PUSH2 0xAAA DUP3 DUP5 PUSH2 0x523A JUMP JUMPDEST PUSH1 0x0 PUSH1 0x1 PUSH1 0x60 SHL DUP3 LT PUSH2 0x3613 JUMPI PUSH1 0x40 MLOAD PUSH3 0x461BCD PUSH1 0xE5 SHL DUP2 MSTORE PUSH1 0x20 PUSH1 0x4 DUP3 ADD MSTORE PUSH1 0x26 PUSH1 0x24 DUP3 ADD MSTORE PUSH32 0x53616665436173743A2076616C756520646F65736E27742066697420696E2039 PUSH1 0x44 DUP3 ADD MSTORE PUSH6 0x362062697473 PUSH1 0xD0 SHL PUSH1 0x64 DUP3 ADD MSTORE PUSH1 0x84 ADD PUSH2 0x58B JUMP JUMPDEST PUSH1 0x1 PUSH1 0x1 PUSH1 0x40 SHL SUB DUP5 AND PUSH1 0x0 SWAP1 DUP2 MSTORE PUSH1 0x65 PUSH1 0x20 MSTORE PUSH1 0x40 DUP2 KECCAK256 PUSH1 0x10 ADD SLOAD PUSH2 0x3A6B SWAP1 PUSH2 0x3E8 SWAP1 PUSH2 0x1187 SWAP1 PUSH1 0x1 PUSH1 0x1 PUSH1 0x60 SHL SUB DUP7 AND SWAP1 PUSH2 0x39AB JUMP JUMPDEST PUSH1 0x1 PUSH1 0x1 PUSH1 0x40 SHL SUB DUP7 AND PUSH1 0x0 SWAP1 DUP2 MSTORE PUSH1 0x65 PUSH1 0x20 MSTORE PUSH1 0x40 SWAP1 KECCAK256 PUSH1 0x9 ADD SLOAD SWAP1 SWAP2 POP PUSH4 0x1000000 SWAP1 DIV PUSH1 0xFF AND ISZERO PUSH2 0x3ABD JUMPI PUSH2 0x3AB8 DUP6 PUSH2 0x3AB0 PUSH1 0x1 PUSH1 0x1 PUSH1 0x60 SHL SUB DUP6 AND DUP5 PUSH2 0x323E JUMP JUMPDEST PUSH1 0x0 DUP7 PUSH2 0x3E55 JUMP JUMPDEST PUSH2 0x3B87 JUMP JUMPDEST PUSH1 0x1 PUSH1 0x1 PUSH1 0x40 SHL SUB DUP6 AND PUSH1 0x0 SWAP1 DUP2 MSTORE PUSH1 0x65 PUSH1 0x20 MSTORE PUSH1 0x40 DUP2 KECCAK256 PUSH1 0xE ADD SLOAD PUSH1 0x60 DUP2 SWAP1 SHR SWAP2 PUSH2 0x3AF2 PUSH1 0x1 PUSH1 0x1 PUSH1 0x60 SHL SUB DUP7 AND DUP9 PUSH2 0x39C3 JUMP JUMPDEST SWAP1 POP PUSH1 0x0 PUSH2 0x3B17 PUSH2 0x3B10 PUSH1 0x1 PUSH1 0x1 PUSH1 0x60 SHL SUB DUP9 AND PUSH2 0x1187 DUP9 DUP7 PUSH2 0x39AB JUMP JUMPDEST DUP4 SWAP1 PUSH2 0x323E JUMP JUMPDEST SWAP1 POP PUSH1 0x0 PUSH2 0x3B44 DUP6 PUSH1 0x1 PUSH1 0x1 PUSH1 0x60 SHL SUB AND PUSH2 0x1187 DUP7 PUSH1 0x1 PUSH1 0x1 PUSH1 0x60 SHL SUB AND DUP13 PUSH2 0x39AB SWAP1 SWAP2 SWAP1 PUSH4 0xFFFFFFFF AND JUMP JUMPDEST SWAP1 POP PUSH2 0x3B52 DUP11 DUP4 DUP4 DUP12 PUSH2 0x3E55 JUMP JUMPDEST PUSH2 0x3B81 DUP11 PUSH2 0x3B6D PUSH1 0x1 PUSH1 0x1 PUSH1 0x60 SHL SUB DUP11 AND PUSH2 0x1187 DUP11 DUP15 PUSH2 0x39AB JUMP JUMPDEST PUSH1 0x6A SLOAD PUSH1 0x0 SWAP1 PUSH1 0x1 PUSH1 0x1 PUSH1 0x40 SHL SUB AND PUSH2 0x3E55 JUMP JUMPDEST POP POP POP POP POP JUMPDEST POP POP POP POP POP JUMP JUMPDEST PUSH1 0x0 PUSH1 0xC0 DUP4 DUP2 SHR SWAP1 PUSH1 0x60 DUP6 DUP2 SHR SWAP2 DUP7 SWAP2 SWAP1 DUP7 SWAP1 SHR SWAP1 DUP7 SWAP1 SHR DUP7 PUSH2 0x3BBD PUSH1 0x1 PUSH1 0x1 PUSH1 0x60 SHL SUB DUP1 DUP5 AND SWAP1 DUP7 AND PUSH2 0x39AB JUMP JUMPDEST PUSH2 0x3BD3 PUSH1 0x1 PUSH1 0x1 PUSH1 0x60 SHL SUB DUP8 DUP2 AND SWAP1 DUP5 AND PUSH2 0x39AB JUMP JUMPDEST LT ISZERO PUSH2 0x3BE8 JUMPI PUSH1 0x1 SWAP7 POP POP POP POP POP POP POP PUSH2 0xBE2 JUMP JUMPDEST PUSH2 0x3BFE PUSH1 0x1 PUSH1 0x1 PUSH1 0x60 SHL SUB DUP4 DUP2 AND SWAP1 DUP7 AND PUSH2 0x39AB JUMP JUMPDEST PUSH2 0x3C14 PUSH1 0x1 PUSH1 0x1 PUSH1 0x60 SHL SUB DUP8 DUP2 AND SWAP1 DUP5 AND PUSH2 0x39AB JUMP JUMPDEST GT ISZERO PUSH2 0x3C29 JUMPI PUSH1 0x0 SWAP7 POP POP POP POP POP POP POP PUSH2 0xBE2 JUMP JUMPDEST DUP2 PUSH1 0x1 PUSH1 0x1 PUSH1 0x60 SHL SUB AND DUP6 PUSH1 0x1 PUSH1 0x1 PUSH1 0x60 SHL SUB AND LT ISZERO PUSH2 0x3C52 JUMPI PUSH1 0x1 SWAP7 POP POP POP POP POP POP POP PUSH2 0xBE2 JUMP JUMPDEST DUP2 PUSH1 0x1 PUSH1 0x1 PUSH1 0x60 SHL SUB AND DUP6 PUSH1 0x1 PUSH1 0x1 PUSH1 0x60 SHL SUB AND GT ISZERO PUSH2 0x3C7B JUMPI PUSH1 0x0 SWAP7 POP POP POP POP POP POP POP PUSH2 0xBE2 JUMP JUMPDEST DUP3 PUSH1 0x1 PUSH1 0x1 PUSH1 0x40 SHL SUB AND DUP7 PUSH1 0x1 PUSH1 0x1 PUSH1 0x40 SHL SUB AND EQ ISZERO PUSH2 0x3CF3 JUMPI PUSH1 0x40 MLOAD PUSH3 0x461BCD PUSH1 0xE5 SHL DUP2 MSTORE PUSH1 0x20 PUSH1 0x4 DUP3 ADD MSTORE PUSH1 0x2D PUSH1 0x24 DUP3 ADD MSTORE PUSH32 0x75736572206973206E6F7420616C6C6F77656420746F20706C6163652073616D PUSH1 0x44 DUP3 ADD MSTORE PUSH13 0x65206F72646572207477696365 PUSH1 0x98 SHL PUSH1 0x64 DUP3 ADD MSTORE PUSH1 0x84 ADD PUSH2 0x58B JUMP JUMPDEST DUP3 PUSH1 0x1 PUSH1 0x1 PUSH1 0x40 SHL SUB AND DUP7 PUSH1 0x1 PUSH1 0x1 PUSH1 0x40 SHL SUB AND LT ISZERO PUSH2 0x3D1C JUMPI PUSH1 0x1 SWAP7 POP POP POP POP POP POP POP PUSH2 0xBE2 JUMP JUMPDEST POP PUSH1 0x0 SWAP9 SWAP8 POP POP POP POP POP POP POP POP JUMP JUMPDEST PUSH1 0x0 PUSH1 0x1 DUP3 EQ ISZERO PUSH2 0x3D3E JUMPI POP PUSH1 0x0 PUSH2 0xBE2 JUMP JUMPDEST POP PUSH1 0x0 SWAP1 DUP2 MSTORE PUSH1 0x20 SWAP2 SWAP1 SWAP2 MSTORE PUSH1 0x40 SWAP1 KECCAK256 SLOAD ISZERO ISZERO SWAP1 JUMP JUMPDEST PUSH1 0x33 DUP1 SLOAD PUSH1 0x1 PUSH1 0x1 PUSH1 0xA0 SHL SUB DUP4 DUP2 AND PUSH1 0x1 PUSH1 0x1 PUSH1 0xA0 SHL SUB NOT DUP4 AND DUP2 OR SWAP1 SWAP4 SSTORE PUSH1 0x40 MLOAD SWAP2 AND SWAP2 SWAP1 DUP3 SWAP1 PUSH32 0x8BE0079C531659141344CD1FD0A4F28419497F9722A3DAAFE3B4186F6B6457E0 SWAP1 PUSH1 0x0 SWAP1 LOG3 POP POP JUMP JUMPDEST PUSH1 0x0 DUP1 PUSH2 0x3DB3 DUP5 DUP5 PUSH2 0x31E9 JUMP JUMPDEST SWAP1 POP DUP1 ISZERO PUSH2 0xAAA JUMPI PUSH1 0x0 SWAP3 DUP4 MSTORE PUSH1 0x1 SWAP4 SWAP1 SWAP4 ADD PUSH1 0x20 MSTORE POP PUSH1 0x40 DUP2 KECCAK256 SSTORE SWAP1 JUMP JUMPDEST PUSH1 0x40 MLOAD PUSH1 0x1 PUSH1 0x1 PUSH1 0xA0 SHL SUB DUP1 DUP6 AND PUSH1 0x24 DUP4 ADD MSTORE DUP4 AND PUSH1 0x44 DUP3 ADD MSTORE PUSH1 0x64 DUP2 ADD DUP3 SWAP1 MSTORE PUSH2 0x3E0A SWAP1 DUP6 SWAP1 PUSH4 0x23B872DD PUSH1 0xE0 SHL SWAP1 PUSH1 0x84 ADD PUSH2 0x3276 JUMP JUMPDEST POP POP POP POP JUMP JUMPDEST PUSH1 0x0 SLOAD PUSH2 0x100 SWAP1 DIV PUSH1 0xFF AND PUSH2 0x3E37 JUMPI PUSH1 0x40 MLOAD PUSH3 0x461BCD PUSH1 0xE5 SHL DUP2 MSTORE PUSH1 0x4 ADD PUSH2 0x58B SWAP1 PUSH2 0x5251 JUMP JUMPDEST PUSH2 0x17C1 PUSH2 0x41C4 JUMP JUMPDEST PUSH1 0x0 DUP3 PUSH2 0x3E4C DUP6 DUP5 PUSH2 0x41F4 JUMP JUMPDEST EQ SWAP5 SWAP4 POP POP POP POP JUMP JUMPDEST PUSH1 0x0 PUSH2 0x3E62 PUSH1 0x68 DUP4 PUSH2 0x4241 JUMP JUMPDEST SWAP1 POP DUP4 ISZERO PUSH2 0x3ED6 JUMPI PUSH1 0x1 PUSH1 0x1 PUSH1 0x40 SHL SUB DUP6 AND PUSH1 0x0 SWAP1 DUP2 MSTORE PUSH1 0x65 PUSH1 0x20 MSTORE PUSH1 0x40 SWAP1 KECCAK256 PUSH1 0x7 ADD SLOAD PUSH2 0x3ED6 SWAP1 DUP3 SWAP1 PUSH8 0xDE0B6B3A7640000 SWAP1 PUSH2 0x3EA0 SWAP1 DUP9 PUSH2 0x4E4A JUMP JUMPDEST PUSH2 0x3EAA SWAP2 SWAP1 PUSH2 0x4E69 JUMP JUMPDEST PUSH1 0x1 PUSH1 0x1 PUSH1 0x40 SHL SUB DUP9 AND PUSH1 0x0 SWAP1 DUP2 MSTORE PUSH1 0x65 PUSH1 0x20 MSTORE PUSH1 0x40 SWAP1 KECCAK256 PUSH1 0x1 ADD SLOAD PUSH1 0x1 PUSH1 0x1 PUSH1 0xA0 SHL SUB AND SWAP2 SWAP1 PUSH2 0x324A JUMP JUMPDEST DUP3 ISZERO PUSH2 0x3B87 JUMPI PUSH1 0x1 PUSH1 0x1 PUSH1 0x40 SHL SUB DUP6 AND PUSH1 0x0 SWAP1 DUP2 MSTORE PUSH1 0x65 PUSH1 0x20 MSTORE PUSH1 0x40 SWAP1 KECCAK256 PUSH1 0x8 ADD SLOAD PUSH2 0x3B87 SWAP1 DUP3 SWAP1 PUSH8 0xDE0B6B3A7640000 SWAP1 PUSH2 0x3F12 SWAP1 DUP8 PUSH2 0x4E4A JUMP JUMPDEST PUSH2 0x3F1C SWAP2 SWAP1 PUSH2 0x4E69 JUMP JUMPDEST PUSH1 0x1 PUSH1 0x1 PUSH1 0x40 SHL SUB DUP9 AND PUSH1 0x0 SWAP1 DUP2 MSTORE PUSH1 0x65 PUSH1 0x20 MSTORE PUSH1 0x40 SWAP1 KECCAK256 PUSH1 0x2 ADD SLOAD PUSH1 0x1 PUSH1 0x1 PUSH1 0xA0 SHL SUB AND SWAP2 SWAP1 PUSH2 0x324A JUMP JUMPDEST PUSH1 0x0 PUSH2 0x3F9D DUP3 PUSH1 0x40 MLOAD DUP1 PUSH1 0x40 ADD PUSH1 0x40 MSTORE DUP1 PUSH1 0x20 DUP2 MSTORE PUSH1 0x20 ADD PUSH32 0x5361666545524332303A206C6F772D6C6576656C2063616C6C206661696C6564 DUP2 MSTORE POP DUP6 PUSH1 0x1 PUSH1 0x1 PUSH1 0xA0 SHL SUB AND PUSH2 0x42D1 SWAP1 SWAP3 SWAP2 SWAP1 PUSH4 0xFFFFFFFF AND JUMP JUMPDEST DUP1 MLOAD SWAP1 SWAP2 POP ISZERO PUSH2 0x32AD JUMPI DUP1 DUP1 PUSH1 0x20 ADD SWAP1 MLOAD DUP2 ADD SWAP1 PUSH2 0x3FBB SWAP2 SWAP1 PUSH2 0x529C JUMP JUMPDEST PUSH2 0x32AD JUMPI PUSH1 0x40 MLOAD PUSH3 0x461BCD PUSH1 0xE5 SHL DUP2 MSTORE PUSH1 0x20 PUSH1 0x4 DUP3 ADD MSTORE PUSH1 0x2A PUSH1 0x24 DUP3 ADD MSTORE PUSH32 0x5361666545524332303A204552433230206F7065726174696F6E20646964206E PUSH1 0x44 DUP3 ADD MSTORE PUSH10 0x1BDD081CDD58D8D95959 PUSH1 0xB2 SHL PUSH1 0x64 DUP3 ADD MSTORE PUSH1 0x84 ADD PUSH2 0x58B JUMP JUMPDEST PUSH1 0x0 DUP3 PUSH1 0x1 PUSH1 0x1 PUSH1 0x60 SHL SUB DUP2 AND PUSH2 0x4073 JUMPI PUSH1 0x40 MLOAD PUSH3 0x461BCD PUSH1 0xE5 SHL DUP2 MSTORE PUSH1 0x20 PUSH1 0x4 DUP3 ADD MSTORE PUSH1 0x1F PUSH1 0x24 DUP3 ADD MSTORE PUSH32 0x496E73657274696E67207A65726F206973206E6F7420737570706F7274656400 PUSH1 0x44 DUP3 ADD MSTORE PUSH1 0x64 ADD PUSH2 0x58B JUMP JUMPDEST PUSH1 0x1 DUP5 EQ DUP1 ISZERO SWAP1 PUSH2 0x408C JUMPI POP PUSH1 0x2 PUSH1 0x1 PUSH1 0x60 SHL SUB NOT DUP5 EQ ISZERO JUMPDEST PUSH2 0x40D8 JUMPI PUSH1 0x40 MLOAD PUSH3 0x461BCD PUSH1 0xE5 SHL DUP2 MSTORE PUSH1 0x20 PUSH1 0x4 DUP3 ADD MSTORE PUSH1 0x1E PUSH1 0x24 DUP3 ADD MSTORE PUSH32 0x496E73657274696E6720656C656D656E74206973206E6F742076616C69640000 PUSH1 0x44 DUP3 ADD MSTORE PUSH1 0x64 ADD PUSH2 0x58B JUMP JUMPDEST PUSH2 0x40E2 DUP6 DUP6 PUSH2 0x3D2B JUMP JUMPDEST ISZERO PUSH2 0x40F1 JUMPI PUSH1 0x0 SWAP2 POP POP PUSH2 0xAAA JUMP JUMPDEST PUSH1 0x1 DUP4 EQ DUP1 ISZERO SWAP1 PUSH2 0x4110 JUMPI POP PUSH1 0x0 DUP4 DUP2 MSTORE PUSH1 0x1 DUP7 ADD PUSH1 0x20 MSTORE PUSH1 0x40 SWAP1 KECCAK256 SLOAD ISZERO JUMPDEST ISZERO PUSH2 0x411F JUMPI PUSH1 0x0 SWAP2 POP POP PUSH2 0xAAA JUMP JUMPDEST PUSH2 0x4129 DUP4 DUP6 PUSH2 0x3B8E JUMP JUMPDEST PUSH2 0x4137 JUMPI PUSH1 0x0 SWAP2 POP POP PUSH2 0xAAA JUMP JUMPDEST JUMPDEST PUSH1 0x0 DUP4 DUP2 MSTORE PUSH1 0x20 DUP7 SWAP1 MSTORE PUSH1 0x40 SWAP1 KECCAK256 SLOAD PUSH2 0x4163 JUMPI PUSH1 0x0 SWAP3 DUP4 MSTORE PUSH1 0x1 DUP6 ADD PUSH1 0x20 MSTORE PUSH1 0x40 SWAP1 SWAP3 KECCAK256 SLOAD SWAP2 PUSH2 0x4138 JUMP JUMPDEST PUSH1 0x0 DUP4 JUMPDEST PUSH1 0x0 DUP2 DUP2 MSTORE PUSH1 0x20 DUP9 SWAP1 MSTORE PUSH1 0x40 SWAP1 KECCAK256 SLOAD SWAP1 SWAP2 POP PUSH2 0x4183 DUP2 DUP8 PUSH2 0x3B8E JUMP JUMPDEST PUSH2 0x4167 JUMPI PUSH1 0x0 DUP3 DUP2 MSTORE PUSH1 0x20 DUP9 DUP2 MSTORE PUSH1 0x40 DUP1 DUP4 KECCAK256 DUP10 SWAP1 SSTORE DUP4 DUP4 MSTORE PUSH1 0x1 DUP1 DUP12 ADD DUP4 MSTORE DUP2 DUP5 KECCAK256 DUP11 SWAP1 SSTORE DUP10 DUP5 MSTORE DUP2 DUP5 KECCAK256 SWAP6 SWAP1 SWAP6 SSTORE SWAP1 DUP10 SWAP1 MSTORE SWAP1 KECCAK256 SSTORE SWAP2 POP POP SWAP4 SWAP3 POP POP POP JUMP JUMPDEST PUSH1 0x0 SLOAD PUSH2 0x100 SWAP1 DIV PUSH1 0xFF AND PUSH2 0x41EB JUMPI PUSH1 0x40 MLOAD PUSH3 0x461BCD PUSH1 0xE5 SHL DUP2 MSTORE PUSH1 0x4 ADD PUSH2 0x58B SWAP1 PUSH2 0x5251 JUMP JUMPDEST PUSH2 0x17C1 CALLER PUSH2 0x3D54 JUMP JUMPDEST PUSH1 0x0 DUP2 DUP2 JUMPDEST DUP5 MLOAD DUP2 LT ISZERO PUSH2 0x4239 JUMPI PUSH2 0x4225 DUP3 DUP7 DUP4 DUP2 MLOAD DUP2 LT PUSH2 0x4218 JUMPI PUSH2 0x4218 PUSH2 0x4E03 JUMP JUMPDEST PUSH1 0x20 MUL PUSH1 0x20 ADD ADD MLOAD PUSH2 0x42E0 JUMP JUMPDEST SWAP2 POP DUP1 PUSH2 0x4231 DUP2 PUSH2 0x4E2F JUMP JUMPDEST SWAP2 POP POP PUSH2 0x41F9 JUMP JUMPDEST POP SWAP4 SWAP3 POP POP POP JUMP JUMPDEST PUSH1 0x0 PUSH2 0x424D DUP4 DUP4 PUSH2 0x430F JUMP JUMPDEST PUSH2 0x4299 JUMPI PUSH1 0x40 MLOAD PUSH3 0x461BCD PUSH1 0xE5 SHL DUP2 MSTORE PUSH1 0x20 PUSH1 0x4 DUP3 ADD MSTORE PUSH1 0x1B PUSH1 0x24 DUP3 ADD MSTORE PUSH32 0x4D757374206861766520494420746F2067657420416464726573730000000000 PUSH1 0x44 DUP3 ADD MSTORE PUSH1 0x64 ADD PUSH2 0x58B JUMP JUMPDEST DUP3 PUSH1 0x0 PUSH2 0x42A7 DUP5 PUSH1 0x1 PUSH2 0x4F60 JUMP JUMPDEST PUSH1 0x1 PUSH1 0x1 PUSH1 0x40 SHL SUB AND DUP2 MSTORE PUSH1 0x20 DUP2 ADD SWAP2 SWAP1 SWAP2 MSTORE PUSH1 0x40 ADD PUSH1 0x0 KECCAK256 SLOAD PUSH1 0x1 PUSH1 0x1 PUSH1 0xA0 SHL SUB AND SWAP4 SWAP3 POP POP POP JUMP JUMPDEST PUSH1 0x60 PUSH2 0xAA7 DUP5 DUP5 PUSH1 0x0 DUP6 PUSH2 0x434B JUMP JUMPDEST PUSH1 0x0 DUP2 DUP4 LT PUSH2 0x42FC JUMPI PUSH1 0x0 DUP3 DUP2 MSTORE PUSH1 0x20 DUP5 SWAP1 MSTORE PUSH1 0x40 SWAP1 KECCAK256 PUSH2 0xAAA JUMP JUMPDEST PUSH1 0x0 DUP4 DUP2 MSTORE PUSH1 0x20 DUP4 SWAP1 MSTORE PUSH1 0x40 SWAP1 KECCAK256 PUSH2 0xAAA JUMP JUMPDEST PUSH1 0x0 DUP1 DUP4 DUP2 PUSH2 0x431F DUP6 PUSH1 0x1 PUSH2 0x4F60 JUMP JUMPDEST PUSH1 0x1 PUSH1 0x1 PUSH1 0x40 SHL SUB AND DUP2 MSTORE PUSH1 0x20 DUP2 ADD SWAP2 SWAP1 SWAP2 MSTORE PUSH1 0x40 ADD PUSH1 0x0 KECCAK256 SLOAD PUSH1 0x1 PUSH1 0x1 PUSH1 0xA0 SHL SUB AND EQ ISZERO SWAP4 SWAP3 POP POP POP JUMP JUMPDEST PUSH1 0x60 DUP3 SELFBALANCE LT ISZERO PUSH2 0x43AC JUMPI PUSH1 0x40 MLOAD PUSH3 0x461BCD PUSH1 0xE5 SHL DUP2 MSTORE PUSH1 0x20 PUSH1 0x4 DUP3 ADD MSTORE PUSH1 0x26 PUSH1 0x24 DUP3 ADD MSTORE PUSH32 0x416464726573733A20696E73756666696369656E742062616C616E636520666F PUSH1 0x44 DUP3 ADD MSTORE PUSH6 0x1C8818D85B1B PUSH1 0xD2 SHL PUSH1 0x64 DUP3 ADD MSTORE PUSH1 0x84 ADD PUSH2 0x58B JUMP JUMPDEST PUSH1 0x0 DUP1 DUP7 PUSH1 0x1 PUSH1 0x1 PUSH1 0xA0 SHL SUB AND DUP6 DUP8 PUSH1 0x40 MLOAD PUSH2 0x43C8 SWAP2 SWAP1 PUSH2 0x52B9 JUMP JUMPDEST PUSH1 0x0 PUSH1 0x40 MLOAD DUP1 DUP4 SUB DUP2 DUP6 DUP8 GAS CALL SWAP3 POP POP POP RETURNDATASIZE DUP1 PUSH1 0x0 DUP2 EQ PUSH2 0x4405 JUMPI PUSH1 0x40 MLOAD SWAP2 POP PUSH1 0x1F NOT PUSH1 0x3F RETURNDATASIZE ADD AND DUP3 ADD PUSH1 0x40 MSTORE RETURNDATASIZE DUP3 MSTORE RETURNDATASIZE PUSH1 0x0 PUSH1 0x20 DUP5 ADD RETURNDATACOPY PUSH2 0x440A JUMP JUMPDEST PUSH1 0x60 SWAP2 POP JUMPDEST POP SWAP2 POP SWAP2 POP PUSH2 0x441B DUP8 DUP4 DUP4 DUP8 PUSH2 0x4428 JUMP JUMPDEST SWAP3 POP POP POP JUMPDEST SWAP5 SWAP4 POP POP POP POP JUMP JUMPDEST PUSH1 0x60 DUP4 ISZERO PUSH2 0x4494 JUMPI DUP3 MLOAD PUSH2 0x448D JUMPI PUSH1 0x1 PUSH1 0x1 PUSH1 0xA0 SHL SUB DUP6 AND EXTCODESIZE PUSH2 0x448D JUMPI PUSH1 0x40 MLOAD PUSH3 0x461BCD PUSH1 0xE5 SHL DUP2 MSTORE PUSH1 0x20 PUSH1 0x4 DUP3 ADD MSTORE PUSH1 0x1D PUSH1 0x24 DUP3 ADD MSTORE PUSH32 0x416464726573733A2063616C6C20746F206E6F6E2D636F6E7472616374000000 PUSH1 0x44 DUP3 ADD MSTORE PUSH1 0x64 ADD PUSH2 0x58B JUMP JUMPDEST POP DUP2 PUSH2 0x4420 JUMP JUMPDEST PUSH2 0x4420 DUP4 DUP4 DUP2 MLOAD ISZERO PUSH2 0x44A9 JUMPI DUP2 MLOAD DUP1 DUP4 PUSH1 0x20 ADD REVERT JUMPDEST DUP1 PUSH1 0x40 MLOAD PUSH3 0x461BCD PUSH1 0xE5 SHL DUP2 MSTORE PUSH1 0x4 ADD PUSH2 0x58B SWAP2 SWAP1 PUSH2 0x4DB9 JUMP JUMPDEST DUP3 DUP1 SLOAD PUSH2 0x44CF SWAP1 PUSH2 0x51D7 JUMP JUMPDEST SWAP1 PUSH1 0x0 MSTORE PUSH1 0x20 PUSH1 0x0 KECCAK256 SWAP1 PUSH1 0x1F ADD PUSH1 0x20 SWAP1 DIV DUP2 ADD SWAP3 DUP3 PUSH2 0x44F1 JUMPI PUSH1 0x0 DUP6 SSTORE PUSH2 0x4537 JUMP JUMPDEST DUP3 PUSH1 0x1F LT PUSH2 0x450A JUMPI DUP1 MLOAD PUSH1 0xFF NOT AND DUP4 DUP1 ADD OR DUP6 SSTORE PUSH2 0x4537 JUMP JUMPDEST DUP3 DUP1 ADD PUSH1 0x1 ADD DUP6 SSTORE DUP3 ISZERO PUSH2 0x4537 JUMPI SWAP2 DUP3 ADD JUMPDEST DUP3 DUP2 GT ISZERO PUSH2 0x4537 JUMPI DUP3 MLOAD DUP3 SSTORE SWAP2 PUSH1 0x20 ADD SWAP2 SWAP1 PUSH1 0x1 ADD SWAP1 PUSH2 0x451C JUMP JUMPDEST POP PUSH2 0x3613 SWAP3 SWAP2 POP JUMPDEST DUP1 DUP3 GT ISZERO PUSH2 0x3613 JUMPI PUSH1 0x0 DUP2 SSTORE PUSH1 0x1 ADD PUSH2 0x453F JUMP JUMPDEST DUP1 CALLDATALOAD PUSH1 0x1 PUSH1 0x1 PUSH1 0x40 SHL SUB DUP2 AND DUP2 EQ PUSH2 0xC34 JUMPI PUSH1 0x0 DUP1 REVERT JUMPDEST PUSH4 0x4E487B71 PUSH1 0xE0 SHL PUSH1 0x0 MSTORE PUSH1 0x41 PUSH1 0x4 MSTORE PUSH1 0x24 PUSH1 0x0 REVERT JUMPDEST PUSH1 0x40 MLOAD PUSH2 0x180 DUP2 ADD PUSH1 0x1 PUSH1 0x1 PUSH1 0x40 SHL SUB DUP2 GT DUP3 DUP3 LT OR ISZERO PUSH2 0x45A3 JUMPI PUSH2 0x45A3 PUSH2 0x456A JUMP JUMPDEST PUSH1 0x40 MSTORE SWAP1 JUMP JUMPDEST PUSH1 0x40 MLOAD PUSH1 0x1F DUP3 ADD PUSH1 0x1F NOT AND DUP2 ADD PUSH1 0x1 PUSH1 0x1 PUSH1 0x40 SHL SUB DUP2 GT DUP3 DUP3 LT OR ISZERO PUSH2 0x45D1 JUMPI PUSH2 0x45D1 PUSH2 0x456A JUMP JUMPDEST PUSH1 0x40 MSTORE SWAP2 SWAP1 POP JUMP JUMPDEST PUSH1 0x0 PUSH1 0x1 PUSH1 0x1 PUSH1 0x40 SHL SUB DUP3 GT ISZERO PUSH2 0x45F2 JUMPI PUSH2 0x45F2 PUSH2 0x456A JUMP JUMPDEST POP PUSH1 0x5 SHL PUSH1 0x20 ADD SWAP1 JUMP JUMPDEST PUSH1 0x0 DUP3 PUSH1 0x1F DUP4 ADD SLT PUSH2 0x460D JUMPI PUSH1 0x0 DUP1 REVERT JUMPDEST DUP2 CALLDATALOAD PUSH1 0x20 PUSH2 0x4622 PUSH2 0x461D DUP4 PUSH2 0x45D9 JUMP JUMPDEST PUSH2 0x45A9 JUMP JUMPDEST DUP3 DUP2 MSTORE PUSH1 0x5 SWAP3 SWAP1 SWAP3 SHL DUP5 ADD DUP2 ADD SWAP2 DUP2 DUP2 ADD SWAP1 DUP7 DUP5 GT ISZERO PUSH2 0x4641 JUMPI PUSH1 0x0 DUP1 REVERT JUMPDEST DUP3 DUP7 ADD JUMPDEST DUP5 DUP2 LT ISZERO PUSH2 0x465C JUMPI DUP1 CALLDATALOAD DUP4 MSTORE SWAP2 DUP4 ADD SWAP2 DUP4 ADD PUSH2 0x4645 JUMP JUMPDEST POP SWAP7 SWAP6 POP POP POP POP POP POP JUMP JUMPDEST PUSH1 0x0 DUP1 PUSH1 0x40 DUP4 DUP6 SUB SLT ISZERO PUSH2 0x467A JUMPI PUSH1 0x0 DUP1 REVERT JUMPDEST PUSH2 0x4683 DUP4 PUSH2 0x4553 JUMP JUMPDEST SWAP2 POP PUSH1 0x20 DUP4 ADD CALLDATALOAD PUSH1 0x1 PUSH1 0x1 PUSH1 0x40 SHL SUB DUP2 GT ISZERO PUSH2 0x469E JUMPI PUSH1 0x0 DUP1 REVERT JUMPDEST PUSH2 0x46AA DUP6 DUP3 DUP7 ADD PUSH2 0x45FC JUMP JUMPDEST SWAP2 POP POP SWAP3 POP SWAP3 SWAP1 POP JUMP JUMPDEST DUP1 CALLDATALOAD PUSH1 0x1 PUSH1 0x1 PUSH1 0x60 SHL SUB DUP2 AND DUP2 EQ PUSH2 0xC34 JUMPI PUSH1 0x0 DUP1 REVERT JUMPDEST PUSH1 0x0 DUP3 PUSH1 0x1F DUP4 ADD SLT PUSH2 0x46DC JUMPI PUSH1 0x0 DUP1 REVERT JUMPDEST DUP2 CALLDATALOAD PUSH1 0x20 PUSH2 0x46EC PUSH2 0x461D DUP4 PUSH2 0x45D9 JUMP JUMPDEST DUP3 DUP2 MSTORE PUSH1 0x5 SWAP3 SWAP1 SWAP3 SHL DUP5 ADD DUP2 ADD SWAP2 DUP2 DUP2 ADD SWAP1 DUP7 DUP5 GT ISZERO PUSH2 0x470B JUMPI PUSH1 0x0 DUP1 REVERT JUMPDEST DUP3 DUP7 ADD JUMPDEST DUP5 DUP2 LT ISZERO PUSH2 0x465C JUMPI PUSH2 0x4720 DUP2 PUSH2 0x46B4 JUMP JUMPDEST DUP4 MSTORE SWAP2 DUP4 ADD SWAP2 DUP4 ADD PUSH2 0x470F JUMP JUMPDEST PUSH1 0x1 PUSH1 0x1 PUSH1 0xA0 SHL SUB DUP2 AND DUP2 EQ PUSH2 0xBC2 JUMPI PUSH1 0x0 DUP1 REVERT JUMPDEST PUSH1 0x0 DUP1 PUSH1 0x0 DUP1 PUSH1 0x0 PUSH1 0xA0 DUP7 DUP9 SUB SLT ISZERO PUSH2 0x475A JUMPI PUSH1 0x0 DUP1 REVERT JUMPDEST PUSH2 0x4763 DUP7 PUSH2 0x4553 JUMP JUMPDEST SWAP5 POP PUSH1 0x20 DUP7 ADD CALLDATALOAD PUSH1 0x1 PUSH1 0x1 PUSH1 0x40 SHL SUB DUP1 DUP3 GT ISZERO PUSH2 0x477F JUMPI PUSH1 0x0 DUP1 REVERT JUMPDEST PUSH2 0x478B DUP10 DUP4 DUP11 ADD PUSH2 0x46CB JUMP JUMPDEST SWAP6 POP PUSH1 0x40 DUP9 ADD CALLDATALOAD SWAP2 POP DUP1 DUP3 GT ISZERO PUSH2 0x47A1 JUMPI PUSH1 0x0 DUP1 REVERT JUMPDEST PUSH2 0x47AD DUP10 DUP4 DUP11 ADD PUSH2 0x46CB JUMP JUMPDEST SWAP5 POP PUSH1 0x60 DUP9 ADD CALLDATALOAD SWAP2 POP DUP1 DUP3 GT ISZERO PUSH2 0x47C3 JUMPI PUSH1 0x0 DUP1 REVERT JUMPDEST POP PUSH2 0x47D0 DUP9 DUP3 DUP10 ADD PUSH2 0x45FC JUMP JUMPDEST SWAP3 POP POP PUSH1 0x80 DUP7 ADD CALLDATALOAD PUSH2 0x47E1 DUP2 PUSH2 0x472D JUMP JUMPDEST DUP1 SWAP2 POP POP SWAP3 SWAP6 POP SWAP3 SWAP6 SWAP1 SWAP4 POP JUMP JUMPDEST PUSH1 0x0 PUSH1 0x20 DUP3 DUP5 SUB SLT ISZERO PUSH2 0x4801 JUMPI PUSH1 0x0 DUP1 REVERT JUMPDEST DUP2 CALLDATALOAD PUSH2 0xAAA DUP2 PUSH2 0x472D JUMP JUMPDEST PUSH1 0x0 DUP1 PUSH1 0x0 PUSH1 0x60 DUP5 DUP7 SUB SLT ISZERO PUSH2 0x4821 JUMPI PUSH1 0x0 DUP1 REVERT JUMPDEST PUSH2 0x482A DUP5 PUSH2 0x4553 JUMP JUMPDEST SWAP3 POP PUSH2 0x4838 PUSH1 0x20 DUP6 ADD PUSH2 0x46B4 JUMP JUMPDEST SWAP2 POP PUSH2 0x4846 PUSH1 0x40 DUP6 ADD PUSH2 0x46B4 JUMP JUMPDEST SWAP1 POP SWAP3 POP SWAP3 POP SWAP3 JUMP JUMPDEST PUSH1 0x0 PUSH1 0x20 DUP3 DUP5 SUB SLT ISZERO PUSH2 0x4861 JUMPI PUSH1 0x0 DUP1 REVERT JUMPDEST PUSH2 0xAAA DUP3 PUSH2 0x4553 JUMP JUMPDEST DUP1 CALLDATALOAD PUSH5 0xFFFFFFFFFF DUP2 AND DUP2 EQ PUSH2 0xC34 JUMPI PUSH1 0x0 DUP1 REVERT JUMPDEST PUSH1 0x0 DUP1 PUSH1 0x0 DUP1 PUSH1 0x0 DUP1 PUSH1 0xC0 DUP8 DUP10 SUB SLT ISZERO PUSH2 0x4898 JUMPI PUSH1 0x0 DUP1 REVERT JUMPDEST PUSH2 0x48A1 DUP8 PUSH2 0x4553 JUMP JUMPDEST SWAP6 POP PUSH2 0x48AF PUSH1 0x20 DUP9 ADD PUSH2 0x486A JUMP JUMPDEST SWAP5 POP PUSH2 0x48BD PUSH1 0x40 DUP9 ADD PUSH2 0x486A JUMP JUMPDEST SWAP4 POP PUSH2 0x48CB PUSH1 0x60 DUP9 ADD PUSH2 0x486A JUMP JUMPDEST SWAP3 POP PUSH1 0x80 DUP8 ADD CALLDATALOAD SWAP2 POP PUSH1 0xA0 DUP8 ADD CALLDATALOAD SWAP1 POP SWAP3 SWAP6 POP SWAP3 SWAP6 POP SWAP3 SWAP6 JUMP JUMPDEST PUSH1 0x0 DUP1 PUSH1 0x40 DUP4 DUP6 SUB SLT ISZERO PUSH2 0x48F8 JUMPI PUSH1 0x0 DUP1 REVERT JUMPDEST PUSH2 0x4901 DUP4 PUSH2 0x4553 JUMP JUMPDEST SWAP5 PUSH1 0x20 SWAP4 SWAP1 SWAP4 ADD CALLDATALOAD SWAP4 POP POP POP JUMP JUMPDEST PUSH1 0x0 DUP1 PUSH1 0x0 DUP1 PUSH1 0x80 DUP6 DUP8 SUB SLT ISZERO PUSH2 0x4925 JUMPI PUSH1 0x0 DUP1 REVERT JUMPDEST PUSH2 0x492E DUP6 PUSH2 0x4553 JUMP JUMPDEST SWAP4 POP PUSH1 0x20 DUP6 ADD CALLDATALOAD PUSH1 0x1 PUSH1 0x1 PUSH1 0x40 SHL SUB DUP1 DUP3 GT ISZERO PUSH2 0x494A JUMPI PUSH1 0x0 DUP1 REVERT JUMPDEST PUSH2 0x4956 DUP9 DUP4 DUP10 ADD PUSH2 0x46CB JUMP JUMPDEST SWAP5 POP PUSH1 0x40 DUP8 ADD CALLDATALOAD SWAP2 POP DUP1 DUP3 GT ISZERO PUSH2 0x496C JUMPI PUSH1 0x0 DUP1 REVERT JUMPDEST PUSH2 0x4978 DUP9 DUP4 DUP10 ADD PUSH2 0x46CB JUMP JUMPDEST SWAP4 POP PUSH1 0x60 DUP8 ADD CALLDATALOAD SWAP2 POP DUP1 DUP3 GT ISZERO PUSH2 0x498E JUMPI PUSH1 0x0 DUP1 REVERT JUMPDEST POP PUSH2 0x499B DUP8 DUP3 DUP9 ADD PUSH2 0x45FC JUMP JUMPDEST SWAP2 POP POP SWAP3 SWAP6 SWAP2 SWAP5 POP SWAP3 POP JUMP JUMPDEST PUSH1 0x0 DUP1 PUSH1 0x40 DUP4 DUP6 SUB SLT ISZERO PUSH2 0x49BA JUMPI PUSH1 0x0 DUP1 REVERT JUMPDEST DUP3 CALLDATALOAD SWAP2 POP PUSH1 0x20 DUP4 ADD CALLDATALOAD PUSH2 0x49CC DUP2 PUSH2 0x472D JUMP JUMPDEST DUP1 SWAP2 POP POP SWAP3 POP SWAP3 SWAP1 POP JUMP JUMPDEST PUSH1 0x0 DUP3 PUSH1 0x1F DUP4 ADD SLT PUSH2 0x49E8 JUMPI PUSH1 0x0 DUP1 REVERT JUMPDEST DUP2 CALLDATALOAD PUSH1 0x1 PUSH1 0x1 PUSH1 0x40 SHL SUB DUP2 GT ISZERO PUSH2 0x4A01 JUMPI PUSH2 0x4A01 PUSH2 0x456A JUMP JUMPDEST PUSH2 0x4A14 PUSH1 0x1F DUP3 ADD PUSH1 0x1F NOT AND PUSH1 0x20 ADD PUSH2 0x45A9 JUMP JUMPDEST DUP2 DUP2 MSTORE DUP5 PUSH1 0x20 DUP4 DUP7 ADD ADD GT ISZERO PUSH2 0x4A29 JUMPI PUSH1 0x0 DUP1 REVERT JUMPDEST DUP2 PUSH1 0x20 DUP6 ADD PUSH1 0x20 DUP4 ADD CALLDATACOPY PUSH1 0x0 SWAP2 DUP2 ADD PUSH1 0x20 ADD SWAP2 SWAP1 SWAP2 MSTORE SWAP4 SWAP3 POP POP POP JUMP JUMPDEST PUSH1 0x0 DUP1 PUSH1 0x40 DUP4 DUP6 SUB SLT ISZERO PUSH2 0x4A59 JUMPI PUSH1 0x0 DUP1 REVERT JUMPDEST PUSH2 0x4A62 DUP4 PUSH2 0x4553 JUMP JUMPDEST SWAP2 POP PUSH1 0x20 DUP4 ADD CALLDATALOAD PUSH1 0x1 PUSH1 0x1 PUSH1 0x40 SHL SUB DUP2 GT ISZERO PUSH2 0x4A7D JUMPI PUSH1 0x0 DUP1 REVERT JUMPDEST PUSH2 0x46AA DUP6 DUP3 DUP7 ADD PUSH2 0x49D7 JUMP JUMPDEST PUSH1 0x0 PUSH1 0x20 DUP3 DUP5 SUB SLT ISZERO PUSH2 0x4A9B JUMPI PUSH1 0x0 DUP1 REVERT JUMPDEST DUP2 CALLDATALOAD PUSH1 0x1 PUSH1 0x1 PUSH1 0x40 SHL SUB DUP2 GT ISZERO PUSH2 0x4AB1 JUMPI PUSH1 0x0 DUP1 REVERT JUMPDEST DUP3 ADD PUSH2 0x1A0 DUP2 DUP6 SUB SLT ISZERO PUSH2 0xAAA JUMPI PUSH1 0x0 DUP1 REVERT JUMPDEST PUSH1 0x0 DUP1 PUSH1 0x0 DUP1 PUSH1 0x0 DUP1 PUSH1 0xA0 DUP8 DUP10 SUB SLT ISZERO PUSH2 0x4ADD JUMPI PUSH1 0x0 DUP1 REVERT JUMPDEST PUSH2 0x4AE6 DUP8 PUSH2 0x4553 JUMP JUMPDEST SWAP6 POP PUSH1 0x20 DUP8 ADD CALLDATALOAD PUSH1 0x1 PUSH1 0x1 PUSH1 0x40 SHL SUB DUP1 DUP3 GT ISZERO PUSH2 0x4B02 JUMPI PUSH1 0x0 DUP1 REVERT JUMPDEST DUP2 DUP10 ADD SWAP2 POP DUP10 PUSH1 0x1F DUP4 ADD SLT PUSH2 0x4B16 JUMPI PUSH1 0x0 DUP1 REVERT JUMPDEST DUP2 CALLDATALOAD DUP2 DUP2 GT ISZERO PUSH2 0x4B25 JUMPI PUSH1 0x0 DUP1 REVERT JUMPDEST DUP11 PUSH1 0x20 DUP3 PUSH1 0x5 SHL DUP6 ADD ADD GT ISZERO PUSH2 0x4B3A JUMPI PUSH1 0x0 DUP1 REVERT JUMPDEST PUSH1 0x20 DUP4 ADD SWAP8 POP DUP1 SWAP7 POP POP PUSH1 0x40 DUP10 ADD CALLDATALOAD SWAP2 POP DUP1 DUP3 GT ISZERO PUSH2 0x4B58 JUMPI PUSH1 0x0 DUP1 REVERT JUMPDEST PUSH2 0x4B64 DUP11 DUP4 DUP12 ADD PUSH2 0x46CB JUMP JUMPDEST SWAP5 POP PUSH1 0x60 DUP10 ADD CALLDATALOAD SWAP2 POP DUP1 DUP3 GT ISZERO PUSH2 0x4B7A JUMPI PUSH1 0x0 DUP1 REVERT JUMPDEST PUSH2 0x4B86 DUP11 DUP4 DUP12 ADD PUSH2 0x46CB JUMP JUMPDEST SWAP4 POP PUSH1 0x80 DUP10 ADD CALLDATALOAD SWAP2 POP DUP1 DUP3 GT ISZERO PUSH2 0x4B9C JUMPI PUSH1 0x0 DUP1 REVERT JUMPDEST POP PUSH2 0x4BA9 DUP10 DUP3 DUP11 ADD PUSH2 0x45FC JUMP JUMPDEST SWAP2 POP POP SWAP3 SWAP6 POP SWAP3 SWAP6 POP SWAP3 SWAP6 JUMP JUMPDEST PUSH1 0x0 JUMPDEST DUP4 DUP2 LT ISZERO PUSH2 0x4BD1 JUMPI DUP2 DUP2 ADD MLOAD DUP4 DUP3 ADD MSTORE PUSH1 0x20 ADD PUSH2 0x4BB9 JUMP JUMPDEST DUP4 DUP2 GT ISZERO PUSH2 0x3E0A JUMPI POP POP PUSH1 0x0 SWAP2 ADD MSTORE JUMP JUMPDEST PUSH1 0x0 DUP2 MLOAD DUP1 DUP5 MSTORE PUSH2 0x4BFA DUP2 PUSH1 0x20 DUP7 ADD PUSH1 0x20 DUP7 ADD PUSH2 0x4BB6 JUMP JUMPDEST PUSH1 0x1F ADD PUSH1 0x1F NOT AND SWAP3 SWAP1 SWAP3 ADD PUSH1 0x20 ADD SWAP3 SWAP2 POP POP JUMP JUMPDEST PUSH1 0x0 PUSH2 0x1A0 DUP1 DUP4 MSTORE DUP13 MLOAD DUP2 DUP3 DUP6 ADD MSTORE PUSH2 0x4C2B PUSH2 0x340 DUP6 ADD DUP3 PUSH2 0x4BE2 JUMP JUMPDEST SWAP2 POP POP PUSH1 0x20 DUP14 ADD MLOAD PUSH2 0x4C49 PUSH2 0x1C0 DUP6 ADD DUP3 PUSH1 0x1 PUSH1 0x1 PUSH1 0xA0 SHL SUB AND SWAP1 MSTORE JUMP JUMPDEST POP PUSH1 0x40 DUP14 ADD MLOAD PUSH1 0x1 PUSH1 0x1 PUSH1 0xA0 SHL SUB DUP2 AND PUSH2 0x1E0 DUP6 ADD MSTORE POP PUSH1 0x60 DUP14 ADD MLOAD PUSH5 0xFFFFFFFFFF DUP2 AND PUSH2 0x200 DUP6 ADD MSTORE POP PUSH1 0x80 DUP14 ADD MLOAD PUSH5 0xFFFFFFFFFF DUP2 AND PUSH2 0x220 DUP6 ADD MSTORE POP PUSH1 0xA0 DUP14 ADD MLOAD PUSH5 0xFFFFFFFFFF DUP2 AND PUSH2 0x240 DUP6 ADD MSTORE POP PUSH1 0xC0 DUP14 ADD MLOAD PUSH1 0x1 PUSH1 0x1 PUSH1 0x60 SHL SUB DUP2 AND PUSH2 0x260 DUP6 ADD MSTORE POP PUSH1 0xE0 DUP14 ADD MLOAD PUSH1 0x1 PUSH1 0x1 PUSH1 0x60 SHL SUB DUP2 AND PUSH2 0x280 DUP6 ADD MSTORE POP PUSH2 0x100 DUP14 ADD MLOAD PUSH2 0x2A0 DUP5 ADD MSTORE PUSH2 0x120 DUP14 ADD MLOAD PUSH2 0x2C0 DUP5 ADD MSTORE PUSH2 0x140 DUP1 DUP15 ADD MLOAD DUP1 ISZERO ISZERO PUSH2 0x2E0 DUP7 ADD MSTORE POP PUSH2 0x160 DUP15 DUP2 ADD MLOAD DUP1 MLOAD PUSH2 0x300 DUP8 ADD MSTORE PUSH1 0x20 DUP2 ADD MLOAD PUSH2 0x320 DUP8 ADD MSTORE POP DUP3 SWAP4 POP PUSH2 0x4D45 PUSH1 0x20 DUP7 ADD DUP16 DUP1 MLOAD ISZERO ISZERO DUP3 MSTORE PUSH1 0x20 DUP2 ADD MLOAD ISZERO ISZERO PUSH1 0x20 DUP4 ADD MSTORE PUSH1 0x40 DUP2 ADD MLOAD ISZERO ISZERO PUSH1 0x40 DUP4 ADD MSTORE PUSH1 0x60 DUP2 ADD MLOAD ISZERO ISZERO PUSH1 0x60 DUP4 ADD MSTORE POP POP JUMP JUMPDEST PUSH1 0x1 PUSH1 0x1 PUSH1 0xA0 SHL SUB DUP14 AND PUSH1 0xA0 DUP7 ADD MSTORE DUP12 PUSH1 0xC0 DUP7 ADD MSTORE DUP11 PUSH1 0xE0 DUP7 ADD MSTORE DUP10 PUSH2 0x100 DUP7 ADD MSTORE DUP9 PUSH2 0x120 DUP7 ADD MSTORE PUSH2 0x4D82 DUP3 DUP7 ADD DUP10 PUSH1 0x1 PUSH1 0x1 PUSH1 0x60 SHL SUB AND SWAP1 MSTORE JUMP JUMPDEST DUP7 DUP2 DUP7 ADD MSTORE POP POP POP DUP3 PUSH2 0x180 DUP4 ADD MSTORE SWAP12 SWAP11 POP POP POP POP POP POP POP POP POP POP POP JUMP JUMPDEST PUSH1 0x0 PUSH1 0x20 DUP3 DUP5 SUB SLT ISZERO PUSH2 0x4DB2 JUMPI PUSH1 0x0 DUP1 REVERT JUMPDEST POP CALLDATALOAD SWAP2 SWAP1 POP JUMP JUMPDEST PUSH1 0x20 DUP2 MSTORE PUSH1 0x0 PUSH2 0xAAA PUSH1 0x20 DUP4 ADD DUP5 PUSH2 0x4BE2 JUMP JUMPDEST PUSH1 0x20 DUP1 DUP3 MSTORE PUSH1 0x19 SWAP1 DUP3 ADD MSTORE PUSH32 0x44656C657465642F5363616D6D65642F43616E63656C6C656400000000000000 PUSH1 0x40 DUP3 ADD MSTORE PUSH1 0x60 ADD SWAP1 JUMP JUMPDEST PUSH4 0x4E487B71 PUSH1 0xE0 SHL PUSH1 0x0 MSTORE PUSH1 0x32 PUSH1 0x4 MSTORE PUSH1 0x24 PUSH1 0x0 REVERT JUMPDEST PUSH4 0x4E487B71 PUSH1 0xE0 SHL PUSH1 0x0 MSTORE PUSH1 0x11 PUSH1 0x4 MSTORE PUSH1 0x24 PUSH1 0x0 REVERT JUMPDEST PUSH1 0x0 PUSH1 0x0 NOT DUP3 EQ ISZERO PUSH2 0x4E43 JUMPI PUSH2 0x4E43 PUSH2 0x4E19 JUMP JUMPDEST POP PUSH1 0x1 ADD SWAP1 JUMP JUMPDEST PUSH1 0x0 DUP2 PUSH1 0x0 NOT DIV DUP4 GT DUP3 ISZERO ISZERO AND ISZERO PUSH2 0x4E64 JUMPI PUSH2 0x4E64 PUSH2 0x4E19 JUMP JUMPDEST POP MUL SWAP1 JUMP JUMPDEST PUSH1 0x0 DUP3 PUSH2 0x4E86 JUMPI PUSH4 0x4E487B71 PUSH1 0xE0 SHL PUSH1 0x0 MSTORE PUSH1 0x12 PUSH1 0x4 MSTORE PUSH1 0x24 PUSH1 0x0 REVERT JUMPDEST POP DIV SWAP1 JUMP JUMPDEST PUSH1 0x0 DUP3 NOT DUP3 GT ISZERO PUSH2 0x4E9E JUMPI PUSH2 0x4E9E PUSH2 0x4E19 JUMP JUMPDEST POP ADD SWAP1 JUMP JUMPDEST PUSH1 0x20 DUP1 DUP3 MSTORE PUSH1 0x17 SWAP1 DUP3 ADD MSTORE PUSH32 0x4E6F7420696E207375626D697373696F6E207068617365000000000000000000 PUSH1 0x40 DUP3 ADD MSTORE PUSH1 0x60 ADD SWAP1 JUMP JUMPDEST PUSH1 0x20 DUP1 DUP3 MSTORE PUSH1 0x12 SWAP1 DUP3 ADD MSTORE PUSH18 0x11195B195D1959081BDC8814D8D85B5B5959 PUSH1 0x72 SHL PUSH1 0x40 DUP3 ADD MSTORE PUSH1 0x60 ADD SWAP1 JUMP JUMPDEST PUSH1 0x0 PUSH1 0x20 DUP3 DUP5 SUB SLT ISZERO PUSH2 0x4F18 JUMPI PUSH1 0x0 DUP1 REVERT JUMPDEST PUSH2 0xAAA DUP3 PUSH2 0x46B4 JUMP JUMPDEST DUP1 CALLDATALOAD PUSH2 0xC34 DUP2 PUSH2 0x472D JUMP JUMPDEST PUSH1 0x0 PUSH1 0x20 DUP3 DUP5 SUB SLT ISZERO PUSH2 0x4F3E JUMPI PUSH1 0x0 DUP1 REVERT JUMPDEST POP MLOAD SWAP2 SWAP1 POP JUMP JUMPDEST PUSH1 0x0 PUSH1 0x20 DUP3 DUP5 SUB SLT ISZERO PUSH2 0x4F57 JUMPI PUSH1 0x0 DUP1 REVERT JUMPDEST PUSH2 0xAAA DUP3 PUSH2 0x486A JUMP JUMPDEST PUSH1 0x0 PUSH1 0x1 PUSH1 0x1 PUSH1 0x40 SHL SUB DUP1 DUP4 AND DUP2 DUP6 AND DUP1 DUP4 SUB DUP3 GT ISZERO PUSH2 0x4F82 JUMPI PUSH2 0x4F82 PUSH2 0x4E19 JUMP JUMPDEST ADD SWAP5 SWAP4 POP POP POP POP JUMP JUMPDEST DUP1 ISZERO ISZERO DUP2 EQ PUSH2 0xBC2 JUMPI PUSH1 0x0 DUP1 REVERT JUMPDEST DUP1 CALLDATALOAD PUSH2 0xC34 DUP2 PUSH2 0x4F8B JUMP JUMPDEST PUSH1 0x0 PUSH1 0x40 DUP3 DUP5 SUB SLT ISZERO PUSH2 0x4FB6 JUMPI PUSH1 0x0 DUP1 REVERT JUMPDEST PUSH1 0x40 MLOAD PUSH1 0x40 DUP2 ADD DUP2 DUP2 LT PUSH1 0x1 PUSH1 0x1 PUSH1 0x40 SHL SUB DUP3 GT OR ISZERO PUSH2 0x4FD8 JUMPI PUSH2 0x4FD8 PUSH2 0x456A JUMP JUMPDEST PUSH1 0x40 MSTORE DUP3 CALLDATALOAD DUP2 MSTORE PUSH1 0x20 SWAP3 DUP4 ADD CALLDATALOAD SWAP3 DUP2 ADD SWAP3 SWAP1 SWAP3 MSTORE POP SWAP2 SWAP1 POP JUMP JUMPDEST PUSH1 0x0 PUSH2 0x1A0 DUP3 CALLDATASIZE SUB SLT ISZERO PUSH2 0x5005 JUMPI PUSH1 0x0 DUP1 REVERT JUMPDEST PUSH2 0x500D PUSH2 0x4580 JUMP JUMPDEST DUP3 CALLDATALOAD PUSH1 0x1 PUSH1 0x1 PUSH1 0x40 SHL SUB DUP2 GT ISZERO PUSH2 0x5023 JUMPI PUSH1 0x0 DUP1 REVERT JUMPDEST PUSH2 0x502F CALLDATASIZE DUP3 DUP7 ADD PUSH2 0x49D7 JUMP JUMPDEST DUP3 MSTORE POP PUSH2 0x503E PUSH1 0x20 DUP5 ADD PUSH2 0x4F21 JUMP JUMPDEST PUSH1 0x20 DUP3 ADD MSTORE PUSH2 0x504F PUSH1 0x40 DUP5 ADD PUSH2 0x4F21 JUMP JUMPDEST PUSH1 0x40 DUP3 ADD MSTORE PUSH2 0x5060 PUSH1 0x60 DUP5 ADD PUSH2 0x486A JUMP JUMPDEST PUSH1 0x60 DUP3 ADD MSTORE PUSH2 0x5071 PUSH1 0x80 DUP5 ADD PUSH2 0x486A JUMP JUMPDEST PUSH1 0x80 DUP3 ADD MSTORE PUSH2 0x5082 PUSH1 0xA0 DUP5 ADD PUSH2 0x486A JUMP JUMPDEST PUSH1 0xA0 DUP3 ADD MSTORE PUSH2 0x5093 PUSH1 0xC0 DUP5 ADD PUSH2 0x46B4 JUMP JUMPDEST PUSH1 0xC0 DUP3 ADD MSTORE PUSH2 0x50A4 PUSH1 0xE0 DUP5 ADD PUSH2 0x46B4 JUMP JUMPDEST PUSH1 0xE0 DUP3 ADD MSTORE PUSH2 0x100 DUP4 DUP2 ADD CALLDATALOAD SWAP1 DUP3 ADD MSTORE PUSH2 0x120 DUP1 DUP5 ADD CALLDATALOAD SWAP1 DUP3 ADD MSTORE PUSH2 0x140 PUSH2 0x50CD DUP2 DUP6 ADD PUSH2 0x4F99 JUMP JUMPDEST SWAP1 DUP3 ADD MSTORE PUSH2 0x160 PUSH2 0x50E0 CALLDATASIZE DUP6 DUP4 ADD PUSH2 0x4FA4 JUMP JUMPDEST SWAP1 DUP3 ADD MSTORE SWAP3 SWAP2 POP POP JUMP JUMPDEST PUSH1 0x0 DUP1 DUP4 CALLDATALOAD PUSH1 0x1E NOT DUP5 CALLDATASIZE SUB ADD DUP2 SLT PUSH2 0x5101 JUMPI PUSH1 0x0 DUP1 REVERT JUMPDEST DUP4 ADD DUP1 CALLDATALOAD SWAP2 POP PUSH1 0x1 PUSH1 0x1 PUSH1 0x40 SHL SUB DUP3 GT ISZERO PUSH2 0x511B JUMPI PUSH1 0x0 DUP1 REVERT JUMPDEST PUSH1 0x20 ADD SWAP2 POP CALLDATASIZE DUP2 SWAP1 SUB DUP3 SGT ISZERO PUSH2 0x5130 JUMPI PUSH1 0x0 DUP1 REVERT JUMPDEST SWAP3 POP SWAP3 SWAP1 POP JUMP JUMPDEST PUSH2 0x100 DUP1 DUP3 MSTORE DUP2 ADD DUP10 SWAP1 MSTORE PUSH1 0x0 PUSH2 0x120 DUP11 DUP13 DUP3 DUP6 ADD CALLDATACOPY PUSH1 0x0 DUP4 DUP13 ADD DUP3 ADD MSTORE PUSH1 0x1 PUSH1 0x1 PUSH1 0xA0 SHL SUB SWAP10 DUP11 AND PUSH1 0x20 DUP5 ADD MSTORE SWAP8 SWAP1 SWAP9 AND PUSH1 0x40 DUP3 ADD MSTORE PUSH5 0xFFFFFFFFFF SWAP6 DUP7 AND PUSH1 0x60 DUP3 ADD MSTORE SWAP4 DUP6 AND PUSH1 0x80 DUP6 ADD MSTORE SWAP2 SWAP1 SWAP4 AND PUSH1 0xA0 DUP4 ADD MSTORE PUSH1 0x1 PUSH1 0x1 PUSH1 0x60 SHL SUB SWAP3 DUP4 AND PUSH1 0xC0 DUP4 ADD MSTORE SWAP1 SWAP2 AND PUSH1 0xE0 DUP3 ADD MSTORE PUSH1 0x1F SWAP1 SWAP4 ADD PUSH1 0x1F NOT AND SWAP1 SWAP3 ADD SWAP1 SWAP2 ADD SWAP3 SWAP2 POP POP JUMP JUMPDEST PUSH1 0x0 PUSH1 0x20 DUP3 DUP5 SUB SLT ISZERO PUSH2 0x51CC JUMPI PUSH1 0x0 DUP1 REVERT JUMPDEST DUP2 CALLDATALOAD PUSH2 0xAAA DUP2 PUSH2 0x4F8B JUMP JUMPDEST PUSH1 0x1 DUP2 DUP2 SHR SWAP1 DUP3 AND DUP1 PUSH2 0x51EB JUMPI PUSH1 0x7F DUP3 AND SWAP2 POP JUMPDEST PUSH1 0x20 DUP3 LT DUP2 EQ ISZERO PUSH2 0x520C JUMPI PUSH4 0x4E487B71 PUSH1 0xE0 SHL PUSH1 0x0 MSTORE PUSH1 0x22 PUSH1 0x4 MSTORE PUSH1 0x24 PUSH1 0x0 REVERT JUMPDEST POP SWAP2 SWAP1 POP JUMP JUMPDEST PUSH1 0x0 PUSH1 0x1 PUSH1 0x1 PUSH1 0x40 SHL SUB DUP4 DUP2 AND SWAP1 DUP4 AND DUP2 DUP2 LT ISZERO PUSH2 0x5232 JUMPI PUSH2 0x5232 PUSH2 0x4E19 JUMP JUMPDEST SUB SWAP4 SWAP3 POP POP POP JUMP JUMPDEST PUSH1 0x0 DUP3 DUP3 LT ISZERO PUSH2 0x524C JUMPI PUSH2 0x524C PUSH2 0x4E19 JUMP JUMPDEST POP SUB SWAP1 JUMP JUMPDEST PUSH1 0x20 DUP1 DUP3 MSTORE PUSH1 0x2B SWAP1 DUP3 ADD MSTORE PUSH32 0x496E697469616C697A61626C653A20636F6E7472616374206973206E6F742069 PUSH1 0x40 DUP3 ADD MSTORE PUSH11 0x6E697469616C697A696E67 PUSH1 0xA8 SHL PUSH1 0x60 DUP3 ADD MSTORE PUSH1 0x80 ADD SWAP1 JUMP JUMPDEST PUSH1 0x0 PUSH1 0x20 DUP3 DUP5 SUB SLT ISZERO PUSH2 0x52AE JUMPI PUSH1 0x0 DUP1 REVERT JUMPDEST DUP2 MLOAD PUSH2 0xAAA DUP2 PUSH2 0x4F8B JUMP JUMPDEST PUSH1 0x0 DUP3 MLOAD PUSH2 0x52CB DUP2 DUP5 PUSH1 0x20 DUP8 ADD PUSH2 0x4BB6 JUMP JUMPDEST SWAP2 SWAP1 SWAP2 ADD SWAP3 SWAP2 POP POP JUMP INVALID LOG2 PUSH5 0x6970667358 0x22 SLT KECCAK256 ADDMOD 0xD7 0xE1 0xC 0xD6 0x5C DUP10 CALLDATACOPY PUSH5 0x2A63FD046 SELFDESTRUCT 0xB4 0xB3 PUSH18 0x8336D36196E02C454E1049CE3A4964736F6C PUSH4 0x43000809 STOP CALLER "},"methodIdentifiers":{"FEE_DENOMINATOR()":"d73792a9","cancelSellOrders(uint64,bytes32[])":"0a49a186","checkUserId(address)":"ca648ff5","claimFromParticipantOrder(uint64,bytes32[])":"e4c73fc1","containsOrder(uint64,bytes32)":"5ebc7f12","deletPool(uint64)":"d8a9f29e","feeNumerator()":"e86dea4a","feeReceiverUserId()":"5cefb291","getCurrentPoolPrice(uint256)":"cadd147c","getEncodedOrder(uint64,uint96,uint96)":"291ab528","getFormHash(uint64)":"eaf5aa58","getSecondsRemainingInBatch(uint64)":"c5a36d54","getUserId(address)":"2b956ff7","initialize()":"8129fc1c","initiatePool((string,address,address,uint40,uint40,uint40,uint96,uint96,uint256,uint256,bool,(uint256,uint256)))":"7f513cb8","markCancel(uint64)":"2a6b405f","markSpam(uint64)":"ae98df16","numUsers()":"19a50f49","owner()":"8da5cb5b","placeSellOrders(uint64,bytes32[],uint96[],uint96[],bytes32[])":"9607fd9f","placeSellOrdersOnBehalf(uint64,uint96[],uint96[],bytes32[],address)":"11221c1e","poolCounter()":"9e3079cb","poolData(uint64)":"ad8ae9fc","precalculateSellAmountSum(uint64,uint256)":"30433843","refundOrder(uint64,bytes32)":"7273c6ba","registerUser(address)":"2199d5cd","renounceOwnership()":"715018a6","setFeeParameters(uint256,address)":"40b20b09","settlePool(uint64)":"3a62500c","settlePoolAtomically(uint64,uint96[],uint96[],bytes32[])":"3bb6b279","transferOwnership(address)":"f2fde38b","updatePoolAdmin(uint64,uint40,uint40,uint40,uint256,uint256)":"2e1772e4","updatePoolUser(uint64,string)":"465ce9a9"}},"storageLayout":{"storage":[{"astId":138,"contract":"contracts/MutoPool.sol:MutoPool","label":"_initialized","offset":0,"slot":"0","type":"t_uint8"},{"astId":141,"contract":"contracts/MutoPool.sol:MutoPool","label":"_initializing","offset":1,"slot":"0","type":"t_bool"},{"astId":1020,"contract":"contracts/MutoPool.sol:MutoPool","label":"__gap","offset":0,"slot":"1","type":"t_array(t_uint256)50_storage"},{"astId":10,"contract":"contracts/MutoPool.sol:MutoPool","label":"_owner","offset":0,"slot":"51","type":"t_address"},{"astId":130,"contract":"contracts/MutoPool.sol:MutoPool","label":"__gap","offset":0,"slot":"52","type":"t_array(t_uint256)49_storage"},{"astId":2262,"contract":"contracts/MutoPool.sol:MutoPool","label":"poolData","offset":0,"slot":"101","type":"t_mapping(t_uint64,t_struct(PoolData)2222_storage)"},{"astId":2267,"contract":"contracts/MutoPool.sol:MutoPool","label":"sellOrders","offset":0,"slot":"102","type":"t_mapping(t_uint256,t_struct(Data)4770_storage)"},{"astId":2269,"contract":"contracts/MutoPool.sol:MutoPool","label":"numUsers","offset":0,"slot":"103","type":"t_uint64"},{"astId":2271,"contract":"contracts/MutoPool.sol:MutoPool","label":"poolCounter","offset":8,"slot":"103","type":"t_uint64"},{"astId":2274,"contract":"contracts/MutoPool.sol:MutoPool","label":"registeredUsers","offset":0,"slot":"104","type":"t_struct(Data)4571_storage"},{"astId":2276,"contract":"contracts/MutoPool.sol:MutoPool","label":"feeReceiverUserId","offset":0,"slot":"106","type":"t_uint64"},{"astId":2278,"contract":"contracts/MutoPool.sol:MutoPool","label":"feeNumerator","offset":0,"slot":"107","type":"t_uint256"}],"types":{"t_address":{"encoding":"inplace","label":"address","numberOfBytes":"20"},"t_array(t_uint256)49_storage":{"base":"t_uint256","encoding":"inplace","label":"uint256[49]","numberOfBytes":"1568"},"t_array(t_uint256)50_storage":{"base":"t_uint256","encoding":"inplace","label":"uint256[50]","numberOfBytes":"1600"},"t_bool":{"encoding":"inplace","label":"bool","numberOfBytes":"1"},"t_bytes32":{"encoding":"inplace","label":"bytes32","numberOfBytes":"32"},"t_contract(IERC20Upgradeable)378":{"encoding":"inplace","label":"contract IERC20Upgradeable","numberOfBytes":"20"},"t_mapping(t_address,t_uint64)":{"encoding":"mapping","key":"t_address","label":"mapping(address => uint64)","numberOfBytes":"32","value":"t_uint64"},"t_mapping(t_bytes32,t_bytes32)":{"encoding":"mapping","key":"t_bytes32","label":"mapping(bytes32 => bytes32)","numberOfBytes":"32","value":"t_bytes32"},"t_mapping(t_uint256,t_struct(Data)4770_storage)":{"encoding":"mapping","key":"t_uint256","label":"mapping(uint256 => struct IterableOrderedOrderSet.Data)","numberOfBytes":"32","value":"t_struct(Data)4770_storage"},"t_mapping(t_uint64,t_address)":{"encoding":"mapping","key":"t_uint64","label":"mapping(uint64 => address)","numberOfBytes":"32","value":"t_address"},"t_mapping(t_uint64,t_struct(PoolData)2222_storage)":{"encoding":"mapping","key":"t_uint64","label":"mapping(uint64 => struct PoolData)","numberOfBytes":"32","value":"t_struct(PoolData)2222_storage"},"t_string_storage":{"encoding":"bytes","label":"string","numberOfBytes":"32"},"t_struct(Data)4571_storage":{"encoding":"inplace","label":"struct IdToAddressBiMap.Data","members":[{"astId":4566,"contract":"contracts/MutoPool.sol:MutoPool","label":"idToAddress","offset":0,"slot":"0","type":"t_mapping(t_uint64,t_address)"},{"astId":4570,"contract":"contracts/MutoPool.sol:MutoPool","label":"addressToId","offset":0,"slot":"1","type":"t_mapping(t_address,t_uint64)"}],"numberOfBytes":"64"},"t_struct(Data)4770_storage":{"encoding":"inplace","label":"struct IterableOrderedOrderSet.Data","members":[{"astId":4765,"contract":"contracts/MutoPool.sol:MutoPool","label":"nextMap","offset":0,"slot":"0","type":"t_mapping(t_bytes32,t_bytes32)"},{"astId":4769,"contract":"contracts/MutoPool.sol:MutoPool","label":"prevMap","offset":0,"slot":"1","type":"t_mapping(t_bytes32,t_bytes32)"}],"numberOfBytes":"64"},"t_struct(Decimals)2162_storage":{"encoding":"inplace","label":"struct Decimals","members":[{"astId":2159,"contract":"contracts/MutoPool.sol:MutoPool","label":"tokenADecimal","offset":0,"slot":"0","type":"t_uint256"},{"astId":2161,"contract":"contracts/MutoPool.sol:MutoPool","label":"tokenBDecimal","offset":0,"slot":"1","type":"t_uint256"}],"numberOfBytes":"64"},"t_struct(InitialPoolData)2190_storage":{"encoding":"inplace","label":"struct InitialPoolData","members":[{"astId":2164,"contract":"contracts/MutoPool.sol:MutoPool","label":"formHash","offset":0,"slot":"0","type":"t_string_storage"},{"astId":2167,"contract":"contracts/MutoPool.sol:MutoPool","label":"poolingToken","offset":0,"slot":"1","type":"t_contract(IERC20Upgradeable)378"},{"astId":2170,"contract":"contracts/MutoPool.sol:MutoPool","label":"biddingToken","offset":0,"slot":"2","type":"t_contract(IERC20Upgradeable)378"},{"astId":2172,"contract":"contracts/MutoPool.sol:MutoPool","label":"orderCancellationEndDate","offset":20,"slot":"2","type":"t_uint40"},{"astId":2174,"contract":"contracts/MutoPool.sol:MutoPool","label":"poolStartDate","offset":25,"slot":"2","type":"t_uint40"},{"astId":2176,"contract":"contracts/MutoPool.sol:MutoPool","label":"poolEndDate","offset":0,"slot":"3","type":"t_uint40"},{"astId":2178,"contract":"contracts/MutoPool.sol:MutoPool","label":"pooledSellAmount","offset":5,"slot":"3","type":"t_uint96"},{"astId":2180,"contract":"contracts/MutoPool.sol:MutoPool","label":"minBuyAmount","offset":17,"slot":"3","type":"t_uint96"},{"astId":2182,"contract":"contracts/MutoPool.sol:MutoPool","label":"minimumBiddingAmountPerOrder","offset":0,"slot":"4","type":"t_uint256"},{"astId":2184,"contract":"contracts/MutoPool.sol:MutoPool","label":"minFundingThreshold","offset":0,"slot":"5","type":"t_uint256"},{"astId":2186,"contract":"contracts/MutoPool.sol:MutoPool","label":"isAtomicClosureAllowed","offset":0,"slot":"6","type":"t_bool"},{"astId":2189,"contract":"contracts/MutoPool.sol:MutoPool","label":"tokenDecimals","offset":0,"slot":"7","type":"t_struct(Decimals)2162_storage"}],"numberOfBytes":"288"},"t_struct(PoolData)2222_storage":{"encoding":"inplace","label":"struct PoolData","members":[{"astId":2202,"contract":"contracts/MutoPool.sol:MutoPool","label":"initData","offset":0,"slot":"0","type":"t_struct(InitialPoolData)2190_storage"},{"astId":2205,"contract":"contracts/MutoPool.sol:MutoPool","label":"statusData","offset":0,"slot":"9","type":"t_struct(StatusData)2199_storage"},{"astId":2207,"contract":"contracts/MutoPool.sol:MutoPool","label":"poolOwner","offset":0,"slot":"10","type":"t_address"},{"astId":2209,"contract":"contracts/MutoPool.sol:MutoPool","label":"initialPoolOrder","offset":0,"slot":"11","type":"t_bytes32"},{"astId":2211,"contract":"contracts/MutoPool.sol:MutoPool","label":"interimSumBidAmount","offset":0,"slot":"12","type":"t_uint256"},{"astId":2213,"contract":"contracts/MutoPool.sol:MutoPool","label":"interimOrder","offset":0,"slot":"13","type":"t_bytes32"},{"astId":2215,"contract":"contracts/MutoPool.sol:MutoPool","label":"clearingPriceOrder","offset":0,"slot":"14","type":"t_bytes32"},{"astId":2217,"contract":"contracts/MutoPool.sol:MutoPool","label":"volumeClearingPriceOrder","offset":0,"slot":"15","type":"t_uint96"},{"astId":2219,"contract":"contracts/MutoPool.sol:MutoPool","label":"feeNumerator","offset":0,"slot":"16","type":"t_uint256"},{"astId":2221,"contract":"contracts/MutoPool.sol:MutoPool","label":"merkleRoot","offset":0,"slot":"17","type":"t_bytes32"}],"numberOfBytes":"576"},"t_struct(StatusData)2199_storage":{"encoding":"inplace","label":"struct StatusData","members":[{"astId":2192,"contract":"contracts/MutoPool.sol:MutoPool","label":"isScam","offset":0,"slot":"0","type":"t_bool"},{"astId":2194,"contract":"contracts/MutoPool.sol:MutoPool","label":"isDeleted","offset":1,"slot":"0","type":"t_bool"},{"astId":2196,"contract":"contracts/MutoPool.sol:MutoPool","label":"isCancelled","offset":2,"slot":"0","type":"t_bool"},{"astId":2198,"contract":"contracts/MutoPool.sol:MutoPool","label":"minFundingThresholdNotReached","offset":3,"slot":"0","type":"t_bool"}],"numberOfBytes":"32"},"t_uint256":{"encoding":"inplace","label":"uint256","numberOfBytes":"32"},"t_uint40":{"encoding":"inplace","label":"uint40","numberOfBytes":"5"},"t_uint64":{"encoding":"inplace","label":"uint64","numberOfBytes":"8"},"t_uint8":{"encoding":"inplace","label":"uint8","numberOfBytes":"1"},"t_uint96":{"encoding":"inplace","label":"uint96","numberOfBytes":"12"}}}}}}